:020000040800F2
:100000004061002081020008F3430008453C0008DD
:10001000F1430008CD0B000801510008000000006A
:10002000000000000000000000000000C101000806
:1000300029110008000000001D020008994800086E
:100040009B0200089B0200089B0200089B0200081C
:100050009B0200089B0200089B0200089B0200080C
:100060009B0200089B0200089B0200089B020008FC
:100070009B0200089B0200089B0200089B020008EC
:100080003D100008491000089B020008BD0C000844
:10009000B10C00089B0200089B0200089B020008AC
:1000A0009B0200089B0200089B0200089B020008BC
:1000B0009B0200089B0200089B0200089B020008AC
:1000C0009B0200089B0200089B0200089B0200089C
:1000D0009B0200080D500008255000089B020008F4
:1000E0009B0200089B0200089B0200089B0200087C
:1000F0009B0200089B0200089B0200089B0200086C
:100100009B0200089B0200089B0200089B0200085B
:100110009B0200089B020008814900088D490008E5
:1001200055100008611000086D1000089B020008BF
:100130009B0200089B0200089B020008D50C0008E7
:10014000C90C00089B0200089B0200089B020008E3
:100150009B020008791000089B020008B9500008B3
:100160009B0200089B0200089B0200089B020008FB
:100170009B0200089B0200089B0200080000000090
:100180009B0200089B0200089B0200089B020008DB
:100190009B0200089B0200089B0200089B020008CB
:1001A00000000000000000009B020008DFF80CD0F7
:1001B00000F000FC00480047C97E000840610020B4
:1001C0002C4B19680868B0E8F04F80F30988BFF33A
:1001D0006F8F4FF0000080F311887047000000001F
:1001E00008480068006880F308884FF0000080F33A
:1001F000148862B661B6BFF34F8FBFF36F8F00DF15
:1002000000BF00BF08ED00E0DFF80C00016841F41A
:1002100070010160704700BF88ED00E0EFF30980D6
:10022000BFF36F8F134B1A681EF0100F08BF20ED3D
:10023000108A20E9F04F106009B44FF0500080F3AD
:100240001188BFF34F8FBFF36F8F08F0F7FF4FF0A8
:10025000000080F3118809BC19680868B0E8F04F05
:100260001EF0100F08BFB0EC108A80F30988BFF3AE
:100270006F8F7047BC000020EFF3058070470000CF
:100280000648804706480047FEE7FEE7FEE7FEE730
:10029000FEE7FEE7FEE7FEE7FEE7FEE7654900084A
:1002A000AD0100082DE9F05F0546002092469B460F
:1002B00088460646814640241BE02846414647467C
:1002C000224600F058FA53465A46C01A914110D3BC
:1002D00011461846224600F03FFA2D1A67EB010836
:1002E0004F4622460120002100F036FA17EB0009A4
:1002F0004E41201EA4F10104DFDC484631462A4667
:100300004346BDE8F09F40EA01039B0703D009E0A4
:1003100008C9121F08C0042AFAD203E011F8013BF1
:1003200000F8013B521EF9D27047D2B201E000F84A
:10033000012B491EFBD270470022F6E710B5134689
:100340000A4604461946FFF7F0FF204610BD2DE986
:10035000FE4F804681EA0300C00F0C46009021F05A
:10036000004123F00045B8EB0200A94105D2404608
:10037000214690461C460B46024623F0004010439F
:1003800047D0270DC7F30A00C3F30A510290401A61
:10039000019040286BDAC3F3130040F4801B0098EF
:1003A000924620B10023D2EB030A63EB0B0B0198BA
:1003B0005946C0F14002504600F0CEF906460D46BF
:1003C00050465946019A00F0E6F910EB08006141E9
:1003D000002487EA115284EAE7731A4340D0009A56
:1003E00062B3019A012A4FEA075215DC001B61EB48
:1003F00002014FF0004202EA0752CDE90042001C20
:1004000041F5801132462B4600F01DFA03B0BDE8DD
:10041000F08F40462146F9E7001B61EB0201001C0A
:1004200041F5801300185B412018A2F5001747EB37
:10043000030140EAD570B6196D4111E06D084FEA2D
:10044000360645EAC0754FEA0752001B61EB020110
:10045000001C41F5801149084FEA30000019514154
:1004600032462B4603B0BDE8F04F00F0DDB90098EE
:10047000012240000023D0EB020263EBE0730098FE
:1004800021464FEAE074B8EB000061EB0401E9E7B4
:1004900083F000435BE781F0004158E72DE9FE4F10
:1004A00081EA030404F0004421F0004100944FF07D
:1004B000000B23F0004350EA01045ED052EA03042B
:1004C0005BD0C3F30A54C1F30A552C44A4F2F334AD
:1004D0000194A0FB0254C1F3130141F48011C3F352
:1004E000130343F4801301FB024400FB034E840A10
:1004F000970A44EA815447EA8357A4FB07680295A8
:100500008D0A05FB07854FEA932C04FB0C54270545
:10051000029D4FEA065847EA1637B5EB08056EEB21
:10052000070C870E920E47EA811742EA8312A7FB57
:100530000201B6EB0B0164EB00042B0D43EA0C3314
:100540005E1844EB1C50DA465146E7FB0201C5F346
:1005500013044FEA0B3343EA14534FEA0432019C6D
:1005600043EA0603A4F10C040294009CCDE900B414
:1005700000F069F903B0BDE8F08F00200146F9E70B
:100580002DE9F04D81EA030404F0004B21F0004511
:1005900014464FF0000A23F0004150EA050220D033
:1005A00054EA01021DD0C5F30A570246C5F31303EE
:1005B000C1F31300C1F30A5640F4801543F48013CD
:1005C000A7EB0608101BD64608F2FD3873EB0500B2
:1005D00002D308F1010801E092185B41B8F1000F65
:1005E00003DA00200146BDE8F08D00204FF48011B1
:1005F000064684460EE0171B73EB050705D3121B56
:1006000063EB050306434CEA010C49084FEA30004E
:1006100092185B4150EA0107EDD152EA030012D073
:1006200082EA040083EA0501084305D0101BAB41B0
:1006300006D20122002306E000224FF0004302E030
:100640006FF0010253101AEB06004CEB085110EB4F
:100650000A0041EB0B01BDE8F04D00F0E5B80EB526
:10066000C10F80EAE0700844CA07002140F233431A
:100670008DE80E000A460B4600F0E5F803B000BD19
:100680000EB540F2334102910021CDE900110A4636
:100690000B4600F0D8F803B000BD00F0004230F087
:1006A00000400AD0C10D01F56071C0F3160042EAA6
:1006B0000151C208400711437047002001467047AE
:1006C00030B5041E71F1000404DB4FF000444042D9
:1006D00064EB0101141E73F1000405DB1C464FF0AE
:1006E0000043524263EB04038B4208BF824230BD99
:1006F00030B5041E71F1000404DB4FF000444042A9
:1007000064EB0101141E73F1000405DB1C464FF07D
:100710000043524263EB0403994208BF904230BD4C
:1007200001F0004330B421F0004150EA010206D04C
:100730000A0DA2F56072C1F31301002A02DC30BC7D
:1007400000207047440F44EAC104C100E01830BCE7
:1007500000EBC25000F031B8202A04DB203A00FA46
:1007600002F1002070479140C2F1200320FA03F308
:10077000194390407047202A04DB203A21FA02F006
:100780000021704721FA02F3D040C2F120029140CB
:10079000084319467047202A06DBCB17203A41FA56
:1007A00002F043EAE07306E041FA02F3D040C2F1FE
:1007B000200291400843194670470029A8BF70479E
:1007C000401C490008BF20F00100704710B4B0FA87
:1007D00080FC00FA0CF050EA010404BF10BC704722
:1007E00049B1CCF1200421FA04F411FA0CF118BF3C
:1007F000012121430843A3EB0C01CB1D4FEA00610B
:100800004FEA102042BF002010BC704700EBC350DD
:1008100010440029A4BF10BC7047401C490008BF09
:1008200020F0010010BC704710B5141E73F10004D5
:1008300008DA401C41F1000192185B411A4301D1D2
:1008400020F0010010BD2DE9F04D92469B4611B1FC
:10085000B1FA81F202E0B0FA80F220329046FFF75E
:100860007BFF04460F4640EA0A0041EA0B0153466B
:100870005A46084313D0114653EA010019D0C8F173
:1008800040025046FFF777FF05460E465046594650
:100890004246FFF761FF084305D0012004E02046EF
:1008A0003946BDE8F08D0020054346EAE0762C434A
:1008B00037430A986305E40AA0EB08000022FD0A0A
:1008C00044EA47540A3002D500200146E9E7010511
:1008D00010196941DDE9084500196941BDE8F04D8D
:1008E000A2E770B521F0004303430CD0C1F30A55D1
:1008F0000024D5EB040564EB0403D617AD1AB3410D
:1009000002DB0020014670BD201841EB025170BD92
:100910002DE9F04D00231A461B1A8A4103DB002003
:100920000146BDE8F08DC1F30A52C1F3130141F451
:1009300080154FF0000BD10702D100186D41521EF7
:100940000027044640F2FF11384601EB620A3E469A
:100950008046024600204FF48011FFF70CFFC219B9
:100960007141BB1846EB0100B4EB030C75EB000CB6
:1009700004D3E41A65EB000517460E46241908F166
:1009800001006D4180463428E3DDF91946EB06008D
:10099000091BA84103D24FF0FF32134601E00022A9
:1009A00013461BEB070046EB0A51BDE8F04DFFF77D
:1009B0003BBF0000064C074D06E0E06840F0010335
:1009C00094E8070098471034AC42F6D3FFF7F2FBE7
:1009D000489900086899000870B5C1F30A5201F0FF
:1009E00000450024C1F3130140F2FF3341F48011AC
:1009F0009A4201DA002070BD40F233439A42A2F2DB
:100A0000334203DC5242FFF7B6FE00E090402C4335
:100A1000F1D0404270BD10B50146806B026C12F0FF
:100A2000500F05D0026CD20626D500F035FC10BD63
:100A3000016C41F40071016401688A6812F0405F42
:100A400017D1027EAAB9CA6A12F4700F02D08A685E
:100A500052050ED44A6822F020024A60016C21F44B
:100A600080710164016CC90403D4016C41F001017F
:100A7000016400F00FFC10BD806BC26CBDE810403B
:100A80000846104710B5806B40210164416C41F06D
:100A90000401416400F000FC10BD10B5806B00F053
:100AA000FAFB10BD464910B54A6822F440324A604C
:100AB0004A6843681A434A6001684A6822F48072AF
:100AC0004A6001684A68036942EA03224A60016891
:100AD0004A6822F040724A6001684A6883681A4393
:100AE0004A6001688A6822F400628A6001688A6844
:100AF000C3681A438A60816A6FF07062D1420168EC
:100B00008A6822F070628A6001688A680CD0836A01
:100B10001A438A6001688A6822F040528A6001683C
:100B20008A68C36A1A4301E022F040528A60016871
:100B30008A6822F002028A6001688A68037E42EABB
:100B400043028A6090F82010002901684A680FD09B
:100B500042F400624A6001684A6822F460424A60D6
:100B600001684A68174C436A04EB43331A4301E0B7
:100B700022F400624A600168CA6A22F47002CA6202
:100B80000168CA6A838B104C04EB03531A43CA6290
:100B900001688A6822F400728A6001688A6890F8A5
:100BA000303042EA43228A6001688A6822F4806217
:100BB0008A6001688A68406942EA8020886010BDC6
:100BC0000023014000E0FFFF0000F0FFFEE700000F
:100BD0002DE9F0472A4D00242DED068B4FF4FA66DF
:100BE00044F6206842F210799FED268ADFED268ACE
:100BF0009FED269ADFED269A9FED26AAC4EBC4004E
:100C0000C0EB841005EB8007381DB0EE481AF0EEFB
:100C1000680AB0EE490A33464246032103F0EAFB74
:100C200007F17000B0EE691AF6EE000AB0EE4A0A5B
:100C300033464A46032103F0DDFB641C082CDDDB50
:100C400040F6C4139FED141ADFED140A9FED140A49
:100C5000444642460321134803F0CCFBF0EE680AF9
:100C6000BDEC068B334622460321BDE8F0470D4814
:100C70009FED0D1A9FED0D0A6C3003F0BBBB000019
:100C800024180020CDCC4C406F12833ACDCCCC3D03
:100C9000B81E053FCDCCCC3ECDCCA041CDCC4C3FF9
:100CA0000010FA44441F00209A99B940008018436C
:100CB000014800F09CBD0000980E0020014800F0A3
:100CC00096BD0000980E0020014800F090BD000085
:100CD000C00E0020014800F08ABD0000C00E0020B8
:100CE0002DE9F0412DED040B2DED108B8AB09DED1B
:100CF0001C0A10EE100AFFF7D0FC00EE100A21F0DB
:100D0000004210EE101A42EC101B9FEDA21B51EC9A
:100D1000100B53EC112BFFF7D3FC03D29FED9F0A6E
:100D20008DED1C0A18216846FFF706FB9C4890EDE4
:100D3000000A9C48D0ED000A70EE60FA9FED9AFA26
:100D40009A4800240DF1180807C89FED99CB9FED34
:100D50009ADB9FED9BEB88E807009DED1C0A6E4631
:100D6000B1EE400A8DED090A9FED97BB9DED1A0A81
:100D700010EE100AFFF791FC08EB840741EC1A0B08
:100D800097ED000A70EE2F0A80EE8F0A10EE100A1F
:100D9000FFF783FC41EC100B04F0F2FDB0EE409A3B
:100DA000F0EE609AB0EE4C0AF0EE6C0A05F0D8FC5A
:100DB000B0EE408A9DED1C0AF0EE608A10EE100A3B
:100DC000FFF76BFC53EC1D2BFFF768FB53EC1E2B5E
:100DD000FFF764FB53EC1B2BFFF760FB53EC182B66
:100DE000FFF75CFB53EC1C2BFFF7CAFB53EC192BF2
:100DF000FFF754FB53EC1A2BFFF7A9FAFFF790FC0F
:100E000006EBC40528609DED1B0A10EE100AFFF7E3
:100E100044FC97ED000A41EC1A0B70EE2F0A80EEAD
:100E20008F0A10EE100AFFF738FC41EC100B05F0AA
:100E300033FCB0EE409AF0EE609AB0EE4C0AF0EE61
:100E40006C0A05F08DFCB0EE408A9DED090AF0EECB
:100E5000608A10EE100AFFF720FC53EC1D2BFFF701
:100E60001DFB53EC1E2BFFF719FB53EC1B2BFFF75D
:100E700015FB53EC182BFFF711FB53EC1C2BFFF762
:100E80007FFB53EC192BFFF709FB53EC1A2BFFF7F1
:100E90005EFAFFF745FC641C6860032CFFF666AF42
:100EA000DFF82C8100249FED4BCB9FED4CDB9FEDB9
:100EB0004DEB1FEE900AFFF7F0FB41EC1A0B1FEE13
:100EC000100AFFF7EAFB06EBC40541EC190B686852
:100ED000FFF7E3FB41EC180B2868FFF7DEFB41EC62
:100EE000100BB0EE481AF0EE681A04F051FC53EC07
:100EF000192B51EC100BFFF7D1FA53EC1A2BFFF71B
:100F0000C7FAFFF70DFC00EE100A08EBC40787EDE7
:100F1000070A6868FFF7C1FB41EC100BB0EE4B1AF3
:100F2000F0EE6B1A04F09CFDB0EE408AF0EE608AA1
:100F30002868FFF7B2FB41EC100BB0EE4B1AF0EE55
:100F40006B1A04F08DFD53EC182B51EC100BFFF7CE
:100F5000FEF941EC100B05F003FC53EC1C2B51EC9B
:100F6000100BFFF79BFA53EC1D2BFFF797FA53EC8E
:100F70001E2BFFF705FBFFF7D3FB00EE100A641CE6
:100F800087ED060A032C94DB0AB0BDEC108BBDE89C
:100F9000FF8100009A9999999999B93F0000000042
:100FA0004C0000201C000020E12E6542E89500085E
:100FB000000000000000084076711B0DE02DE83FA6
:100FC000000000000000E03F0000000000000040C2
:100FD000780800200000000000004E4000000000E3
:100FE0000000334000000040E17AD43FF0B587B004
:100FF000074600240C9E204649B10421CDE9012179
:10100000CDE903038DF814004FF6FE7506E000925B
:101010000290F5E7641CA4B2AC420CD8384600F04C
:10102000D0FB0028F6D006AB32466946384600F0C1
:1010300069FA002800D0012007B0F0BD014800F097
:1010400017BF0000D0110020014800F011BF0000C0
:1010500030120020014800F00BBF0000380E0020C5
:10106000014800F005BF000090120020014800F088
:10107000FFBE000070110020014800F0F9BE000022
:10108000F012002001681823CAB2103AB2FBF3F242
:10109000054B6FF30901032A9B5CC36500D9091D49
:1010A00081650846704700007896000810B5014633
:1010B00000208B698A6A4FF0C07453B1B3F5005FAA
:1010C00015D072B1012A0CD0022A0AD0032A09D104
:1010D00004E01AB1012A06D0022A03D1C96AC90163
:1010E00000D5012010BDC96AA142FAD010BD002A66
:1010F000F7D0012AF2D0022AF3D0032AF3D010BD90
:1011000030B50468256825F480252560046863608F
:101110008368402B036803D099600068C26030BDCB
:101120009A600068C16030BD704772B6FEE700008B
:1011300078B50024009490F83C20012A19D00122AF
:1011400080F83C200A6807250368092A13D9DE685D
:101150000A3A02EB42029540AE43DE600A788B68A1
:101160000A3A02EB420293400268D5682B43D360EF
:1011700010E0022078BD1E6902EB42029540AE43AA
:101180001E610A788B6802EB42029340026815697F
:101190002B4313614A681F25072A13D203685E6B2D
:1011A000521E02EB82029540AE435E630A8893B200
:1011B0000A79521E02EB820293400268556B2B4360
:1011C000536327E003680D2A12D21E6BD21F02EB75
:1011D00082029540AE431E630A8893B20A79D21FF9
:1011E00002EB820293400268156B2B43136311E0FC
:1011F000DE6A0D3A02EB82029540AE43DE620A8857
:1012000093B20A790D3A02EB820293400268D56AE2
:101210002B43D3621B4B0568194A9D420AD10D68C6
:10122000122D07D1556825F400055560556845F421
:101230008005556005689D421DD1134D0B68AB427A
:1012400001D0112B17D1536823F4800353605368E6
:1012500043F4000353600968A9420CD10B490C4ABE
:101260000968B1FBF2F101EB8101490000E0491E80
:1012700000910029FBD180F83C40002078BD00009F
:101280000023014000200140120000100000002057
:1012900040420F0070477047704770B504004FF030
:1012A000000603D0206C002510B107E0012070BDBE
:1012B000204600F01DF8656484F83C50206CC006A0
:1012C00010D4206C20F4885040F0020020642046A6
:1012D000FFF7E8FB6564206C20F0020040F001009D
:1012E000206400E0012684F83C50304670BD0000C8
:1012F00070B586B0064614216846FFF71DF81E49F2
:101300003068884235D11D480025016841F480715C
:101310000160006800F48070059018481438016876
:1013200041F0040101600068694600F00400059086
:101330003F2000900320CDE90105114800F03EFF59
:10134000114C1048C4E900050015A560C4E903501C
:10135000800060618000A0618011E0610002C4E94A
:101360000805204600F054FE08B1FFF7DEFEB46326
:10137000A66306B070BD0000002001404438024062
:101380000008024010640240380E0020F8B5002327
:101390000446009390F83C00012807D0012084F80F
:1013A0003C0020688568ED0702D011E00220F8BDFE
:1013B000856845F0010585604048414D0068B0FBF7
:1013C000F5F000EB400000E0401E00900028FBD14B
:1013D00020688568ED0503D5856825F480758560EE
:1013E00020688568ED075FD0256C40F20166B54343
:1013F00045F4807525644068400505D5206C20F4CF
:10140000005040F480502064206CC00404D5606C0F
:1014100020F00600606400E0636484F83C30A36B55
:101420002948284DD863A36B28481864A36B284823
:10143000D86423686FF0220018602068436843F086
:10144000806343602068836843F48073836013463D
:1014500020680A46A66B00F14C01304600F065FE9C
:1014600068681C49C006206806D0884224D181687B
:1014700011F0405F13D01FE08842F8D0164A904226
:1014800003D1D1F80423D206F1D0144A904213D1EB
:10149000D1F8041301F01F011029E8D30CE0816892
:1014A00041F08041816007E0206C40F01000206432
:1014B000606C40F0010060640020F8BD0000002076
:1014C00040420F0000230140170A00089B0A000851
:1014D000850A00080020014000210140002201404F
:1014E00090F82020012A07D0022A05D0416A41F451
:1014F0008021416201207047006842690A434261CD
:1015000000207047F0B590F820500468A468012DC1
:1015100005D0022D03D0416A41F4802153E014F03C
:10152000406F01D1E5004BD5C4F30164022C03D90F
:10153000416A41F4000146E00125A5401D608B6829
:101540004FF4C0759BB1CE6833434E6843EAC6037F
:10155000066805EB0417F3514FF4C273076803EBF9
:1015600004130E69FE50097D012905D009E00E889B
:10157000CB6843EA4653EBE70168CE5846F48076E1
:10158000CE501179D2F805304FF4C67641EA0323E4
:10159000016806EB04168B511178D2F801204FF444
:1015A000C47341EA0221026803EB0413D1500068BE
:1015B00005EB0411425842F0010242500020F0BDF8
:1015C000416A41F4001141620120F0BD10B590F86C
:1015D0002020012A07D0022A05D0416A41F4802147
:1015E0004162012010BD3B48D0F8002242F00102C8
:1015F000C0F80022D0F8002222F47C52C0F8002269
:10160000D0F800224B6A42EA0322C0F800220A7D89
:1016100002F01F0301229A40D0F81C329343C0F815
:101620001C32CB69B3B9D0F80C329343C0F80C32FA
:101630008C894B6864F31F434C6900EBC404C4F805
:1016400040320C890B6864F31F434C6900EBC404FF
:10165000C4F84432CB69012B16D1D0F80C321343B5
:10166000C0F80C320C884B6864F31F434C6900EBE4
:10167000C404C4F840320C89CB6864F31F434C693E
:1016800000EBC404C4F844328B69002BD0F8043258
:101690000ED01343C0F804320B69002BD0F814327B
:1016A00008D01343C0F81432096A012904D008E0B5
:1016B0009343EFE79343F5E7D0F81C121143C0F8CA
:1016C0001C12D0F8001221F00101C0F80012002015
:1016D00010BD000000640040704730B590F8204015
:1016E000012C05D0022C03D0416A41F480215DE039
:1016F0000468002955D02469A40754D04FF4D87445
:10170000056804EB01142D5915F004059560056872
:101710002D594ED0ED08556005682C5904F002048F
:10172000D4604FF4DA74056804EB01142D5905F008
:101730000F05156105682D59C5F3072595610568E5
:101740002C59240C54614FF4DC72046802EB011232
:10175000A4581C700468A458240A5C700468A45837
:10176000240C9C700468A258120EDA704FF4DE72DA
:10177000046802EB0112A4581C710468A458240ADE
:101780005C710468A458240C9C710468A258120E61
:10179000DA71006881B1016941F020010161002026
:1017A00030BDE468A8E7416A41F4001141620120BC
:1017B00030BD6D0D1560AFE7C16841F02001C1601B
:1017C000EDE70246002092F82010012901D00229FD
:1017D0000CD111688A68520100D501208A68120173
:1017E00000D5401C8968C90000D5401C70472DE910
:1017F000F05F0546006800244669D0F804908768C9
:10180000D0F80CB0D0F810A0D0F81880F10748D06C
:10181000F90714D001218160B80703D5284600F0EC
:10182000C6FA0CE0780702D54FF4006407E03807E9
:1018300002D54FF4805402E0284600F0B7FAF805CC
:1018400016D529684FF480708860B80503D52846FE
:1018500000F0AFFA0CE0780502D544F4005407E03C
:10186000380502D544F4804402E0284600F0A0FA8E
:10187000F80316D529684FF480308860B80303D583
:10188000284600F098FA0CE0780302D544F40044AE
:1018900007E0380302D544F4803402E0284600F023
:1018A00089FA300707D55FEACB6004D52968102094
:1018B00044F40074C86070074FF0080707D55FEA6A
:1018C0000B7004D52868C760284600F0A7F9B00758
:1018D00006D52868C068800702D0284600F0A0F925
:1018E000700607D55FEACA6004D52968102044F461
:1018F00080640861B00607D55FEA0A7004D52868DD
:101900000761284600F024FAF00606D52868006929
:10191000800702D0284600F01CFAB00308D55FEA21
:10192000C96005D5296810204860284600F012FAE1
:10193000F00307D55FEA097004D528684760284698
:1019400000F03AFA300446D55FEA497040D5F00518
:1019500004D55FEAC87001D044F00104B00504D595
:101960005FEA887001D544F00204700504D55FEA8F
:10197000487001D544F00404300529D518F0700FE3
:1019800026D008F07000402815D006DC102809D0B9
:1019900020280AD0302816D10AE050280ED060281E
:1019A00011D10EE044F008040DE044F010040AE008
:1019B00044F0200407E044F0400404E044F08004D4
:1019C00001E044F480742868816921F0700181612C
:1019D000296804204860002C05D0686A20436862AA
:1019E0002846FFF779FEBDE8F09F70B5040003D0EC
:1019F00094F8200010B104E0012070BD204600F0F2
:101A000081F82068016841F00101016000F0D2FC1A
:101A10000546052604E000F0CDFC401B0A2811D83D
:101A200020684068C007F6D02068016821F00201F4
:101A3000016000F0BFFC05460BE000F0BBFC401B62
:101A40000A2806D9606A40F40030606284F8206099
:101A5000D2E7206840688007EFD4207E0128206804
:101A600001683DD021F080010160607E012820687E
:101A7000016838D021F040010160A07E0128206873
:101A8000016833D021F020010160E07E0128206848
:101A900001682ED041F010010160207F01282068EC
:101AA000016829D021F008010160607F01282068C9
:101AB000016824D021F004010160D4E90201084347
:101AC000D4E90412114308436168491E08432168A0
:101AD000C86100206062012084F82000002070BDF1
:101AE00041F08001C0E741F04001C5E741F020012D
:101AF000CAE721F01001CFE741F00801D4E741F037
:101B00000401D9E7F0B587B0044614216846FEF712
:101B100013FC3D493D4ADFF8ECE00868D4F800C00A
:101B20003A4B03240225092610320027401CF445B5
:101B300029D10860012807D1106840F000701060BA
:101B4000106800F000700590186840F008001860F8
:101B500018688DE8B00000F00800CDE9046069461F
:101B600003942B4800F02AFB00220521132000F0EB
:101B7000ADFC132000F09CFC00220521142000F095
:101B8000A5FC14203AE0DFF88CE0F44538D1D2F817
:101B900000C04CF0806CC2F800C0D2F800C0012830
:101BA0000CF0806CCDF814C0086007D1106840F0CC
:101BB00000701060106800F000700590186840F028
:101BC000020018601868694600F0020005904FF4A2
:101BD00040508DE8A100CDE903460F4800F0EEFA31
:101BE000002205213F2000F071FC3F2000F060FC46
:101BF00000220521402000F069FC402000F058FC44
:101C000007B0F0BD006400404800002030380240BA
:101C1000000C0240006800400004024070470000D1
:101C200010B58AB004466B4602AA0021FFF755FDA5
:101C300044492068884202983BD1A0F2012008283C
:101C400032D2DFE800F004120C06171D23293E48AB
:101C50006FE03D4901F18400D1F8AC106AE03A49E7
:101C600001F15800D1F8801064E0374901F12C00EF
:101C7000496D5FE0344901F1B000D1F8D81059E066
:101C8000314901F1DC00D1F8041153E02E4901F58E
:101C90008470D1F830114DE02B4901F59A70D1F8DC
:101CA0005C1147E005F016FC0AB010BD05F0ECFB36
:101CB000FAE740F203232549A0F20322984230D0EC
:101CC00027DCB2EE040A01F5B072042806D019DC54
:101CD000012803D0022801D00328E5D1DDF8020055
:101CE0009DF8051000BA20F0FF00084300EE900AAE
:101CF0000298F8EE600A02EB800080EE801A00ED98
:101D0000011AD1E7A0F50070013819D00128CBD114
:101D100016E0062AC8D2DFE802F0031313131313E8
:101D2000C2E7401EC0B200EB400202EBC00001EB74
:101D30008000816A4A1C322982626946B6D8B1E7BE
:101D40000298EEE70064004098130020F814002089
:101D500070477047704770B5044690F8200001281E
:101D600004D0606A40F40020606217E0022084F82A
:101D700020002068016821F00101016000F01AFBD9
:101D800005460DE000F016FB401B0A2808D9606AE2
:101D900040F400306062052084F82000012070BD0E
:101DA00020684068C007EDD1606270BD7047704721
:101DB000704770477047704770472DE9F0410446FF
:101DC000876D00F0F7FA054694F8350000260228E2
:101DD00006D08020606584F834600120BDE8F08181
:101DE0002068016821F0160101602068416921F036
:101DF00080014161206C08B9A06C20B120680168A5
:101E000021F0080101602068016821F001010160F2
:101E10000CE000F0CFFA401B052807D920206065B0
:101E2000032084F8350084F83460D7E72068006820
:101E3000C007EED194F85C103F208840B8600120C4
:101E400084F8350084F834600020C7E790F8351036
:101E5000022903D08021416501207047052180F8C7
:101E600035100068016821F0010101600020704711
:101E70002DE9F84304464FF00009CDF8009063487F
:101E80004FF41651A56D0068B0FBF1F72E6894F879
:101E90005C20082101FA02F030420FD0206802686D
:101EA00052070BD5026822F00402026094F85C002D
:101EB0008140A960606D40F00100606594F85C109D
:101EC0004FF0010808FA01F0304208D02168496952
:101ED000090604D5A860606D40F00200606594F8C2
:101EE0005C1004208840304208D0216809688907C6
:101EF00004D5A860606D40F00400606594F85C1043
:101F000010208840304218D021680968090714D58C
:101F1000A86020680168490304D50068000308D55B
:101F2000A16C07E00168C90503D4016821F008012C
:101F30000160216C09B12046884794F85C1020208C
:101F40008840304231D021680968C9062DD5A86083
:101F500094F8350005282068016806D0490347D564
:101F6000006800031DD4616C1CE021F016010160C3
:101F70002068416921F080014161206C08B9A06CA2
:101F800020B12068016821F00801016094F85C101C
:101F90003F208840A86084F8358084F83490216D13
:101FA0001FE0E16B09B120468847606D00282BD007
:101FB000606DC00714D0052084F8350020680168E2
:101FC00021F0010101600098401C0090B84203D844
:101FD00020680068C007F6D184F8358084F8349012
:101FE000E16C002910D001B02046BDE8F04308475D
:101FF0000168C905D5D4016821F01001016084F899
:10200000358084F83490CCE7BDE8F88300000020E8
:102010002DE9F041044600F0CDF905465CB10220FF
:1020200084F83500002684F834602068016821F0C7
:10203000010101600DE00120BDE8F08100F0BAF976
:10204000401B052805D920206065032084F8350051
:10205000F2E720680068C007F0D121680A682048CC
:102060000240D4E901031843D4E903352B43184354
:1020700063691843A3691843E3691843236A184343
:102080001043626A042A03D1D4E90B231A43104394
:10209000086020684069656A20F0070128460D4302
:1020A000012704280CD1A06A0543E06A40B120460C
:1020B000FEF7FCFF20B14020606584F83570BAE778
:1020C000206845612046FEF7DDFF94F85C203F2143
:1020D00091408160666584F835700020ACE70000AF
:1020E0003F8010F070B5044690F8340000250128B8
:1020F0000CD0012084F8340094F835600020012EC3
:1021000006D084F834000225284670BD022070BD38
:10211000022684F8356060652046FEF7F1FF2068EE
:10212000016841F001010160EEE72DE9F04104464C
:10213000866D90F83400002501280DD0012084F828
:10214000340094F835700020012F07D084F8340053
:1021500002252846BDE8F0810220FBE7022784F82B
:10216000357060652046FEF7CBFF94F85C103F2089
:102170008840B0602068016841F016010160206C61
:1021800020B12068016841F0080101602068016801
:1021900041F001010160DCE770B5044600F00AF986
:1021A0000546601C02D004480078044400F002F99F
:1021B000401BA042FAD370BDB00000202DE9F84FBB
:1021C000DFF8B091002209F1040A0AF1040B032799
:1021D0004FF00F0C0BF1040E01250B6895402B40BE
:1021E000AB426ED10C7904F00304012C01D0022C17
:1021F00015D18668540007FA04F826EA0806D1F8D3
:102200000C8008FA04F848EA0608C0F80880446818
:10221000AC430D79C5F300159540254345600C7915
:10222000E443A40708D0C568540007FA04F6B54390
:102230008E68A6402E43C6600C7904F00304022C7D
:1022400011D1D40800EB8406356A5407E40E0CFA69
:1022500004F825EA0805D1F8108008FA04F848EADD
:102260000508C6F820800568540007FA04F6B5434F
:102270000E7906F00306A6402E4306604C6814F45F
:10228000403F70D03C4C256845F48045256024686B
:1022900022F0030504F480440094384C05EB040854
:1022A000D8F808589407260F0CFA06F4A543344CC6
:1022B000A04201D100242EE0324CA04202D10124E0
:1022C00029E050E0304CA04201D1022423E02F4C01
:1022D000A04201D103241EE02D4CA04201D10424D0
:1022E00019E02C4CA04201D1052414E02A4CA04254
:1022F00001D106240FE0294CA04201D107240AE0B5
:10230000274CA04201D1082405E0264CA04201D16F
:10231000092400E00A24B4402C43C8F80848D9F83E
:1023200000404D464E689C43F60300D51C432C608C
:10233000DAF8004055464E689C43B60300D51C436E
:102340002C60DBF800405D464E689C43F60200D5E9
:102350001C432C60DEF8004075464E689C43B60274
:1023600000D51C432C60521C102AFFF435AFBDE889
:10237000F88F0000003C014044380240003001402A
:10238000000002400004024000080240000C02402D
:10239000001002400014024000180240001C0240DD
:1023A00000200240002402400AB181617047090404
:1023B000FBE700000148806870470000B000002083
:1023C000024881680278114481607047B0000020A3
:1023D0000B4810B5016841F400710160016841F4D7
:1023E00080610160016841F480710160032000F0A8
:1023F0008DF8002000F006F800F03EF8002010BD37
:10240000003C024010B5014688B00022362000F0A2
:102410005DF8362000F04CF813480024016841F0C4
:1024200010010160006805A900F0100006906846E0
:1024300000F050F900F06EF90C494000B0FBF1F1EA
:102440000C480B4A491E026040F2E732C0E90324FF
:10245000C0E9011400F028FD10B1012008B010BD42
:10246000044800F06DFDF9E74038024040420F009B
:1024700000100040501300200C4882B0016841F465
:1024800080410160006800F4804000900748001F10
:10249000016841F0805101600068002200F0805026
:1024A00000900F21901E02B000F010B84438024096
:1024B000002809DB00F01F02012191404009800043
:1024C00000F1E020C0F8001170470000F0B40E4B9E
:1024D0001B68C3F30223C3F10704042C00D90424AE
:1024E0001D1D072D01D2002300E0DB1E012606FA88
:1024F00004F56D1E0D409D409E40761E164045EA37
:102500000601F0BC02F015BE0CED00E0064A00F03A
:10251000070110684FF6FF03184040EA0120034905
:1025200008431060704700000CED00E00000FA0561
:102530002DE9F8431748016841F0805101600068B7
:10254000DFF8548000F0805001270090C8F84070F8
:10255000FFF730FF04464FF47A75104E04E0FFF7A2
:1025600029FF001BA8420DD87068C003F7D5C8F832
:102570004470FFF71FFF044607E0FFF71BFF001B37
:10258000A84202D90320BDE8F88370688003F4D51F
:102590000020F8E74038024000000E420070004082
:1025A0002DE9F0470D46040065D0DFF81491D9F805
:1025B0000000EFB200F00F00A84207D289F80070C7
:1025C000D9F8000000F00F00A84254D120683D4E19
:1025D000810712D5400703D5306840F4E0503060E1
:1025E0002078000703D5306840F4604030603068E0
:1025F000A16820F0F000084330602078C0072DD09B
:10260000304960680839012812D0022813D0032805
:1026100011D00968890700292DDA316821F00301FA
:1026200001433160FFF7C6FE804641F2883A0EE072
:1026300009688903EFE709688901ECE7FFF7BAFE4B
:10264000A0EB0801514502D90320BDE8F0873068AE
:10265000616800F00C00B0EB810FEFD1D9F80010E9
:10266000484601F00F01A94207D90770006800F041
:102670000F00A84201D00120E7E72078400705D5E8
:102680003068E16820F4E0500843306020780007AB
:1026900006D53068216920F4604040EAC10030600E
:1026A00000F058F83168084AC1F30311515CC84082
:1026B0000649086006480068FFF7A4FE0020C4E74A
:1026C000003C024008380240D0950008000000207D
:1026D000B40000200F2202600C4A136803F00303C9
:1026E0004360136803F0F0038360136803F4E0535E
:1026F000C36012684FF4E05303EAD2020261044857
:10270000006800F00F0008607047000008380240C1
:10271000003C02400448054900680968044AC1F3C6
:102720008221515CC84070470000002008380240F8
:10273000E09500080448054900680968044AC1F3A7
:102740004231515CC8407047000000200838024008
:10275000E0950008154810B5006810F00C01144809
:1027600013D0144B04290FD008290ED10F4C241F6D
:10277000216801F03F022168490207D52068C0F3B3
:102780008810A0FB030106E0184610BD2168C1F3C4
:102790008811A1FB00010023FDF784FD2168C1F32E
:1027A0000141491C4900B0FBF1F010BD083802405E
:1027B0000024F400001BB7002DE9F84F040075D089
:1027C0002078DFF838A3C007AAF1040548D00AF141
:1027D00004000168C1F38101012908D00068C0F339
:1027E000810002280AD1DAF80000400206D52868E4
:1027F000800335D560680028E1D031E06068B0F52D
:10280000803F10D0B0F5A02F286810D020F4803081
:102810002860286820F4802028606068A0B1FFF755
:10282000C9FD06460CE0286840F48030F4E740F427
:1028300080202860F7E7FFF7BDFD801B642871D872
:1028400028688003F7D50BE0FFF7B4FD064604E0E7
:10285000FFF7B0FD801B6428F1D828688003F7D407
:102860002078DFF89C9280074FF0000B3DD5A348FD
:10287000001D016811F00C0F08D00068C0F3810042
:1028800002280AD1DAF80000400206D4286880073E
:1028900015D5E068012809D111E0E068B8B1012040
:1028A000C9F80000FFF786FD064605E022E1FFF7C4
:1028B00081FD801B0228C2D828688007F7D52868C8
:1028C000216920F0F80040EAC10028600DE0C9F855
:1028D00000B0FFF76FFD064604E0FFF76BFD801BBD
:1028E00002281FD828688007F7D42078000722D54F
:1028F000824F84486169703771B101210160FFF72F
:1029000059FD064604E0FFF755FD801B022809D853
:1029100038688007F7D50EE0C0F800B0FFF74AFD31
:10292000064605E082E0FFF745FD801B02287DD8C2
:1029300038688007F7D42078400765D56F484FF096
:1029400000083C300068C0000BD46C483C30016883
:1029500041F08051016000684FF0010800F08050A4
:102960000090694F3868C0050FD4386840F4807013
:102970003860FFF71FFD064604E0FFF71BFD801BD4
:10298000022853D83868C005F7D55C4FA0686C376B
:1029900001280FD00528386810D020F001003860D9
:1029A000386820F004003860A068B0B1FFF702FD7D
:1029B00006460EE0386840F00100F4E740F00400FD
:1029C0003860F7E7FFF7F6FC811B41F2883081425F
:1029D00063D838688007F5D50DE0FFF7EBFC0646B5
:1029E00006E0FFF7E7FC811B41F28830814254D8B2
:1029F00038688007F5D4B8F1000F05D03F483C3067
:102A0000016821F080510160A069B8B33B49091DFC
:102A10000968C1F38101022946D00228584606D030
:102A2000C9F86000FFF7C6FC044639E035E04F46C0
:102A3000C9F86000FFF7BEFC064604E0FFF7BAFCE9
:102A4000801B022829D828688001F7D4D4E907011F
:102A50000843A16A2D4A490802EB0141626A41EA32
:102A60008211084394F82C1040EA0161CAF8001062
:102A700001203866FFF79EFC044605E03CE0FFF7C6
:102A800099FC001B022808D828688001F7D533E09C
:102A9000FFF790FC001B022802D90320BDE8F88F45
:102AA00028688001F4D427E00128F7D0DAF8000084
:102AB000E26900F4800191421CD1226A00F03F01DA
:102AC000914217D147F6C071626A0140B1EB821F93
:102AD00010D1A26A4FF0FF3300F4403103EB5202F1
:102AE000B1EB024F06D194F82C1000F07060B0EBFF
:102AF000016F01D00120D1E70020CFE70438024068
:102B000000004742800E4742007000400000FFFF77
:102B100070B5040009D0606A002540B12561656187
:102B2000A56294F8510040B10CE0012070BD6068CE
:102B3000B0F5827FF4D0E561F2E784F8505020468A
:102B400000F044F8022084F851002068016821F068
:102B500040010160A088218900F4827001F40441E1
:102B60000843A18901F400610843217C01F00201BE
:102B70000843217D01F001010843218B01F400711C
:102B80000843217F01F03801084394F8201001F038
:102B900080010843218D01F4005108432168086039
:102BA000A069042101EA104094F8241001F01001FA
:102BB0000843216848602068C16921F40061C1614F
:102BC0006565012084F85100002070BD10B586B005
:102BD000044614216846FDF7AFFB1449206888427B
:102BE00021D113480021026842F48012026000687B
:102BF00000F4801005900E481438026842F020025C
:102C00000260006800F0200005904FF460700090B2
:102C10000220CDE9010103200390052004906946BC
:102C20000448FFF7CBFA06B010BD00000050014089
:102C300044380240001402402DE9F84F044690F851
:102C4000500001250A9E1F4692468B464FF0000811
:102C500001280ED0012084F85000FFF7ABFB81461D
:102C600094F85100616801280CD0B1F5827F07D13A
:102C700002E00220BDE8F88FA16809B9042801D05C
:102C80000220B6E0BBF1000F27D0BAF1000F24D02C
:102C90001FB394F85100042802D0052084F8510095
:102CA00000206065C4F838A0E787A787C4F830B073
:102CB000E786A7862064606420680168490603D41B
:102CC000016841F040010160E068B0F5006F6068A4
:102CD00005D0E8B3012F43D079E0012089E008B1A5
:102CE000012F34D1206B21680088C860206B801CC4
:102CF0002063E08E401EE08629E020688168890715
:102D00000DD5E18E59B1012D09D1216B0988C16022
:102D1000206B801C2063E08E401EE086002520682A
:102D20008168C9070BD0E18F49B1C068A16B0880E9
:102D3000A06B801CA063E08F401EE0870125FFF799
:102D400039FBA0EB0900B04201D3701C50D100E068
:102D500006E0E08E0028D0D1E08F0028CDD13CE005
:102D6000206B216800780873206B401C2063E08E84
:102D7000401EE0862BE02068816889070DD5E18E32
:102D800059B1012D09D1216B09780173206B401CC9
:102D90002063E08E401EE086002520688168C90718
:102DA0000BD0E18F49B1C068A16B0870A06B401CCB
:102DB000A063E08F401EE0870125FFF7FBFAA0EB40
:102DC0000900B04202D3701C01D011E086B1E08E40
:102DD0000028D0D1E08F0028CDD14A463146204688
:102DE00001F014FB38B120204FF00108606508E0C5
:102DF0000320804605E0A06818B92068C168806893
:102E00000090012084F85100002084F850004046D2
:102E100030E770477047000070B590F83C20012AF9
:102E200032D0012580F83C50022280F83D20026813
:102E30005368946823F070060B6833435360134B58
:102E400002689A4214D0B2F1804F11D0104B9A42CE
:102E50000ED0104B9A420BD00F4B9A4208D00F4B1A
:102E60009A4205D00E4B9A4202D00E4B9A4204D1A0
:102E7000496824F080031943916080F83D50002197
:102E800080F83C10084670BD022070BD0000014073
:102E90000004004000080040000C00400004014015
:102EA000004001400018004010B5040003D094F821
:102EB0003D0010B107E0012010BD002084F83C0067
:102EC000204600F01FF8022084F83D00211D2068F4
:102ED00001F062FD012084F8460084F83E0084F889
:102EE0003F0084F8400084F8410084F8420084F8F0
:102EF000430084F8440084F8450084F83D00002035
:102F000010BD000008B500680B49884212D10B487B
:102F1000016841F0200101600068002200F02000FB
:102F2000009005213720FFF7D1FABDE8084037208F
:102F3000FFF7BEBA08BD0000001400404038024050
:102F400090F83D10012901D001207047022180F83E
:102F50003D100168CA6842F00102CA600068114968
:102F6000884214D0B0F1804F11D00F4988420ED062
:102F70000E4988420BD00E49884208D00D4988423C
:102F800005D00D49884202D00C49884204D181689D
:102F900001F00701062903D0016841F00101016039
:102FA000002070470000014000040040000800407D
:102FB000000C0040000401400040014000180040A7
:102FC000704770B50446006801694FF00005C943B9
:102FD000890715D4C168C943890711D4E91E016165
:102FE00001202077206880698007204602D0FFF703
:102FF000E7FF04E000F006F9204600F0C7F9257766
:1030000020680169C943490717D4C168C943490702
:1030100013D46FF0040101610220207720688069D9
:1030200010F4407F204602D0FFF7CAFF04E000F012
:10303000E9F8204600F0AAF9257720680169C9431C
:10304000090716D4C168C943090712D46FF00801F3
:103050000161042020772068C0698007204602D0E3
:10306000FFF7AEFF04E000F0CDF8204600F08EF947
:10307000257720680169C943C90617D4C168C943C7
:10308000C90613D46FF01001016108202077206871
:10309000C06910F4407F204602D0FFF791FF04E0A2
:1030A00000F0B0F8204600F071F92577206801693A
:1030B000C943C90708D1C168C943C90704D1891EDA
:1030C0000161204600F0CCF920680169C943090676
:1030D00009D4C168C943090605D46FF080010161B4
:1030E0002046FFF796FE20680169C943490609D4C6
:1030F000C168C943490605D46FF04001016120460B
:1031000000F040FA20680169C94389060BD4C16800
:10311000C943890607D46FF0200101612046BDE84C
:103120007040FFF777BE70BD30B587B004461421FC
:103130006846FDF701F92B4A216800242A48022538
:1031400091420FD1016841F00801016000686946B1
:1031500000F0080005904FF470400090CDE9015454
:10316000224823E0224A914226D1016841F480712D
:103170000160016801F480710591016841F08001EE
:1031800001600068694600F0800005900120009011
:10319000CDE901541748CDE90345FFF70FF84FF487
:1031A000E0500090CDE9015413486946CDE903454C
:1031B000FFF704F807B030BD104A9142FAD1016818
:1031C00041F0100101600068694600F010000590B0
:1031D00060200090CDE901540320CDE90340084868
:1031E000E6E700000008004030380240000C0240D2
:1031F000000C004000200240001C02400040014042
:1032000000100240704770B5044690F83C0000265C
:103210000D4601280FD0012084F83C006AB1042A31
:103220001DD0082A2FD00C2A3FD00126002084F878
:103230003C00304670BD022070BD206801F01EFCCD
:103240002068816941F0080181612068816921F06D
:1032500004018161206881692A69114311E02068B5
:1032600001F03CFC2068816941F4006181612068C3
:10327000816921F480618161206881692A6941EA5C
:1032800002218161D2E7206801F05EFC2068C169FB
:1032900041F00801C1612068C16921F00401C161E8
:1032A0002068C1692A69114311E0206801F080FC9F
:1032B0002068C16941F40061C1612068C16921F4DD
:1032C0008061C1612068C1692A6941EA0221C16146
:1032D000ACE710B5040003D094F83D0010B107E04E
:1032E000012010BD002084F83C00204600F01EF8AC
:1032F000022084F83D00211D206801F04DFB0120D3
:1033000084F8460084F83E0084F83F0084F84000CA
:1033100084F8410084F8420084F8430084F84400B3
:1033200084F8450084F83D00002010BD08B5006811
:10333000124A1349904207D1086840F0040008601F
:10334000086800F0040009E00E4A904208D10868BD
:1033500040F008000860086800F00800009008BD10
:1033600009498842FBD10648001D016841F48031BB
:103370000160006800F48030F0E7000000080040C1
:1033800040380240000C00400040014070470000FF
:1033900010B5044649B104290AD008290BD094F885
:1033A000410001280AD0012010BD94F83E00F8E742
:1033B00094F83F00F5E794F84000F2E70220B1B33B
:1033C000042938D0082939D084F841000122206826
:1033D00001F046FB1B4920681B4A884201D09042FD
:1033E00003D1436C43F4004343642068884213D004
:1033F000B0F1804F10D0154988420DD01449884251
:103400000AD01449884207D0904205D01249884218
:1034100002D01249884204D1816801F007010629CF
:1034200003D0016841F001010160002010BDFFE7F9
:1034300084F83E00CAE784F83F00C7E784F84000FC
:10344000C4E7000000000140000401400004004007
:1034500000080040000C00400040014000180040FF
:1034600038B5054600683C4988426BD13B4C94F81E
:103470002110012902D003291ED063E00024234635
:10348000224621463648009405F024FD00231A46C2
:1034900019463348009405F0FBFC00231A461946F0
:1034A0003048009405F016FD00231A4619462D48B1
:1034B000009405F0EDFC45E0B4F902009FED2A1AF6
:1034C000404200EE100A2948B8EEC00AC0EE010AD8
:1034D00090ED000A30EE800ADFED250A80ED000A4B
:1034E00020EE200AF3EE030A042020EE200A05F065
:1034F00035FCB4F90000DFED1F0A00EE100AB4F944
:103500000600DFED1D1AB8EEC00A80EE201A00EEAC
:10351000100AB4F90400B8EEC00AC0EE210A00EEA9
:10352000100AB8EEC02A82EE210AFDF7D9FB134833
:10353000D0ED0D1A90ED0B1AD0ED090A90ED070AA7
:1035400005F0FEFA0E492868884203D1BDE83840EC
:10355000FEF736BF38BD0000001400402E200020CA
:10356000980E0020C00E0020000096441800002095
:10357000000000460000254400007A43780800203F
:10358000001000407047704710B50446006840695D
:1035900094F83D10C0F3C010212911D180B12068EA
:1035A000143050E8001F21F0800140E80012002A8A
:1035B000F5D1606B08B1FEF700FC204601F0E8FB96
:1035C0002068406994F83E10C0F38010222911D180
:1035D00080B12068143050E8001F21F0400140E81D
:1035E0000012002AF5D1A06B08B1FEF7E6FB2046D9
:1035F00001F0A7FB002010BD70470000F8B501687E
:1036000004460868CA684B6910F00F0F4FF00005B8
:103610005AD003F0010602F49077374365D0C10712
:1036200005D0D10503D5216C41F00101216441078A
:1036300005D5D90703D0216C41F00201216481072F
:1036400005D5D90703D0216C41F00401216401079D
:1036500007D502F02001314303D0216C41F008016D
:103660002164216C00293BD0800604D5900602D548
:10367000204601F09BFB20684069216CC0F380105C
:1036800001F00801014320462BD001F05AFB2068CD
:103690004069400621D52068143050E8001F21F011
:1036A000400140E80012002AF5D1A06BA8B16C4996
:1036B0000165A06BFEF7CAFB002811D0A06B016D5D
:1036C00001B0BDE8F040084783060ED593060CD53F
:1036D0002046BDE8F84001F069BB2046FFF78CFFAB
:1036E000F8BDFFF789FF2564F8BD266B2023012E66
:1036F00079D1C60677D5D60675D508684868009092
:103700004869400640D5A16B086840680004000C79
:10371000EAD0A28D8242E7D9E085C869B0F5807F02
:103720002DD020680C3050E8001F21F4807140E853
:103730000012002AF5D12068143050E8001F21F053
:10374000010140E80012002AF5D12068143050E849
:10375000001F21F0400140E80012002AF5D184F852
:103760003E30256320680C3050E8001F21F0100126
:1037700040E80012002AF5D1A06BFEF71EFBA08DD9
:10378000E18D401A81B229E0A08DE18D401A81B20D
:10379000E08D0028A8D00029A6D020680C3050E881
:1037A000002F22F4907240E80026002EF5D1206808
:1037B000143050E8002F22F0010240E80026002ECD
:1037C000F5D184F83E30256320680C3050E8002F96
:1037D00022F0100240E80023002BF5D12046FFF72D
:1037E000D2FEF8BDFFE705062BD5150629D594F8BE
:1037F0003D002128F5D1A068B0F5805F01D1206996
:10380000B0B1206A411C2162216800784860E08CD8
:10381000401E0004000CE084E3D12068C16821F060
:103820008001C1602068C16841F04001C160D8E7F3
:10383000206A0088C0F308004860206A801C20626B
:10384000E5E74006CDD55006CBD5CA68204622F024
:103850004002CA6084F83D3000F0F2F9C1E7000090
:10386000014C000870B5040004D094F83D00002518
:1038700010B106E0012070BD84F83C50204600F0F5
:1038800023F8242084F83D002068C16821F4005109
:10389000C160204601F0EAFA2068016921F49041F4
:1038A00001612068416921F02A0141612068C168F5
:1038B00041F40051C1602564202084F83D0084F863
:1038C0003E00002070BD00002DE9F04F87B0044697
:1038D00014216846FCF730FD9F48DFF878821438E1
:1038E00002212368DFF870B2032200250715CE03FA
:1038F0004FF0070C4FF48079434540D1DBF800804E
:1039000048F01008CBF80080DBF8003003F010031B
:103910000593036843F002030360006802AB00F004
:1039200002000590C020CDE90001012083E80510C8
:1039300069468A48FEF742FCDFF8288288494046FB
:10394000C8F80010F102C0E90115C0E90357C8F832
:103950002060C8F81450C8E90659C8F82450FEF78A
:1039600057FB08B1FDF7E1FBC4F8388000220521C0
:103970002520C8F83840FEF7A9FD252063E0DFF8D0
:10398000E881DFF8D4A1DFF8E4E1AAF1040A4345B5
:103990005ED1DAF8008048F40038CAF80080DAF81E
:1039A000003003F400330593036843F00803036019
:1039B000006800F00800059060208DE82300CDE944
:1039C000032C69467046FEF7F9FBDFF898816849D9
:1039D00008F1600840464FF0006AC8F80010C0E9DE
:1039E00001A5C0E90357C8F82060C8F81450C8E919
:1039F0000659BB46C8F82450FEF70AFB08B1FDF78C
:103A000094FB584F5A48C4F83880C0371830C8F86B
:103A10003840E7E8020A4020A7E82108514847F863
:103A20001459C030BD61C7E907567D62FEF7F0FA50
:103A300008B1FDF77AFB6763002205212620BC63ED
:103A4000FEF744FD2620FEF733FD07B0BDE8F08FFA
:103A5000DFF8208143451DD1DAF8004044F480248A
:103A6000CAF80040DAF8003003F4802305930368B5
:103A700043F008030360006800F0080005904FF46D
:103A800040708DE82300CDE9032C69467046FEF7AF
:103A900095FBDAE7DFF8E0C06345D6D1DBF800C07C
:103AA0004CF0200CCBF800C0DBF8003003F0200312
:103AB0000593036843F040030360006800F0400092
:103AC00005904FF484408DE823000820CDE90320C1
:103AD00069462A48FEF772FB2149DFF8A4801839AD
:103AE00040464FF0206BC8F80010C0E901B5C0E9AE
:103AF0000357C8F82060C8F81450C8E90659BA46F8
:103B0000C8F82450FEF784FA08B1FDF70EFB1C4FED
:103B10001348C4F8388060376030C8F83840E7E8A8
:103B2000020B4020A7E82104154847F814596030DB
:103B3000BD61C7E907567D62FEF76AFA08B1FDF775
:103B4000F4FA6763002205214720BC63FEF7BEFC40
:103B5000472078E70010014044380240000402404A
:103B6000406402407011002000440040000C0240FC
:103B700088600240004800400014014000180240E4
:103B80009012002090F83E30202B0ED159B152B146
:103B900090F83C30012B08D0012380F83C30002302
:103BA000036301F0E9B901207047022070477047B4
:103BB00070470000F7B5044690F83D00202837D143
:103BC000019991B38AB394F83C00012830D00120C8
:103BD00084F83C002162A284E2840025256421202F
:103BE00084F83D00636B1348D863636B1248186414
:103BF000636B1248D864606B134605652668606B7A
:103C0000321DFEF792FA21686FF04000086084F8D8
:103C10003C502068143050E8001F41F0800140E81B
:103C20000012002AF5D10020FEBDFFE70120FBE7CE
:103C30000220F9E7F74C0008394D0008114C000844
:103C400070477047FEE700000E484FF4A5719FEDE6
:103C50000E0A016080ED020A80ED030A9FED0B0A57
:103C6000042180ED040A9FED0A0A80ED050A9FED0C
:103C7000090A416080ED100A80ED110A80ED120AF8
:103C800070470000780800206666263F0000FA436F
:103C90007E56FD3E000000007FB5002431480094B0
:103CA000019402942E490394016001254FF4803160
:103CB0000561C0E90114057680F820402A49C0E971
:103CC0000A140626C661C46080F830504561FDF7CD
:103CD000E4FA08B1FDF729FA0C20CDE900056946A0
:103CE00002942048FDF724FA08B1FDF71EFA0D20D2
:103CF00000900220019069461A48FDF719FA08B1B0
:103D0000FDF713FA0E200090032001906946154834
:103D1000FDF70EFA08B1FDF708FA0F200090042015
:103D2000019069460F48FDF703FA08B1FDF7FDF968
:103D30000A2000900520019069460A48FDF7F8F92D
:103D400008B1FDF7F2F90B20CDE9000669460548F8
:103D5000FDF7EEF9002801D0FDF7E7F97FBD00007F
:103D600000200140F00D00200100000F0F4810B5A9
:103D70000D4901600521416000214FF4003281604E
:103D8000C0E9031252014261017601224276817636
:103D9000C17601774177FDF728FE002803D0BDE802
:103DA0001040FDF7C2B910BD00640040980E00201D
:103DB0000F4810B50D4901600521416000214FF405
:103DC00000328160C0E90312520142610176012292
:103DD00042768176C17601774177FDF706FE0028AD
:103DE00003D0BDE81040FDF7A0B910BD0068004049
:103DF000C00E0020214808B5016841F4800101602F
:103E0000016801F480010091016841F40011016032
:103E10000068002200F40010009005211020FEF739
:103E200055FB1020FEF744FB002205211120FEF770
:103E30004DFB1120FEF73CFB002205213820FEF748
:103E400045FB3820FEF734FB002205213920FEF720
:103E50003DFB3920FEF72CFB002205213A20FEF71E
:103E600035FB3A20FEF724FB002205214520FEF712
:103E70002DFBBDE808404520FEF71ABB3038024054
:103E800010B59CB01C2216496846FCF73CFA00218C
:103E9000684604F08CFA134C11491C22A0611C31B5
:103EA00007A8FCF730FA002107A804F080FA0C49B3
:103EB000E0611C2238310EA8FCF725FA00210EA87B
:103EC00004F075FA064920621C22543115A8FCF74B
:103ED0001AFA002115A804F06AFA60621CB010BD3D
:103EE000F4950008200000202DE9F04F87B0142140
:103EF0006846FCF721FA6E480024016841F0100181
:103F00000160016801F010010591016841F0400174
:103F10000160016801F040010591016841F008016C
:103F20000160016801F008010591016841F001019B
:103F30000160016801F001010591016841F0020191
:103F40000160016801F002010591016841F480718E
:103F50000160016801F480710591016841F0200160
:103F60000160016801F020010591016841F08001C4
:103F70000160016801F080010591016841F00401D0
:103F800001600068002200F0040005908821494883
:103F9000FEF70AFA012241F204014648FEF704FA4C
:103FA000DFF814914FF40056002231464846FEF7E0
:103FB000FBF9DFF808A14FF431770022394650466B
:103FC000FEF7F2F9DFF8F8B000223C215846FEF780
:103FD000EBF944F24008002241463A48FEF7E4F982
:103FE000002234213848FEF7DFF98C2000900125AB
:103FF000CDE9015469462F480394FEF7DFF8009697
:10400000CDE90154694648460394FEF7D7F880206D
:10401000CDE9000469462D480294FEF7CFF8102040
:104020008DE8310069462348FEF7C8F80097CDE9CE
:104030000154694650460394FEF7C0F840F203402D
:104040008DE8310069461F48FEF7B8F83C20009023
:10405000CDE90154694658460394FEF7AFF8CDF810
:104060000080CDE90154694616480394FEF7A6F88E
:104070004FF488100095CDE9010469461248FEF717
:104080009DF834200090CDE9015469460E48039410
:10409000FEF794F82803CDE900050220CDE902409F
:1040A00069460448FEF78AF807B0BDE8F08F0000C3
:1040B0003038024000100240001802400020024048
:1040C000001C02400014024000000240000C0240AC
:1040D000104810B50E4901604FF482714160002113
:1040E0008160C1604FF400720161C0E905123022A5
:1040F000C0E90721416281620A21C162FEF708FD21
:10410000002803D0BDE81040FDF70FB810BD000037
:1041100000500140E80E002010B58AB0002407943A
:104120001C2168460894FCF707F9224820490160E1
:104130005921C0E9011444F62061C0E903148461E7
:10414000FFF7C7F808B1FCF7F0FF079407A9194873
:104150000894FEF761FE08B1FCF7E7FF6020CDE9A7
:10416000000402940022694612480494FFF74BF8B9
:1041700008B1FCF7DAFF042269460E48FFF743F85E
:1041800008B1FCF7D2FF082269460A48FFF73BF85E
:1041900008B1FCF7CAFF0C2269460648FFF733F85E
:1041A00008B1FCF7C2FF0348FEF7BEFF0AB010BD1E
:1041B00000080040400F002010B58AB0002407948A
:1041C0001C2168460894FCF7B7F822482049016092
:1041D0005921C0E9011444F62061C0E90314846147
:1041E000FFF777F808B1FCF7A0FF079407A9194873
:1041F0000894FEF711FE08B1FCF797FF6020CDE9A7
:10420000000402940022694612480494FEF7FBFF62
:1042100008B1FCF78AFF042269460E48FEF7F3FF57
:1042200008B1FCF782FF082269460A48FEF7EBFF57
:1042300008B1FCF77AFF0C2269460648FEF7E3FF57
:1042400008B1FCF772FF0348FEF76EFF0AB010BD1D
:10425000000C0040880F00201CB500240E4800947C
:104260000C49019401605921C0E9011441F28831DF
:104270008461C160FEF718FE08B1FCF756FF009498
:10428000694605480194FEF7C7FD002801D0FCF7F8
:104290004CFF1CBD00140040D00F002010B588B0AA
:1042A0001C216846FCF748F81648154900240160AF
:1042B0005921C0E9011444F62061C0E90314846166
:1042C000FFF707F808B1FCF730FF6020CDE90004E4
:1042D0000294002269460B480494FEF794FF08B14B
:1042E000FCF723FF042269460648FEF78CFF08B15D
:1042F000FCF71BFF0348FEF717FF08B010BD0000D6
:1043000000400140181000200D4810B50B49016015
:104310000C49416000214FF480628160C0E90312C2
:104320000C22C0E90521C161FFF79CFA002803D0E7
:10433000BDE81040FCF7F9BE10BD000000100140C0
:1043400060100020A08601000C4810B50A490160E9
:104350004FF416514160002181600C22C160C0E918
:1043600004128161C161FFF77DFA002803D0BDE826
:104370001040FCF7DABE10BD00440040A41000203D
:104380000C4810B50A4901604FF4E1314160002149
:1043900081600C22C160C0E904128161C161FFF734
:1043A00061FA002803D0BDE81040FCF7BEBE10BD86
:1043B00000480040E81000200C4810B50A49016090
:1043C0004FF4E1314160002181600C22C160C0E9FD
:1043D00004128161C161FFF745FA002803D0BDE8EE
:1043E0001040FCF7A2BE10BD001401402C110020AB
:1043F000FEE7704730B4034C4466034C846630BC1F
:1044000004F0E2B8C9850008D785000838B504462D
:104410001248134D4FF47A730068B0FBF5F058431F
:1044200000906068B0F5827F0DD10B4600920022AB
:104430008021204600F016F870B1606D40F0200039
:104440006065032038BD009830B1401E00902068A0
:104450008068C0430006F6D5002038BD000000206B
:1044600000366E012DE9F8431E4691468846044603
:10447000089DFDF79FFF401B351AFDF79BFF074680
:1044800025480068C0F3CB30684338E0701C37D053
:10449000FDF790FFC01BA84203D215B1009860B38E
:1044A0002CE02068416821F0E00141606068B0F5CF
:1044B000827F0BD1A068B0F5004F02D0B0F5806FBD
:1044C00004D12068016821F040010160A06AB0F5C4
:1044D000005F09D12068016821F400510160206863
:1044E000016841F400510160012084F8510000206E
:1044F00084F850000320BDE8F8830025401E00909A
:104500002068816838EA010004D000204845BDD108
:104510000020F0E70120F9E7000000202DED028BDC
:10452000374803F011FF374802F0D1FD022134482B
:10453000FCF7D6FF02213348FCF7D2FF02F0F2FE6F
:1045400002F02AFEFFF780FBFCF742FB2E480068D2
:10455000C16841F01001C16064222C492A48FFF76C
:1045600011FB2B480068C16841F01001C160642252
:1045700028492748FFF706FB4FF4FA759FED261AE6
:10458000F2EE090A9FED250A2B4640F6AC520421B3
:104590002348FFF72FFF9FED238ADFED238A6C006E
:1045A00041F28836B3EE0C1AF0EE480AB0EE680A13
:1045B0002346324603211D48FFF71CFFB3EE0C1AB9
:1045C000F0EE480AB0EE680A234632460321184846
:1045D000FFF710FF02F0A2FD1648FEF7B1FC164CE3
:1045E000164E94F82010012908D0012204213046EB
:1045F000FDF7DAFE284603F0CEFEF2E70022F5E7EB
:10460000980E0020C00E00202C110020C4080020AD
:10461000A4100020280900209A99993E33139F4442
:10462000401700200AD7233C6666524268160020D5
:10463000D4160020D00F00202E20002000200240A1
:104640002DED028B9FED688A782268496848FCF757
:104650009DFE664D674C4FF000080020C4F81480A2
:10466000C4F81080C4F80C80C4F80880C4F8048032
:10467000C4F8008055F820102268401C1144C0B2D4
:10468000216055F820106268401C1144C0B261607E
:1046900055F82010A268401C1144C0B2A16055F822
:1046A0002010E268401C1144C0B2E16055F82010AF
:1046B0002269401C1144C0B2216155F82010626982
:1046C000401C1144C0B261617828D3D32168142002
:1046D000B1FBF0F72760616800EE107AB1FBF0F6ED
:1046E0006660A168F8EE400AB1FBF0F3A360E168F0
:1046F000B1FBF0F2E2602169B1FBF0F12161D4F885
:1047000014C0BCFBF0FC9FED3C0A01EE906A02EE87
:10471000103A02EE902A03EE101A03EE90CA20EE31
:10472000801AF8EE611AB8EE422AF8EE622AB8EE64
:10473000433ADFED320AF8EE633A61EE801A22EE78
:10474000002A62EE802A23EE003A23EE800A21EE50
:10475000201A61EEA01A22EE202A62EEA02A23EE91
:10476000203A224860EE200A1838B7EE000AC4F852
:1047700014C0C0ED050A30EE480A80EC051A18385E
:1047800020EE011AD0ED003A08EE231A80ED001A4F
:1047900020EE211AD0ED011A08EE211A80ED011A3F
:1047A00020EE021AD0ED021A08EE211A80ED021A4C
:1047B00020EE221AD0ED031A08EE211A80ED031A1A
:1047C00020EE031AD0ED041A20EE200A08EE211A7A
:1047D00080ED041AD0ED050A08EE200A80ED050AE6
:1047E000022003F0D8FD38E7CDCCCC3DBC09002039
:1047F000F00D002020000020000080390000B443AC
:1048000041F2883003F0C7FD164D174C0026174FB4
:10481000DFF85C8003F0D6FB02F062FE03F0B6F82E
:10482000287801280FD1227812491348FFF7C2F9DE
:1048300026702E7021780F48FBF77EFD64220D490B
:104840000D48FFF79FF93878012807D188F80060F4
:104850003E70642209490A48FFF794F9052003F0E5
:104860009AFDD7E716000020140000201700002052
:1048700015000020C40800202C1100202809002069
:10488000A410002041F2883003F085FD4FF47A74C3
:10489000204603F080FDFBE710B5502080F311881F
:1048A000BFF34F8FBFF36F8F04F0CAFD18B10449F7
:1048B0004FF080500860002080F3118810BD000088
:1048C00004ED00E030B593B030216846FBF734FDCD
:1048D00014210CA8FBF730FD20480025016841F0A9
:1048E00080510160006800F0805011901C48016800
:1048F00041F4404101600068022400F440401190FE
:1049000001200090000401908001CDE906400620BE
:104910000890B420CDE9090404200B906846FDF707
:104920004BFF08B172B6FEE7FDF702FE08B172B6A2
:10493000FEE70CA90F2081E831004FF4A0500F9042
:104940004FF48050109005210CA8FDF729FE002897
:1049500001D072B6FEE713B030BD0000403802400F
:10496000007000400548016841F47001016003498E
:104970004FF00060803908607047000088ED00E06B
:104980000148FEF71EBB0000501300200148FEF74F
:1049900018BB0000D00F0020F0B50268254D264E50
:1049A000264FDFF89CC0274B4FF0804EA84209D01D
:1049B000704507D0B04205D0B84203D0604501D061
:1049C000984203D122F070044A682243A8421BD0C7
:1049D000704519D0B04217D0B84215D0604513D0F9
:1049E000984211D0184CA0420ED0184CA0420BD0C7
:1049F000174CA04208D0174CA04205D0164CA0423C
:104A000002D0164CA04203D122F44074CA6822435B
:104A10004C6922F08002224302608A68C2620A68FE
:104A20008262A84201D0984201D109690163012143
:104A30004161F0BD0000014000040040000800405A
:104A4000000C0040000401400040014000440140CF
:104A50000048014000180040001C004000200040B9
:104A600010B501F01F010123046A8B409C430462CE
:104A7000036A8A401343036210BD0000F0B5026A66
:104A800022F001020262026A43688469114E24F036
:104A900073050C68104F2C4322F002058A682A43E4
:104AA000B04201D0B84205D122F00805CA682A43B5
:104AB00022F00402B04201D0B84205D14D6923F47E
:104AC00040731D438B692B43436084614968416394
:104AD0000262F0BD0000014000040140F0B5026A2E
:104AE00022F010020262026A436884690D6824F4AD
:104AF000E64444EA05248D6822F0200242EA0512C9
:104B00000F4D104EA84201D0B04206D1CF6822F01E
:104B1000800242EA071222F04002A84201D0B042CD
:104B200007D14D6923F4406343EA85038D6943EA65
:104B3000850343608461496881630262F0BD0000BF
:104B40000000014000040140F0B5026A22F48072C6
:104B50000262026A4368C46922F4007224F0730599
:104B60000C68124E2C438D6842EA05220E4DA84275
:104B700001D0B04206D1CF6822F4006242EA072297
:104B800022F48062A84201D0B04207D14D6923F4DB
:104B9000405343EA05138D6943EA05134360C4613A
:104BA0004968C1630262F0BD000001400004014099
:104BB00030B5026A22F480520262036A4268C46914
:104BC0000D6824F4E64444EA05248D6823F4005378
:104BD00043EA0533084DA84202D0084DA84204D14B
:104BE0004D6922F4804242EA85124260C4614968FC
:104BF0000164036230BD0000000001400004014078
:104C000010B5806B0021C185C184FEF7F5FC10BD95
:104C100070B5846B2068406994F83D10C0F3C010F3
:104C20000025212904D118B1E584204600F0B0F810
:104C30002068406994F83E10C0F38010222904D106
:104C400018B1E585204600F07CF8206C40F010009B
:104C500020642046FEF7D0FC70BD10B50146806B85
:104C600009680968C9052FD40021C18501680C3184
:104C700051E8002F22F4807241E80023002BF5D187
:104C80000168143151E8002F22F0010241E80023AD
:104C9000002BF5D10168143151E8002F22F04002B9
:104CA00041E80023002BF5D1202180F83E10016B54
:104CB000012909D101680C3151E8002F22F01002BE
:104CC00041E80023002BF5D1016B012902D0FEF74A
:104CD0006EFF10BD818DFEF756FC10BD10B5806BC8
:104CE000016B012902D0FEF763FF10BD818D4908D9
:104CF000FEF749FC10BD10B50146806B09680968D4
:104D0000C90516D40021C1840168143151E8002F6F
:104D100022F0800241E80023002BF5D101680C311C
:104D200051E8002F42F0400241E80023002BF5D16A
:104D300010BDFEF785FF10BD10B5806BFEF781FF3B
:104D400010BD01680C3151E8002F22F4907241E847
:104D50000023002BF5D10168143151E8002F22F017
:104D6000010241E80023002BF5D1016B012909D193
:104D700001680C3151E8002F22F0100241E80023B5
:104D8000002BF5D1202180F83E10002101637047EF
:104D900001680C3151E8002F22F0C00241E80023E5
:104DA000002BF5D1202180F83D10704708B590F810
:104DB0003E10222901D0022008BD81684FF48053A3
:104DC000994201D1026922B1826A99421BD049B14C
:104DD0000AE00268816A5268C2F308020A80816AA6
:104DE000891C08E0016971B10168496801F07F011F
:104DF0001170816A491C8162C18D491E0904090C28
:104E0000C18503D019E001684968F1E70168CA6803
:104E100022F02002CA600168CA6822F48072CA6067
:104E200001684A6922F001024A61202180F83E109F
:104E3000016B012903D0FEF7BAFE002008BD002156
:104E4000016301680C3151E8002F22F0100241E8A3
:104E50000023002BF5D101680A68D20602D50A6842
:104E600049680091818DFEF78EFBE6E770B5044638
:104E700000680169E26821F4405111430161A168B1
:104E80002069E26901436069104301432068C268F8
:104E900049F20C639A430A43C26020684169A269DF
:104EA00021F440711143416131492068884202D0A8
:104EB0003049884202D1FDF73DFC01E0FDF72AFCB4
:104EC000E2690023192164253226B2F5004F626899
:104ED00028D0A0FB0101930F9200FBF7E3F90146F4
:104EE000B0FBF5F06FF01802504301EB800006EBC9
:104EF0000010B0FBF5F000F0F002B1FBF5F002EBB2
:104F00000012B1FBF5F06FF01803584301EB80007D
:104F100006EB0010B0FBF5F000F00F002168104424
:104F2000886070BDA0FB010192185B41FBF7BAF9E4
:104F30000146B0FBF5F00201B1FBF5F06FF018038C
:104F4000584301EB800006EBC000B0FBF5F000F029
:104F5000F80002EB4002B1FBF5F0584301EB800092
:104F600006EBC000B0FBF5F000F00700D6E700004C
:104F7000001001400014014037B582B01346039A77
:104F800082628385002504460564222084F83E0061
:104F9000A16B1B48C863A16B1A480864A16B1A482F
:104FA000C864A06B05652168A06B091DFDF7BDF8FD
:104FB000206801684068009084F83C5020680C30FC
:104FC00050E8001F41F4807140E80012002AF5D13A
:104FD0002068143050E8001F41F0010140E8001241
:104FE000002AF5D12068143050E8001F41F040013C
:104FF00040E80012002AF5D105B0002030BD0000C5
:105000005B4C0008DD4C0008114C000810B504484A
:1050100003F0B8FFBDE810400148FEF7EFBA00000A
:105020006010002038B51D4800680168C943C906F2
:105030002ED40168406800901848FEF7A5FA184879
:10504000006840681749C0F1640008701648174CA2
:1050500002785A2A1AD142785A2A17D1C278097886
:10506000521D8A4212D1217881B98088DFED100A61
:1050700040BA00EE100A0F486421B8EE400A80EEF4
:10508000201A80ED001A0848FBF756F9012020701D
:10509000BDE838400148FEF7B1BA0000A410002076
:1050A000D011002015000020280900201700002042
:1050B0000000C8424C0000200D4808B50068016897
:1050C000C943C9060FD40168406800900848FEF73C
:1050D0005BFA0848006840680749C0F1640008703E
:1050E000064901200870BDE808400148FEF786BA6D
:1050F0002C11002090120020140000201600002027
:10510000FEE703B401984100009850EAC12018BF9F
:1051100004204A0D18BF40F0010040F2FF72B2EBCC
:10512000515F08BF40F00200012808BF052002B00F
:1051300070470907090E002804DB00F1E02080F821
:105140000014704700F00F0000F1E02080F8141DFB
:10515000704700000000000070B5C1482DED020B43
:105160002DED0E8B82B0119D25F000449FEDBEDB2E
:105170009FEDBFEB84423EDBA4F140511098A1F1BA
:105180007F6108430FD0BC48844202DC28D11098CC
:1051900030B39DED100B02B0BDEC0E8B02B0BDE83C
:1051A000704001F01DBF9DED100B53EC1D2B51EC19
:1051B000100BFBF773F99DED100B41EC180B53EC42
:1051C0001E2B51EC100BFBF769F953EC182BFBF776
:1051D000BEF841EC100B02B0BDEC0E8B02B070BDFE
:1051E000012001F051FF02B0BDEC0E8B02B0BDE812
:1051F000704001F009BFA1489FEDA18B844256DAAF
:105200009DED100BB4F1795F0ADA51EC100BFFF74A
:1052100078FF042808BF01F017FF9DED100BDAE7B7
:1052200053EC102B51EC100BFBF738F941EC190B38
:1052300095480621B0EE490AF0EE690A784401F07B
:10524000A3FD53EC192B51EC100BFBF727F941ECA4
:105250001A0B8E48B0EE490AF0EE690A0421784430
:1052600001F092FD53EC192B51EC100BFBF716F9E2
:1052700053EC182BFBF76BF841EC100B51EC1A0BAD
:1052800053EC102BFBF77CF9CDE900019DED000BF1
:1052900053EC102B9DED100B51EC100BFBF7FEF8AF
:1052A0009DED101B53EC112BFBF751F8D2E09DED57
:1052B000100B51EC100B02F0DBF853EC182BFBF742
:1052C000EAF89FED730BCDE9000153EC102B9DED37
:1052D000000B51EC100BFBF7E1F841EC190B6E4899
:1052E0000621B0EE490AF0EE690A784401F04CFD5F
:1052F00053EC192B51EC100BFBF7D0F841EC1B0BC6
:105300006648B0EE490AF0EE690A0421784401F0DB
:105310003BFD53EC192B51EC100BFBF7BFF853EC92
:10532000182BFBF714F841EC1C0B51EC190B03F094
:10533000F2FD41EC180B5A489FED5BABA04222DC1A
:1053400053EC1C2B51EC1B0BFBF71AF9CDE90001B8
:105350009DED000B51EC180B53EC102BFBF79EF856
:1053600053EC182BFAF7F3FF53EC1A2BFBF796F8D4
:1053700053EC1D2BFBF78CF853EC1E2BFBF78BF833
:1053800041EC100B5FE08DED008B002000909DED57
:10539000000B51EC180B53EC102BFAF7D8FF9DEDD6
:1053A000000B41EC1E0B53EC102B51EC100BFBF7D8
:1053B00075F853EC192BFBF76EF853EC1E2BFBF72B
:1053C000DFF841EC190B53EC1C2B51EC1B0BFBF7DA
:1053D000D7F841EC1B0B53EC1A2B51EC190BFBF7D4
:1053E0005DF853EC1D2BFBF756F841EC190B53EC11
:1053F0001A2B51EC180BFBF751F853EC1B2BFBF756
:105400004DF853EC192BFBF743F89DED000B41ECE5
:10541000180B53EC1A2B51EC100BFBF73FF89FEDD8
:10542000249B53EC192BFBF736F841EC100B51EC95
:10543000180B53EC102BFBF72BF853EC192BFBF745
:105440002AF841EC100B002D3FF7C5AE51EC100BC4
:1054500081F0004141EC100BBDE6000000000000AF
:105460000000F03F00000000075C143326A6913CCA
:10547000182D4454FB21F93F0000F07F0000E03F6D
:10548000000000000000F03F404400004E440000D7
:10549000000000000000E03F92430000A043000035
:1054A0003333EF3F00000000000000000000004028
:1054B000182D4454FB21E93F70B59B482DED020B9C
:1054C0002DED068B079D25F00044A04218DC97487F
:1054D000844202DC0AD1069840B19DED060BBDEC7A
:1054E000068B02B0BDE8704001F07ABD002DCCBF44
:1054F0009FED8F0B9FED900BBDEC068B02B070BD46
:105500008F48A04215DD8F48A042D8BF4FF0FF342E
:1055100058DD9DED060B51EC100BFFF7F2FD042852
:1055200008BF01F091FD9DED060BBDEC068B02B0AE
:1055300070BD9DED060B51EC100B01F099FFCDE90C
:10554000060181489FED828BA0423CDD8248A0424B
:105550001FDD00249FED82AB9DED060B53EC1A2B53
:1055600051EC100BFAF7F3FE9DED060B41EC190B15
:1055700053EC1A2B51EC100BFAF790FF53EC182B4D
:10558000FAF786FF53EC192BFAF7FAFFCDE906017B
:1055900049E09DED060B012453EC182B51EC100B48
:1055A000FAF7D5FE9DED060B41EC190B53EC182BC9
:1055B00051EC100BFAF76CFF53EC192BFAF7E0FFE4
:1055C000CDE906012FE06848A0421FDD02249FEDCF
:1055D000689B9DED060B53EC192B51EC100BFAF761
:1055E0005DFF53EC182BFAF7B2FE9DED060B41EC74
:1055F000180B53EC192B51EC100BFAF749FF53EC35
:10560000182BFAF7BDFFCDE906010CE09DED060B66
:10561000032453EC102B9FED580B51EC100BFAF7B1
:10562000AFFFCDE906019DED060B53EC102B51ECBD
:10563000100BFAF733FF41EC180B53EC182BFAF769
:105640002DFF41EC190B4E480621B0EE490AF0EE51
:10565000690A784401F098FB53EC182B51EC100BBD
:10566000FAF71CFF41EC180B4648B0EE490AF0EE81
:10567000690A0521784401F087FB53EC192B51ECA2
:10568000100BFAF70BFF41EC100B51EC180B53EC1D
:10569000102B002C0EDAFAF75AFE9DED061B53EC88
:1056A000112BFAF7FBFE9DED061B53EC112BFAF7BD
:1056B000F2FE35E0FAF74BFE9DED061B53EC112B85
:1056C000FAF7ECFE41EC100B2F48784400EBC400D5
:1056D00090ED001B51EC100B53EC112BFAF7D8FE98
:1056E0009DED061B53EC112BFAF7D2FE41EC100B8B
:1056F0002648784400EBC40090ED001B51EC100BE1
:1057000053EC112BFAF7C7FE41EC100B002DA2BF92
:10571000BDEC068B02B070BD51EC100B81F0004166
:1057200041EC100B01E70000000010440000F07F86
:10573000182D4454FB21F93F182D4454FB21F9BF87
:105740000000DC3F0000203E0000F33F00000000AE
:10575000000000000000F03F0000E63F00000000F5
:105760000000000000000040008003400000000036
:10577000000000000000F83F000000000000F0BF43
:105780006A41000020410000AA4000006240000081
:1057900070B56B4E2DED040B2DED028B82B0DDF854
:1057A0001CC0DDE905235C422CF000411C4341EAAA
:1057B000D474049D22F00040B44205D86C422C43BE
:1057C00040EAD474B4420BD99DED061B9DED040B49
:1057D00002B0BDEC028B04B0BDE8704001F00ABC21
:1057E000ACF14054A4F17F641C430BD0022404EAC2
:1057F000AC7444EAD27405439FED538B9FED542B58
:1058000007D015E09DED040B51EC100B01F057FC97
:1058100042E0002C11BF012C9DED040B02B0BDEC49
:10582000028B04BF04B070BD022C38D0032C3BD0D7
:105830000B439FED491B9FED4A0B0AD0B14218D193
:10584000B04209D121F0804120F0804007910590BD
:105850000FE0002A15DA10E0434B7B44002C08BF10
:1058600093ED000B0DD0012C10D0022C17D0032C7F
:105870001AD0B0421DD1002A03DAB0EE410AF0EE90
:10588000610A02B0BDEC028B04B070BD93ED000B59
:1058900051EC100B81F0004141EC100BF1E7B0EE40
:1058A000480AF0EE680AECE7B0EE420AF0EE620A4F
:1058B000E7E7401A00153C28C8BF8DED000B19DC46
:1058C000BCF1000FBEBF10F13C0F9FED290B8DED19
:1058D000000B0FDB9DED060B53EC102B9DED040B25
:1058E00051EC100BFAF74CFE01F0C2FD01F0E7FBA2
:1058F000CDE90001002C08BF9DED000BC1D0012CAB
:1059000010D0022C9FED1C0B53EC102B9DED000BC7
:1059100051EC100B0DD0FAF7BBFD53EC182BFAF736
:10592000B7FDB9E7019880F0004001909DED000BB4
:10593000A7E7FAF7ADFD53EC182BFAF7ACFDABE790
:105940000000F07F00000000182D4454FB210940A6
:10595000182D4454FB2109C0182D4454FB21F9BFD4
:10596000182D4454FB21F93FC23F00000000000005
:105970000000000000000000075C143326A6A13CD4
:1059800010B52F499FED2C1B2DED020B84B005980F
:1059900020F000408842D8BF9DED040B2DDD294941
:1059A000884209D1049840B94FF0010001F06CFB26
:1059B00001F02AFB06B010BD05DB9DED040B01F0E4
:1059C0000FFB06B010BD68469DED040B00F008FF0C
:1059D00010F0030004BF9DED021B9DED000B0CD0E9
:1059E00001280ED09DED021B9DED000B022817D063
:1059F000012001F045FA06B010BD01F00DF906B026
:105A000010BD9DED021B9DED000B012001F038FA49
:105A100051EC100B81F0004106B041EC100B10BDB1
:105A200001F0FAF851EC100B81F0004106B041ECA6
:105A3000100B10BD0000000000000000000000007E
:105A4000FB21E93F0000F07F2DED020B019820F0D3
:105A5000004001909DED000B02B070470000000077
:105A60002DE9F04D2DED040B2DED0C8B96B0DDE9FD
:105A70002350259CDDF888A025F0004624F000483E
:105A8000BAF1000F14BF0121002101EB4502FE49CC
:105A900053184A1093422AD3002814BF012300232D
:105AA00003EB44030B44F9498B4220D358EA00012D
:105AB0009FEDF78B6FD0DFF8E0B35D4503D1BAF10E
:105AC000000F05D187E0BAF1000F08BF002100D018
:105AD000012101EB450111F5001F08D8002814BF72
