:020000040800F2
:100000003862002085020008EB440008593D0008D2
:10001000E9440008ED0C0008B95100080000000098
:10002000000000000000000000000000C501000802
:100030006D1200080000000021020008D5490008E8
:100040009F0200089F0200089F0200089F0200080C
:100050009F0200089F0200089F0200089F020008FC
:100060009F0200089F0200089F0200089F020008EC
:100070009F0200089F0200089F0200089F020008DC
:10008000811100088D1100089F020008D50D00089D
:10009000C90D00089F0200089F0200089F02000887
:1000A0009F0200089F0200089F0200089F020008AC
:1000B0009F0200089F0200089F0200089F0200089C
:1000C0009F0200089F0200089F0200089F0200088C
:1000D0009F020008C5500008DD5000089F0200087C
:1000E0009F0200089F0200089F0200089F0200086C
:1000F0009F0200089F0200089F0200089F0200085C
:100100009F0200089F0200089F0200089F0200084B
:100110009F0200089F020008BD4A0008C94A000863
:1001200099110008A5110008B11100089F020008EC
:100130009F0200089F0200089F020008ED0D0008C2
:10014000E10D00089F0200089F0200089F020008BE
:100150009F020008BD1100089F02000871510008AD
:100160009F0200089F0200089F0200089F020008EB
:100170009F0200089F0200089F0200080000000084
:100180009F0200089F0200089F0200089F020008CB
:100190009F0200089F0200089F0200089F020008BB
:1001A00000000000000000009F020008DFF810D0EF
:1001B00000F066FC0048004735890008AFF3008076
:1001C000386200202C4B19680868B0E8F04F80F3C3
:1001D0000988BFF36F8F4FF0000080F311887047DC
:1001E0000000000008480068006880F308884FF0AD
:1001F000000080F3148862B661B6BFF34F8FBFF37F
:100200006F8F00DF00BF00BF08ED00E0DFF80C00DB
:10021000016841F470010160704700BF88ED00E0A3
:10022000EFF30980BFF36F8F134B1A681EF0100FA6
:1002300008BF20ED108A20E9F04F106009B44FF09C
:10024000500080F31188BFF34F8FBFF36F8F09F019
:10025000C3FC4FF0000080F3118809BC19680868DE
:10026000B0E8F04F1EF0100F08BFB0EC108A80F31A
:100270000988BFF36F8F7047D8000020EFF3058027
:10028000704700000648804706480047FEE7FEE743
:10029000FEE7FEE7FEE7FEE7FEE7FEE7FEE7FEE736
:1002A000A14A0008AD0100082DE9F05F05460020D5
:1002B00092469B4688460646814640241BE02846D7
:1002C00041464746224600F062FA53465A46C01A53
:1002D000914110D311461846224600F049FA2D1AD2
:1002E00067EB01084F4622460120002100F040FA4A
:1002F00017EB00094E41201EA4F10104DFDC484643
:1003000031462A464346BDE8F09F40EA01039B0779
:1003100003D009E008C9121F08C0042AFAD203E07A
:1003200011F8013B00F8013B521EF9D27047D2B2DE
:1003300001E000F8012B491EFBD270470022F6E7CE
:1003400010B513460A4604461946FFF7F0FF20464B
:1003500010BD2DE9FE4F804681EA0300C00F0C4618
:10036000009021F0004123F00045B8EB0200A941C4
:1003700005D24046214690461C460B46024623F0D5
:100380000040104347D0270DC7F30A00C3F30A51BA
:100390000290401A019040286BDAC3F3130040F436
:1003A000801B0098924620B10023D2EB030A63EB36
:1003B0000B0B01985946C0F14002504600F0D8F9A5
:1003C00006460D4650465946019A00F0F0F910EBEA
:1003D00008006141002487EA115284EAE7731A4356
:1003E00040D0009A62B3019A012A4FEA075215DC05
:1003F000001B61EB02014FF0004202EA0752CDE917
:100400000042001C41F5801132462B4600F027FACD
:1004100003B0BDE8F08F40462146F9E7001B61EBD1
:100420000201001C41F5801300185B412018A2F561
:10043000001747EB030140EAD570B6196D4111E092
:100440006D084FEA360645EAC0754FEA0752001BB1
:1004500061EB0201001C41F5801149084FEA3000B0
:100460000019514132462B4603B0BDE8F04F00F071
:10047000E7B90098012240000023D0EB020263EBB1
:10048000E073009821464FEAE074B8EB000061EB9E
:100490000401E9E783F000435BE781F0004158E79E
:1004A0002DE9FE4F81EA030404F0004421F00041ED
:1004B00000944FF0000B23F0004350EA01045ED09B
:1004C00052EA03045BD0C3F30A54C1F30A552C4427
:1004D000A4F2F3340194A0FB0254C1F3130141F4DC
:1004E0008011C3F3130343F4801301FB024400FBA8
:1004F000034E840A970A44EA815447EA8357A4FBCF
:10050000076802958D0A05FB07854FEA932C04FBCB
:100510000C542705029D4FEA065847EA1637B5EBFB
:1005200008056EEB070C870E920E47EA811742EA28
:100530008312A7FB0201B6EB0B0164EB00042B0D49
:1005400043EA0C335E1844EB1C50DA465146E7FB95
:100550000201C5F313044FEA0B3343EA14534FEA85
:100560000432019C43EA0603A4F10C040294009CAB
:10057000CDE900B400F073F903B0BDE8F08F0020BE
:100580000146F9E72DE9F04D81EA030404F0004B40
:1005900021F0004514464FF0000A23F0004150EAD4
:1005A000050220D054EA01021DD0C5F30A570246C5
:1005B000C5F31303C1F31300C1F30A5640F48015C9
:1005C00043F48013A7EB0608101BD64608F2FD384B
:1005D00073EB050002D308F1010801E092185B41BA
:1005E000B8F1000F03DA00200146BDE8F08D0020CD
:1005F0004FF48011064684460EE0171B73EB050787
:1006000005D3121B63EB050306434CEA010C4908B2
:100610004FEA300092185B4150EA0107EDD152EAEF
:10062000030012D082EA040083EA0501084305D0E2
:10063000101BAB4106D20122002306E000224FF03E
:10064000004302E06FF0010253101AEB06004CEB7E
:10065000085110EB0A0041EB0B01BDE8F04D00F032
:10066000EFB80EB5C10F80EAE0700844CA07002158
:1006700040F233438DE80E000A460B4600F0EFF8D7
:1006800003B000BD00F0004230F000400AD0C10DC0
:1006900001F56071C0F3160042EA0151C20840073B
:1006A00011437047002001467047000030B5041E1A
:1006B00071F1000404DB4FF00044404264EB01019F
:1006C000141E73F1000405DB1C464FF00043524238
:1006D00063EB04038B4208BF824230BD30B5041E79
:1006E00071F1000404DB4FF00044404264EB01016F
:1006F000141E73F1000405DB1C464FF00043524208
:1007000063EB0403994208BF904230BD01F00043FF
:1007100030B421F0004150EA010206D00A0DA2F5E2
:100720006072C1F31301002A02DC30BC0020704764
:10073000440F44EAC104C100E01830BC00EBC250D1
:1007400000F047B830B50B460146002020220124B6
:1007500009E021FA02F59D4205D303FA02F5491B8F
:1007600004FA02F52844151EA2F10102F1DC30BDA5
:10077000202A04DB203A00FA02F100207047914061
:10078000C2F1200320FA03F3194390407047202A56
:1007900004DB203A21FA02F00021704721FA02F32B
:1007A000D040C2F120029140084319467047202AE8
:1007B00006DBCB17203A41FA02F043EAE07306E089
:1007C00041FA02F3D040C2F1200291400843194699
:1007D00070470029A8BF7047401C490008BF20F09F
:1007E0000100704710B4B0FA80FC00FA0CF050EA37
:1007F000010404BF10BC704749B1CCF1200421FAB8
:1008000004F411FA0CF118BF012121430843A3EBB2
:100810000C01CB1D4FEA00614FEA102042BF0020BF
:1008200010BC704700EBC35010440029A4BF10BC9B
:100830007047401C490008BF20F0010010BC704701
:1008400010B5141E73F1000408DA401C41F10001D8
:1008500092185B411A4301D120F0010010BD2DE92F
:10086000F04D92469B4611B1B1FA81F202E0B0FA26
:1008700080F220329046FFF77BFF04460F4640EAA5
:100880000A0041EA0B0153465A46084313D0114669
:1008900053EA010019D0C8F140025046FFF777FF34
:1008A00005460E46504659464246FFF761FF08434B
:1008B00005D0012004E020463946BDE8F08D002037
:1008C000054346EAE0762C4337430A986305E40A79
:1008D000A0EB08000022FD0A44EA47540A3002D582
:1008E00000200146E9E7010510196941DDE90845E5
:1008F00000196941BDE8F04DA2E770B521F0004351
:1009000003430CD0C1F30A550024D5EB040564EB76
:100910000403D617AD1AB34102DB0020014670BDB7
:10092000201841EB025170BD2DE9F04D00231A460D
:100930001B1A8A4103DB00200146BDE8F08DC1F39C
:100940000A52C1F3130141F480154FF0000BD10797
:1009500002D100186D41521E0027044640F2FF11DB
:10096000384601EB620A3E468046024600204FF4BC
:100970008011FFF70CFFC2197141BB1846EB010053
:10098000B4EB030C75EB000C04D3E41A65EB000523
:1009900017460E46241908F101006D41804634289F
:1009A000E3DDF91946EB0600091BA84103D24FF01D
:1009B000FF32134601E0002213461BEB070046EB13
:1009C0000A51BDE8F04DFFF73BBF2DE9FE4FC3F3E1
:1009D0000A5701F000450024C1F30A56C3F313037C
:1009E000C1F3130143F4801312EB020AA64641F44B
:1009F0008011009543EB030CA7F1010B16E0B0EB5F
:100A00000A0061EB0C01071E71F1000707DA4FF0D5
:100A10000008D0EB080085F0004568EB0101171ACB
:100A200073EB0107EBD3761E001849415E45F6DAF9
:100A300050EA010209D0CDE900E5002213460296F2
:100A4000FFF70DFF03B0BDE8F08F20460099F9E7EE
:100A5000C1F30A52C1F3130140F2FF3341F4801194
:100A60009A4202DA00200146704740F233439A422C
:100A7000A2F2334202DC5242FFF789BEFFF778BE92
:100A8000064C074D06E0E06840F0010394E80700DB
:100A900098471034AC42F6D3FFF78CFBD8A200087D
:100AA000F8A200080EB540F2334102910021CDE9D1
:100AB00000110A460B46FFF7D2FE03B000BD70B529
:100AC000C1F30A5201F000450024C1F3130140F2C2
:100AD000FF3341F480119A4201DA002070BD40F2E8
:100AE00033439A42A2F2334203DC5242FFF74FFEF5
:100AF00000E090402C43F1D0404270BD30B58C18DE
:100B000010F8012B12F00F0301D110F8013B12096C
:100B100006D110F8012B03E010F8015B01F8015B2E
:100B20005B1EF9D101E001F8013B521EFBD1A1424D
:100B3000E6D3002030BD10B50146806B026C12F088
:100B4000500F05D0026CD20626D500F023FD10BD53
:100B5000016C41F40071016401688A6812F0405F21
:100B600017D1027EAAB9CA6A12F4700F02D08A683D
:100B700052050ED44A6822F020024A60016C21F42A
:100B800080710164016CC90403D4016C41F001015E
:100B9000016400F0FDFC10BD806BC26CBDE810402C
:100BA0000846104710B5806B40210164416C41F04C
:100BB0000401416400F0EEFC10BD10B5806B00F044
:100BC000E8FC10BD464910B54A6822F440324A603C
:100BD0004A6843681A434A6001684A6822F480728E
:100BE0004A6001684A68036942EA03224A60016870
:100BF0004A6822F040724A6001684A6883681A4372
:100C00004A6001688A6822F400628A6001688A6822
:100C1000C3681A438A60816A6FF07062D1420168CA
:100C20008A6822F070628A6001688A680CD0836AE0
:100C30001A438A6001688A6822F040528A6001681B
:100C40008A68C36A1A4301E022F040528A60016850
:100C50008A6822F002028A6001688A68037E42EA9A
:100C600043028A6090F82010002901684A680FD07A
:100C700042F400624A6001684A6822F460424A60B5
:100C800001684A68174C436A04EB43331A4301E096
:100C900022F400624A600168CA6A22F47002CA62E1
:100CA0000168CA6A838B104C04EB03531A43CA626F
:100CB00001688A6822F400728A6001688A6890F884
:100CC000303042EA43228A6001688A6822F48062F6
:100CD0008A6001688A68406942EA8020886010BDA5
:100CE0000023014000E0FFFF0000F0FFFEE70000EE
:100CF0002DE9F047294D00242DED048B4FF4FA66C1
:100D000044F620689FED268ADFED268A9FED269A1D
:100D1000DFED269A42F21079C4EBC400C0EB8410D8
:100D200005EB8007381DB0EE481AF0EE680AB0EE09
:100D3000490A33464246032103F0D8FB07F170000D
:100D4000B0EE691AF6EE000AB1EE020A33464A46E0
:100D5000042103F0CBFB641C052CDDDB40F6C4133F
:100D60009FED131ADFED130A9FED130A4446424626
:100D70000321124803F0BAFBF0EE680ABDEC048BC5
:100D800033462246BDE8F0470C4803219FED0C1A7C
:100D90009FED0C0A6C3003F0A9BB00003419002051
:100DA000CDCC4C406F12833A0AD7A33EB81E053F04
:100DB000CDCCA041CDCC4C3F0010FA4454200020B3
:100DC0009A99B94000801843014800F088BE00009D
:100DD000200F0020014800F082BE0000200F0020FC
:100DE000014800F07CBE0000480F0020014800F0E0
:100DF00076BE0000480F00202DE9F05F96482DEDEB
:100E00000A8BF0EE40BAB0EE60BAB0EE41AA90EDB7
:100E1000000A9248D0ED000A30EE600A10EE100A87
:100E2000FFF730FCDFF838828E4F41EC180B0024BE
:100E300007F11009A8F11805E868FFF723FC08EB93
:100E4000840641EC190B3068FFF71CFC53EC182B9F
:100E5000FFF77FFA53EC192BFFF794FB41EC100BD3
:100E600004F002FEB0EE409AF0EE609AA868FFF738
:100E700009FC53EC192BFFF713FBFFF747FC47F86E
:100E80002400E868FFF7FEFB41EC190B3068FFF720
:100E9000F9FB53EC182BFFF75CFA53EC192BFFF717
:100EA00071FB41EC100B05F0F7FCB0EE409AF0EE50
:100EB000609AA868FFF7E6FB53EC192BFFF7F0FAEE
:100EC000FFF724FC49F82400641C4A46042CB3DBD9
:100ED000654B002002EB8001B0EE6B0AD1ED000AF9
:100EE00000EB400103EB81010AEE200A07EB8004CE
:100EF000401C042881ED000AD4ED000AB0EE4B0A34
:100F00000AEE600A81ED010AE4DB0024AA46984655
:100F10009FED56CBDFF85091DFF858B109F1300959
:100F200009F5EE66DAF80C00FFF7ACFB41EC1A0BA2
:100F300004EB440108EB81052868FFF7A3FB41ECB3
:100F4000190B6868FFF79EFB41EC100BB0EE491AD5
:100F5000F0EE691A04F088FC53EC1A2B51EC100BDC
:100F6000FFF79EFA53EC182BFFF794FAFFF7CEFB2E
:100F700009EBC40738606868FFF784FB41EC100B8D
:100F8000B0EE4C1AF0EE6C1A04F05EFEB0EE409A31
:100F9000F0EE609A2868FFF775FB41EC100BB0EE9D
:100FA0004C1AF0EE6C1A04F04FFE53EC192B51EC76
:100FB000100BFFF7CEF941EC100B05F0D1FC51EC12
:100FC000100BFFF7A3FB00EE100A87ED010A9BF858
:100FD0000800022802D0012815D01CE0D7ED000A35
:100FE00006EBC400C0ED070ADFED230A20EE200A5D
:100FF000F3EE030A20EE200ADFED200A80EE201A2D
:1010000080ED061A07E0D7ED000A06EBC400C0ED3C
:10101000070A80ED060A641C042C83DBF5EEC0BAD7
:10102000F1EE10FA14D2B5EEC0BAF1EE10FA0FD10B
:1010300000209FED130A06EBC001401C81ED070A5A
:10104000D1ED060A0428F1EE600AC1ED060AF2DBD2
:10105000BDEC0A8BBDE8F09F68000020380000203E
:101060001C0000202C09002040010020000000008E
:10107000000000403E210020000070420AD7A33E3D
:1010800000000000F0B587B0074600240C9E204603
:1010900049B10421CDE90121CDE903038DF8140004
:1010A0004FF6FE7506E000920290F5E7641CA4B2CC
:1010B000AC420CD8384600F0FCFC0028F6D006AB59
:1010C00032466946384600F08BFB002800D00120EC
:1010D00007B0F0BD2DE9F041274C01462DED028B04
:1010E000002520789FED258A41F288374FF4FA7663
:1010F00078B1012819D002283AD1B0EE480ABDECE7
:10110000028BB0EE401ABDE8F041F0EE400A03F069
:101110006FBA606808446060B04216DAF0EE480AC0
:10112000B0EE000AB0EE601A0AE060680844606041
:10113000B0420ADAF0EE480AB8EE000AB0EE601AE1
:1011400003F056FA6068B04212DB65602078B0EEBA
:10115000480A401C2070B0EE401AF0EE400A03F03E
:1011600047FABDEC028B3846BDE8F04107F049BEB6
:10117000BDEC028BBDE8F0812C00002000000000D7
:10118000014800F0EBBF000028120020014800F0E9
:10119000E5BF000088120020014800F0DFBF00001A
:1011A000C00E0020014800F0D9BF0000E812002066
:1011B000014800F0D3BF0000C8110020014800F032
:1011C000CDBF00004813002001681823CAB2103AAE
:1011D000B2FBF3F2054B6FF30901032A9B5CC36575
:1011E00000D9091D816508467047000004A0000869
:1011F00010B5014600208B698A6A4FF0C07453B164
:10120000B3F5005F15D072B1012A0CD0022A0AD0C2
:10121000032A09D104E01AB1012A06D0022A03D117
:10122000C96AC90100D5012010BDC96AA142FAD01E
:1012300010BD002AF7D0012AF2D0022AF3D0032AE7
:10124000F3D010BD30B50468256825F480252560ED
:10125000046863608368402B036803D0996000686A
:10126000C26030BD9A600068C16030BD704772B620
:10127000FEE7000070B5604C5E4D2DED088B94EDDF
:10128000100ADFED5E0A94ED111A20EE200A61EEDD
:10129000200AB3EE031A60EE011A94ED050A60EE1F
:1012A000810A81EE80AA80EE809A1AEE100AFFF77A
:1012B000E9F941EC180B19EE100AFFF7E3F941ECDC
:1012C000100BB0EE481AF0EE681A04F0CDFA9FED5C
:1012D0004C1B51EC100B53EC112BFFF7E1F89FED79
:1012E0004A1B53EC112BFFF74DF9FFF70FFA08EEED
:1012F000100A19EE100AFFF7C5F941EC100B9FED2B
:1013000044BBB0EE4B1AF0EE6B1A04F09DFCB0EE4D
:10131000409AF0EE609A1AEE100AFFF7B3F941EC2A
:10132000100BB0EE4B1AF0EE6B1A04F08DFC53EC80
:10133000192B51EC100BFFF70CF841EC100B05F0DA
:101340000FFB51EC100BFFF7E1F908EE900A324861
:10135000DFED320A90ED060A284607F089FD18EE07
:10136000100AFFF78FF900EE100A21F0004210EE8C
:10137000101A9FED2B1B42EC101B53EC112B51EC60
:10138000100BFFF793F90ED295ED0F0A78EEC00A15
:1013900030EE280AC4ED060A84ED080A84ED0A0A34
:1013A000C4ED0C0A1BE09FED200AB5EEC08AF1EEF9
:1013B00010FA02DD38EE408A01E038EE008AD5ED01
:1013C0000F0A30EEA80A70EEE80AB1EE400A84ED8A
:1013D000060AC4ED080AC4ED0A0A84ED0C0A0020CE
:1013E00004EBC001401C81ED078A0428F8DBBDEC4A
:1013F000088B70BD50180020E008002000007042EB
:10140000000000000080664000000040FB21094011
:101410000000000000000040BC1800200000000098
:1014200000000000008056400000344378B50024DE
:10143000009490F83C20012A19D0012280F83C2029
:101440000A6807250368092A13D9DE680A3A02EBFD
:1014500042029540AE43DE600A788B680A3A02EB9E
:10146000420293400268D5682B43D36010E002200B
:1014700078BD1E6902EB42029540AE431E610A78B8
:101480008B6802EB42029340026815692B4313619B
:101490004A681F25072A13D203685E6B521E02EBAF
:1014A00082029540AE435E630A8893B20A79521E67
:1014B00002EB820293400268556B2B43536327E093
:1014C00003680D2A12D21E6BD21F02EB82029540D6
:1014D000AE431E630A8893B20A79D21F02EB8202DE
:1014E00093400268156B2B43136311E0DE6A0D3ADB
:1014F00002EB82029540AE43DE620A8893B20A791B
:101500000D3A02EB820293400268D56A2B43D36204
:101510001B4B0568194A9D420AD10D68122D07D14F
:10152000556825F400055560556845F480055560FB
:1015300005689D421DD1134D0B68AB4201D0112BA4
:1015400017D1536823F480035360536843F40003B6
:1015500053600968A9420CD10B490C4A0968B1FBD8
:10156000F2F101EB8101490000E0491E00910029E0
:10157000FBD180F83C40002078BD000000230140F2
:1015800000200140120000100000002040420F0027
:1015900070477047704770B504004FF0000603D0E5
:1015A000206C002510B107E0012070BD204600F03E
:1015B0001DF8656484F83C50206CC00610D4206C83
:1015C00020F4885040F0020020642046FFF7FAFA29
:1015D0006564206C20F0020040F00100206400E00F
:1015E000012684F83C50304670BD000070B586B0CE
:1015F000064614216846FEF7A1FE1E49306888425F
:1016000035D11D480025016841F4807101600068F2
:1016100000F48070059018481438016841F0040106
:1016200001600068694600F0040005903F200090CA
:101630000320CDE90105114800F036FF114C104898
:10164000C4E900050015A560C4E90350800060618D
:101650008000A0618011E0610002C4E90805204615
:1016600000F04CFE08B1FFF702FEB463A66306B0BB
:1016700070BD0000002001404438024000080240D4
:1016800010640240C00E0020F8B500230446009309
:1016900090F83C00012807D0012084F83C00206825
:1016A0008568ED0702D011E00220F8BD856845F09D
:1016B000010585603848394D0068B0FBF5F000EB56
:1016C000400000E0401E00900028FBD120688568A3
:1016D000ED075ED0256C40F20166B54345F4807598
:1016E00025644068400505D5206C20F4005040F486
:1016F00080502064206CC00404D5606C20F006008B
:10170000606400E0636484F83C30A36B2548244D9A
:10171000D863A36B24481864A36B2448D864236857
:101720006FF0220018602068436843F080634360D4
:101730002068836843F480738360134620680A46F8
:10174000A66B00F14C01304600F065FE6868184950
:10175000C006206806D088421BD1816811F0405F26
:1017600013D016E08842F8D0124A904203D1D1F843
:101770000423D206F1D0104A90420AD1D1F80413C2
:1017800001F01F011029E8D303E0816841F0804196
:1017900081600020F8BD00000000002040420F00E2
:1017A00000230140370B0008BB0B0008A50B000805
:1017B00000200140002101400022014090F820203B
:1017C000012A07D0022A05D0416A41F480214162F2
:1017D00001207047006842690A4342610020704757
:1017E000F0B590F820500468A468012D05D0022DB2
:1017F00003D0416A41F480215DE014F0406F01D1D3
:10180000E50055D5C4F30164022C03D9416A41F4C3
:10181000000150E00125A5401D608B684FF4C075A4
:101820009BB1CE6833434E6843EAC603066805EBB6
:101830000417F3514FF4C273076803EB04130E69E6
:10184000FE50097D012905D009E00E88CB6843EAE6
:101850004653EBE70168CE5846F48076CE501179B6
:10186000D379567941EA036193791B0443EA06234D
:1018700019434FF4C676036806EB041699511178A4
:10188000D37841EA0361937852781B0443EA022239
:1018900011434FF4C473026803EB0413D150006882
:1018A00005EB0411425842F0010242500020F0BD05
:1018B000416A41F4001141620120F0BD10B590F879
:1018C0002020012A07D0022A05D0416A41F4802154
:1018D0004162012010BD3B48D0F8002242F00102D5
:1018E000C0F80022D0F8002222F47C52C0F8002276
:1018F000D0F800224B6A42EA0322C0F800220A7D97
:1019000002F01F0301229A40D0F81C329343C0F822
:101910001C32CB69B3B9D0F80C329343C0F80C3207
:101920008C894B6864F31F434C6900EBC404C4F812
:1019300040320C890B6864F31F434C6900EBC4040C
:10194000C4F84432CB69012B16D1D0F80C321343C2
:10195000C0F80C320C884B6864F31F434C6900EBF1
:10196000C404C4F840320C89CB6864F31F434C694B
:1019700000EBC404C4F844328B69002BD0F8043265
:101980000ED01343C0F804320B69002BD0F8143288
:1019900008D01343C0F81432096A012904D008E0C2
:1019A0009343EFE79343F5E7D0F81C121143C0F8D7
:1019B0001C12D0F8001221F00101C0F80012002022
:1019C00010BD000000640040704730B590F8204022
:1019D000012C05D0022C03D0416A41F480215DE046
:1019E0000468002955D02469A40754D04FF4D87452
:1019F000056804EB01142D5915F004059560056880
:101A00002D594ED0ED08556005682C5904F002049C
:101A1000D4604FF4DA74056804EB01142D5905F015
:101A20000F05156105682D59C5F3072595610568F2
:101A30002C59240C54614FF4DC72046802EB01123F
:101A4000A4581C700468A458240A5C700468A45844
:101A5000240C9C700468A258120EDA704FF4DE72E7
:101A6000046802EB0112A4581C710468A458240AEB
:101A70005C710468A458240C9C710468A258120E6E
:101A8000DA71006881B1016941F020010161002033
:101A900030BDE468A8E7416A41F4001141620120C9
:101AA00030BD6D0D1560AFE7C16841F02001C16028
:101AB000EDE70246002092F82010012901D002290A
:101AC0000CD111688A68520100D501208A68120180
:101AD00000D5401C8968C90000D5401C70472DE91D
:101AE000F05F0546006800244669D0F804908768D6
:101AF000D0F80CB0D0F810A0D0F81880F10748D07A
:101B0000F90714D001218160B80703D5284600F0F9
:101B1000C6FA0CE0780702D54FF4006407E03807F6
:101B200002D54FF4805402E0284600F0B7FAF805D9
:101B300016D529684FF480708860B80503D528460B
:101B400000F0AFFA0CE0780502D544F4005407E049
:101B5000380502D544F4804402E0284600F0A0FA9B
:101B6000F80316D529684FF480308860B80303D590
:101B7000284600F098FA0CE0780302D544F40044BB
:101B800007E0380302D544F4803402E0284600F030
:101B900089FA300707D55FEACB6004D529681020A1
:101BA00044F40074C86070074FF0080707D55FEA77
:101BB0000B7004D52868C760284600F0A7F9B00765
:101BC00006D52868C068800702D0284600F0A0F932
:101BD000700607D55FEACA6004D52968102044F46E
:101BE00080640861B00607D55FEA0A7004D52868EA
:101BF0000761284600F024FAF00606D52868006937
:101C0000800702D0284600F01CFAB00308D55FEA2E
:101C1000C96005D5296810204860284600F012FAEE
:101C2000F00307D55FEA097004D5286847602846A5
:101C300000F03AFA300446D55FEA497040D5F00525
:101C400004D55FEAC87001D044F00104B00504D5A2
:101C50005FEA887001D544F00204700504D55FEA9C
:101C6000487001D544F00404300529D518F0700FF0
:101C700026D008F07000402815D006DC102809D0C6
:101C800020280AD0302816D10AE050280ED060282B
:101C900011D10EE044F008040DE044F010040AE015
:101CA00044F0200407E044F0400404E044F08004E1
:101CB00001E044F480742868816921F07001816139
:101CC000296804204860002C05D0686A20436862B7
:101CD0002846FFF779FEBDE8F09F70B5040003D0F9
:101CE00094F8200010B104E0012070BD204600F0FF
:101CF00081F82068016821F00201016000F0C2FC57
:101D00000546052604E000F0BDFC401B0A2811D85A
:101D1000206840688007F6D42068016841F001011E
:101D2000016000F0AFFC05460BE000F0ABFC401B8F
:101D30000A2806D9606A40F40030606284F82060A6
:101D4000D2E720684068C007EFD0207E01282068D5
:101D500001683DD021F080010160607E012820688B
:101D6000016838D021F040010160A07E0128206880
:101D7000016833D021F020010160E07E0128206855
:101D800001682ED041F010010160207F01282068F9
:101D9000016829D021F008010160607F01282068D6
:101DA000016824D021F004010160D4E90201084354
:101DB000D4E90412114308436168491E08432168AD
:101DC000C86100206062012084F82000002070BDFE
:101DD00041F08001C0E741F04001C5E741F020013A
:101DE000CAE721F01001CFE741F00801D4E741F044
:101DF0000401D9E7F0B587B0044614216846FEF720
:101E00009DFA3D493D4ADFF8ECE00868D4F800C08F
:101E10003A4B03240225092610320027401CF445C2
:101E200029D10860012807D1106840F000701060C7
:101E3000106800F000700590186840F00800186005
:101E400018688DE8B00000F00800CDE9046069462C
:101E500003942B4800F028FB00220521132000F0FA
:101E60009DFC132000F08CFC00220521142000F0C2
:101E700095FC14203AE0DFF88CE0F44538D1D2F834
:101E800000C04CF0806CC2F800C0D2F800C001283D
:101E90000CF0806CCDF814C0086007D1106840F0D9
:101EA00000701060106800F000700590186840F035
:101EB000020018601868694600F0020005904FF4AF
:101EC00040508DE8A100CDE903460F4800F0ECFA40
:101ED000002205213F2000F061FC3F2000F050FC73
:101EE00000220521402000F059FC402000F048FC71
:101EF00007B0F0BD006400406400002030380240AC
:101F0000000C0240006800400004024070470000DE
:101F100010B58AB004466B4602AA0021FFF755FDB2
:101F200043492068884202983BD1A0F2012008284A
:101F300032D2DFE800F004120C06171D23293D48B9
:101F40006EE03C4901F1A800D1F8D81069E03949A8
:101F500001F17000D1F8A01063E0364901F13800BA
:101F6000896E5EE0334901F1E000D1F8101158E0CC
:101F7000304901F58C70D1F8481152E02D4901F536
:101F8000A870D1F880114CE02A4901F5C470D1F84D
:101F9000B81146E005F0D4FF0AB010BD05F0A8FF67
:101FA000FAE740F203232449A0F20322984231D0F9
:101FB00028DC224AB2EE040A042806D01BDC0128E1
:101FC00003D0022801D00328E6D1BDF802109DF805
:101FD000043049BA090441EA03219DF8053002EBB7
:101FE0008000194300EE901AF8EE600A80EE801A25
:101FF00000ED011AD0E7A0F50072013A0AD0012ADB
:10200000CAD107E0062AC7D2DFE802F003040404BD
:102010000404C1E7401EC0B2C0EBC00001EBC00029
:10202000016B4A1C322902636946B7D8B2E7000047
:1020300000640040E8130020A81500206817002065
:1020400070477047704770B5044690F8200001282B
:1020500004D0606A40F40020606217E0022084F837
:1020600020002068016821F00101016000F00AFBF6
:1020700005460DE000F006FB401B0A2808D9606AFF
:1020800040F400306062052084F82000012070BD1B
:1020900020684068C007EDD1606270BD704770472E
:1020A000704770477047704770472DE9F04104460C
:1020B000876D00F0E7FA054694F8350000260228FF
:1020C00006D08020606584F834600120BDE8F0818E
:1020D0002068016821F0160101602068416921F043
:1020E00080014161206C08B9A06C20B120680168B2
:1020F00021F0080101602068016821F00101016000
:102100000BE000F0BFFA401B052806D920206065CF
:1021100004F8346F03206070D8E720680068C007B7
:10212000EFD194F85C103F208840B86004F8346F19
:10213000012060700020C9E790F83510022903D013
:102140008021416501207047052180F83510006825
:10215000016821F001010160002070472DE9F8437A
:1021600004464FF00009CDF8009063484FF4165133
:10217000A56D0068B0FBF1F72E6894F85C2008218B
:1021800001FA02F030420FD02068026852070BD5E6
:10219000026822F00402026094F85C008140A960A9
:1021A000606D40F00100606594F85C104FF001082C
:1021B00008FA01F0304208D021684969090604D5BF
:1021C000A860606D40F00200606594F85C10042027
:1021D0008840304208D021680968890704D5A86082
:1021E000606D40F00400606594F85C101020884039
:1021F000304218D021680968090714D5A860206802
:102200000168490304D50068000308D5A16C07E004
:102210000168C90503D4016821F008010160216C3F
:1022200009B12046884794F85C102020884030424D
:1022300031D021680968C9062DD5A86094F8350009
:1022400005282068016806D0490347D500680003C7
:102250001DD4616C1CE021F0160101602068416909
:1022600021F080014161206C08B9A06C20B1206888
:10227000016821F00801016094F85C103F2088405B
:10228000A86084F8349084F83580216D1FE0E16BFC
:1022900009B120468847606D00282BD0606DC007CB
:1022A00014D0052084F835002068016821F0010170
:1022B00001600098401C0090B84203D82068006874
:1022C000C007F6D184F8349084F83580E16C002999
:1022D00010D001B02046BDE8F04308470168C905A9
:1022E000D5D4016821F01001016084F8349084F89D
:1022F0003580CCE7BDE8F883000000202DE9F041EF
:10230000044600F0BFF905465CB1002684F834604D
:10231000022084F835002068016821F00101016085
:102320000DE00120BDE8F08100F0ACF9401B05286C
:1023300005D920206065032084F83500F2E7206885
:102340000068C007F0D121680A6820480240D4E93B
:1023500001031843D4E903352B4318436369184339
:10236000A3691843E3691843236A18431043626A58
:10237000042A03D1D4E90B231A43104308602068D0
:102380004069656A20F0070128460D4301270428AB
:102390000CD1A06A0543E06A40B12046FEF728FF51
:1023A00020B14020606584F83570BAE72068456147
:1023B0002046FEF709FF94F85C203F2191408160A0
:1023C000666584F835700020ACE700003F8010F0AF
:1023D00070B5044690F83400002501280CD0012087
:1023E00084F8340094F835600020012E06D084F87B
:1023F00034000225284670BD022070BD022684F8F4
:10240000356060652046FEF71DFF2068016841F0D9
:1024100001010160EEE72DE9F0410446866D90F878
:102420003400002501280DD0012084F8340094F8F0
:1024300035700020012F07D084F83400022528468B
:10244000BDE8F0810220FBE7022784F83570606563
:102450002046FEF7F7FE94F85C103F208840B060FD
:102460002068016841F016010160206C20B12068ED
:10247000016841F0080101602068016841F0010134
:102480000160DCE770B5044600F0FCF80546601C0E
:1024900002D004480078044400F0F4F8401BA04245
:1024A000FAD370BDCC0000202DE9F84FDFF894B1CD
:1024B00000224FF003094FF00F0A0BF1040E012523
:1024C0000B6895402B40AB4272D14C68012C05D073
:1024D000022C03D0112C01D0122C10D1866854008C
:1024E00009FA04F7BE43CF68A740374387604468C2
:1024F000AC430D79C5F30015954025434560C4688C
:10250000570009FA07F58E68AC43BE402643C66003
:102510004C68022C01D0122C12D1D40800EB840C90
:10252000DCF820605407E40E0AFA04F826EA0806EC
:10253000D1F8108008FA04F848EA0608CCF82080A0
:102540000468AC430D7905F00305BD4025430560E3
:102550004C68E4006FD53C4C256845F48045256007
:10256000246822F0030504F480440094374C2E19AB
:10257000D6F808789407250F0AFA05F4A743344CD7
:10258000A04201D100242EE0324CA04201D101240E
:1025900029E0314CA04201D1022424E02F4CA0427A
:1025A00001D103241FE02E4CA04202D104241AE0E2
:1025B00041E02C4CA04201D1052414E02A4CA04259
:1025C00001D106240FE0294CA04201D107240AE0E2
:1025D000274CA04201D1082405E0264CA04201D19D
:1025E000092400E00A24AC403C43C6F80848DBF864
:1025F00000405D464E689C43F60300D51C432C60AA
:10260000DEF8004075464E689C43B60300D51C4377
:102610002C600C4D08352C684E689C43F60200D5A2
:102620001C432C60074D0C352C684E689C43B60249
:1026300000D51C432C60521C102AFFF440AFBDE8AB
:10264000F88F0000003C0140443802400030014057
:10265000000002400004024000080240000C02405A
:10266000001002400014024000180240001C02400A
:1026700000200240002402400AB181617047090431
:10268000FBE700000148806870470000CC00002094
:10269000024881680278114481607047CC000020B4
:1026A0000B4810B5016841F400710160016841F404
:1026B00080610160016841F480710160032000F0D5
:1026C0008DF8002000F006F800F03EF8002010BD64
:1026D000003C024010B5014688B00022362000F0D0
:1026E0005DF8362000F04CF813480024016841F0F2
:1026F00010010160006805A900F01000069068460E
:1027000000F050F900F06EF90C494000B0FBF1F117
:102710000C480B4A491E026040F2E732C0E903242C
:10272000C0E9011400F002FD10B1012008B010BD95
:10273000044800F035FDF9E74038024040420F0000
:1027400000100040A81300200C4882B0016841F43A
:1027500080410160006800F4804000900748001F3D
:10276000016841F0805101600068002200F0805053
:1027700000900F21901E02B000F010B844380240C3
:10278000002809DB00F01F02012191404009800070
:1027900000F1E020C0F8001170470000F0B40E4BCB
:1027A0001B68C3F30223C3F10704042C00D90424DB
:1027B0001D1D072D01D2002300E0DB1E012606FAB5
:1027C00004F56D1E0D409D409E40761E164045EA64
:1027D0000601F0BC02F01ABD0CED00E0064A00F064
:1027E000070110684FF6FF03184040EA0120034933
:1027F00008431060704700000CED00E00000FA058F
:102800002DE9F8431748016841F0805101600068E4
:10281000DFF8548000F0805001270090C8F8407025
:10282000FFF730FF04464FF47A75104E04E0FFF7CF
:1028300029FF001BA8420DD87068C003F7D5C8F85F
:102840004470FFF71FFF044607E0FFF71BFF001B64
:10285000A84202D90320BDE8F88370688003F4D54C
:102860000020F8E74038024000000E4200700040AF
:102870002DE9F0470D46040065D0DFF81491D9F832
:102880000000EFB200F00F00A84207D289F80070F4
:10289000D9F8000000F00F00A84254D120683D4E46
:1028A000810712D5400703D5306840F4E05030600E
:1028B0002078000703D5306840F46040306030680D
:1028C000A16820F0F000084330602078C0072DD0C8
:1028D000304960680839012812D0022813D0032833
:1028E00011D00968890700292DDA316821F0030128
:1028F00001433160FFF7C6FE804641F2883A0EE0A0
:1029000009688903EFE709688901ECE7FFF7BAFE78
:10291000A0EB0801514502D90320BDE8F0873068DB
:10292000616800F00C00B0EB810FEFD1D9F8001016
:10293000484601F00F01A94207D90770006800F06E
:102940000F00A84201D00120E7E72078400705D515
:102950003068E16820F4E0500843306020780007D8
:1029600006D53068216920F4604040EAC10030603B
:1029700000F058F83168084AC1F30311515CC840AF
:102980000649086006480068FFF7A4FE0020C4E777
:10299000003C024008380240689F00080000002008
:1029A000D00000200F2202600C4A136803F00303DA
:1029B0004360136803F0F0038360136803F4E0538B
:1029C000C36012684FF4E05303EAD2020261044884
:1029D000006800F00F0008607047000008380240EF
:1029E000003C02400448054900680968044AC1F3F4
:1029F0008221515CC8407047000000200838024026
:102A0000789F00080448054900680968044AC1F332
:102A10004231515CC8407047000000200838024035
:102A2000789F0008154810B5006810F00C01144894
:102A300013D0144B04290FD008290ED10F4C241F9A
:102A4000216801F03F022168490207D52068C0F3E0
:102A50008810A0FB030106E0184610BD2168C1F3F1
:102A60008811A1FB00010023FDF71EFC2168C1F3C2
:102A70000141491C4900B0FBF1F010BD083802408B
:102A80000024F400001BB7002DE9F84F040075D0B6
:102A90002078DFF828A3C007AAF1040548D00AF17E
:102AA00004000168C1F38101012908D00068C0F366
:102AB000810002280AD1DAF80000400206D5286811
:102AC000800335D560680028E1D031E06068B0F55A
:102AD000803F10D0B0F5A02F286810D020F48030AF
:102AE0002860286820F4802028606068A0B1FFF783
:102AF000C9FD06460CE0286840F48030F4E740F455
:102B000080202860F7E7FFF7BDFD801B642871D89F
:102B100028688003F7D50BE0FFF7B4FD064604E014
:102B2000FFF7B0FD801B6428F1D828688003F7D434
:102B30002078DFF88C9280074FF0000B3DD59F483E
:102B4000001D016811F00C0F08D00068C0F381006F
:102B500002280AD1DAF80000400206D4286880076B
:102B600015D5E068012809D111E0E068B8B101216C
:102B7000C9F80010FFF786FD064605E01AE1FFF7E9
:102B800081FD801B0228C2D828688007F7D52868F5
:102B9000216920F0F80040EAC10028600DE0C9F882
:102BA00000B0FFF76FFD064604E0FFF76BFD801BEA
:102BB00002281FD828688007F7D42078000722D57C
:102BC0007E4F80486169703771B101210160FFF764
:102BD00059FD064604E0FFF755FD801B022809D881
:102BE00038688007F7D50EE0C0F800B0FFF74AFD5F
:102BF000064605E082E0FFF745FD801B02287DD8F0
:102C000038688007F7D42078400765D56B484FF0C7
:102C100000083C300068C0000BD468483C300168B4
:102C200041F08051016000684FF0010800F08050D1
:102C30000090654F3868C0050FD4386840F4807044
:102C40003860FFF71FFD064604E0FFF71BFD801B01
:102C5000022853D83868C005F7D5584FA0686C379C
:102C600001280FD00528386810D020F00100386006
:102C7000386820F004003860A068B0B1FFF702FDAA
:102C800006460EE0386840F00100F4E740F004002A
:102C90003860F7E7FFF7F6FC811B41F2883081428C
:102CA00063D838688007F5D50DE0FFF7EBFC0646E2
:102CB00006E0FFF7E7FC811B41F28830814254D8DF
:102CC00038688007F5D4B8F1000F05D03B483C3098
:102CD000016821F080510160A069B8B33749091D2E
:102CE0000968C1F38101022946D00228584606D05E
:102CF000C9F86000FFF7C6FC044639E035E04F46EE
:102D0000C9F86000FFF7BEFC064604E0FFF7BAFC16
:102D1000801B022829D828688001F7D4D4E907014C
:102D20000843A16A294A490802EB0141626A41EA63
:102D30008211084394F82C1040EA0161CAF800108F
:102D400001203866FFF79EFC044605E034E0FFF7FB
:102D500099FC001B022808D828688001F7D52BE0D1
:102D6000FFF790FC001B022802D90320BDE8F88F72
:102D700028688001F4D41FE00128F7D0DAF80000B9
:102D8000E26900F48001914214D1226A00F03F010F
:102D900091420FD147F6C071626A0140914209D158
:102DA000A26A00F44031914204D1E16A00F07060FF
:102DB000884201D00120D9E70020D7E7043802403B
:102DC00000004742800E4742007000400000FFFFB5
:102DD00070B5040005D00025A56294F8510010B12B
:102DE00006E0012070BD84F85050204600F030F815
:102DF000022084F851002068016821F04001016040
:102E0000D4E901010843D4E903121143084361697D
:102E10000843218B01F400710843E1690843216AEA
:102E20000843A16A084321680860A069042101EAF7
:102E30001040616A0843216848602068C16921F434
:102E40000061C1616565012084F85100002070BDFA
:102E500010B586B0044614216846FDF76FFA144990
:102E60002068884221D113480021026842F4801270
:102E70000260006800F4801005900E481438026863
:102E800042F020020260006800F0200005904FF43C
:102E9000607000900220CDE901010320039005201D
:102EA000049069460448FFF7FFFA06B010BD000021
:102EB0000050014044380240001402402DE9F84F10
:102EC000044690F8500001250A9E1F4692468B4604
:102ED0004FF0000801280ED0012084F85000FFF7C1
:102EE000D1FB814694F85100616801280CD0B1F5FE
:102EF000827F07D102E00220BDE8F88FA16809B9FE
:102F0000042801D00220B6E0BBF1000F27D0BAF1AF
:102F1000000F24D01FB394F85100042802D00520DC
:102F200084F8510000206065C4F838A0E787A787BF
:102F3000C4F830B0E786A786206460642068016822
:102F4000490603D4016841F040010160E068B0F532
:102F5000006F606805D0E8B3012F43D079E001200D
:102F600089E008B1012F34D1206B21680088C86046
:102F7000206B801C2063E08E401EE08629E02068E4
:102F8000816889070DD5E18E59B1012D09D1216BD9
:102F90000988C160206B801C2063E08E401EE086A3
:102FA000002520688168C9070BD0E18F49B1C0684E
:102FB000A16B0880A06B801CA063E08F401EE0879F
:102FC0000125FFF75FFBA0EB0900B04201D3701CA5
:102FD00050D100E006E0E08E0028D0D1E08F00283C
:102FE000CDD13CE0206B216800780873206B401C39
:102FF0002063E08E401EE0862BE020688168890710
:103000000DD5E18E59B1012D09D1216B09780173DC
:10301000206B401C2063E08E401EE0860025206867
:103020008168C9070BD0E18F49B1C068A16B0870F6
:10303000A06B401CA063E08F401EE0870125FFF7D6
:1030400021FBA0EB0900B04202D3701C01D011E0BB
:1030500086B1E08E0028D0D1E08F0028CDD14A463D
:103060003146204601F04EFA38B120204FF00108D9
:10307000606508E00320804605E0A06818B9206874
:10308000C16880680090012084F85100002084F815
:103090005000404630E770477047000070B590F828
:1030A0003C20012A32D0012580F83C50022280F8D1
:1030B0003D2002685368946823F070060B68334320
:1030C0005360134B02689A4214D0B2F1804F11D072
:1030D000104B9A420ED0104B9A420BD00F4B9A4293
:1030E00008D00F4B9A4205D00E4B9A4202D00E4B9D
:1030F0009A4204D1496824F080031943916080F812
:103100003D50002180F83C10084670BD022070BD83
:10311000000001400004004000080040000C004096
:1031200000040140004001400018004010B50400B8
:1031300003D094F83D0010B107E0012010BD00203D
:1031400084F83C00204600F00DF8022084F83D0091
:10315000211D206801F0BEFC012084F83D00002004
:1031600010BD000008B500680B49884212D10B4819
:10317000016841F0200101600068002200F0200099
:10318000009005213720FFF709FBBDE808403720F4
:10319000FFF7F6BA08BD00000014004040380240B6
:1031A0000168CA6842F00102CA600068816801F0E3
:1031B0000701062903D0016841F0010101600020E8
:1031C0007047704770B50446006801694FF000050C
:1031D000C943890715D4C168C943890711D4E91EB9
:1031E000016101202077206880698007204602D095
:1031F000FFF7E7FF04E000F007F9204600F0B8F918
:10320000257720680169C943490717D4C168C943B4
:10321000490713D46FF00401016102202077206870
:10322000806910F4407F204602D0FFF7CAFF04E017
:1032300000F0EAF8204600F09BF925772068016944
:10324000C943090716D4C168C943090712D46FF0EE
:1032500008010161042020772068C06980072046AA
:1032600002D0FFF7AEFF04E000F0CEF8204600F0F9
:103270007FF9257720680169C943C90617D4C16859
:10328000C943C90613D46FF01001016108202077EB
:103290002068C06910F4407F204602D0FFF791FFFC
:1032A00004E000F0B1F8204600F062F925772068CC
:1032B0000169C943C90708D1C168C943C90704D115
:1032C000891E0161204600F077F920680169C94331
:1032D000090609D4C168C943090605D46FF0800105
:1032E00001612046FFF7D7FE20680169C9434906FE
:1032F00009D4C168C943490605D46FF04001016192
:10330000204600F0F3F920680169C94389060BD40F
:10331000C168C943890607D46FF0200101612046C6
:10332000BDE87040FFF7B8BE70BD000030B587B093
:10333000044614216846FDF701F82B4A2168002451
:103340002A48022591420FD1016841F0080101602D
:103350000068694600F0080005904FF47040009046
:10336000CDE90154224823E0224A914226D1016846
:1033700041F480710160016801F480710591016878
:1033800041F0800101600068694600F0800005900E
:1033900001200090CDE901541748CDE90345FFF71E
:1033A00083F84FF4E0500090CDE90154134869468A
:1033B000CDE90345FFF778F807B030BD104A9142D8
:1033C000FAD1016841F0100101600068694600F01F
:1033D0001000059060200090CDE901540320CDE954
:1033E00003400848E6E7000000080040303802408B
:1033F000000C0240000C004000200240001C024073
:103400000040014000100240704770B5044690F83B
:103410003C000D4601280DD0012684F83C600220B6
:1034200084F83D0042B1042A18D0082A2AD00C2A78
:103430004DD139E0022070BD206801F0BDFB20684D
:10344000816941F0080181612068816921F00401EE
:103450008161206881692A69114311E0206801F0C7
:10346000DBFB2068816941F400618161206881692A
:1034700021F480618161206881692A6941EA022121
:10348000816124E0206801F0FDFB2068C16941F002
:103490000801C1612068C16921F00401C16120688F
:1034A000C1692A69114311E0206801F01FFC2068FE
:1034B000C16941F40061C1612068C16921F4806182
:1034C000C1612068C1692A6941EA0221C16184F8A9
:1034D0003D60002084F83C0070BD10B5040003D0AE
:1034E00094F83D0010B107E0012010BD002084F8E1
:1034F0003C00204600F00CF8022084F83D00211D1D
:10350000206801F0E7FA012084F83D00002010BD9A
:1035100008B50068124A1349904207D1086840F084
:1035200004000860086800F0040009E00E4A9042B8
:1035300008D1086840F008000860086800F008003A
:10354000009008BD09498842FBD10648001D01686A
:1035500041F480310160006800F48030F0E7000041
:103560000008004040380240000C0040004001408C
:103570007047000010B504460068012201F00EFB00
:103580000B482168814202D00A48814203D1486C2D
:1035900040F4004048642068816801F00701062972
:1035A00003D0016841F001010160002010BD00005E
:1035B000000001400004014070B505462DED028B6E
:1035C00000684249884274D14148424C017A01293D
:1035D00005D0022919D0032955D0E9B369E00A20A2
:1035E000FDF748FED4ED0D1A94ED0B1AD4ED090A3F
:1035F00094ED070A05F0ECFFD4ED0C1A94ED0A1ACD
:10360000D4ED080A94ED060A51E0B0F90210DFED9E
:10361000320A00EE101AB0F90410DFED301AB8EEDD
:10362000C00AB0F9060080EE201A00EE101AB8EEBB
:10363000C00AC0EE210A00EE100AB8EEC02A82EEDF
:10364000210AFDF7D9FBD4ED0D1A94ED0B1AD4ED38
:10365000090A94ED070A00E015E005F0B9FF2048DB
:10366000D4ED0C0A94ED062A90ED0F0A70EEC01A04
:10367000D4ED0A0A30EE801AD4ED080A70EE800A02
:1036800032EE400A13E09FED178AF0EE481AB0EED2
:10369000481AF0EE480AB0EE480A05F099FFF0EE3D
:1036A000481AB0EE481AF0EE480AB0EE480A05F0A3
:1036B00049FF0D492868884205D1BDEC028BBDE861
:1036C0007040FEF7E5BFBDEC028B70BD00140040FA
:1036D0003E210020E00800200000254400007A433D
:1036E000501800200000000000100040704710B586
:1036F00004460068416994F83920C1F3C011212AB9
:103700000BD151B1416921F080014161206B08B1B9
:10371000FEF7CBFC204601F08BFB2068416994F852
:103720003A20C1F38011222A0BD151B1416921F015
:1037300040014161606B08B1FEF7B7FC204601F023
:1037400069FB002010BD704770B502680446106820
:10375000D168536910F00F0F52D003F0010501F446
:1037600090762E435FD0C20705D0CA0503D5E26B21
:1037700042F00102E263420705D5DA0703D0E26BAB
:1037800042F00202E263820705D5DA0703D0E26B5A
:1037900042F00402E263020707D501F020022A4347
:1037A00003D0E26B42F00802E263E26B002A33D0FE
:1037B000800604D5880602D5204601F042FB206829
:1037C0004069E16BC0F38010090700D428B320469C
:1037D00001F020FB2068416949061AD5416921F0B2
:1037E00040014161606BA0B11B490165606BFEF750
:1037F000A3FC002810D0606B016DBDE87040084745
:10380000830610D58B060ED52046BDE8704001F02A
:1038100018BB2046FFF797FF70BD2046FFF793FFC8
:103820000020E06370BD030606D50B0604D52046D4
:10383000BDE8704001F0E4BB4006F3D54806F1D581
:10384000D168204621F04001D160202184F8391050
:1038500000F080FA70BD00003D4D000870B5040016
:1038600004D094F83900002510B106E0012070BDA5
:1038700084F83850204600F023F8242084F83900DA
:103880002068C16821F40051C160204601F024FB8A
:103890002068016921F4904101612068416921F0AB
:1038A0002A0141612068C16841F40051C160E563AB
:1038B000202084F8390084F83A00002070BD000010
:1038C0002DE9F04F87B0044614216846FCF736FD19
:1038D0009F48DFF87882143802212368DFF870B23D
:1038E000032200250715CE034FF0070C4FF4807913
:1038F000434540D1DBF8008048F01008CBF8008049
:10390000DBF8003003F010030593036843F0020373
:103910000360006802AB00F002000590C020CDE912
:103920000001012083E8051069468A48FEF7BCFDC6
:10393000DFF8288288494046C8F80010F102C0E943
:103940000115C0E90357C8F82060C8F81450C8E949
:103950000659C8F82450FEF7D1FC08B1FDF787FCE2
:10396000C4F83480002205212520C8F83840FEF72D
:1039700015FF252063E0DFF8E881DFF8D4A1DFF848
:10398000E4E1AAF1040A43455ED1DAF8008048F484
:103990000038CAF80080DAF8003003F400330593E9
:1039A000036843F008030360006800F00800059016
:1039B00060208DE82300CDE9032C69467046FEF7B0
:1039C00073FDDFF89881684908F1600840464FF0C0
:1039D000006AC8F80010C0E901A5C0E90357C8F89B
:1039E0002060C8F81450C8E90659BB46C8F82450EE
:1039F000FEF784FC08B1FDF73AFC584F5A48C4F86A
:103A00003480C0371830C8F83840E7E8020A402050
:103A1000A7E82108514847F81459C030BD61C7E9EB
:103A200007567D62FEF76AFC08B1FDF720FC2763AC
:103A3000002205212620BC63FEF7B0FE2620FEF7FB
:103A40009FFE07B0BDE8F08FDFF8208143451DD110
:103A5000DAF8004044F48024CAF80040DAF8003074
:103A600003F480230593036843F0080303600068B0
:103A700000F0080005904FF440708DE82300CDE978
:103A8000032C69467046FEF70FFDDAE7DFF8E0C069
:103A90006345D6D1DBF800C04CF0200CCBF800C059
:103AA000DBF8003003F020030593036843F0400384
:103AB0000360006800F0400005904FF484408DE8FA
:103AC00023000820CDE9032069462A48FEF7ECFCD4
:103AD0002149DFF8A480183940464FF0206BC8F820
:103AE0000010C0E901B5C0E90357C8F82060C8F864
:103AF0001450C8E90659BA46C8F82450FEF7FEFB30
:103B000008B1FDF7B4FB1C4F1348C4F8348060378C
:103B10006030C8F83840E7E8020B4020A7E82104ED
:103B2000154847F814596030BD61C7E907567D62F2
:103B3000FEF7E4FB08B1FDF79AFB2763002205219D
:103B40004720BC63FEF72AFE472078E700100140BB
:103B5000443802400004024040640240C811002082
:103B600000440040000C02408860024000480040D1
:103B70000014014000180240E812002037B5044646
:103B800090F83A0082B0134620283AD1039AAAB39B
:103B9000A3B394F83800012833D0012084F838000A
:103BA000A262A3850025E563222084F83A00616BB8
:103BB0001548C863616B15480864616B1448C86494
:103BC000606B05652168606B091DFEF724FC2068A9
:103BD00001684168009184F83850C16841F48071EF
:103BE000C1602068416941F001014161206841697B
:103BF00041F040014161002005B030BDFFE70120E8
:103C0000FAE70220F8E70000974D0008D34D0008BE
:103C10004D4D0008704770472DE9F843044690F871
:103C200039001E4617460D46202850D1B5B1AFB118
:103C300094F8380001284AD0012084F838004FF069
:103C40000008C4F83C80212084F83900FEF71AFDF2
:103C5000A7848146E78484F8388026E00120BDE807
:103C6000F883E08C401EE084A0684B46B0F5805F8E
:103C70004FF000024FF080012046009603D001F083
:103C8000F0F9E8B90DE001F0ECF9C8B9288821682D
:103C9000C0F308004860206908B16D1C05E0AD1C48
:103CA00003E0216815F8010B4860E08C0028D8D1AA
:103CB0004B46002240212046009601F0D2F908B17F
:103CC0000320CCE7202084F839000020C7E7022039
:103CD000C5E70000F7B5044690F83900202831D137
:103CE000019969B362B394F8380001282AD0012001
:103CF00084F838002162A284E2840025E563212053
:103D000084F83900236B1048D863236B0F4818647C
:103D1000236B0F48D864206B134605652668206B1B
:103D2000321DFEF778FB21686FF04000086084F8D0
:103D300038502068416941F0800141610020FEBD9A
:103D40000120FEBD0220FEBDDD4D00080B4E000827
:103D50004D4D000870477047FEE700000E484FF4D5
:103D6000A5719FED0E0A016080ED020A80ED030A45
:103D70009FED0B0A042180ED040A9FED0A0A80EDF5
:103D8000050A9FED090A416080ED100A80ED110AD5
:103D900080ED120A70470000E00800206666263FAA
:103DA0000000FA437E56FD3E000000007FB500246F
:103DB00031480094019402942E4903940160012536
:103DC0004FF480310561C0E90114057680F8204088
:103DD0002A49C0E90A140626C661C46080F830503A
:103DE0004561FDF7D8FB08B1FDF741FA0C20CDE99C
:103DF0000005694602942048FDF718FB08B1FDF75D
:103E000036FA0D2000900220019069461A48FDF70D
:103E10000DFB08B1FDF72BFA0E2000900320019056
:103E200069461548FDF702FB08B1FDF720FA0F209F
:103E300000900420019069460F48FDF7F7FA08B199
:103E4000FDF715FA0A2000900520019069460A48FE
:103E5000FDF7ECFA08B1FDF70AFA0B20CDE90006F0
:103E600069460548FDF7E2FA002801D0FDF7FFF9A1
:103E70007FBD000000200140780E00200100000FEF
:103E80000F4810B50D4901600521416000214FF434
:103E900000328160C0E903125201426101760122C1
:103EA00042768176C17601774177FDF716FF0028CB
:103EB00003D0BDE81040FDF7DAB910BD0064004042
:103EC000200F00200F4810B50D4901600521416009
:103ED00000214FF400328160C0E9031252014261B7
:103EE0000176012242768176C17601774177FDF72E
:103EF000F4FE002803D0BDE81040FDF7B8B910BDAE
:103F000000680040480F0020214808B5016841F4CE
:103F100080010160016801F480010091016841F4B1
:103F2000001101600068002200F4001000900521DB
:103F30001020FEF733FC1020FEF722FC00220521A2
:103F40001120FEF72BFC1120FEF71AFC00220521A0
:103F50003820FEF723FC3820FEF712FC0022052152
:103F60003920FEF71BFC3920FEF70AFC0022052150
:103F70003A20FEF713FC3A20FEF702FC002205214E
:103F80004520FEF70BFCBDE808404520FEF7F8BBD6
:103F90003038024010B59CB01C2216496846FCF728
:103FA000B4F90021684604F038FF134C11491C2273
:103FB000E0611C3107A8FCF7A8F9002107A804F06C
:103FC0002CFF0C4920621C2238310EA8FCF79DF909
:103FD00000210EA804F021FF064960621C22543122
:103FE00015A8FCF792F9002115A804F016FFA062AD
:103FF0001CB010BD809F0008380000202DE9F04F54
:1040000087B014216846FCF799F9674800240168D5
:1040100041F010010160016801F010010591016893
:1040200041F040010160016801F040010591016823
:1040300041F008010160016801F008010591016883
:1040400041F001010160016801F001010591016881
:1040500041F002010160016801F00201059101686F
:1040600041F480710160016801F48071059101687B
:1040700041F020010160016801F020010591016813
:1040800041F080010160016801F080010591016843
:1040900041F0040101600068002200F00400059076
:1040A00088214248FEF7E8FA012241F204013F4824
:1040B000FEF7E2FADFF8F8904FF40056002231469E
:1040C0004846FEF7D9FADFF8ECA04FF4217700223A
:1040D00039465046FEF7D0FADFF8DCB044F240082B
:1040E000002241465846FEF7C7FA002230213348E5
:1040F000FEF7C2FA8C2000900125CDE901546946F3
:104100002A480394FEF7D0F90096CDE90154694698
:1041100048460394FEF7C8F98020CDE900046946BB
:1041200027480294FEF7C0F910208DE83100694657
:104130001E48FEF7B9F90097CDE90154694650468B
:104140000394FEF7B1F940F203408DE8310069466F
:104150005846FEF7A9F9CDF80080CDE9015469462B
:1041600058460394FEF7A0F90D2000901548CDE9BC
:10417000010469461148FEF797F930200090CDE917
:10418000015469460D480394FEF78EF92803CDE9E2
:1041900000050220CDE9024069460448FEF784F993
:1041A00007B0BDE8F08F0000303802400010024038
:1041B00000180240002002400014024000000240AB
:1041C000000C024000001110104810B50E490160AB
:1041D0004FF48271416000218160C1604FF4007230
:1041E0000161C0E905123022C0E907214162816204
:1041F0000A21C162FEF7ECFD002803D0BDE81040A3
:10420000FDF735B810BD000000500140700F0020D0
:1042100010B58AB0002407941C2168460894FCF766
:104220008DF82248204901605921C0E9011444F663
:104230002061C0E903148461FFF74FF908B1FDF76D
:1042400016F8079407A919480894FEF727FF08B144
:10425000FDF70DF86020CDE90004029400226946C4
:1042600012480494FFF7D1F808B1FDF700F80422D2
:1042700069460E48FFF7C9F808B1FCF7F8FF0822B5
:1042800069460A48FFF7C1F808B1FCF7F0FF0C22B5
:1042900069460648FFF7B9F808B1FCF7E8FF03489C
:1042A000FFF744F80AB010BD00080040C80F002016
:1042B00010B58AB0002407941C2168460894FCF7C6
:1042C0003DF82248204901605921C0E9011444F613
:1042D0002061C0E903148461FFF7FFF808B1FCF71F
:1042E000C6FF079407A919480894FEF7D7FE08B13E
:1042F000FCF7BDFF6020CDE900040294002269466E
:1043000012480494FFF781F808B1FCF7B0FF0422CB
:1043100069460E48FFF779F808B1FCF7A8FF0822B4
:1043200069460A48FFF771F808B1FCF7A0FF0C22B4
:1043300069460648FFF769F808B1FCF798FF03489B
:10434000FEF7F4FF0AB010BD000C0040081000207A
:104350001CB500240E4800940C49019401605921B9
:10436000C0E9011441F288318461C160FEF7DEFECC
:1043700008B1FCF77CFF0094694605480194FEF7FC
:104380008DFE002801D0FCF772FF1CBD0014004018
:104390004810002010B588B01C216846FBF7CEFFFE
:1043A00016481549002401605921C0E9011444F65A
:1043B0002061C0E903148461FFF78FF808B1FCF7AE
:1043C00056FF6020CDE900040294002269460B48A4
:1043D0000494FFF71AF808B1FCF749FF0422694674
:1043E0000648FFF712F808B1FCF741FF0348FEF753
:1043F0009DFF08B010BD0000004001408810002063
:104400000D4810B50B4901600C49416000214FF483
:1044100080628160C0E903120C22C0E90521C161FC
:10442000FFF71CFA002803D0BDE81040FCF71FBFBF
:1044300010BD000000100140C8100020A08601003F
:104440000C4810B50A4901604FF416514160002133
:1044500081600C22C160C0E904128161C161FFF773
:10446000FDF9002803D0BDE81040FCF700BF10BDE7
:1044700000440040081100200C4810B50A490160B2
:104480004FF4E1314160002181600C22C160C0E93C
:1044900004128161C161FFF7E1F9002803D0BDE892
:1044A0001040FCF7E4BE10BD004800404811002059
:1044B0000C4810B50A4901604FF4E1314160002118
:1044C00081600C22C160C0E904128161C161FFF703
:1044D000C5F9002803D0BDE81040FCF7C8BE10BDE8
:1044E0000014014088110020FEE7704730B4034CEF
:1044F0004466034C846630BC04F09CBD35900008D3
:104500004390000838B504461248134D4FF47A73AF
:104510000068B0FBF5F0584300906068B0F5827F0A
:104520000DD10B46009200228021204600F016F8A3
:1045300070B1606D40F020006065032038BD0098C8
:1045400030B1401E009020688068C0430006F6D558
:10455000002038BD0000002000366E012DE9F0413A
:104560001D4617460E460446DDF8188008E0681C14
:1045700006D0FEF787F8A0EB0800A8420BD255B191
:104580002068806836EA000030D00020B842EED1C2
:104590000020BDE8F0812068416821F0E001416021
:1045A0006068B0F5827F0BD1A068B0F5004F02D0F3
:1045B000B0F5806F04D12068016821F040010160EE
:1045C000A06AB0F5005F09D12068016821F40051AC
:1045D00001602068016841F400510160012084F805
:1045E0005100002084F850000320D2E70120CDE7DD
:1045F000014880EC030A7047200900202DED028B52
:10460000494804F0D7FB494803F0A6FA022146487E
:10461000FDF7D4F802214548FDF7D0F803F0AAFBD6
:1046200003F0E6FAFFF79AFBFCF762FB9FED400A06
:10463000F0EE400A05F0F6F83E480068C16841F027
:104640001001C16064223C493A48FFF797FA3B48A1
:104650000068C16841F01001C160642238493748E0
:10466000FFF78CFA9FED371AF2EE090A9FED360A32
:104670004FF4FA7340F6AC5204213448FFF736FF8A
:104680009FED338ADFED338A4FF47A7541F2883437
:10469000B3EE0C1AF0EE480AB0EE680A2B4622463A
:1046A00003212D48FFF722FFB3EE0C1AF0EE480A63
:1046B000B0EE680A2B46224603212848FFF716FF72
:1046C00038211E4804F02CFF284604F09AFB244CA5
:1046D0002448254994ED000A80ED000A096840F657
:1046E00098008863214909684863214E0020C0EB87
:1046F000C001002206EBC101401CC1E906220828C6
:10470000F5DB1C48FEF74CFD284604F07AFB2068D8
:10471000FBF7B8FF41EC100B17A053EC102B00F087
:104720004DFD1420F1E70000200F0020480F00206D
:1047300000007042881100204C0900200811002060
:10474000B00900209A99993E33139F4450180020D5
:104750000AD7233C6666524278170020E4170020EF
:10476000680000203800002088100020C80F0020BA
:10477000E8130020481000207961773A25660D0A79
:10478000000000002DED028B9FED688A78226849B9
:104790006848FCF779FF664D674C4FF00008002031
:1047A000C4F81880C4F81480C4F81080C4F80C80D1
:1047B000C4F80880C4F8048055F820106268401CD2
:1047C0001144C0B2616055F82010A268401C114429
:1047D000C0B2A16055F82010E268401C1144C0B27C
:1047E000E16055F820102269401C1144C0B22161DB
:1047F00055F820106269401C1144C0B2616155F83F
:104800002010A269401C1144C0B2A1617828D3D302
:1048100061681420B1FBF0F76760A16800EE107AC0
:10482000B1FBF0F6A660E168F8EE400AB1FBF0F3E8
:10483000E3602169B1FBF0F222616169B1FBF0F143
:104840006161D4F818C0BCFBF0FC9FED3C0A01EE9E
:10485000906A02EE103A02EE902A03EE101A03EE6E
:1048600090CA20EE801AF8EE611AB8EE422AF8EEED
:10487000622AB8EE433ADFED320AF8EE633A61EEAF
:10488000801A22EE002A62EE802A23EE003A23EEFE
:10489000800A21EE201A61EEA01A22EE202A62EE92
:1048A000A02A23EE203A224860EE200A1838B7EEFC
:1048B000000AC4F818C0C0ED050A30EE480A80ECC2
:1048C000051A183820EE011AD0ED003A08EE231A26
:1048D00080ED001A20EE211AD0ED011A08EE211AFF
:1048E00080ED011A20EE021AD0ED021A08EE211A0C
:1048F00080ED021A20EE221AD0ED031A08EE211ADA
:1049000080ED031A20EE031AD0ED041A20EE200ADF
:1049100008EE211A80ED041AD0ED050A08EE200AEF
:1049200080ED050A052004F06CFA38E7CDCCCC3DCB
:10493000440A0020780E0020380000200000803952
:104940000000B443164D174C0026174FDFF85C806B
:1049500004F06EF803F0FAFA03F04EFD287801280F
:104960000FD1227812491348FFF7B4F926702E7040
:1049700021780F48FBF7E2FC64220D490D48FFF750
:10498000FDF83878012807D188F800603E7064226D
:1049900009490A48FFF7F2F8052004F032FAD7E790
:1049A00036000020340000203700002035000020B1
:1049B0004C09002088110020B009002008110020B7
:1049C00041F2883004F01DFA0A20FCF783FB0A202C
:1049D000F8E7000010B5502080F31188BFF34F8F27
:1049E000BFF36F8F05F0FAF918B104494FF080500A
:1049F0000860002080F3118810BD000004ED00E085
:104A000030B593B030216846FBF798FC14210CA810
:104A1000FBF794FC20480025016841F080510160BB
:104A2000006800F0805011901C48016841F440413A
:104A300001600068022400F44040119001200090C1
:104A4000000401908001CDE9064006200890B420C2
:104A5000CDE9090404200B906846FEF715F808B16B
:104A600072B6FEE7FDF7CCFE08B172B6FEE70CA900
:104A70000F2081E831004FF4A0500F904FF4805088
:104A8000109005210CA8FDF7F3FE002801D072B6A6
:104A9000FEE713B030BD0000403802400070004017
:104AA0000548016841F47001016003494FF000605E
:104AB000803908607047000088ED00E00148FEF78B
:104AC00081BB0000A81300200148FEF77BBB00005B
:104AD00048100020F0B50268254D264E264FDFF81D
:104AE0009CC0274B4FF0804EA84209D0704507D09C
:104AF000B04205D0B84203D0604501D0984203D1FE
:104B000022F070044A682243A8421BD0704519D095
:104B1000B04217D0B84215D0604513D0984211D09A
:104B2000184CA0420ED0184CA0420BD0174CA042FB
:104B300008D0174CA04205D0164CA04202D0164C0B
:104B4000A04203D122F44074CA6822434C6922F087
:104B50008002224302608A68C2620A688262A842B6
:104B600001D0984201D10969016301214161F0BD81
:104B7000000001400004004000080040000C00401C
:104B80000004014000400140004401400048014051
:104B900000180040001C00400020004010B501F04B
:104BA0001F010123046A8B409C430462036A8A400C
:104BB0001343036210BD0000F0B5026A22F0010247
:104BC0000262026A43688469114E24F073050C681E
:104BD000104F2C4322F002058A682A43B04201D0CC
:104BE000B84205D122F00805CA682A4322F004021F
:104BF000B04201D0B84205D14D6923F440731D4342
:104C00008B692B4343608461496841630262F0BD54
:104C10000000014000040140F0B5026A22F01002D9
:104C20000262026A436884690D6824F4E64444EA37
:104C300005248D6822F0200242EA05120F4D104E25
:104C4000A84201D0B04206D1CF6822F0800242EAE9
:104C5000071222F04002A84201D0B04207D14D69AC
:104C600023F4406343EA85038D6943EA8503436087
:104C70008461496881630262F0BD00000000014068
:104C800000040140F0B5026A22F480720262026AF6
:104C90004368C46922F4007224F073050C68124E54
:104CA0002C438D6842EA05220E4DA84201D0B04245
:104CB00006D1CF6822F4006242EA072222F4806221
:104CC000A84201D0B04207D14D6923F4405343EAD2
:104CD00005138D6943EA05134360C4614968C163E4
:104CE0000262F0BD000001400004014030B5026ADC
:104CF00022F480520262036A4268C4690D6824F497
:104D0000E64444EA05248D6823F4005343EA05335E
:104D1000084DA84202D0084DA84204D14D6922F4A2
:104D2000804242EA85124260C461496801640362BC
:104D300030BD0000000001400004014010B5806B50
:104D40000021C185C184FEF7FEFC10BD70B5846BE7
:104D50002068406994F83910C0F3C010002521295B
:104D600004D118B1E584204600F062F8206840695B
:104D700094F83A10C0F38010222904D118B1E585C7
:104D8000204600F047F8E06B40F01000E06320465A
:104D9000FEF7D9FC70BD10B50146806B0968096843
:104DA000C90513D40021C1850168CA6822F4807244
:104DB000CA6001684A6922F001024A6101684A69D1
:104DC00022F040024A61202180F83A10FEF722FFCB
:104DD00010BD10B5806BFEF71EFF10BD10B501466B
:104DE000806B09680968C9050CD40021C184016879
:104DF0004A6922F080024A610068C16841F04001BE
:104E0000C16010BDFEF7A6FF10BD10B5806BFEF7A8
:104E1000A2FF10BD0168CA6822F49072CA600168DE
:104E20004A6922F001024A61202180F83A10704755
:104E30000168CA6822F0C002CA60202180F83910D7
:104E4000704710B590F83A10222901D0022010BD09
:104E50008168B1F5805F11D00169002901681FD018
:104E6000496801F07F03816A4A1C82620B70C18D20
:104E7000491E0904090CC18518D02BE00269816A1A
:104E8000002A0268526805D0D2B20A80816A491CA1
:104E90008162ECE7C2F308020A80816A891CF7E7A5
:104EA0004A68816A4B1C83620A70E0E70168CA683D
:104EB00022F02002CA600168CA6822F48072CA60C7
:104EC00001684A6922F001024A61202180F83A1003
:104ED000FEF7A0FE002010BD2DE9F0410446006859
:104EE0000169E26821F4405111430161A168206920
:104EF000E26901436069104301432068C26849F2D6
:104F00000C639A430A43C26020684169A26921F494
:104F1000407111434161E069192764253226B0F5DB
:104F2000004F354A354920684FF0000806D08842C6
:104F300001D0904236D1FDF765FD35E0884201D0C1
:104F4000904202D1FDF75EFD01E0FDF74BFD616887
:104F50004A18A0FB070148EB0803FBF7A5F9014637
:104F6000B0FBF5F00201B1FBF5F06FF01803584308
:104F700001EB800006EBC000B0FBF5F000F0F8009C
:104F800002EB4002B1FBF5F0584301EB800006EB69
:104F9000C000B0FBF5F000F0070021681044886005
:104FA000BDE8F081FDF71EFD01466068830F8200B9
:104FB000A1FB0701FBF778F90146B0FBF5F06FF0B4
:104FC0001802504301EB800006EB0010B0FBF5F037
:104FD00000F0F002B1FBF5F002EB0012B1FBF5F0CE
:104FE0006FF01803584301EB800006EB0010B0FB94
:104FF000F5F000F00F00D0E7001401400010014070
:1050000090F83910212901D0022070478168B1F54C
:10501000805F016A0BD04A1C026202680978516005
:10502000C18C491E0904090CC1840ED017E00988FF
:105030000268C1F30801516001690029016A02D0C8
:10504000491C0162ECE7891CFBE70168CA6822F091
:105050008002CA600068C16841F04001C160002060
:1050600070472DE9F0411E46174688460446069DC6
:105070001CE0681C1AD025B1FDF704FB801BA84278
:1050800014D92068C16821F4D071C16020684169D9
:1050900021F001014161202084F8390084F83A00B0
:1050A000002084F838000320BDE8F0812068016802
:1050B00038EA010004D00020B842DAD00020F3E73B
:1050C0000120F9E710B5044804F02EFCBDE81040BB
:1050D0000148FEF739BB0000C810002038B51D4854
:1050E00000680168C943C9062ED401684068009071
:1050F0001848FEF7FCFA1848006840681749C0F1E4
:10510000640008701648174C02785A2A1AD142785F
:105110005A2A17D1C2780978521D8A4212D12178B1
:1051200081B98088DFED100A40BA00EE100A0F48FE
:105130006421B8EE400A80EE201A80ED001A08487B
:10514000FBF7FCF801202070BDE838400148FEF76D
:10515000FBBA0000081100202812002035000020B2
:10516000B0090020370000200000C842680000207D
:105170000D4808B500680168C943C9060FD4016825
:10518000406800900848FEF7B2FA08480068406896
:105190000749C0F164000870064901200870BDE8A5
:1051A00008400148FEF7D0BA88110020E81200201C
:1051B0003400002036000020FEE700000FB4054B4D
:1051C00010B503A9044A029802F026F910BC5DF854
:1051D00014FB0000D97E00083801002003B40198B8
:1051E0004100009850EAC12018BF04204A0D18BFA2
:1051F00040F0010040F2FF72B2EB515F08BF40F097
:105200000200012808BF052002B070470907090EF7
:10521000002804DB00F1E02080F80014704700F063
:105220000F0000F1E02080F8141D7047000000001E
:1052300070B5C1482DED020B2DED0E8B82B0119D86
:1052400025F000449FEDBEDB9FEDBFEB84423EDBCB
:10525000A4F140511098A1F17F6108430FD0BC48E0
:10526000844202DC28D1109830B39DED100B02B0BF
:10527000BDEC0E8B02B0BDE8704001F0B1BF9DEDFA
:10528000100B53EC1D2B51EC100BFBF709F99DEDA6
:10529000100B41EC180B53EC1E2B51EC100BFBF7D1
:1052A000FFF853EC182BFBF754F841EC100B02B04D
:1052B000BDEC0E8B02B070BD012001F0E5FF02B025
:1052C000BDEC0E8B02B0BDE8704001F09DBFA1485F
:1052D0009FEDA18B844256DA9DED100BB4F1795FFE
:1052E0000ADA51EC100BFFF779FF042808BF01F030
:1052F000ABFF9DED100BDAE753EC102B51EC100BCC
:10530000FBF7CEF841EC190B95480621B0EE490A9F
:10531000F0EE690A784401F037FE53EC192B51EC9A
:10532000100BFBF7BDF841EC1A0B8E48B0EE490AA2
:10533000F0EE690A0421784401F026FE53EC192BA3
:1053400051EC100BFBF7ACF853EC182BFBF701F802
:1053500041EC100B51EC1A0B53EC102BFBF712F92C
:10536000CDE900019DED000B53EC102B9DED100BD2
:1053700051EC100BFBF794F89DED101B53EC112B27
:10538000FAF7E7FFD2E09DED100B51EC100B02F0A5
:1053900097FD53EC182BFBF780F89FED730BCDE9CD
:1053A000000153EC102B9DED000B51EC100BFBF7A3
:1053B00077F841EC190B6E480621B0EE490AF0EE81
:1053C000690A784401F0E0FD53EC192B51EC100B05
:1053D000FBF766F841EC1B0B6648B0EE490AF0EEAD
:1053E000690A0421784401F0CFFD53EC192B51ECEC
:1053F000100BFBF755F853EC182BFAF7AAFF41EC0A
:105400001C0B51EC190B04F058FA41EC180B5A48DC
:105410009FED5BABA04222DC53EC1C2B51EC1B0B31
:10542000FBF7B0F8CDE900019DED000B51EC180B36
:1054300053EC102BFBF734F853EC182BFAF789FFD9
:1054400053EC1A2BFBF72CF853EC1D2BFBF722F82F
:1054500053EC1E2BFBF721F841EC100B5FE08DEDB8
:10546000008B002000909DED000B51EC180B53ECCD
:10547000102BFAF76EFF9DED000B41EC1E0B53EC69
:10548000102B51EC100BFBF70BF853EC192BFBF71F
:1054900004F853EC1E2BFBF775F841EC190B53EC99
:1054A0001C2B51EC1B0BFBF76DF841EC1B0B53EC69
:1054B0001A2B51EC190BFAF7F3FF53EC1D2BFAF7EB
:1054C000ECFF41EC190B53EC1A2B51EC180BFAF7CB
:1054D000E7FF53EC1B2BFAF7E3FF53EC192BFAF71A
:1054E000D9FF9DED000B41EC180B53EC1A2B51EC3E
:1054F000100BFAF7D5FF9FED249B53EC192BFAF70D
:10550000CCFF41EC100B51EC180B53EC102BFAF7BD
:10551000C1FF53EC192BFAF7C0FF41EC100B002D23
:105520003FF7C5AE51EC100B81F0004141EC100B80
:10553000BDE60000000000000000F03F0000000099
:10554000075C143326A6913C182D4454FB21F93FE7
:105550000000F07F0000E03F000000000000F03F8E
:10556000F84C0000064D0000000000000000E03F85
:105570004A4C0000584C00003333EF3F000000005D
:105580000000000000000040182D4454FB21E93FBA
:1055900070B59B482DED020B2DED068B079D25F078
:1055A0000044A04218DC9748844202DC0AD10698E5
:1055B00040B19DED060BBDEC068B02B0BDE870401E
:1055C00001F00EBE002DCCBF9FED8F0B9FED900B19
:1055D000BDEC068B02B070BD8F48A04215DD8F4830
:1055E000A042D8BF4FF0FF3458DD9DED060B51ECC3
:1055F000100BFFF7F3FD042808BF01F025FE9DED19
:10560000060BBDEC068B02B070BD9DED060B51EC98
:10561000100B02F055FCCDE9060181489FED828B0D
:10562000A0423CDD8248A0421FDD00249FED82ABFA
:105630009DED060B53EC1A2B51EC100BFAF789FE7B
:105640009DED060B41EC190B53EC1A2B51EC100B92
:10565000FAF726FF53EC182BFAF71CFF53EC192B23
:10566000FAF790FFCDE9060149E09DED060B012414
:1056700053EC182B51EC100BFAF76BFE9DED060B5B
:1056800041EC190B53EC182B51EC100BFAF702FFFD
:1056900053EC192BFAF776FFCDE906012FE06848A5
:1056A000A0421FDD02249FED689B9DED060B53EC8D
:1056B000192B51EC100BFAF7F3FE53EC182BFAF7F9
:1056C00048FE9DED060B41EC180B53EC192B51ECE9
:1056D000100BFAF7DFFE53EC182BFAF753FFCDE966
:1056E00006010CE09DED060B032453EC102B9FEDFF
:1056F000580B51EC100BFAF745FFCDE906019DED73
:10570000060B53EC102B51EC100BFAF7C9FE41ECD1
:10571000180B53EC182BFAF7C3FE41EC190B4E484B
:105720000621B0EE490AF0EE690A784401F02CFC3B
:1057300053EC182B51EC100BFAF7B2FE41EC180B9E
:105740004648B0EE490AF0EE690A0521784401F0B6
:105750001BFC53EC192B51EC100BFAF7A1FE41EC9A
:10576000100B51EC180B53EC102B002C0EDAFAF73F
:10577000F0FD9DED061B53EC112BFAF791FE9DED0C
:10578000061B53EC112BFAF788FE35E0FAF7E1FD22
:105790009DED061B53EC112BFAF782FE41EC100B2A
:1057A0002F48784400EBC40090ED001B51EC100B27
:1057B00053EC112BFAF76EFE9DED061B53EC112BEB
:1057C000FAF768FE41EC100B2648784400EBC40061
:1057D00090ED001B51EC100B53EC112BFAF75DFE12
:1057E00041EC100B002DA2BFBDEC068B02B070BDCA
:1057F00051EC100B81F0004141EC100B01E700006F
:10580000000010440000F07F182D4454FB21F93FA4
:10581000182D4454FB21F9BF0000DC3F0000203E5E
:105820000000F33F00000000000000000000F03F17
:105830000000E63F00000000000000000000004003
:105840000080034000000000000000000000F83F5E
:10585000000000000000F0BF224A0000D84900000C
:10586000624900001A49000070B56F4E2DED040B1F
:105870002DED048B82B0DDF824C0DDE907235C4206
:105880002CF000411C4341EAD474069D22F00040F4
:10589000B44205D86C422C4340EAD474B4420BD9CC
:1058A0009DED081B9DED060B02B0BDEC048B04B012
:1058B000BDE8704001F09EBCACF14054A4F17F649F
:1058C0001C430BD0022404EAAC7444EAD2740543AE
:1058D0009FED578B9FED582B07D015E09DED060BE4
:1058E00051EC100B02F030F942E0002C11BF012CFA
:1058F0009DED060B02B0BDEC048B04BF04B070BD7F
:10590000022C38D0032C3BD00B439FED4D1B9FED59
:105910004E0B0AD0B14218D1B04209D121F08041DA
:1059200020F08040099107900FE0002A15DA10E07E
:10593000474B7B44002C08BF93ED000B0DD0012C8E
:1059400010D0022C17D0032C1AD0B0421DD1002A3F
:1059500003DAB0EE410AF0EE610A02B0BDEC048B4E
:1059600004B070BD93ED000B51EC100B81F00041C1
:1059700041EC100BF1E7B0EE480AF0EE680AECE7F4
:10598000B0EE420AF0EE620AE7E7401A00159FED1A
:10599000329B3C28C8BF8DED000B17DCBCF1000F1B
:1059A000BCBF10F13C0F8DED009B0FDB9DED080B94
:1059B00053EC102B9DED060B51EC100BFAF7E2FDAA
:1059C00002F07EFA02F0C0F8CDE90001B4B1012C7A
:1059D00010D0022C9FED220B53EC102B9DED000BF1
:1059E00051EC100B19D0FAF755FD53EC182BFAF7C0
:1059F00051FDBDE7019880F0004001909DED000B46
:105A000053EC192B51EC100BFAF750FE04BF022097
:105A100001F03AFC9DED000B9FE7FAF73BFD53ECDC
:105A2000182BFAF73AFDA3E70000F07F0000000012
:105A3000182D4454FB210940182D4454FB2109C062
:105A4000182D4454FB21F9BF182D4454FB21F93F74
:105A50007A48000000000000000000000000000084
:105A6000075C143326A6A13C10B52F499FED2C1BD3
:105A70002DED020B84B0059820F000408842D8BF7D
:105A80009DED040B2DDD2949884209D1049840B9C8
:105A90004FF0010001F0F8FB01F0B6FB06B010BDBD
:105AA00005DB9DED040B01F09BFB06B010BD6846C5
:105AB0009DED040B00F094FF10F0030004BF9DED7A
:105AC000021B9DED000B0CD001280ED09DED021B9A
:105AD0009DED000B022817D0012001F0D1FA06B08D
