:020000040800F2
:100000005054002081020008C33C0008E537000876
:10001000C13C0008510C0008F54600080000000033
:10002000000000000000000000000000C101000806
:100030006D130008000000001D0200084142000886
:100040009B0200089B0200089B0200089B0200081C
:100050009B0200089B0200089B0200089B0200080C
:100060009B0200089B0200089B0200089B020008FC
:100070008D1200089B0200089B0200089B020008EA
:10008000991200089B0200089B020008610C0008FE
:10009000550C00089B0200089B0200089B02000808
:1000A0009B0200089B0200089B0200089B020008BC
:1000B0009B0200089B0200089B0200089B020008AC
:1000C0009B0200089B0200089B0200089B0200089C
:1000D0009B020008B9460008D1460008DD4600082A
:1000E0009B0200089B0200089B0200089B0200087C
:1000F0009B0200089B0200089B0200089B0200086C
:100100009B0200089B0200089B0200089B0200085B
:100110009B0200089B0200082943000835430008A1
:10012000A5120008B1120008BD1200089B020008C9
:100130009B0200089B0200089B020008790C000843
:100140006D0C00089B0200089B0200089B0200083F
:100150009B0200089B0200089B020008E946000879
:100160009B0200089B0200089B0200089B020008FB
:100170009B0200089B0200089B0200080000000090
:100180009B0200089B0200089B0200089B020008DB
:100190009B0200089B0200089B0200089B020008CB
:1001A00000000000000000009B020008DFF80CD0F7
:1001B00000F00AFC00480047BD70000850540020C1
:1001C0002C4B19680868B0E8F04F80F30988BFF33A
:1001D0006F8F4FF0000080F311887047000000001F
:1001E00008480068006880F308884FF0000080F33A
:1001F000148862B661B6BFF34F8FBFF36F8F00DF15
:1002000000BF00BF08ED00E0DFF80C00016841F41A
:1002100070010160704700BF88ED00E0EFF30980D6
:10022000BFF36F8F134B1A681EF0100F08BF20ED3D
:10023000108A20E9F04F106009B44FF0500080F3AD
:100240001188BFF34F8FBFF36F8F08F04BF84FF05B
:10025000000080F3118809BC19680868B0E8F04F05
:100260001EF0100F08BFB0EC108A80F30988BFF3AE
:100270006F8F7047CC000020EFF3058070470000BF
:100280000648804706480047FEE7FEE7FEE7FEE730
:10029000FEE7FEE7FEE7FEE7FEE7FEE70D430008A8
:1002A000AD0100082DE9F05F0546002092469B460F
:1002B00088460646814640241BE02846414647467C
:1002C000224600F062FA53465A46C01A914110D3B2
:1002D00011461846224600F049FA2D1A67EB01082C
:1002E0004F4622460120002100F040FA17EB00099A
:1002F0004E41201EA4F10104DFDC484631462A4667
:100300004346BDE8F09F40EA01039B0703D009E0A4
:1003100008C9121F08C0042AFAD203E011F8013BF1
:1003200000F8013B521EF9D27047D2B201E000F84A
:10033000012B491EFBD270470022F6E710B5134689
:100340000A4604461946FFF7F0FF204610BD2DE986
:10035000FE4F804681EA0300C00F0C46009021F05A
:10036000004123F00045B8EB0200A94105D2404608
:10037000214690461C460B46024623F0004010439F
:1003800047D0270DC7F30A00C3F30A510290401A61
:10039000019040286BDAC3F3130040F4801B0098EF
:1003A000924620B10023D2EB030A63EB0B0B0198BA
:1003B0005946C0F14002504600F0D8F906460D46B5
:1003C00050465946019A00F0F0F910EB08006141DF
:1003D000002487EA115284EAE7731A4340D0009A56
:1003E00062B3019A012A4FEA075215DC001B61EB48
:1003F00002014FF0004202EA0752CDE90042001C20
:1004000041F5801132462B4600F027FA03B0BDE8D3
:10041000F08F40462146F9E7001B61EB0201001C0A
:1004200041F5801300185B412018A2F5001747EB37
:10043000030140EAD570B6196D4111E06D084FEA2D
:10044000360645EAC0754FEA0752001B61EB020110
:10045000001C41F5801149084FEA30000019514154
:1004600032462B4603B0BDE8F04F00F0E7B90098E4
:10047000012240000023D0EB020263EBE0730098FE
:1004800021464FEAE074B8EB000061EB0401E9E7B4
:1004900083F000435BE781F0004158E72DE9FE4F10
:1004A00081EA030404F0004421F0004100944FF07D
:1004B000000B23F0004350EA01045ED052EA03042B
:1004C0005BD0C3F30A54C1F30A552C44A4F2F334AD
:1004D0000194A0FB0254C1F3130141F48011C3F352
:1004E000130343F4801301FB024400FB034E840A10
:1004F000970A44EA815447EA8357A4FB07680295A8
:100500008D0A05FB07854FEA932C04FB0C54270545
:10051000029D4FEA065847EA1637B5EB08056EEB21
:10052000070C870E920E47EA811742EA8312A7FB57
:100530000201B6EB0B0164EB00042B0D43EA0C3314
:100540005E1844EB1C50DA465146E7FB0201C5F346
:1005500013044FEA0B3343EA14534FEA0432019C6D
:1005600043EA0603A4F10C040294009CCDE900B414
:1005700000F073F903B0BDE8F08F00200146F9E701
:100580002DE9F04D81EA030404F0004B21F0004511
:1005900014464FF0000A23F0004150EA050220D033
:1005A00054EA01021DD0C5F30A570246C5F31303EE
:1005B000C1F31300C1F30A5640F4801543F48013CD
:1005C000A7EB0608101BD64608F2FD3873EB0500B2
:1005D00002D308F1010801E092185B41B8F1000F65
:1005E00003DA00200146BDE8F08D00204FF48011B1
:1005F000064684460EE0171B73EB050705D3121B56
:1006000063EB050306434CEA010C49084FEA30004E
:1006100092185B4150EA0107EDD152EA030012D073
:1006200082EA040083EA0501084305D0101BAB41B0
:1006300006D20122002306E000224FF0004302E030
:100640006FF0010253101AEB06004CEB085110EB4F
:100650000A0041EB0B01BDE8F04D00F0EFB80EB51C
:10066000C10F80EAE0700844CA07002140F233431A
:100670008DE80E000A460B4600F0EFF803B000BD0F
:1006800000F0004230F000400AD0C10D01F5607169
:10069000C0F3160042EA0151C208400711437047F7
:1006A000002001467047000030B5041E71F10004BF
:1006B00004DB4FF00044404264EB0101141E73F16F
:1006C000000405DB1C464FF00043524263EB040379
:1006D0008B4208BF824230BD30B5041E71F1000468
:1006E00004DB4FF00044404264EB0101141E73F13F
:1006F000000405DB1C464FF00043524263EB040349
:10070000994208BF904230BD01F0004330B421F05F
:10071000004150EA010206D00A0DA2F56072C1F351
:100720001301002A02DC30BC00207047440F44EA69
:10073000C104C100E01830BC00EBC25000F047B863
:1007400030B50B46014600202022012409E021FAA1
:1007500002F59D4205D303FA02F5491B04FA02F59E
:100760002844151EA2F10102F1DC30BD202A04DB71
:10077000203A00FA02F1002070479140C2F12003B4
:1007800020FA03F3194390407047202A04DB203AF3
:1007900021FA02F00021704721FA02F3D040C2F1A1
:1007A00020029140084319467047202A06DBCB17E8
:1007B000203A41FA02F043EAE07306E041FA02F31C
:1007C000D040C2F1200291400843194670470029E9
:1007D000A8BF7047401C490008BF20F001007047C7
:1007E00010B4B0FA80FC00FA0CF050EA010404BF27
:1007F00010BC704749B1CCF1200421FA04F411FA7D
:100800000CF118BF012121430843A3EB0C01CB1DC0
:100810004FEA00614FEA102042BF002010BC704731
:1008200000EBC35010440029A4BF10BC7047401C0B
:10083000490008BF20F0010010BC704710B5141E1D
:1008400073F1000408DA401C41F1000192185B4189
:100850001A4301D120F0010010BD2DE9F04D924660
:100860009B4611B1B1FA81F202E0B0FA80F2203277
:100870009046FFF77BFF04460F4640EA0A0041EA34
:100880000B0153465A46084313D0114653EA010060
:1008900019D0C8F140025046FFF777FF05460E46D3
:1008A000504659464246FFF761FF084305D00120F4
:1008B00004E020463946BDE8F08D0020054346EAB5
:1008C000E0762C4337430A986305E40AA0EB08005E
:1008D0000022FD0A44EA47540A3002D500200146AE
:1008E000E9E7010510196941DDE908450019694189
:1008F000BDE8F04DA2E72DE9F04D00231A461B1A82
:100900008A4103DB00200146BDE8F08DC1F30A52A5
:10091000C1F3130141F480154FF0000BD10702D150
:1009200000186D41521E0027044640F2FF11384660
:1009300001EB620A3E468046024600204FF48011D9
:10094000FFF723FFC2197141BB1846EB0100B4EB5E
:10095000030C75EB000C04D3E41A65EB0005174695
:100960000E46241908F101006D4180463428E3DD6C
:10097000F91946EB0600091BA84103D24FF0FF32DC
:10098000134601E0002213461BEB070046EB0A5119
:10099000BDE8F04DFFF752BFC1F30A52C1F3130196
:1009A00040F2FF3341F480119A4202DA00200146FE
:1009B000704740F233439A42A2F2334202DC524281
:1009C000FFF7E3BEFFF7D2BE064C074D06E0E06836
:1009D00040F0010394E8070098471034AC42F6D386
:1009E000FFF7E8FB78890008988900080EB540F207
:1009F000334102910021CDE900110A460B46FFF771
:100A00002CFF03B000BD70B5C1F30A5201F00045E0
:100A10000024C1F3130140F2FF3341F480119A42E4
:100A200001DA002070BD40F233439A42A2F2334211
:100A300003DC5242FFF7A9FE00E090402C43F1D0C6
:100A4000404270BD70B58C1810F8015B15F00703BB
:100A500001D110F8013B2A1106D110F8012B03E057
:100A600010F8016B01F8016B5B1EF9D12B0705D45F
:100A70000023521E0DD401F8013BFAE710F8013BA8
:100A8000CB1A921C03E013F8015B01F8015B521EC4
:100A9000F9D5A142D8D3002070BD10B50146806BB6
:100AA000026C12F0500F05D0026CD20626D500F071
:100AB00015FD10BD016C41F40071016401688A6884
:100AC00012F0405F17D1027EAAB9CA6A12F4700F01
:100AD00002D08A6852050ED44A6822F020024A6089
:100AE000016C21F480710164016CC90403D4016CB0
:100AF00041F00101016400F0EFFC10BD806BC26C9D
:100B0000BDE810400846104710B5806B40210164D5
:100B1000416C41F00401416400F0E0FC10BD10B5EF
:100B2000806B00F0DAFC10BD464910B54A6822F42B
:100B300040324A604A6843681A434A6001684A681A
:100B400022F480724A6001684A68036942EA03221B
:100B50004A6001684A6822F040724A6001684A6847
:100B600083681A434A6001688A6822F400628A60D6
:100B700001688A68C3681A438A60816A6FF070628C
:100B8000D14201688A6822F070628A6001688A68CE
:100B90000CD0836A1A438A6001688A6822F0405246
:100BA0008A6001688A68C36A1A4301E022F04052F1
:100BB0008A6001688A6822F002028A6001688A6895
:100BC000037E42EA43028A6090F8201000290168FF
:100BD0004A680FD042F400624A6001684A6822F411
:100BE00060424A6001684A68174C436A04EB433329
:100BF0001A4301E022F400624A600168CA6A22F4E2
:100C00007002CA620168CA6A838B104C04EB0353FA
:100C10001A43CA6201688A6822F400728A60016815
:100C20008A6890F8303042EA43228A6001688A6814
:100C300022F480628A6001688A68406942EA802002
:100C4000886010BD0023014000E0FFFF0000F0FFBE
:100C5000FEE70000014800F0DABE0000680D002049
:100C6000014800F0D4BE0000680D0020014800F0EB
:100C7000CEBE0000900D0020014800F0C8BE00006C
:100C8000900D00202DE9F04F2DED108B85B0B0EECA
:100C900043AAF0EE63AAB0EE42CAF0EE62CAB0EE2A
:100CA000418AF0EE618AB0EE409AF0EE609AF84C1C
:100CB0009FEDF8BBF94D9FEDFA0B51EC1A0B53EC7D
:100CC000102BFFF7F1FC51D094ED040B51EC1A0BF3
:100CD00053EC102BFFF7E2FB53EC1B2BFFF750FC00
:100CE00041EC1D0BB0EE4D0AF0EE6D0A04F0C0F9B8
:100CF00053EC182B51EC100BFFF7D0FB41EC1A0B07
:100D0000B0EE4D0AF0EE6D0A04F042F953EC192BE7
:100D100051EC100BFFF7C2FB53EC1A2BFFF717FB3C
:100D200041EC1A0BB0EE4D0AF0EE6D0A04F0A0F99A
:100D300053EC192B51EC100BFFF7B0FB41EC190BE6
:100D4000B0EE4D0AF0EE6D0A04F022F953EC182BC8
:100D500051EC100BFFF7A2FB53EC192BFFF798FB9C
:100D600041EC180BB0EE4A9AF0EE6A9A94ED080B3B
:100D700053EC102B51EC100BFFF790FB94ED060B8E
:100D800041EC1A0B53EC102B51EC100BFFF786FBC8
:100D900053EC1A2BFFF7DBFA41EC100B04F0CCF903
:100DA00084ED0A0BB0EE40DAF0EE60DA94ED060B5B
:100DB00053EC1D2B51EC100BFFF7E2FB0F4647ECF9
:100DC000100B064653EC1C2B51EC100BFFF766FB87
:100DD00053EC182BFFF75FFB47EC106B41EC1F0B3C
:100DE00053EC1C2B51EC100BFFF758FB53EC182B5A
:100DF000FFF7ADFA94ED080B41EC1A0B53EC1D2BE9
:100E000051EC100BFFF7BCFB0F4647EC100B0646EE
:100E100053EC1C2B51EC100BFFF740FB53EC192B40
:100E2000FFF739FB47EC106B41EC180B53EC1C2B14
:100E300051EC100BFFF732FB53EC192BFFF787FA3D
:100E400041EC190B53EC182B51EC180BFFF726FB58
:100E50008B4680464BEC1D0B53EC1A2B51EC1A0BB6
:100E6000FFF71CFB8A464AEC100B074653EC1D2B80
:100E700051EC100BFFF76BFA41EC100B04F05CF92E
:100E80008DED020BB0EE481AF0EE681AB0EE4A0A89
:100E9000F0EE6A0A03F084FF9FED7E1B51EC100B0D
:100EA00053EC112BFFF7FAFA94ED041B53EC112BC2
:100EB000FFF766FB41EC1B0B53EC192B51EC190BA4
:100EC000FFF7ECFA894649EC100B4AEC117B064619
:100ED00053EC102B51EC110BFFF739FA41EC100BCE
:100EE00004F02AF98DED000BB0EE491AF0EE691A04
:100EF000B0EE4A0AF0EE6A0A03F052FF9FED651B5E
:100F000051EC100B53EC112BFFF7C8FA94ED041BB6
:100F100053EC112BFFF734FB41EC1A0B49EC1D6B22
:100F200053EC1F2B51EC1F0BFFF7B8FA0F4647ECA1
:100F3000100B064653EC1D2B51EC100BFFF707FA74
:100F400041EC100B04F0F8F8B0EE40EAF0EE60EA85
:100F5000B0EE491AF0EE691AB0EE4F0AF0EE6F0AE1
:100F600003F01EFF9FED4B1B51EC100B53EC112BAC
:100F7000FFF794FA94ED041B53EC112BFFF700FBE1
:100F80004BEC118B47EC106B41EC190B53EC112B14
:100F900051EC100BFFF7DBF941EC100B04F0CCF82F
:100FA000B0EE40DAF0EE60DAB0EE481AF0EE681A11
:100FB000B0EE4F0AF0EE6F0A03F0F2FE9FED351B24
:100FC00051EC100B53EC112BFFF768FA94ED041B56
:100FD00053EC112BFFF7D4FA9FED33FB41EC180BC8
:100FE00053EC1F2B51EC1C0BFFF75EFB7ED11BEE6D
:100FF000900A9FED28CBB0EE4B0A20F0004110EE96
:10100000100A53EC1C2BFFF767FB38D853EC1F2B4F
:1010100051EC1B0BFFF760FB53EC1C2B51EC1B0B33
:1010200002D2FFF735FA01E0FFF791F99DED020BCF
:1010300041EC1B0B51EC100BFFF766FB00EE100AA6
:10104000B1EE400A1AEE900A85ED060AB0EE4A0AA1
:1010500020F0004110EE100A53EC1C2BFFF73CFB74
:1010600053D853EC1F2B51EC1A0BFFF735FB53EC05
:101070001C2B51EC1A0B1BD2FFF70AFA1AE09DED5C
:10108000020B51EC100BFFF73FFB00EE100AD9E703
:101090000800002000000000008066408408002056
:1010A0000000000000388FC00000000000000000B9
:1010B000FFF74DF99DED000B41EC1A0B51EC100BB5
:1010C000FFF722FB00EE100AB1EE400A19EE900A7B
:1010D00085ED080AB0EE490A20F0004110EE100A32
:1010E00053EC1C2BFFF7F8FA41D800E05CE053EC1E
:1010F0001F2B51EC190BFFF7EFFA53EC1C2B51ECA3
:10110000190B0BD2FFF7C4F90AE09DED000B51EC6F
:10111000100BFFF7F9FA00EE100AD7E7FFF717F9FF
:1011200041EC190B51EC1E0BFFF7EEFA00EE100A22
:10113000B1EE400A18EE900A85ED0C0AB0EE480AAE
:1011400020F0004110EE100A53EC1C2BFFF7C4FAFC
:1011500023D853EC1F2B51EC180BFFF7BDFA53ECBF
:101160001C2B51EC180B09D2FFF792F908E051EC57
:101170001E0BFFF7C9FA00EE100ADBE7FFF7E7F8EE
:1011800041EC180B51EC1D0BFFF7BEFA00EE100AF4
:10119000B1EE400A85ED0A0A2AE051EC1D0BFFF77B
:1011A000B3FA00EE100AF5E79DED020B51EC100BBF
:1011B000FFF7AAFA00EE100A85ED060A9DED000B76
:1011C00051EC100BFFF7A0FA00EE100A51EC1D0BCA
:1011D00085ED080AFFF798FA00EE100A51EC1E0B95
:1011E00085ED0A0AFFF790FA00EE100A85ED0C0A69
:1011F00051EC1A0BFFF788FA00EE100A51EC1B0BAA
:1012000085ED070AFFF780FA00EE100A51EC180B83
:1012100085ED090AFFF778FA00EE100A51EC190B78
:1012200085ED0B0AFFF770FA00EE100A85ED0D0A46
:1012300005B0BDEC108BBDE8F08FF0B587B0074668
:1012400000240C9E204649B10421CDE90121CDE9BD
:1012500003038DF814004FF6FE7506E0009202902D
:10126000F5E7641CA4B2AC420CD8384600F0B9FBD8
:101270000028F6D006AB32466946384600F052FAEE
:10128000002800D0012007B0F0BD0000014800F0A8
:10129000CFBE000010100020014800F0C9BE0000C1
:1012A000B00F0020014800F0C3BE0000080D002070
:1012B000014800F0BDBE000070100020014800F0A1
:1012C000B7BE0000500F002001681823CAB2103AC0
:1012D000B2FBF3F2054B6FF30901032A9B5CC36574
:1012E00000D9091D8165084670470000F486000892
:1012F00010B5014600208B698A6A4FF0C07453B163
:10130000B3F5005F15D072B1012A0CD0022A0AD0C1
:10131000032A09D104E01AB1012A06D0022A03D116
:10132000C96AC90100D5012010BDC96AA142FAD01D
:1013300010BD002AF7D0012AF2D0022AF3D0032AE6
:10134000F3D010BD30B50468256825F480252560EC
:10135000046863608368402B036803D09960006869
:10136000C26030BD9A600068C16030BD704772B61F
:10137000FEE7000078B50024009490F83C20012A94
:1013800019D0012280F83C200A6807250368092A41
:1013900013D9DE680A3A02EB42029540AE43DE60A2
:1013A0000A788B680A3A02EB420293400268D568D9
:1013B0002B43D36010E0022078BD1E6902EB42028D
:1013C0009540AE431E610A788B6802EB420293405F
:1013D000026815692B4313614A681F25072A13D237
:1013E00003685E6B521E02EB82029540AE435E6361
:1013F0000A8893B20A79521E02EB82029340026875
:10140000556B2B43536327E003680D2A12D21E6BE2
:10141000D21F02EB82029540AE431E630A8893B24C
:101420000A79D21F02EB820293400268156B2B43AC
:10143000136311E0DE6A0D3A02EB82029540AE437F
:10144000DE620A8893B20A790D3A02EB8202934077
:101450000268D56A2B43D3621B4B0568194A9D422B
:101460000AD10D68122D07D1556825F40005556085
:10147000556845F48005556005689D421DD1134DA2
:101480000B68AB4201D0112B17D1536823F48003B2
:101490005360536843F4000353600968A9420CD1B8
:1014A0000B490C4A0968B1FBF2F101EB81014900DB
:1014B00000E0491E00910029FBD180F83C4000204B
:1014C00078BD000000230140002001401200001000
:1014D0000000002040420F0070477047704770B511
:1014E00004004FF0000603D0206C002510B107E087
:1014F000012070BD204600F01DF8656484F83C5062
:10150000206CC00610D4206C20F4885040F00200FB
:1015100020642046FFF708FB6564206C20F0020081
:1015200040F00100206400E0012684F83C50304681
:1015300070BD000070B586B0064614216846FEF7FF
:10154000FBFE1D493068884234D11C4800250168E3
:1015500041F480710160006800F4807005901748C4
:101560001438016841F0040101600068694600F028
:10157000040005903C2000900320CDE901051048AF
:1015800000F0FCFE104C0F48C4E900050015A560F2
:10159000C4E90350800060618000A0618011C4E94B
:1015A00007052046656200F013FE08B1FFF7DFFE75
:1015B000B463A66306B070BD002001404438024009
:1015C0000008024010640240080D0020F8B5002316
:1015D0000446009390F83C00012807D0012084F8CD
:1015E0003C0020688568ED0702D011E00220F8BDBC
:1015F000856845F0010585603848394D0068B0FBC5
:10160000F5F000EB400000E0401E00900028FBD108
:1016100020688568ED075ED0256C40F20166B54311
:1016200045F4807525644068400505D5206C20F49C
:10163000005040F480502064206CC00404D5606CDD
:1016400020F00600606400E0636484F83C30A36B23
:101650002548244DD863A36B24481864A36B244801
:10166000D86423686FF0220018602068436843F054
:10167000806343602068836843F48073836013460B
:1016800020680A46A66B00F14C01304600F02DFEA2
:1016900068681849C006206806D088421BD1816856
:1016A00011F0405F13D016E08842F8D0124A904201
:1016B00003D1D1F80423D206F1D0104A90420AD1C6
:1016C000D1F8041301F01F011029E8D303E0816869
:1016D00041F0804181600020F8BD00000000002042
:1016E00040420F00002301409B0A00081F0B000826
:1016F000090B0008002001400021014000220140A8
:1017000090F82020012A07D0022A05D0416A41F42E
:101710008021416201207047006842690A434261AA
:1017200000207047F0B590F820500468A468012D9F
:1017300005D0022D03D0416A41F4802153E014F01A
:10174000406F01D1E5004BD5C4F30164022C03D9ED
:10175000416A41F4000146E00125A5401D608B6807
:101760004FF4C0759BB1CE6833434E6843EAC6035D
:10177000066805EB0417F3514FF4C273076803EBD7
:1017800004130E69FE50097D012905D009E00E8879
:10179000CB6843EA4653EBE70168CE5846F48076BF
:1017A000CE501179D2F805304FF4C67641EA0323C2
:1017B000016806EB04168B511178D2F801204FF422
:1017C000C47341EA0221026803EB0413D15000689C
:1017D00005EB0411425842F0010242500020F0BDD6
:1017E000416A41F4001141620120F0BD10B590F84A
:1017F0002020012A07D0022A05D0416A41F4802125
:101800004162012010BD3B48D0F8002242F00102A5
:10181000C0F80022D0F8002222F47C52C0F8002246
:10182000D0F800224B6A42EA0322C0F800220A7D67
:1018300002F01F0301229A40D0F81C329343C0F8F3
:101840001C32CB69B3B9D0F80C329343C0F80C32D8
:101850008C894B6864F31F434C6900EBC404C4F8E3
:1018600040320C890B6864F31F434C6900EBC404DD
:10187000C4F84432CB69012B16D1D0F80C32134393
:10188000C0F80C320C884B6864F31F434C6900EBC2
:10189000C404C4F840320C89CB6864F31F434C691C
:1018A00000EBC404C4F844328B69002BD0F8043236
:1018B0000ED01343C0F804320B69002BD0F8143259
:1018C00008D01343C0F81432096A012904D008E093
:1018D0009343EFE79343F5E7D0F81C121143C0F8A8
:1018E0001C12D0F8001221F00101C0F800120020F3
:1018F00010BD000000640040704730B590F82040F3
:10190000012C05D0022C03D0416A41F480215DE016
:101910000468002955D02469A40754D04FF4D87422
:10192000056804EB01142D5915F004059560056850
:101930002D594ED0ED08556005682C5904F002046D
:10194000D4604FF4DA74056804EB01142D5905F0E6
:101950000F05156105682D59C5F3072595610568C3
:101960002C59240C54614FF4DC72046802EB011210
:10197000A4581C700468A458240A5C700468A45815
:10198000240C9C700468A258120EDA704FF4DE72B8
:10199000046802EB0112A4581C710468A458240ABC
:1019A0005C710468A458240C9C710468A258120E3F
:1019B000DA71006881B1016941F020010161002004
:1019C00030BDE468A8E7416A41F40011416201209A
:1019D00030BD6D0D1560AFE7C16841F02001C160F9
:1019E000EDE70246002092F82010012901D00229DB
:1019F0000CD111688A68520100D501208A68120151
:101A000000D5401C8968C90000D5401C70472DE9ED
:101A1000F05F0546006800244669D0F804908768A6
:101A2000D0F80CB0D0F810A0D0F81880F10748D04A
:101A3000F90714D001218160B80703D5284600F0CA
:101A4000DEFA0CE0780702D54FF4006407E03807AF
:101A500002D54FF4805402E0284600F0CFFAF80592
:101A600016D529684FF480708860B80503D52846DC
:101A700000F0C7FA0CE0780502D544F4005407E002
:101A8000380502D544F4804402E0284600F0B8FA54
:101A9000F80316D529684FF480308860B80303D561
:101AA000284600F0B0FA0CE0780302D544F4004474
:101AB00007E0380302D544F4803402E0284600F001
:101AC000A1FA300707D55FEACB6004D5296810205A
:101AD00044F40074C86070074FF0080707D55FEA48
:101AE0000B7004D52868C760284600F0A7F9B00736
:101AF00006D52868C068800702D0284600F0A0F903
:101B0000700607D55FEACA6004D52968102044F43E
:101B100080640861B00607D55FEA0A7004D52868BA
:101B20000761284600F03CFAF00606D528680069EF
:101B3000800702D0284600F034FAB00308D55FEAE7
:101B4000C96005D5296810204860284600F02AFAA7
:101B5000F00307D55FEA097004D528684760284676
:101B600000F052FA300446D55FEA497040D5F005DE
:101B700004D55FEAC87001D044F00104B00504D573
:101B80005FEA887001D544F00204700504D55FEA6D
:101B9000487001D544F00404300529D518F0700FC1
:101BA00026D008F07000402815D006DC102809D097
:101BB00020280AD0302816D10AE050280ED06028FC
:101BC00011D10EE044F008040DE044F010040AE0E6
:101BD00044F0200407E044F0400404E044F08004B2
:101BE00001E044F480742868816921F0700181610A
:101BF000296804204860002C05D0686A2043686288
:101C00002846FFF779FEBDE8F09F70B5040003D0C9
:101C100094F8200010B104E0012070BD204600F0CF
:101C200081F82068016821F00201016000F094FC55
:101C30000546052604E000F08FFC401B0A2811D859
:101C4000206840688007F6D42068016841F00101EF
:101C5000016000F081FC05460BE000F07DFC401BBC
:101C60000A2806D9606A40F40030606284F8206077
:101C7000D2E720684068C007EFD0207E01282068A6
:101C800001683DD021F080010160607E012820685C
:101C9000016838D021F040010160A07E0128206851
:101CA000016833D021F020010160E07E0128206826
:101CB00001682ED041F010010160207F01282068CA
:101CC000016829D021F008010160607F01282068A7
:101CD000016824D021F004010160D4E90201084325
:101CE000D4E90412114308436168491E084321687E
:101CF000C86100206062012084F82000002070BDCF
:101D000041F08001C0E741F04001C5E741F020010A
:101D1000CAE721F01001CFE741F00801D4E741F014
:101D20000401D9E7F0B587B0044614216846FEF7F0
:101D300003FB3D493D4ADFF8ECE00868D4F800C0F9
:101D40003A4B03240225092610320027401CF44593
:101D500029D10860012807D1106840F00070106098
:101D6000106800F000700590186840F008001860D6
:101D700018688DE8B00000F00800CDE904606946FD
:101D800003942B4800F0FAFA00220521132000F0FA
:101D90006FFC132000F05EFC00220521142000F0EF
:101DA00067FC14203AE0DFF88CE0F44538D1D2F833
:101DB00000C04CF0806CC2F800C0D2F800C001280E
:101DC0000CF0806CCDF814C0086007D1106840F0AA
:101DD00000701060106800F000700590186840F006
:101DE000020018601868694600F0020005904FF480
:101DF00040508DE8A100CDE903460F4800F0BEFA3F
:101E0000002205213F2000F033FC3F2000F022FC9F
:101E100000220521402000F02BFC402000F01AFC9D
:101E200007B0F0BD006400405C0000203038024084
:101E3000000C0240006800400004024070470000AF
:101E400010B58AB06B4602AA0021FFF756FD029832
:101E5000524CA0F20120082873D2DFE800F00438C9
:101E600024104C607589A16A481CA0623229204662
:101E7000694602D804F028FC01E004F0FFFB029858
:101E8000401EC0B200EB400101EBC00004EB80003B
:101E9000816A4A1C32298262694602D804F014FC25
:101EA00001E004F0EBFB0298401EC0B200EB4001E1
:101EB00001EBC00004EB8000816A4A1C3229826277
:101EC000694602D804F000FC01E004F0D7FB029858
:101ED000401EC0B200EB400101EBC00004EB8000EB
:101EE000816A4A1C32298262694602D804F0ECFBFE
:101EF00001E004F0C3FB0298401EC0B200EB4001B9
:101F000001EBC00004EB8000816A4A1C3229826226
:101F1000694602D804F0D8FB01E004F0AFFB029858
:101F2000401EC0B200EB400101EBC00004EB80009A
:101F3000816A4A1C32298262694603D804F0C4FBD4
:101F400002E026E004F09AFB0298401EC0B200EBCB
:101F5000400101EBC00004EB8000816A4A1C322979
:101F60008262694602D804F0AFFB01E004F086FB10
:101F70000298401EC0B200EB400101EBC00004EB30
:101F80008000816A4A1C32298262694603D804F0C3
:101F90009BFB0AB010BD04F071FBFAE710110020A2
:101FA00070477047704770B5044690F820000128CC
:101FB00004D0606A40F40020606217E0022084F8D8
:101FC00020002068016821F00101016000F0C4FADE
:101FD00005460DE000F0C0FA401B0A2808D9606AE7
:101FE00040F400306062052084F82000012070BDBC
:101FF00020684068C007EDD1606270BD70477047CF
:102000007047704770477047704790F83510022945
:1020100003D08021416501207047052180F83510EB
:102020000068016821F00101016000207047000094
:102030002DE9F84304464FF00009CDF800906348BD
:102040004FF41651A56D0068B0FBF1F72E6894F8B7
:102050005C20082101FA02F030420FD020680268AB
:1020600052070BD5026822F00402026094F85C006B
:102070008140A960606D40F00100606594F85C10DB
:102080004FF0010808FA01F0304208D02168496990
:10209000090604D5A860606D40F00200606594F800
:1020A0005C1004208840304208D021680968890704
:1020B00004D5A860606D40F00400606594F85C1081
:1020C00010208840304218D021680968090714D5CB
:1020D000A86020680168490304D50068000308D59A
:1020E000A16C07E00168C90503D4016821F008016B
:1020F0000160216C09B12046884794F85C102020CB
:102100008840304231D021680968C9062DD5A860C1
:1021100094F8350005282068016806D0490347D5A2
:10212000006800031DD4616C1CE021F01601016001
:102130002068416921F080014161206C08B9A06CE0
:1021400020B12068016821F00801016094F85C105A
:102150003F208840A86084F8349084F83580216D51
:102160001FE0E16B09B120468847606D00282BD045
:10217000606DC00714D0052084F835002068016820
:1021800021F0010101600098401C0090B84203D882
:1021900020680068C007F6D184F8349084F8358050
:1021A000E16C002910D001B02046BDE8F04308479B
:1021B0000168C905D5D4016821F01001016084F8D7
:1021C000349084F83580CCE7BDE8F8830000002027
:1021D0002DE9F041044600F0BFF905465CB1002648
:1021E00084F83460022084F835002068016821F00A
:1021F000010101600DE00120BDE8F08100F0ACF9C3
:10220000401B052805D920206065032084F835008F
:10221000F2E720680068C007F0D121680A6820480A
:102220000240D4E901031843D4E903352B43184392
:1022300063691843A3691843E3691843236A184381
:102240001043626A042A03D1D4E90B231A431043D2
:10225000086020684069656A20F0070128460D4340
:10226000012704280CD1A06A0543E06A40B120464A
:10227000FFF73EF820B14020606584F83570BAE77A
:10228000206845612046FFF71FF894F85C203F2145
:1022900091408160666584F835700020ACE70000ED
:1022A0003F8010F070B5044690F8340000250128F6
:1022B0000CD0012084F8340094F835600020012E01
:1022C00006D084F834000225284670BD022070BD77
:1022D000022684F8356060652046FFF733F82068F1
:1022E000016841F001010160EEE72DE9F04104468B
:1022F000866D90F83400002501280DD0012084F867
:10230000340094F835700020012F07D084F8340091
:1023100002252846BDE8F0810220FBE7022784F869
:10232000357060652046FFF70DF894F85C103F208B
:102330008840B0602068016841F016010160206C9F
:1023400020B12068016841F008010160206801683F
:1023500041F001010160DCE770B5044600F0FCF8D3
:102360000546601C02D004480078044400F0F4F8EC
:10237000401BA042FAD370BDC00000202DE9F84FE9
:10238000DFF894B100224FF003094FF00F0A0BF170
:10239000040E01250B6895402B40AB4272D14C686E
:1023A000012C05D0022C03D0112C01D0122C10D1FD
:1023B0008668540009FA04F7BE43CF68A740374344
:1023C00087604468AC430D79C5F3001595402543FB
:1023D0004560C468570009FA07F58E68AC43BE40F3
:1023E0002643C6604C68022C01D0122C12D1D408AE
:1023F00000EB840CDCF820605407E40E0AFA04F8C1
:1024000026EA0806D1F8108008FA04F848EA060817
:10241000CCF820800468AC430D7905F00305BD407D
:10242000254305604C68E4006FD53C4C256845F4B5
:1024300080452560246822F0030504F4804400945C
:10244000374C2E19D6F808789407250F0AFA05F4A8
:10245000A743344CA04201D100242EE0324CA042CC
:1024600001D1012429E0314CA04201D1022424E011
:102470002F4CA04201D103241FE02E4CA04202D1D8
:1024800004241AE041E02C4CA04201D1052414E0C0
:102490002A4CA04201D106240FE0294CA04201D1D0
:1024A00007240AE0274CA04201D1082405E0264C6D
:1024B000A04201D1092400E00A24AC403C43C6F804
:1024C0000848DBF800405D464E689C43F60300D5A3
:1024D0001C432C60DEF8004075464E689C43B603F2
:1024E00000D51C432C600C4D08352C684E689C436D
:1024F000F60200D51C432C60074D0C352C684E6845
:102500009C43B60200D51C432C60521C102AFFF4D9
:1025100040AFBDE8F88F0000003C01404438024065
:102520000030014000000240000402400008024068
:10253000000C02400010024000140240001802404B
:10254000001C024000200240002402400AB18161C8
:1025500070470904FBE700000148806870470000ED
:10256000C0000020024881680278114481607047F1
:10257000C00000200B4810B5016841F400710160F3
:10258000016841F480610160016841F4807101607B
:10259000032000F08DF8002000F006F800F03EF86F
:1025A000002010BD003C024010B5014688B000225A
:1025B000362000F05DF8362000F04CF81348002477
:1025C000016841F010010160006805A900F01000E9
:1025D0000690684600F050F900F06EF90C49400092
:1025E000B0FBF1F10C480B4A491E026040F2E732A1
:1025F000C0E90324C0E9011400F002FD10B101207C
:1026000008B010BD044800F035FDF9E7403802403D
:1026100040420F0000100040D01000200C4882B053
:10262000016841F480410160006800F4804000903E
:102630000748001F016841F08051016000680022D6
:1026400000F0805000900F21901E02B000F010B8F2
:1026500044380240002809DB00F01F0201219140AC
:102660004009800000F1E020C0F800117047000030
:10267000F0B40E4B1B68C3F30223C3F10704042C10
:1026800000D904241D1D072D01D2002300E0DB1E0C
:10269000012606FA04F56D1E0D409D409E40761EF3
:1026A000164045EA0601F0BC02F04EB80CED00E021
:1026B000064A00F0070110684FF6FF03184040EA91
:1026C0000120034908431060704700000CED00E052
:1026D0000000FA052DE9F8431748016841F08051E0
:1026E00001600068DFF8548000F0805001270090FE
:1026F000C8F84070FFF730FF04464FF47A75104E6B
:1027000004E0FFF729FF001BA8420DD87068C00342
:10271000F7D5C8F84470FFF71FFF044607E0FFF73E
:102720001BFF001BA84202D90320BDE8F883706894
:102730008003F4D50020F8E74038024000000E4244
:10274000007000402DE9F0470D46040065D0DFF829
:102750001491D9F80000EFB200F00F00A84207D2A0
:1027600089F80070D9F8000000F00F00A84254D199
:1027700020683D4E810712D5400703D5306840F4EC
:10278000E05030602078000703D5306840F46040A6
:1027900030603068A16820F0F00008433060207895
:1027A000C0072DD0304960680839012812D00228AE
:1027B00013D0032811D00968890700292DDA316860
:1027C00021F0030101433160FFF7C6FE804641F26C
:1027D000883A0EE009688903EFE709688901ECE7A8
:1027E000FFF7BAFEA0EB0801514502D90320BDE86E
:1027F000F0873068616800F00C00B0EB810FEFD11A
:10280000D9F80010484601F00F01A94207D9077016
:10281000006800F00F00A84201D00120E7E720780F
:10282000400705D53068E16820F4E0500843306087
:102830002078000706D53068216920F4604040EA1E
:10284000C100306000F058F83168084AC1F3031144
:10285000515CC8400649086006480068FFF7A4FEBE
:102860000020C4E7003C024008380240748600089B
:1028700000000020C40000200F2202600C4A1368F0
:1028800003F003034360136803F0F00383601368ED
:1028900003F4E053C36012684FF4E05303EAD2023A
:1028A00002610448006800F00F00086070470000F3
:1028B00008380240003C02400448054900680968A5
:1028C000044AC1F38221515CC840704700000020D7
:1028D00008380240848600080448054900680968F1
:1028E000044AC1F34231515CC840704700000020E7
:1028F0000838024084860008154810B5006810F0BA
:102900000C01144813D0144B04290FD008290ED100
:102910000F4C241F216801F03F022168490207D5AE
:102920002068C0F38810A0FB030106E0184610BD24
:102930002168C1F38811A1FB00010023FDF7B2FC5F
:102940002168C1F30141491C4900B0FBF1F010BD01
:10295000083802400024F400001BB7002DE9F84FAE
:10296000040075D02078DFF828A3C007AAF1040579
:1029700048D00AF104000168C1F38101012908D09F
:102980000068C0F3810002280AD1DAF80000400292
:1029900006D52868800335D560680028E1D031E08D
:1029A0006068B0F5803F10D0B0F5A02F286810D037
:1029B00020F480302860286820F480202860606837
:1029C000A0B1FFF7C9FD06460CE0286840F480304E
:1029D000F4E740F480202860F7E7FFF7BDFD801B97
:1029E000642871D828688003F7D50BE0FFF7B4FDA1
:1029F000064604E0FFF7B0FD801B6428F1D8286884
:102A00008003F7D42078DFF88C9280074FF0000B1A
:102A10003DD59F48001D016811F00C0F08D00068DB
:102A2000C0F3810002280AD1DAF80000400206D47F
:102A30002868800715D5E068012809D111E0E06811
:102A4000B8B10121C9F80010FFF786FD064605E080
:102A50001AE1FFF781FD801B0228C2D82868800791
:102A6000F7D52868216920F0F80040EAC100286005
:102A70000DE0C9F800B0FFF76FFD064604E0FFF770
:102A80006BFD801B02281FD828688007F7D42078A8
:102A9000000722D57E4F80486169703771B10121EE
:102AA0000160FFF759FD064604E0FFF755FD801B66
:102AB000022809D838688007F7D50EE0C0F800B0C2
:102AC000FFF74AFD064605E082E0FFF745FD801B63
:102AD00002287DD838688007F7D42078400765D56C
:102AE0006B484FF000083C300068C0000BD46848C9
:102AF0003C30016841F08051016000684FF00108EE
:102B000000F080500090654F3868C0050FD43868D9
:102B100040F480703860FFF71FFD064604E0FFF7C1
:102B20001BFD801B022853D83868C005F7D5584FC5
:102B3000A0686C3701280FD00528386810D020F025
:102B400001003860386820F004003860A068B0B137
:102B5000FFF702FD06460EE0386840F00100F4E79A
:102B600040F004003860F7E7FFF7F6FC811B41F204
:102B70008830814263D838688007F5D50DE0FFF7CB
:102B8000EBFC064606E0FFF7E7FC811B41F28830CC
:102B9000814254D838688007F5D4B8F1000F05D0C9
:102BA0003B483C30016821F080510160A069B8B316
:102BB0003749091D0968C1F38101022946D002285D
:102BC000584606D0C9F86000FFF7C6FC044639E055
:102BD00035E04F46C9F86000FFF7BEFC064604E04A
:102BE000FFF7BAFC801B022829D828688001F7D497
:102BF000D4E907010843A16A294A490802EB0141C7
:102C0000626A41EA8211084394F82C1040EA01619B
:102C1000CAF8001001203866FFF79EFC044605E064
:102C200034E0FFF799FC001B022808D828688001CF
:102C3000F7D52BE0FFF790FC001B022802D90320F8
:102C4000BDE8F88F28688001F4D41FE00128F7D090
:102C5000DAF80000E26900F48001914214D1226A9E
:102C600000F03F0191420FD147F6C071626A014006
:102C7000914209D1A26A00F44031914204D1E16A43
:102C800000F07060884201D00120D9E70020D7E72A
:102C90000438024000004742800E47420070004066
:102CA0000000FFFF70B5040005D00025A56294F870
:102CB000510010B106E0012070BD84F8505020464C
:102CC00000F030F8022084F851002068016821F0FB
:102CD00040010160D4E901010843D4E90312114322
:102CE000084361690843218B01F400710843E169DD
:102CF0000843216A0843A16A084321680860A06963
:102D0000042101EA1040616A084321684860206894
:102D1000C16921F40061C1616565012084F8510039
:102D2000002070BD10B586B0044614216846FDF73A
:102D300003FB14492068884221D11348002102680E
:102D400042F480120260006800F4801005900E4882
:102D50001438026842F020020260006800F020008F
:102D600005904FF4607000900220CDE9010103202E
:102D700003900520049069460448FFF7FFFA06B067
:102D800010BD0000005001404438024000140240D1
:102D90002DE9F84F044690F8500001250A9E1F4681
:102DA00092468B464FF0000801280ED0012084F88F
:102DB0005000FFF7D1FB814694F85100616801286B
:102DC0000CD0B1F5827F07D102E00220BDE8F88F78
:102DD000A16809B9042801D00220B6E0BBF1000FB8
:102DE00027D0BAF1000F24D01FB394F85100042863
:102DF00002D0052084F8510000206065C4F838A096
:102E0000E787A787C4F830B0E786A78620646064A8
:102E100020680168490603D4016841F0400101605F
:102E2000E068B0F5006F606805D0E8B3012F43D0CB
:102E300079E0012089E008B1012F34D1206B2168AD
:102E40000088C860206B801C2063E08E401EE086F6
:102E500029E02068816889070DD5E18E59B1012DDF
:102E600009D1216B0988C160206B801C2063E08E32
:102E7000401EE086002520688168C9070BD0E18FDD
:102E800049B1C068A16B0880A06B801CA063E08F73
:102E9000401EE0870125FFF75FFBA0EB0900B04271
:102EA00001D3701C50D100E006E0E08E0028D0D1A4
:102EB000E08F0028CDD13CE0206B216800780873BA
:102EC000206B401C2063E08E401EE0862BE02068D3
:102ED000816889070DD5E18E59B1012D09D1216B8A
:102EE00009780173206B401C2063E08E401EE08651
:102EF000002520688168C9070BD0E18F49B1C068FF
:102F0000A16B0870A06B401CA063E08F401EE0879F
:102F10000125FFF721FBA0EB0900B04202D3701C92
:102F200001D011E086B1E08E0028D0D1E08F0028DA
:102F3000CDD14A463146204600F0D0FE38B120209F
:102F40004FF00108606508E00320804605E0A068B6
:102F500018B92068C16880680090012084F8510089
:102F6000002084F85000404630E77047704700006A
:102F700070B590F83C20012A32D0012580F83C50F1
:102F8000022280F83D2002685368946823F070069E
:102F90000B6833435360134B02689A4214D0B2F16A
:102FA000804F11D0104B9A420ED0104B9A420BD04A
:102FB0000F4B9A4208D00F4B9A4205D00E4B9A42C3
:102FC00002D00E4B9A4204D1496824F08003194381
:102FD000916080F83D50002180F83C10084670BD9B
:102FE000022070BD000001400004004000080040C5
:102FF000000C004000040140004001400018004067
:1030000010B5040003D094F83D0010B107E0012092
:1030100010BD002084F83C00204600F00DF802208E
:1030200084F83D00211D206801F08AF9012084F810
:103030003D00002010BD000008B500680B49884223
:1030400012D10B48016841F02001016000680022A4
:1030500000F02000009005213720FFF709FBBDE8B4
:1030600008403720FFF7F6BA08BD00000014004002
:10307000403802400168CA6842F00102CA60006834
:10308000816801F00701062903D0016841F00101C0
:10309000016000207047704770B504460068016900
:1030A0004FF00005C943890715D4C168C943890792
:1030B00011D4E91E01610120207720688069800712
:1030C000204602D0FFF7E7FF04E000F098F8204622
:1030D00000F096F8257720680169C943490717D49D
:1030E000C168C943490713D46FF00401016102208C
:1030F00020772068806910F4407F204602D0FFF7D7
:10310000CAFF04E000F07BF8204600F079F825774C
:1031100020680169C943090716D4C168C943090772
:1031200012D46FF008010161042020772068C06983
:103130008007204602D0FFF7AEFF04E000F05FF802
:10314000204600F05DF8257720680169C943C9066B
:1031500017D4C168C943C90613D46FF010010161C7
:10316000082020772068C06910F4407F204602D0F4
:10317000FFF791FF04E000F042F8204600F040F82D
:10318000257720680169C943C90708D1C168C943C7
:10319000C90704D1891E0161204600F033F8206878
:1031A0000169C943090609D4C168C943090605D4A0
:1031B0006FF0800101612046FFF7D7FE20680169AA
:1031C000C943490609D4C168C943490605D46FF00B
:1031D00040010161204600F03FF820680169C943C1
:1031E00089060BD4C168C943890607D46FF0200152
:1031F00001612046BDE87040FFF7B8BE70BD704762
:103200007047000070B5054600681049884214D127
:103210000F4CD4ED0D1A94ED0B1AD4ED090A94ED70
:10322000070A04F04FFDD4ED0C1A94ED0A1AD4ED00
:10323000080A94ED060A04F007FD0649286888424A
:1032400003D1BDE87040FFF78DB970BD0014004098
:1032500084080020001000407047704770B5026875
:1032600004461068D168536910F00F0F53D003F073
:10327000010501F490762E435FD0C20705D0CA0540
:1032800003D5E26B42F00102E263420705D5DA079B
:1032900003D0E26B42F00202E263820705D5DA074F
:1032A00003D0E26B42F00402E263020707D501F0AB
:1032B00020022A4303D0E26B42F00802E263E26B91
:1032C000002A34D0800604D5880602D5204601F0B5
:1032D000B1F820684069E16BC0F3801001F008018B
:1032E0000143204624D001F097F82068416949063F
:1032F0001AD5416921F040014161606BA0B11B49C1
:103300000165606BFEF781FE002810D0606B016DD7
:10331000BDE87040084783060FD58B060DD52046C3
:10332000BDE8704001F086B82046FFF796FF70BDFB
:10333000FFF793FF0020E06370BD030606D50B0680
:1033400004D52046BDE8704001F054B94006F3D5DD
:103350004806F1D5D168204621F04001D1602021F6
:1033600084F8391000F03DFA70BD000009440008EF
:1033700070B5040004D094F83900002510B106E0BF
:10338000012070BD84F83850204600F023F8242036
:1033900084F839002068C16821F40051C1602046DA
:1033A00001F094F82068016921F4904101612068DE
:1033B000416921F02A0141612068C16841F400514E
:1033C000C160E563202084F8390084F83A000020C9
:1033D00070BD00002DE9F04F87B004461421684607
:1033E000FCF7AAFF9948DFF8608214380221D4F86C
:1033F00000C00025DFF854A2032207238F0606151C
:10340000C44544D1DAF8008048F01008CAF80080BA
:10341000DAF800C00CF0100CCDF814C0D0F800C0E1
:103420004CF0020CC0F800C000680DF1080800F074
:1034300002000590C020CDE90001012088E80D00C0
:1034400069468348FEF79AFFDFF80C8281494046BF
:10345000C8F80010C0E90175C0E903568915C8F81D
:103460001450C0E90651C8F82050C8F82450FEF79F
:10347000AFFE08B1FDF77BFFC4F8348000220521C0
:103480002520C8F83840FFF7F3F825204DE0DFF895
:10349000CC81DFF8B891DFF8C8B1A9F10409C445BF
:1034A00048D1D9F8008048F40038C9F80080D9F82C
:1034B00000C00CF4003CCDF814C0D0F800C04CF0B3
:1034C000080CC0F800C0006800F0080005906020FB
:1034D0008DE8230069465846CDE90323FEF74EFFE9
:1034E000DFF874815F4908F160084046C8F80010B1
:1034F000C0E90175C0E90356C8F81450C8F818505F
:10350000C8F81C50C8F82050C8F82450FEF760FED8
:1035100008B1FDF72CFFC4F83480002207212620D3
:10352000C8F83840FFF7A4F82620FFF793F807B053
:10353000BDE8F08FDFF83081C44546D1D9F800806E
:1035400048F48028C9F80080D9F800C00CF4802C19
:10355000CDF814C0D0F800C04CF0080CC0F800C082
:10356000006800F0080005904FF440708DE82300DB
:1035700069465846CDE90323FEF700FFDFF8D880FF
:10358000384908F1C00860394046C8F80010C0E961
:103590000175C0E90356C8F81450C8F81850C8F8A7
:1035A0001C50C8F82050C8F82450FEF711FE08B18E
:1035B000FDF7DDFEC4F83480002208212720C8F87A
:1035C0003840FFF755F82720AFE7284B9C45AED190
:1035D000DAF8007047F02007CAF80070DAF8003017
:1035E00003F020030593036843F040030360006881
:1035F00000F0400005904FF484408DE8230008203F
:10360000CDE9032069461A48FEF7B8FE1148194F64
:10361000183838608005C7E90105C7E903567D61A0
:10362000BD61FD613D6238467D62FEF7D1FD08B1A6
:10363000FDF79DFE6763002209214720BC63FFF769
:1036400017F8472071E7000000100140443802409D
:103650000004024040640240500F0020004400403B
:10366000000C024088600240004800400014014005
:10367000001802407010002090F83A30202B22D120
:10368000F9B1F2B190F83830012B1CD081628285FB
:10369000C2850021C163222280F83A2080F83810C8
:1036A0000168CA6842F48072CA6001684A6942F0DF
:1036B00001024A610068C16841F02001C160002038
:1036C00070470120704702207047000010B5044683
:1036D0000068104988420AD1372301220E490F4859
:1036E00000F022F801220C490C48FFF7C5FF0C49F5
:1036F000206888420CD1372301220749094800F08D
:1037000013F8BDE81040012203490648FFF7B4BF93
:1037100010BD00000014014038000020100F0020F0
:1037200000480040D00E00202DE9F843044690F8F0
:1037300039001E4617460D46202850D1B5B1AFB10D
:1037400094F8380001284AD0012084F838004FF05E
:103750000008C4F83C80212084F83900FEF7FCFE04
:10376000A7848146E78484F8388026E00120BDE8FC
:10377000F883E08C401EE084A0684B46B0F5805F83
:103780004FF000024FF080012046009603D000F079
:1037900062FFE8B90DE000F05EFFC8B92888216833
:1037A000C0F308004860206908B16D1C05E0AD1C3D
:1037B00003E0216815F8010B4860E08C0028D8D19F
:1037C0004B46002240212046009600F044FF08B1FD
:1037D0000320CCE7202084F839000020C7E702202E
:1037E000C5E77047FEE700007FB500242648009437
:1037F0000194029423490394016001254FF4803120
:103800000561C0E90114057680F820401F49C0E930
:103810000A140426C661C46080F830504561FDF783
:103820005EFE08B1FDF7A3FD0C20CDE90005694659
:1038300002941548FDF79EFD08B1FDF798FD0D2097
:1038400000900220019069460F48FDF793FD08B1F2
:10385000FDF78DFD0E2000900320019069460A4877
:10386000FDF788FD08B1FDF782FD0F20CDE90006C8
:1038700069460548FDF77EFD002801D0FDF777FD7C
:103880007FBD000000200140C00C00200100000F9F
:103890000F4810B50D4901600521416000214FF42A
:1038A00000328160C0E903125201426101760122B7
:1038B00042768176C17601774177FEF7A6F9002836
:1038C00003D0BDE81040FDF752BD10BD00640040BC
:1038D000680D0020104810B50E49016005214160B7
:1038E00000214FF04072C0E902124FF40032026131
:1038F000520142610176012242768176C1760177DA
:103900004177FEF782F9002803D0BDE81040FDF7AB
:103910002EBD10BD00680040900D00201D4808B568
:10392000016841F480010160016801F480010091A7
:10393000016841F4001101600068002200F40010E9
:10394000009005210C20FEF793FE0C20FEF782FE6E
:10395000002205211020FEF78BFE1020FEF77AFED4
:10396000002205213820FEF783FE3820FEF772FE84
:10397000002205213920FEF77BFE3920FEF76AFE82
:10398000002205213A20FEF773FEBDE808403A20E8
:10399000FEF760BE3038024010B596B01C221149C7
:1039A0006846FCF7B0FC0021684603F0CAFD0E4CE7
:1039B0000C491C2260611C3107A8FCF7A4FC002103
:1039C00007A803F0BEFD0749A0611C2238310EA8EC
:1039D000FCF799FC00210EA803F0B3FDE06116B0DE
:1039E00010BD00008C8600083C0000202DE9F04747
:1039F00086B014216846FCF79FFC4C4800240168FF
:103A000041F010010160016801F0100105910168A9
:103A100041F040010160016801F040010591016839
:103A200041F008010160016801F008010591016899
:103A300041F001010160016801F001010591016897
:103A400041F002010160016801F002010591016885
:103A500041F080010160016801F080010591016879
:103A600041F020010160016801F020010591016829
:103A700041F0040101600068DFF8B48000F0040048
:103A80000590002288214046FEF760FD01220421B6
:103A90004046FEF75BFDDFF89C904FF40056002295
:103AA00031464846FEF752FDDFF88CA044F240470D
:103AB000002239465046FEF749FD8C200090012532
:103AC000CDE90154694640460394FEF757FC0220B5
:103AD00000901A48CDE9010569464046FEF74EFCC4
:103AE0000096CDE90154694648460394FEF746FC2A
:103AF0004FF49060CDE90004694611480294FEF746
:103B00003DFC0097CDE90154694650460394FEF709
:103B100035FC0D2000900B48CDE9010469460A48A8
:103B2000FEF72CFC06B0BDE8F087000030380240FC
:103B30000010024000180240001402400000211052
:103B4000000C02400000111000000240104810B5A7
:103B50000E4901604FF48271416000218160C160B3
:103B60004FF400720161C0E905123022C0E907215B
:103B7000416281620A21C162FFF794F8002803D0F4
:103B8000BDE81040FDF7F3BB10BD00000050014040
:103B9000B80D00201CB500240E4800940C49019477
:103BA00001605921C0E9011441F288318461C1608A
:103BB000FFF726FA08B1FDF7DAFB009469460548DD
:103BC0000194FFF7D5F9002801D0FDF7D0FB1CBD0B
:103BD00000140040100E00200D4810B50B49016084
:103BE0000C49416000214FF480628160C0E90312FA
:103BF0000C22C0E90521C161FFF7BAFB002803D000
:103C0000BDE81040FDF7B3BB10BD0000001001403F
:103C1000500E0020A08601000C4810B50A49016032
:103C20004FF4E1314160002181600C22C160C0E9A4
:103C300004128161C161FFF79BFB002803D0BDE83E
:103C40001040FDF794BB10BD00440040900E0020D2
:103C50000C4810B50A4901604FF4E1314160002180
:103C600081600C22C160C0E904128161C161FFF76B
:103C70007FFB002803D0BDE81040FDF778BB10BDE6
:103C800000480040D00E00200C4810B50A490160E1
:103C90004FF4E1314160002181600C22C160C0E934
:103CA00004128161C161FFF763FB002803D0BDE806
:103CB0001040FDF75CBB10BD00140140100F002048
:103CC000FEE7704730B4034C4466034C846630BC56
:103CD00003F044BD5D7700086B77000838B50446F3
:103CE0001248134D4FF47A730068B0FBF5F0584357
:103CF00000906068B0F5827F0DD10B4600920022E3
:103D00008021204600F016F870B1606D40F0200070
:103D10006065032038BD009830B1401E00902068D7
:103D20008068C0430006F6D5002038BD00000020A2
:103D300000366E012DE9F0411D4617460E46044639
:103D4000DDF8188008E0681C06D0FEF705FCA0EB43
:103D50000800A8420BD255B12068806836EA0000FE
:103D600030D00020B842EED10020BDE8F0812068BC
:103D7000416821F0E00141606068B0F5827F0BD1BD
:103D8000A068B0F5004F02D0B0F5806F04D1206874
:103D9000016821F040010160A06AB0F5005F09D11F
:103DA0002068016821F4005101602068016841F435
:103DB00000510160012084F85100002084F8500077
:103DC0000320D2E70120CDE72DED088B86B08F4888
:103DD00003F084FB8E4803F081FB02218B48FDF742
:103DE0008FFC02218A48FDF78BFC02F091FB02F068
:103DF000C9FA8848FFF73EF99FED871ADFED87AAD9
:103E000044F620629FED860AF0EE6A0A134603210B
:103E10008448FFF757FF9FED843B9FED850BB0EE85
:103E2000402AF0EE602AB0EE401AF0EE601AFCF77D
:103E300029FF4FF4FA6003F078FB00207E4A014628
:103E400000EB400303EBC00302EB8303401C59610A
:103E50000828F5DB012291027848FEF777FBDFF8AE
:103E6000E0A14FF4C87B774C207A012804D00228C7
:103E700074D0032871D11EE0B4F9000000EB4000BB
:103E800040000A2190FBF1F200EE102A90FBF1F2C3
:103E9000F8EEC01A00EE102A90FBF1F290FBF1F060
:103EA000B8EEC01A00EE102AF8EEC00A00EE100AB2
:103EB000B8EEC00A68E0B4F90000FCF7D0FB0E468B
:103EC00046EC100B05469FED608B51EC100B53EC4C
:103ED000182BFCF7E3FA9FED5E9B53EC192BFCF7D4
:103EE0004FFBFCF711FC46EC105B0AEE100A53EC9A
:103EF000182B51EC100BFCF7D1FA53EC192BFCF7F3
:103F00003FFBFCF701FC46EC105B0BEE100A53EC98
:103F1000182B51EC100BFCF7C1FA53EC192BFCF7E2
:103F20002FFBFCF7F1FB46EC105B0BEE900A53EC19
:103F3000182B51EC100BFCF7B1FA53EC192BFCF7D2
:103F40001FFBFCF7E1FB00EE100AF0EE4A1AB0EEA0
:103F50004B1AF0EE6B0A17E000E017E0607A0328D6
:103F600004D0012805D0022806D00FE0B0EE6A0A7E
:103F700004E09FED390A01E09FED380AF0EE401AA7
:103F8000B0EE401AF0EE400A03F0C0FFB4F90600AC
:103F9000594690FBF1F200EE102A90FBF1F2F8EE98
:103FA000C01A00EE102A90FBFBF290FBFBF0B8EE7B
:103FB000C01A00EE102AF8EEC00A00EE100AB8EEA1
:103FC000C00A03F0F3FFDAF80C00FCF759FB804657
:103FD0008946DAF80800FCF753FB06460F46DAF884
:103FE0000400FCF74DFB04460D46DAF80000FCF730
:103FF00047FB8DE8F00341EC100B194853EC102BF4
:1040000000F07AFB052003F090FA2CE7680D002001
:10401000900D0020100E00209A99993E000000009B
:10402000EC51383F701200200000000000388FC0B3
:1040300000000000000000001011002000140240E9
:10404000BC08002050130020000000000000F83FD2
:1040500000000000000024400000B4420000B4C290
:10406000108900082DED088B9FED688A642268494D
:104070006848FDF7ABFADFF89891DFF89C814FF0C4
:10408000000A0020C8F810A0C8F80CA0C8F808A0C2
:1040900041464A46C8F804A052F820304C68401CFB
:1040A0002344C0B24B6052F820308C68401C23443B
:1040B000C0B28B6052F82030CC68401C2344C0B2A0
:1040C000CB6052F820300C69401C2344C0B20B6115
:1040D0006428E1D348681922B0FBF2F048608B688D
:1040E00000EE100AB3FBF2F58D60CB68B8EE400A23
:1040F000B3FBF2F4CC600B69B3FBF2F69FED47AA79
:1041000020EE0A0ADFED46AAC8F8106020EE2A0A5F
:1041100010EE100AFCF7B4FA9FED429B53EC192BFA
:10412000FCF72EFAFCF7F0FA00EE105A384F08EEC2
:10413000900AB8EE400A103FC7ED008A20EE0A0A46
:1041400020EE2A0A10EE100AFCF79AFA53EC192B0B
:10415000FCF716FAFCF7D8FA00EE104A0BEE100A3C
:10416000B8EE400A87ED01BA20EE0A0A20EE2A0ACC
:1041700010EE100AFCF784FA53EC192BFCF700FA46
:10418000FCF7C2FA00EE106A0BEE900AB8EE400A95
:10419000C7ED02BA20EE0A0A20EE2A0A10EE100A33
:1041A000FCF76EFA53EC192BFCF7EAF9FCF7ACFAC2
:1041B000B7EE000A00EE900A30EE480AA7F11000B0
:1041C000C7ED030AD0ED001A20EE281A08EE211AD6
:1041D00080ED001A20EE0B1AD0ED011A08EE211A1C
:1041E00080ED011A20EE2B1AD0ED021A20EE200AE3
:1041F00008EE211A80ED021AD0ED030A08EE200A1B
:1042000080ED030A012003F090F93AE70000000076
:10421000DC080020C00C00203C0000203333534059
:10422000F32EDC429D3FCBF9B39CAF4002F0B2FFCE
:1042300002F050FA02F0A4FC052003F076F9F5E74D
:1042400010B5502080F31188BFF34F8FBFF36F8FED
:1042500004F04AF918B104494FF08050086000207A
:1042600080F3118810BD000004ED00E030B593B07C
:1042700030216846FCF760F814210CA8FCF75CF8C4
:1042800020480025016841F080510160006800F07D
:10429000805011901C48016841F440410160006861
:1042A000022400F44040119001200090000401908D
:1042B0008001CDE9064006200890B420CDE909042C
:1042C00004200B906846FEF749FB08B172B6FEE782
:1042D000FEF700FA08B172B6FEE70CA90F2081E8DC
:1042E00031004FF4A0500F904FF4805010900521F2
:1042F0000CA8FEF727FA002801D072B6FEE713B02B
:1043000030BD0000403802400070004005480168A0
:1043100041F47001016003494FF00060803908608A
:104320007047000088ED00E00148FEF7B5BE0000D0
:10433000D01000200148FEF7AFBE0000100E002094
:10434000F0B50268254D264E264FDFF89CC0274B5E
:104350004FF0804EA84209D0704507D0B04205D03A
:10436000B84203D0604501D0984203D122F07004D6
:104370004A682243A8421BD0704519D0B04217D0DA
:10438000B84215D0604513D0984211D0184CA042C5
:104390000ED0184CA0420BD0174CA04208D0174C9E
:1043A000A04205D0164CA04202D0164CA04203D128
:1043B00022F44074CA6822434C6922F080022243EE
:1043C00002608A68C2620A688262A84201D098428A
:1043D00001D10969016301214161F0BD0000014083
:1043E0000004004000080040000C004000040140B0
:1043F00000400140004401400048014000180040D6
:10440000001C00400020004010B5806B0021C185D9
:10441000C184FEF722FF10BD0168CA6822F49072C1
:10442000CA6001684A6922F001024A61202180F8CD
:104430003A10704710B590F83A10222901D00220A6
:1044400010BD8168B1F5805F11D001690029016854
:104450001FD0496801F07F03816A4A1C82620B7099
:10446000C18D491E0904090CC18518D02BE00269D1
:10447000816A002A0268526805D0D2B20A80816A35
:10448000491C8162ECE7C2F308020A80816A891C38
:10449000F7E74A68816A4B1C83620A70E0E70168AB
:1044A000CA6822F02002CA600168CA6822F48072D9
:1044B000CA6001684A6922F001024A61202180F83D
:1044C0003A10FFF703F9002010BD00002DE9F0417C
:1044D000044600680169E26821F44051114301611A
:1044E000A1682069E26901436069104301432068C3
:1044F000C26849F20C639A430A43C260206841696A
:10450000A26921F4407111434161E06919276425D2
:104510003226B0F5004F354A354920684FF0000883
:1045200006D0884201D0904236D1FEF7D5F935E069
:10453000884201D0904202D1FEF7CEF901E0FEF7A9
:10454000BBF961684A18A0FB070148EB0803FBF7B9
:10455000A9FE0146B0FBF5F00201B1FBF5F06FF0EA
:104560001803584301EB800006EBC000B0FBF5F0E8
:1045700000F0F80002EB4002B1FBF5F0584301EB0C
:10458000800006EBC000B0FBF5F000F007002168EA
:1045900010448860BDE8F081FEF78EF9014660683E
:1045A000830F8200A1FB0701FBF77CFE0146B0FBF5
:1045B000F5F06FF01802504301EB800006EB00109D
:1045C000B0FBF5F000F0F002B1FBF5F002EB0012E9
:1045D000B1FBF5F06FF01803584301EB800006EBD8
:1045E0000010B0FBF5F000F00F00D0E70014014020
:1045F0000010014090F83910212901D002207047A5
:104600008168B1F5805F016A0BD04A1C02620268C2
:1046100009785160C18C491E0904090CC1840ED06F
:1046200017E009880268C1F3080151600169002997
:10463000016A02D0491C0162ECE7891CFBE70168B2
:10464000CA6822F08002CA600068C16841F0400177
:10465000C160002070472DE9F0411E46174688468C
:104660000446069D1CE0681C1AD025B1FDF774FFB6
:10467000801BA84214D92068C16821F4D071C160A0
:104680002068416921F001014161202084F839004E
:1046900084F83A00002084F838000320BDE8F08157
:1046A0002068016838EA010004D00020B842DAD05E
:1046B0000020F3E70120F9E710B5044803F0BAFC45
:1046C000BDE810400148FEF7C9BD0000500E0020B3
:1046D0000148FEF7C3BD0000900E00200148FEF720
:1046E000BDBD0000D00E00200148FEF7B7BD0000A0
:1046F000100F0020FEE700000FB4054B10B503A912
:10470000044A029801F03CFA10BC5DF814FB00006A
:10471000656600082C01002003B401984100009850
:1047200050EAC12018BF04204A0D18BF40F0010014
:1047300040F2FF72B2EB515F08BF40F00200012867
:1047400008BF052002B070470907090E002804DBE6
:1047500000F1E02080F80014704700F00F0000F135
:10476000E02080F8141D704770B5C1482DED020B94
:104770002DED0E8B82B0119D25F000449FEDBEDB28
:104780009FEDBFEB84423EDBA4F140511098A1F1B4
:104790007F6108430FD0BC48844202DC28D11098C6
:1047A00030B39DED100B02B0BDEC0E8B02B0BDE836
:1047B000704001F0E9B89DED100B53EC1D2B51EC4E
:1047C000100BFBF76BFE9DED100B41EC180B53EC3F
:1047D0001E2B51EC100BFBF761FE53EC182BFBF773
:1047E000B6FD41EC100B02B0BDEC0E8B02B070BDFB
:1047F000012001F00DF902B0BDEC0E8B02B0BDE856
:10480000704001F0D5B8A1489FEDA18B844256DAE3
:104810009DED100BB4F1795F0ADA51EC100BFFF744
:104820007BFF042808BF01F0D3F89DED100BDAE7F9
:1048300053EC102B51EC100BFBF730FE41EC190B35
:1048400095480621B0EE490AF0EE690A784400F076
:1048500087FF53EC192B51EC100BFBF71FFE41ECBB
:104860001A0B8E48B0EE490AF0EE690A042178442A
:1048700000F076FF53EC192B51EC100BFBF70EFEFA
:1048800053EC182BFBF763FD41EC100B51EC1A0BAA
:1048900053EC102BFBF774FECDE900019DED000BEE
:1048A00053EC102B9DED100B51EC100BFBF7F6FDAC
:1048B0009DED101B53EC112BFBF749FDD2E09DED54
:1048C000100B51EC100B01F0C1FE53EC182BFBF751
:1048D000E2FD9FED730BCDE9000153EC102B9DED34
:1048E000000B51EC100BFBF7D9FD41EC190B6E4896
:1048F0000621B0EE490AF0EE690A784400F030FF74
:1049000053EC192B51EC100BFBF7C8FD41EC1B0BC2
:104910006648B0EE490AF0EE690A0421784400F0D6
:104920001FFF53EC192B51EC100BFBF7B7FD53ECA9
:10493000182BFBF70CFD41EC1C0B51EC190B03F091
:1049400041FB41EC180B5A489FED5BABA04222DCC7
:1049500053EC1C2B51EC1B0BFBF712FECDE90001B5
:104960009DED000B51EC180B53EC102BFBF796FD53
:1049700053EC182BFBF7EBFC53EC1A2BFBF78EFDDB
:1049800053EC1D2BFBF784FD53EC1E2BFBF783FD33
:1049900041EC100B5FE08DED008B002000909DED51
:1049A000000B51EC180B53EC102BFBF7D0FC9DEDDA
:1049B000000B41EC1E0B53EC102B51EC100BFBF7D2
:1049C0006DFD53EC192BFBF766FD53EC1E2BFBF72B
:1049D000D7FD41EC190B53EC1C2B51EC1B0BFBF7D7
:1049E000CFFD41EC1B0B53EC1A2B51EC190BFBF7D1
:1049F00055FD53EC1D2BFBF74EFD41EC190B53EC11
:104A00001A2B51EC180BFBF749FD53EC1B2BFBF752
:104A100045FD53EC192BFBF73BFD9DED000B41ECE5
:104A2000180B53EC1A2B51EC100BFBF737FD9FEDD5
:104A3000249B53EC192BFBF72EFD41EC100B51EC92
:104A4000180B53EC102BFBF723FD53EC192BFBF742
:104A500022FD41EC100B002D3FF7C5AE51EC100BC1
:104A600081F0004141EC100BBDE6000000000000A9
:104A70000000F03F00000000075C143326A6913CC4
:104A8000182D4454FB21F93F0000F07F0000E03F67
:104A9000000000000000F03FB03E0000BE3E0000FD
:104AA000000000000000E03F023E0000103E000059
:104AB0003333EF3F00000000000000000000004022
:104AC000182D4454FB21E93F70B59B482DED020B96
:104AD0002DED068B079D25F00044A04218DC974879
:104AE000844202DC0AD1069840B19DED060BBDEC74
:104AF000068B02B0BDE8704000F046BF002DCCBF71
:104B00009FED8F0B9FED900BBDEC068B02B070BD3F
:104B10008F48A04215DD8F48A042D8BF4FF0FF3428
:104B200058DD9DED060B51EC100BFFF7F5FD042849
:104B300008BF00F04DFF9DED060BBDEC068B02B0EB
:104B400070BD9DED060B51EC100B01F07FFDCDE922
:104B5000060181489FED828BA0423CDD8248A04245
:104B60001FDD00249FED82AB9DED060B53EC1A2B4D
:104B700051EC100BFBF7EBFB9DED060B41EC190B19
:104B800053EC1A2B51EC100BFBF788FC53EC182B51
:104B9000FBF77EFC53EC192BFBF7F2FCCDE9060189
:104BA00049E09DED060B012453EC182B51EC100B42
:104BB000FBF7CDFB9DED060B41EC190B53EC182BCD
:104BC00051EC100BFBF764FC53EC192BFBF7D8FCF2
:104BD000CDE906012FE06848A0421FDD02249FEDC9
:104BE000689B9DED060B53EC192B51EC100BFBF75A
:104BF00055FC53EC182BFBF7AAFB9DED060B41EC83
:104C0000180B53EC192B51EC100BFBF741FC53EC38
:104C1000182BFBF7B5FCCDE906010CE09DED060B6A
:104C2000032453EC102B9FED580B51EC100BFBF7AA
:104C3000A7FCCDE906019DED060B53EC102B51ECC2
:104C4000100BFBF72BFC41EC180B53EC182BFBF76C
:104C500025FC41EC190B4E480621B0EE490AF0EE56
:104C6000690A784400F07CFD53EC182B51EC100BD2
:104C7000FBF714FC41EC180B4648B0EE490AF0EE85
:104C8000690A0521784400F06BFD53EC192B51ECB7
:104C9000100BFBF703FC41EC100B51EC180B53EC21
:104CA000102B002C0EDAFBF752FB9DED061B53EC8C
:104CB000112BFBF7F3FB9DED061B53EC112BFBF7C0
:104CC000EAFB35E0FBF743FB9DED061B53EC112B94
:104CD000FBF7E4FB41EC100B2F48784400EBC400D9
:104CE00090ED001B51EC100B53EC112BFBF7D0FB9C
:104CF0009DED061B53EC112BFBF7CAFB41EC100B8F
:104D00002648784400EBC40090ED001B51EC100BDA
:104D100053EC112BFBF7BFFB41EC100B002DA2BF96
:104D2000BDEC068B02B070BD51EC100B81F0004160
:104D300041EC100B01E70000000010440000F07F80
:104D4000182D4454FB21F93F182D4454FB21F9BF81
:104D50000000DC3F0000203E0000F33F00000000A8
:104D6000000000000000F03F0000E63F00000000EF
:104D70000000000000000040008003400000000030
:104D8000000000000000F83F000000000000F0BF3D
:104D9000523B0000083B0000923A00004A3A0000F3
:104DA00070B56B4E2DED040B2DED028B82B0DDF84E
:104DB0001CC0DDE905235C422CF000411C4341EAA4
:104DC000D474049D22F00040B44205D86C422C43B8
:104DD00040EAD474B4420BD99DED061B9DED040B43
:104DE00002B0BDEC028B04B0BDE8704000F0D6BD4F
:104DF000ACF14054A4F17F641C430BD0022404EABC
:104E0000AC7444EAD27405439FED538B9FED542B51
:104E100007D015E09DED040B51EC100B01F05CFA8E
:104E200042E0002C11BF012C9DED040B02B0BDEC43
:104E3000028B04BF04B070BD022C38D0032C3BD0D1
:104E40000B439FED491B9FED4A0B0AD0B14218D18D
:104E5000B04209D121F0804120F0804007910590B7
:104E60000FE0002A15DA10E0434B7B44002C08BF0A
:104E700093ED000B0DD0012C10D0022C17D0032C79
:104E80001AD0B0421DD1002A03DAB0EE410AF0EE8A
:104E9000610A02B0BDEC028B04B070BD93ED000B53
:104EA00051EC100B81F0004141EC100BF1E7B0EE3A
:104EB000480AF0EE680AECE7B0EE420AF0EE620A49
:104EC000E7E7401A00153C28C8BF8DED000B19DC40
:104ED000BCF1000FBEBF10F13C0F9FED290B8DED13
:104EE000000B0FDB9DED060B53EC102B9DED040B1F
:104EF00051EC100BFBF744FB01F0A8FB01F0ECF9BF
:104F0000CDE90001002C08BF9DED000BC1D0012CA4
:104F100010D0022C9FED1C0B53EC102B9DED000BC1
:104F200051EC100B0DD0FBF7B3FA53EC182BFBF739
:104F3000AFFAB9E7019880F0004001909DED000BB9
:104F4000A7E7FBF7A5FA53EC182BFBF7A4FAABE79E
:104F50000000F07F00000000182D4454FB210940A0
:104F6000182D4454FB2109C0182D4454FB21F9BFCE
:104F7000182D4454FB21F93FAA390000000000001D
:104F80000000000000000000075C143326A6A13CCE
:104F900010B52F499FED2C1B2DED020B84B0059809
:104FA00020F000408842D8BF9DED040B2DDD29493B
:104FB000884209D1049840B94FF0010000F028FD63
:104FC00000F0F6FC06B010BD05DB9DED040B00F013
:104FD000DBFC06B010BD68469DED040B00F0ECF85C
:104FE00010F0030004BF9DED021B9DED000B0CD0E3
:104FF00001280ED09DED021B9DED000B022817D05D
:10500000012000F029FC06B010BD00F0F1FA06B056
:1050100010BD9DED021B9DED000B012000F01CFC5E
:1050200051EC100B81F0004106B041EC100B10BDAB
:1050300000F0DEFA51EC100B81F0004106B041ECBB
:10504000100B10BD00000000000000000000000078
:10505000FB21E93F0000F07F2DED020B019820F0CD
:10506000004001909DED000B02B070470000000071
:1050700010B52F499FED2C1B2DED020B84B0059828
:1050800020F000408842DCBF00209DED040B32DDA3
:105090002849884209D1049840B94FF0010000F036
:1050A000B7FC00F085FC06B010BD05DB9DED040BE0
:1050B00000F06AFC06B010BD68469DED040B00F0E0
:1050C0007BF810F0030011D0012818D09DED021BD1
:1050D0009DED000B02281AD000F08AFA51EC100B5B
:1050E00081F0004106B041EC100B10BD9DED021B9C
:1050F0009DED000B012000F0AFFB06B010BD9DED53
:10510000021B9DED000B00F073FA06B010BD0120EC
:1051100000F0A2FB51EC100B81F0004106B041EC15
:10512000100B10BD00000000000000000000000097
:10513000FB21E93F0000F07F00B52DED048BB0EEC0
:10514000409AF0EE609A83B051EC190BFBF7D3FB59
:1051500041EC180B18EE100A18EE901A8DED008B2A
:10516000002818BF0120084320F00040C0F17F60F4
:1051700000F1E040C00F14D019EE101A19EE900A99
:105180008DED009B002918BF0121084320F000404D
:10519000C0F17F6000F1E040C00F04BF012000F0CB
:1051A00037FCB0EE480A03B0F0EE680ABDEC048BA1
:1051B00000BD0000000000002DE9F14F04462DED78
:1051C000020B2DED088B8AB09FEDE70B80ED020BF3
:1051D000139EE74826F0004585420ADC9DED120B40
:1051E000002084ED000B0AB0BDEC088B03B0BDE8D5
:1051F000F08FE0489FEDE0AB9FEDE1BBA84247DDBB
:10520000E14F9FEDE39B9FEDE48B9DED120B53EC83
:105210001A2B51EC100B002E1CDDFBF739F941EC79
:10522000100BBD4208D053EC1B2B51EC100BFBF7BD
:105230002FF9C4E900010BE053EC192B51EC100BD2
:10524000FBF726F953EC182BFBF722F9C4E9000110
:105250000120C8E7FBF77BF841EC100BBD4208D0FA
:1052600053EC1B2B51EC100BFBF771F8C4E9000158
:105270000BE053EC192B51EC100BFBF768F853ECD7
:10528000182BFBF764F8C4E900014FF0FF30AAE7E0
:10529000C348A84279DB9DED120B51EC100B01F0D5
:1052A000D5F941EC180B9FEDC00B53EC102BFBF71D
:1052B000F5F89FEDBF1B53EC112BFBF748F8FBF7FC
:1052C000A2FB0746FBF7CBF941EC190B53EC1A2B69
:1052D000FBF7E4F853EC182BFBF7DDF841EC180B67
:1052E00053EC1B2B51EC190BFBF7D8F8DFF8C8A2D5
:1052F00041EC100B4FEA15580125FA4453EC102BE2
:1053000051EC180BFBF7C4F8032DC4E900013DD0A4
:10531000C1F30A5005EB4511A8EB00001139814299
:1053200034DA0AEB051BB0EE48AA9BED000BF0EE59
:1053300068AA53EC102B51EC190BFBF7AFF841ECBA
:105340001B0B51EC1A0B53EC1B2BFBF7A1F841EC98
:10535000180B51EC1A0B53EC182BFBF799F853EC84
:105360001B2BFBF795F89BED020B41EC1A0B53EC52
:10537000102B51EC190BFBF791F853EC1A2BFBF7A0
:1053800087F841EC100B6D1CB8E70EE0002EA8BFAB
:105390003846BFF628AF94ED000B51EC100B81F0AE
:1053A0000041C4E9000178421DE7C6F3130040F450
:1053B000801EC6F30A50A0F2F530471100F01F0519
:1053C000C5F12000DDF848B0089000200690079055
:1053D0000520EC467949002D07EB0002794408BF0F
:1053E00051F8221009D051F8223001EB8201AB4074
:1053F0004A68089922FA01F11943A1FB0E26A1FB84
:105400000B131A449A4234BF0123002303EB06080E
:105410000CEB8003D3E901A60E448E4234BF012178
:10542000002192448A4411B1924502D903E0924589
:1054300001D2012100E00021C3E901A641444CF85A
:105440002010011EA0F10100C4DC029800F1005000
:10545000850F0298DDE903678000DDF81480FBF713
:10546000FEF841EC1A0B3046FBF7C0FA9FED541BD7
:1054700053EC112BFBF712F841EC1B0B3846FBF7F2
:10548000B5FA9FED511B53EC112BFBF707F841ECDC
:10549000180B4046FBF7AAFA9FED4D1B53EC112B5E
:1054A000FAF7FCFF41EC190B51EC180B53EC192BDC
:1054B000FAF74DFF53EC1B2BFAF749FF53EC1A2B6D
:1054C000FAF745FFCDE90801002008909DED080B93
:1054D00053EC1A2B51EC100BFAF7DAFF53EC1B2BA1
:1054E000FAF7D6FF53EC182BFAF7D2FF53EC192B2F
:1054F000FAF7D1FF9FED381B53EC112BFAF7CEFFD3
:105500009FED370B41EC180B53EC102B9DED080B66
:1055100051EC100BFAF7C2FF53EC182BFAF717FFF8
:105520009FED310B41EC180B53EC102B9DED080B4C
:1055300051EC100BFAF7B2FF53EC182BFAF707FFF8
:1055400041EC100B139810F0004F06D06D4251EC57
:10555000100B81F0004141EC100B284684ED000B4C
:1055600041E6000000000000000000000000000014
:10557000FB21E93F7CD9024000004054FB21F93F68
:105580003163621A61B4D03DFB21F93F0000000095
:105590000000601A61B4D03D7370032E8A19A33BDA
:1055A000FB2139410000000083C8C96D305FE43F32
:1055B000000000000000E03F2235000070340000D1
:1055C000000000000000103E000000000000103C41
:1055D000000000000000103A182D4454FB21F93D52
:1055E0003326A611460B113C00000054FB21F93D67
:1055F00010B52DED040B2DED088B82B0B0EE419A65
:10560000F0EE619A0B9820F000449FED4BABB4F1A3
:10561000795F11DA9DED0A0B51EC100BFBF7F3F9F2
:10562000002801BFB0EE4A0AF0EE6A0A02B0BDECF3
:10563000088B04BF04B010BD9DED0A0B53EC102B7A
:1056400051EC100BFAF72AFF41EC180B3C480621ED
:10565000B0EE480AF0EE680A784400F081F853ECA6
:10566000182B51EC100BFAF719FF9DED0A0B41ECCA
:105670001B0B53EC192B51EC100BFAF70FFF41ECFD
:10568000190B53EC1B2B51EC180BFAF707FF53ECDB
:10569000192BFAF7FDFE9FED2C0B41EC190B53EC87
:1056A000102B51EC180BFAF7F9FE41EC100B2848BF
:1056B000844210DA53EC192B51EC100BFAF7E8FE88
:1056C00053EC1A2BFAF7E7FE41EC100B02B0BDECDD
:1056D000088B04B010BD1F48A042BCBF9FED1E1B2D
:1056E0008DED001B06DBA4F500100190002000905A
:1056F0009DED001B51EC100B53EC112BFAF7C8FE7B
:105700009DED000B41EC180B53EC102B51EC1A0BD8
:10571000FAF7BEFE41EC1A0B53EC192B51EC180BA7
:10572000FAF7B6FE53EC1A2BFAF7B5FE41EC100B64
:10573000CCE7000000000000000000000000F03F87
:105740008C31000000000000000000000000E03F7D
:105750003333D33F0000E93F000000000000D23F98
:1057600070B504462DED028B4D1E00EBC500B0EE6A
:10577000408AF0EE608A90ED000B35F0060017D0FD
:1057800053EC182B51EC100BFAF788FE41EC100B80
:105790006D1E04EBC50090ED001B51EC100B53EC9B
:1057A000112BFAF7D4FD41EC100B35F00600E7D1D0
:1057B000022D36D0042D1CD0062D1CBFBDEC028B53
:1057C00070BD53EC182B51EC100BFAF767FE94EDFB
:1057D0000A1B53EC112BFAF7BAFD53EC182BFAF70E
:1057E0005DFE94ED081B53EC112BFAF7B0FD41EC74
:1057F000100B53EC182B51EC100BFAF74FFE94EDF5
:10580000061B53EC112BFAF7A2FD53EC182BFAF7F9
:1058100045FE94ED040B53EC102BFAF798FD41EC88
:10582000100B53EC182B51EC100BFAF737FE94EDDC
:10583000021B53EC112BFAF78AFD53EC182BFAF7E5
:105840002DFE94ED001B53EC112BFAF780FDBDECFF
:10585000028B41EC100B70BD31B504462DED040BED
:105860002DED0A8BB0EE41BAF0EE61BA0B989DEDCA
:105870000A0B20F00040B0F1795F0DDA51EC100B0B
:10588000FEF74AFF042808BF00F0A2F89DED0A0BBE
:10589000BDEC0A8B05B030BD53EC102B51EC100B56
:1058A000FAF7FCFD41EC180B9DED0A0B53EC182B9D
:1058B00051EC100BFAF7F2FD41EC190B2C48B0EE4D
:1058C000480AF0EE680A05217844FFF749FF9FED8A
:1058D0002ACBB0EE40AAF0EE60AA9CB353EC1C2B8E
:1058E00051EC190BFAF7DAFD41EC1C0B53EC1A2BB7
:1058F00051EC190BFAF7D2FD9FED210B41EC190B7E
:1059000053EC102B51EC1B0BFAF7C8FD53EC192B81
:10591000FAF7BEFD53EC182BFAF7C0FD53EC1B2B26
:10592000FAF7B6FD53EC1C2BFAF7B2FD9DED0A1BFE
:1059300053EC112BFAF7AFFDBDEC0A8B05B041EC2F
:10594000100B30BDFFE753EC1A2B51EC180BFAF794
:10595000A5FD53EC1C2BFAF7FAFC53EC192BFAF7C4
:105960009DFD9DED0A1B53EC112BFAF7F0FCE3E7CC
:105970001C30000000000000495555555555C5BF65
:10598000000000000000E03F10B553EC102B51EC7C
:10599000100BFAF7DCFC41EC100B10BD10B553EC0A
:1059A000112B51EC100BFAF7D2FC41EC100B10BD8F
:1059B0009FED050B10B553EC102B51EC100BFAF7C3
:1059C000DFFD41EC100B10BD0000000000000000E6
:1059D0009FED050B10B553EC102B51EC100BFAF7A3
:1059E0005DFD41EC100B10BD000000000000001038
:1059F00002E008C8121F08C1002AFAD17047704798
:105A0000002001E001C1121F002AFBD170470000F5
:105A10000149086070470000300100202DE9FF5F58
:105A2000DDE90220010DDDF838B0024318D044F65C
:105A30001050A1F2FF3141430D140F98012820D0DE
:105A4000A5EB0B00401C5FEA000A4FF00004474E34
:105A5000DFF81C91A046504616D5CAF1000728E091
:105A60000F98012443A2012808D0002100980F9B21
:105A7000C0E90021C0E90243BDE8FF9F6FEA0B01C6
:105A8000F4E7CBF10000DEE7074612E0F80707D0A5
:105A90002246334640464946FAF700FD804689468D
:105AA0002246334610461946FAF7F8FC04460E46DD
:105AB0007F10002FEAD1DDE90201BAF1000F424662
:105AC0004B4602DAFAF7EAFC01E0FAF759FD044620
:105AD0000E460022284BFAF7FFFD03D84FF0FF30A7
