S31508000000786C0020850200080D520008094B00088C
S3150800001009520008590D0008916300080000000005
S31508000020000000000000000000000000C5010008F4
S31508000030931300080000000021020008DD5700089D
S315080000409F0200089F0200089F0200089F020008FE
S315080000509F0200089F0200089F0200089F020008EE
S315080000609F0200089F0200089F0200089F020008DE
S315080000709F0200089F0200089F0200089F020008CE
S3150800008029120008391200089F020008110E0008FC
S31508000090010E00089F0200089F0200089F02000840
S315080000A09F0200089F0200089F0200089F0200089E
S315080000B09F0200089F0200089F0200089F0200088E
S315080000C09F0200089F0200089F0200089F0200087E
S315080000D09F02000871620008856200089F020008F6
S315080000E09F0200089F0200089F0200089F0200085E
S315080000F09F0200089F0200089F0200089F0200084E
S315080001009F0200089F0200089F0200089F0200083D
S315080001109F0200089F020008E9580008F9580008DD
S315080001204912000859120008691200089F020008BF
S315080001309F0200089F0200089F020008310E00086F
S31508000140210E00089F0200089F0200089F0200086F
S315080001509F020008791200089F020008356300080C
S315080001609F0200089F0200089F0200089F020008DD
S315080001709F0200089F0200089F0200080000000076
S315080001809F0200089F0200089F0200089F020008BD
S315080001909F0200089F0200089F0200089F020008AD
S315080001A000000000000000009F020008DFF810D0E1
S315080001B000F066FC00480047D58E0008AFF30080C3
S315080001C0786C00202C4B19680868B0E8F04F80F36B
S315080001D00988BFF36F8F4FF0000080F311887047CE
S315080001E00000000008480068006880F308884FF09F
S315080001F0000080F3148862B661B6BFF34F8FBFF371
S315080002006F8F00DF00BF00BF08ED00E0DFF80C00CD
S31508000210016841F470010160704700BF88ED00E095
S31508000220EFF30980BFF36F8F134B1A681EF0100F98
S3150800023008BF20ED108A20E9F04F106009B44FF08E
S31508000240500080F31188BFF34F8FBFF36F8F0AF00A
S3150800025011FB4FF0000080F3118809BC1968086883
S31508000260B0E8F04F1EF0100F08BFB0EC108A80F30C
S315080002700988BFF36F8F704730000020EFF30580C1
S31508000280704700000648804706480047FEE7FEE735
S31508000290FEE7FEE7FEE7FEE7FEE7FEE7FEE7FEE728
S315080002A0CD580008AD0100082DE9F05F054600208D
S315080002B092469B4688460646814640241BE02846C9
S315080002C041464746224600F062FA53465A46C01A45
S315080002D0914110D311461846224600F049FA2D1AC4
S315080002E067EB01084F4622460120002100F040FA3C
S315080002F017EB00094E41201EA4F10104DFDC484635
S3150800030031462A464346BDE8F09F40EA01039B076B
S3150800031003D009E008C9121F08C0042AFAD203E06C
S3150800032011F8013B00F8013B521EF9D27047D2B2D0
S3150800033001E000F8012B491EFBD270470022F6E7C0
S3150800034010B513460A4604461946FFF7F0FF20463D
S3150800035010BD2DE9FE4F804681EA0300C00F0C460A
S31508000360009021F0004123F00045B8EB0200A941B6
S3150800037005D24046214690461C460B46024623F0C7
S315080003800040104347D0270DC7F30A00C3F30A51AC
S315080003900290401A019040286BDAC3F3130040F428
S315080003A0801B0098924620B10023D2EB030A63EB28
S315080003B00B0B01985946C0F14002504600F0D8F997
S315080003C006460D4650465946019A00F0F0F910EBDC
S315080003D008006141002487EA115284EAE7731A4348
S315080003E040D0009A62B3019A012A4FEA075215DCF7
S315080003F0001B61EB02014FF0004202EA0752CDE909
S315080004000042001C41F5801132462B4600F027FABF
S3150800041003B0BDE8F08F40462146F9E7001B61EBC3
S315080004200201001C41F5801300185B412018A2F553
S31508000430001747EB030140EAD570B6196D4111E084
S315080004406D084FEA360645EAC0754FEA0752001BA3
S3150800045061EB0201001C41F5801149084FEA3000A2
S315080004600019514132462B4603B0BDE8F04F00F063
S31508000470E7B90098012240000023D0EB020263EBA3
S31508000480E073009821464FEAE074B8EB000061EB90
S315080004900401E9E783F000435BE781F0004158E790
S315080004A02DE9FE4F81EA030404F0004421F00041DF
S315080004B000944FF0000B23F0004350EA01045ED08D
S315080004C052EA03045BD0C3F30A54C1F30A552C4419
S315080004D0A4F2F3340194A0FB0254C1F3130141F4CE
S315080004E08011C3F3130343F4801301FB024400FB9A
S315080004F0034E840A970A44EA815447EA8357A4FBC1
S31508000500076802958D0A05FB07854FEA932C04FBBD
S315080005100C542705029D4FEA065847EA1637B5EBED
S3150800052008056EEB070C870E920E47EA811742EA1A
S315080005308312A7FB0201B6EB0B0164EB00042B0D3B
S3150800054043EA0C335E1844EB1C50DA465146E7FB87
S315080005500201C5F313044FEA0B3343EA14534FEA77
S315080005600432019C43EA0603A4F10C040294009C9D
S31508000570CDE900B400F073F903B0BDE8F08F0020B0
S315080005800146F9E72DE9F04D81EA030404F0004B32
S3150800059021F0004514464FF0000A23F0004150EAC6
S315080005A0050220D054EA01021DD0C5F30A570246B7
S315080005B0C5F31303C1F31300C1F30A5640F48015BB
S315080005C043F48013A7EB0608101BD64608F2FD383D
S315080005D073EB050002D308F1010801E092185B41AC
S315080005E0B8F1000F03DA00200146BDE8F08D0020BF
S315080005F04FF48011064684460EE0171B73EB050779
S3150800060005D3121B63EB050306434CEA010C4908A4
S315080006104FEA300092185B4150EA0107EDD152EAE1
S31508000620030012D082EA040083EA0501084305D0D4
S31508000630101BAB4106D20122002306E000224FF030
S31508000640004302E06FF0010253101AEB06004CEB70
S31508000650085110EB0A0041EB0B01BDE8F04D00F024
S31508000660EFB80EB5C10F80EAE0700844CA0700214A
S3150800067040F233438DE80E000A460B4600F0EFF8C9
S3150800068003B000BD00F0004230F000400AD0C10DB2
S3150800069001F56071C0F3160042EA0151C20840072D
S315080006A011437047002001467047000030B5041E0C
S315080006B071F1000404DB4FF00044404264EB010191
S315080006C0141E73F1000405DB1C464FF0004352422A
S315080006D063EB04038B4208BF824230BD30B5041E6B
S315080006E071F1000404DB4FF00044404264EB010161
S315080006F0141E73F1000405DB1C464FF000435242FA
S3150800070063EB0403994208BF904230BD01F00043F1
S3150800071030B421F0004150EA010206D00A0DA2F5D4
S315080007206072C1F31301002A02DC30BC0020704756
S31508000730440F44EAC104C100E01830BC00EBC250C3
S3150800074000F047B830B50B460146002020220124A8
S3150800075009E021FA02F59D4205D303FA02F5491B81
S3150800076004FA02F52844151EA2F10102F1DC30BD97
S31508000770202A04DB203A00FA02F100207047914053
S31508000780C2F1200320FA03F3194390407047202A48
S3150800079004DB203A21FA02F00021704721FA02F31D
S315080007A0D040C2F120029140084319467047202ADA
S315080007B006DBCB17203A41FA02F043EAE07306E07B
S315080007C041FA02F3D040C2F120029140084319468B
S315080007D070470029A8BF7047401C490008BF20F091
S315080007E00100704710B4B0FA80FC00FA0CF050EA29
S315080007F0010404BF10BC704749B1CCF1200421FAAA
S3150800080004F411FA0CF118BF012121430843A3EBA4
S315080008100C01CB1D4FEA00614FEA102042BF0020B1
S3150800082010BC704700EBC35010440029A4BF10BC8D
S315080008307047401C490008BF20F0010010BC7047F3
S3150800084010B5141E73F1000408DA401C41F10001CA
S3150800085092185B411A4301D120F0010010BD2DE921
S31508000860F04D92469B4611B1B1FA81F202E0B0FA18
S3150800087080F220329046FFF77BFF04460F4640EA97
S315080008800A0041EA0B0153465A46084313D011465B
S3150800089053EA010019D0C8F140025046FFF777FF26
S315080008A005460E46504659464246FFF761FF08433D
S315080008B005D0012004E020463946BDE8F08D002029
S315080008C0054346EAE0762C4337430A986305E40A6B
S315080008D0A0EB08000022FD0A44EA47540A3002D574
S315080008E000200146E9E7010510196941DDE90845D7
S315080008F000196941BDE8F04DA2E770B521F0004343
S3150800090003430CD0C1F30A550024D5EB040564EB68
S315080009100403D617AD1AB34102DB0020014670BDA9
S31508000920201841EB025170BD2DE9F04D00231A46FF
S315080009301B1A8A4103DB00200146BDE8F08DC1F38E
S315080009400A52C1F3130141F480154FF0000BD10789
S3150800095002D100186D41521E0027044640F2FF11CD
S31508000960384601EB620A3E468046024600204FF4AE
S315080009708011FFF70CFFC2197141BB1846EB010045
S31508000980B4EB030C75EB000C04D3E41A65EB000515
S3150800099017460E46241908F101006D418046342891
S315080009A0E3DDF91946EB0600091BA84103D24FF00F
S315080009B0FF32134601E0002213461BEB070046EB05
S315080009C00A51BDE8F04DFFF73BBF2DE9FE4FC3F3D3
S315080009D00A5701F000450024C1F30A56C3F313036E
S315080009E0C1F3130143F4801312EB020AA64641F43D
S315080009F08011009543EB030CA7F1010B16E0B0EB51
S31508000A000A0061EB0C01071E71F1000707DA4FF0C7
S31508000A100008D0EB080085F0004568EB0101171ABD
S31508000A2073EB0107EBD3761E001849415E45F6DAEB
S31508000A3050EA010209D0CDE900E5002213460296E4
S31508000A40FFF70DFF03B0BDE8F08F20460099F9E7E0
S31508000A50C1F30A52C1F3130140F2FF3341F4801186
S31508000A609A4202DA00200146704740F233439A421E
S31508000A70A2F2334202DC5242FFF789BEFFF778BE84
S31508000A80064C074D06E0E06840F0010394E80700CD
S31508000A9098471034AC42F6D3FFF78CFBE0B0000859
S31508000AA000B100080EB540F2334102910021CDE9AC
S31508000AB000110A460B46FFF7D2FE03B000BD70B51B
S31508000AC0C1F30A5201F000450024C1F3130140F2B4
S31508000AD0FF3341F480119A4201DA002070BD40F2DA
S31508000AE033439A42A2F2334203DC5242FFF74FFEE7
S31508000AF000E090402C43F1D0404270BD70B58C1890
S31508000B0010F8015B15F0070301D110F8013B2A1113
S31508000B1006D110F8012B03E010F8016B01F8016B00
S31508000B205B1EF9D12B0705D40023521E0DD401F8FC
S31508000B30013BFAE710F8013BCB1A921C03E013F8C5
S31508000B40015B01F8015B521EF9D5A142D8D30020FA
S31508000B5070BD70B50546AC6B206C00F0500050BBFC
S31508000B60206C40F4007020642068806800F04050D3
S31508000B70E8B9207ED8B92068C06A00F4700020B1B0
S31508000B802068806800F4806088B92068406820F092
S31508000B90200021684860206C20F480702064206C56
S31508000BA000F4805018B9206C40F0010020642046FB
S31508000BB000F0C6FC0BE0206C00F0100018B12046CF
S31508000BC000F0C0FC03E0A06BC16C2846884770BDE6
S31508000BD070B50546AC6B40202064606C40F004009C
S31508000BE06064204600F0AEFC70BD70B50446A56B87
S31508000BF0284600F0A6FC70BD55494A6822F44032E2
S31508000C004A604A6843681A434A600268526822F48E
S31508000C10807203685A6002685368026943EA0222CE
S31508000C2003685A600268526822F0407203685A6084
S31508000C300268526883681A4303685A6002689268B1
S31508000C4022F4006203689A6002689268C3681A43CD
S31508000C5003689A603F4B826A9A4218D00268926883
S31508000C6022F0706203689A6002689268836A1A437F
S31508000C7003689A600268926822F0405203689A6094
S31508000C8002689268C36A1A4303689A600BE00268AE
S31508000C90926822F0706203689A600268926822F08D
S31508000CA0405203689A600268926822F0020203685A
S31508000CB09A6002689368027E43EA420203689A6071
S31508000CC02022125CA2B10268526842F400620368EC
S31508000CD05A600268526822F4604203685A600268E1
S31508000CE05368426A521E43EA423203685A6005E074
S31508000CF00268526822F4006203685A600268D26A7F
S31508000D0022F470020368DA620268D36A828B521E82
S31508000D1043EA02520368DA620268926822F40072B1
S31508000D2003689A600268936890F8302043EA422282
S31508000D3003689A600268926822F4806203689A607F
S31508000D4002689368426943EA822203689A60704798
S31508000D50002301400100000F00BFFEE710B5002484
S31508000D602BE0C4EBC401C1EB84111C4A02EB8101E0
S31508000D70081D9FED1B1ADFED1B0A9FED1B0A4FF49A
S31508000D80FA6344F62062032104F042FAC4EBC40174
S31508000D90C1EB8411114A02EB810101F170009FED4C
S31508000DA0131AF6EE000AB1EE020A4FF4FA6342F29B
S31508000DB01072042104F02CFA641C052CD1DB9FED7B
S31508000DC00C1ADFED0C0A9FED0C0A40F6C413DA0084
S31508000DD003210A4804F01CFA10BD000054590020EB
S31508000DE0333303416F12833A8FC2F53DB81E053F70
S31508000DF0000000000AD7233C00802043D458002076
S31508000E0010B5024800F025FF10BD0000003F002085
S31508000E1010B5024800F01DFF10BD0000003F00207D
S31508000E2010B5024800F015FF10BD0000283F00204D
S31508000E3010B5024800F00DFF10BD0000283F002045
S31508000E4010B52DED108B8AB0F0EE408AB0EE60FA40
S31508000E50B0EE418ACA4890ED000ACA48D0ED000AA9
S31508000E6030EE600A10EE101A0846FFF70BFC41EC4C
S31508000E70190B00200690079008908DED088ACDED95
S31508000E80048A8DED05FA00247CE0BF480068FFF768
S31508000E90F9FB41EC1C0BBD4800EB840090ED000A01
S31508000EA010EE101A0846FFF7EDFB41EC1E0B53EC4B
S31508000EB0192BFFF74EFA41EC1D0B53EC1C2BFFF7D1
S31508000EC061FB41EC1B0BB0EE4B0AF0EE6B0A05F02A
S31508000ED013FDB0EE40AAF0EE60AAAD480068FFF731
S31508000EE0D1FB53EC1A2BCDE900019DED000B51EC1B
S31508000EF0100BFFF7D5FACDE902019DED020B51EC77
S31508000F00100BFFF703FCA34941F824009E4800682C
S31508000F10FFF7B8FB41EC1C0B9C4800EB840090EDF6
S31508000F20000A10EE101A0846FFF7ACFB41EC1D0B41
S31508000F3053EC192BFFF70DFA41EC1E0B53EC1C2B47
S31508000F40FFF720FBCDE900019DED000B06F0E4FB61
S31508000F50B0EE40AAF0EE60AA8D480068FFF792FB53
S31508000F6041EC1B0B53EC1A2BFFF79AFACDE9020159
S31508000F709DED020B51EC100BFFF7C8FB864941F8B3
S31508000F802400641C042C80DB002021E0824901EB4C
S31508000F908001D1ED000AB0EE680A08EE200A00EBDF
S31508000FA040017E4A02EB810181ED000A794901EB95
S31508000FB08001D1ED000AB1EE481AB0EE4F0A01EEF3
S31508000FC0200A00EB400102EB810181ED010A401C79
S31508000FD00428DBDB0024CCE06B480068FFF752FBF3
S31508000FE041EC1B0B04EB44006C4A02EB800090EDCD
S31508000FF0000A10EE101A0846FFF744FB41EC1D0BD9
S3150800100004EB4400654A02EB800090ED010A10EEFD
S31508001010101A0846FFF736FBB0EE4D1AF0EE6D1AB9
S31508001020CDE902019DED020B05F066FBB0EE40CA64
S31508001030F0EE60CA53EC1B2B51EC1C0BFFF730FA91
S3150800104041EC1A0B53EC192BFFF724FA41EC1E0B53
S31508001050FFF75CFB524941F8340004EB44004F4A61
S3150800106002EB800090ED010A10EE101A0846FFF711
S3150800107009FB41EC1D0B9FED4B1BB0EE4D0AF0EE44
S315080010806D0A05F021FDB0EE40EAF0EE60EA04EBE9
S315080010904400424A02EB800090ED000A10EE101A56
S315080010A00846FFF7EFFA41EC1D0B9FED3E1BB0EE2D
S315080010B04D0AF0EE6D0A05F007FDB0EE40CAF0EEF7
S315080010C060CA53EC1E2B51EC1C0BFFF742F941EC9E
S315080010D01B0BB0EE4B0AF0EE6B0A06F081FBB0EE86
S315080010E040AAF0EE60AA51EC1A0BFFF70FFB2C4949
S315080010F001EBC40148602D48007A022820D128480F
S3150800110000EBC40090ED000A294800EBC40080ED0E
S31508001110010A234800EBC40090ED010ADFED250A19
S3150800112020EE200AF3EE030A20EE200ADFED220A5B
S3150800113080EE201A1E4800EBC40080ED001A17E066
S315080011401A48007A012813D1154800EBC40090ED1F
S31508001150000A174800EBC40080ED010A104800EBAE
S31508001160C40090ED010A124800EBC40080ED000AA5
S31508001170641C042CFFF630AF0AB0BDEC108B10BD12
S31508001180AC0000208C0000204C01002050010020FB
S3150800119048010020346800204468002004680020C4
S315080011A0546800200000000000000040664D002042
S315080011B0DC670020000070420AD7A33E2DE9F047FD
S315080011C088B081460E4614461F46DDF840A04FF00B
S315080011D000081EB900200390019402E00420039041
S315080011E002940597002004908DF818000BE008F18A
S315080011F001001FFA80F84FF6FE70804503DD0120D6
S3150800120008B0BDE8F087484600F008FD0028EED093
S3150800121007AB524601A9484600F005FB05460DB145
S315080012200120EDE70020EBE710B5024801F02AFCA3
S3150800123010BD00008448002010B5024801F022FCC9
S3150800124010BD0000E448002010B5024801F01AFC61
S3150800125010BD0000A03E002010B5024801F012FCA7
S3150800126010BD00004449002010B5024801F00AFCF0
S3150800127010BD00002448002010B5024801F002FC09
S3150800128010BD0000A449002001460878103818232C
S31508001290B0FBF3F20848805CC865032A05D90868DC
S315080012A06FF30900001D886503E008686FF30900FD
S315080012B08865886D70470000D4AD00080146002097
S315080012C08A6A8B69CBB932B1012A0DD0022A03D0BA
S315080012D0032A10D10EE000BFCB6A03F08073B3F186
S315080012E0807F00D1012007E0CB6AB3F1C07F00D12F
S315080012F0012001E000E000BF34E08B69B3F5005F30
S315080013001AD132B1012A07D0022A03D0032A11D1F1
S315080013100AE000BF01200EE0CB6A03F08073B3F148
S31508001320807F00D1012006E0CB6AB3F1C07F00D1EF
S31508001330012000E000BF15E032B1012A05D0022ADB
S3150800134004D0032A0CD103E000BF00BF012008E047
S31508001350CB6A03F08073B3F1807F00D1012000E0EF
S3150800136000BF00BF704730B50468246824F48024A1
S3150800137005682C60046863608468402C04D104689E
S31508001380A2600468E16003E00468A1600468E260A2
S3150800139030BD704772B600BFFEE7000038B502469A
S315080013A00020009000BF92F83C00012801D10220DD
S315080013B038BD012082F83C0000BF0868092816D904
S315080013C01068C0680C780A3C04EB44050724AC4056
S315080013D0A0431468E0600C780A3C04EB440488686F
S315080013E0A0401468E46820431468E06013E01068BD
S315080013F000690C7804EB44050724AC40A043146844
S3150800140020610C7804EB44048868A04014682469B9
S315080014102043146820614868072817D21068406B73
S315080014200C79641E04EB84051F24AC40A0431468A1
S315080014306063088880B20C79641E04EB8404A040BB
S315080014401468646B20431468606331E048680D28AB
S3150800145017D21068006B0C79E41F04EB84051F246F
S31508001460AC40A04314682063088880B20C79E41F56
S3150800147004EB8404A0401468246B2043146820639A
S3150800148016E01068C06A0C790D3C04EB84051F242D
S31508001490AC40A0431468E062088880B20C790D3C21
S315080014A004EB8404A0401468E46A20431468E062EC
S315080014B01E4B1F4C1068A0420AD10868122807D193
S315080014C0586820F400005860586840F48000586056
S315080014D0174C1068A04222D1164C0868A04202D0C8
S315080014E0086811281BD1586820F48000586058688D
S315080014F040F4000058600F4C0868A0420FD10E480F
S3150800150000680E4CB0FBF4F000EB80004000009041
S3150800151002E00098401E009000980028F9D100BF0C
S31508001520002082F83C0000BF00BF41E700230140CD
S315080015300020014012000010B000002040420F00B9
S31508001540704770477047000070B5044600250CB90F
S31508001550012070BD1549A06A884200D000BF206CE2
S3150800156030B9204600F024F80020606484F83C0076
S31508001570206C00F0100088B9206C20F4885040F0E8
S31508001580020020642046FFF737FB00206064206CC9
S3150800159020F0020040F00100206400E0012500BFB1
S315080015A0002084F83C0000BF2846D2E70100000F5F
S315080015B010B586B00446142101A8FEF7BFFE2949D6
S315080015C0206888424BD100BF00200090264800685A
S315080015D040F48070244908600846006800F480706A
S315080015E0009000BF00BF00BF002000901E481438BE
S315080015F0006840F004001C49143908600846006871
S3150800160000F00400009000BF00BF3F2001900320B7
S3150800161002900020039001A9144801F045FC1448E3
S315080016201449086000204860002112488160C160A2
S315080016304FF48061016189004161890081618911E6
S31508001640C161090201620021416201F03BFB08B158
S31508001650FFF7A0FE00BF0748A063846300BF06B07B
S3150800166010BD000000200140443802400008024036
S3150800167010640240A03E0020F8B504460D46164602
S315080016800020009000BF94F83C00012801D10220F8
S31508001690F8BD012084F83C0000BF2068806800F08F
S315080016A00100A0B92068806840F0010021688860C0
S315080016B0494800684949B0FBF1F000EB400000904A
S315080016C002E00098401E009000980028F9D1206892
S315080016D0806800F0010000287CD0206C40F201618F
S315080016E0884340F4807020642068406800F4806075
S315080016F028B1206C20F4005040F480502064206CFF
S3150800170000F48050B0F5805F04D1606C20F00600CC
S31508001710606401E00020606400BF002084F83C009B
S3150800172000BF2F4F2F48A16BC8632F48A16B0864D1
S315080017302E48A16BC8646FF02200216808602068F3
S31508001740406840F08060216848602068806840F4FE
S31508001750807021688860226802F14C0133462A4667
S31508001760A06B01F058FB786800F01F0018BB2049F1
S315080017702068884213D01F492068884204D1381D42
S31508001780006800F01F0050B11B492068884221D12B
S315080017901348001D006800F01F0010281AD22068A0
S315080017A0806800F0405028B92068806840F0804082
S315080017B0216888600EE00E49206888420AD12068B0
S315080017C0806800F0405028B92068806840F0804062
S315080017D02168886000205BE7B000002040420F00C7
S315080017E000230140530B0008EB0B0008D10B00083F
S315080017F000200140002101400022014010B50246A8
S3150800180092F82030012B01D0022B06D110684069CE
S31508001810084314686061002010BD506A40F48020B7
S3150800182050620120F8E7F0B504460D461E4694F8C6
S31508001830207020688368A86800B900E000BF012FFF
S3150800184001D0022F7CD103F0806030B903F000602C
S3150800185018B903F08050002873D0C3F30161022938
S3150800186005D9606A40F4000060620120F0BD0120DD
S3150800187088403060A86860B9B5F800C0E86840EAF2
S315080018804C5C206800F5C07000EB0110C0F800C081
S315080018900FE0D5E901C040EACC00D5F80CC040EA13
S315080018A00C00D4F800C00CF5C07C0CEB011CCCF87D
S315080018B00000D5F810C0206800F5C07000EB0110D4
S315080018C0C0F804C0287D01280ED1206800F5C07034
S315080018D000EB0110406840F4807C206800F5C07079
S315080018E000EB0110C0F804C0D079000692F806C0D3
S315080018F040EA0C4092F805C040EA0C2C10794CEAF4
S31508001900000C206800F5C07000EB0110C0F80CC090
S31508001910D078000692F802C040EA0C4092F801C05E
S3150800192040EA0C2092F800C040EA0C00D4F800C047
S315080019300CF5C07C0CEB011CCCF80800206801E013
S3150800194016E00FE000F5C07000EB0110006840F0EB
S31508001950010C206800F5C07000EB0110C0F800C04B
S31508001960002083E7606A40F40010606201207DE78A
S31508001970606A40F480206062012077E7F0B504468B
S315080019800A46216894F82050012D01D0022D7ED1F7
S31508001990424901F50071086840F0010008600868CE
S315080019A020F47C5008600868566A40EA06200860F9
S315080019B0107D00F01F06012000FA06F3C869984357
S315080019C0C861A1F50071D069C8B9D1F80C0298436D
S315080019D0C1F80C02908880B2968940EA064601F55D
S315080019E01070576940F83760108880B2168940EA47
S315080019F0064601F51070576900EBC7004660D069C6
S31508001A00012819D1D1F80C021843C1F80C029088A4
S31508001A1080B2168840EA064601F51070576940F804
S31508001A203760908980B2168940EA064601F510703B
S31508001A30576900EBC7004660906928B9D1F80402D7
S31508001A409843C1F8040204E0D1F804021843C1F827
S31508001A500402106928B9D1F814029843C1F814028F
S31508001A6004E0D1F814021843C1F81402106A0128D8
S31508001A7004D1D1F81C021843C1F81C02D1F800029F
S31508001A8020F00100C1F800020020F0BDFFE7606AFF
S31508001A9040F4802060620120F7E7000000640040FF
S31508001AA0704770B5044694F82050012D01D0022DD8
S31508001AB07DD151B92068C06800F0030080B9606A1A
S31508001AC040F400106062012070BD2068006900F0D3
S31508001AD0030028B9606A40F4001060620120F3E749
S31508001AE0206800F5D87000EB0110006800F00400CB
S31508001AF09060906840B9206800F5D87000EB011036
S31508001B000068400D106007E0206800F5D87000EB0B
S31508001B1001100068C0085060206800F5D87000EB16
S31508001B200110006800F00200D060206800F5D87047
S31508001B3000EB0110406800F00F001061206800F506
S31508001B40D87000EB0110406800F47F40000A9061ED
S31508001B50206800F5D87000EB01104068000C506151
S31508001B60206800F5D87000EB0110806818702068AE
S31508001B7000F5D87000EB0110806800F47F40000A79
S31508001B805870206800F5D87000EB0110806800F4E2
S31508001B907F00000C9870206800F5D87000EB0110E3
S31508001BA08068000ED870206800F5D87000E02FE035
S31508001BB000EB0110C0681871206800F5D87000EBBA
S31508001BC00110C06800F47F40000A5871206800F5CB
S31508001BD0D87000EB0110C06800F47F00000C987103
S31508001BE0206800F5D87000EB0110C068000ED871A7
S31508001BF031B92068C06840F020002668F06005E02A
S31508001C002068006940F020002668306100205BE704
S31508001C10606A40F480206062012055E70146002092
S31508001C2091F82020012A01D0022A11D10B689B685D
S31508001C3003F0806303B1401C0B689B6803F00063E4
S31508001C4003B1401C0B689B6803F0805303B1401C2A
S31508001C5070472DE9F05F044600252068466920682C
S31508001C60D0F80490206887682068D0F80CA020680F
S31508001C70D0F810B02068D0F8188006F001000028C7
S31508001C8055D007F00100C0B101202168886007F02F
S31508001C90020018B1204600F086FE0EE007F00400A8
S31508001CA010B145F4006508E007F0080010B145F4E6
S31508001CB0805502E0204600F075FE07F48070C8B132
S31508001CC04FF480702168886007F4007018B12046C8
S31508001CD000F06BFE0EE007F4806010B145F4005585
S31508001CE008E007F4006010B145F4804502E020469C
S31508001CF000F05AFE07F48030C8B14FF480302168EE
S31508001D00886007F4003018B1204600F050FE0EE057
S31508001D1007F4802010B145F4004508E007F40020D8
S31508001D2010B145F4803502E0204600F03FFE06F08B
S31508001D30080038B10AF0100020B145F400751020EB
S31508001D402168C86006F0040040B10AF0080028B10E
S31508001D5008202168C860204600F01EFA06F0020036
S31508001D6038B12068C06800F0030010B1204600F0C2
S31508001D7015FA06F0400038B10BF0100020B145F412
S31508001D80806510202168086106F0200040B10BF03C
S31508001D90080028B1082021680861204600F0D0FD17
S31508001DA006F0100038B12068006900F0030010B191
S31508001DB0204600F0C6FD06F4003040B109F01000D8
S31508001DC028B1102021684860204600F0BBFD06F4C3
S31508001DD0803040B109F0080028B108202168486021
S31508001DE0204600F0E5FD06F4004088B309F004003B
S31508001DF078B306F4807020B108F0010008B145F008
S31508001E00010506F4007020B108F0020008B145F09B
S31508001E10020506F4806020B108F0040008B145F018
S31508001E20040506F40060A0B108F0700088B108F057
S31508001E307000402817D006DC10280BD020280CD0BC
S31508001E40302819D10CE0502810D0602814D110E0A1
S31508001E501DE019E045F008050FE045F010050CE017
S31508001E6045F0200509E045F0400506E045F0800507
S31508001E7003E045F4807500E000BF00BF2068806974
S31508001E8020F07000216888610420216848602DB11F
S31508001E90606A284360622046FFF702FEBDE8F09FAD
S31508001EA070B504460CB9012070BD94F8200010B92D
S31508001EB0204600F0AFF82068006820F0020021688C
S31508001EC0086001F00DF905460DE001F009F9401B1F
S31508001ED00A2808D9606A40F400306062052084F850
S31508001EE020000120E0E72068406800F00200002892
S31508001EF0EBD12068006840F001002168086001F015
S31508001F00EFF805460DE001F0EBF8401B0A2808D962
S31508001F10606A40F400306062052084F820000120E1
S31508001F20C2E72068406800F001000028EBD0207E58
S31508001F30012806D12068006840F080002168086002
S31508001F4005E02068006820F0800021680860607E4F
S31508001F50012806D12068006840F040002168086022
S31508001F6005E02068006820F0400021680860A07E2F
S31508001F70012806D12068006840F020002168086022
S31508001F8005E02068006820F0200021680860E07EEF
S31508001F90012806D12068006820F010002168086032
S31508001FA005E02068006840F0100021680860207F7E
S31508001FB0012806D12068006840F0080021680860FA
S31508001FC005E02068006820F0080021680860607F46
S31508001FD0012806D12068006840F0040021680860DE
S31508001FE005E02068006820F0040021680860D4E94C
S31508001FF00201084321690843616908436168491E6B
S3150800200008432168C86100206062012084F8200026
S31508002010002049E710B586B00446142101A8FEF74A
S315080020208DF957492068884249D156480068401CAE
S31508002030544908600846006801280FD100BF0020EF
S3150800204000905148006840F000704F490860084603
S31508002050006800F00070009000BF00BF00BF0020BD
S31508002060009049481038006840F008004649103981
S3150800207008600846006800F00800009000BF00BF2E
S315080020800320019002200290002003900320049070
S315080020900920059001A93D4800F006FF0022052108
S315080020A0132001F0CDF8132001F0BAF8002205211B
S315080020B0142001F0C5F8142001F0B2F85DE03449A7
S315080020C02068884259D100BF002000902E48006839
S315080020D040F080602C4908600846006800F080607F
S315080020E0009000BF00BF27480068401C25490860CB
S315080020F00846006801280FD100BF0020009022483A
S31508002100006840F00070204908600846006800F042
S315080021100070009000BF00BF00BF002000901A4862
S315080021201038006840F00200174910390860084660
S31508002130006800F00200009000BF00BF4FF4405056
S3150800214001900220029000200390032004900920A9
S31508002150059001A90F4800F0A7FE002205213F209F
S3150800216001F06EF83F2001F05BF8002205214020BF
S3150800217001F066F8402001F053F806B010BD0000E3
S31508002180006400406C00002040380240000C024009
S3150800219000680040000402407047000030B52DED8D
S315080021A0028B89B00546002008EE100A6B4602AA83
S315080021B000212846FFF775FCF8492868884272D13D
S315080021C00298A0F2012008286ED2DFE800F004A2E7
S315080021D06E38D6FCFBFA0298401EC4B204EB4400E3
S315080021E000EBC400EE4901EB8000816A04EB440071
S315080021F000EBC400EA4A02EB8000806A401C04EB4C
S31508002200440202EBC402E64B03EB820290623229D7
S315080022100AD804EB440101EBC4011A4602EB81001B
S31508002220694606F0FCFD09E004EB440101EBC40134
S31508002230DB4A02EB8100694606F0BAFD72E10298B4
S31508002240401EC4B204EB440000EBC400D44901EBC1
S315080022508000816A04EB440000EBC400D04A02EB1C
S315080022608000806A401C04EB440202EBC402CC4B9B
S3150800227003EB8202906232290AD804EB440101EB8F
S31508002280C4011A4602EB8100694606F0C8FD09E05A
S3150800229004EB440101EBC401C14A02EB8100694623
S315080022A006F086FD3EE13EE13BE10298401EC4B2DF
S315080022B004EB440000EBC400B94901EB8000816AD5
S315080022C004EB440000EBC400B54A02EB8000806AC8
S315080022D0401C04EB440202EBC402B14B03EB82023E
S315080022E0906232290AD804EB440101EBC4011A466C
S315080022F002EB8100694606F092FD09E004EB440111
S3150800230001EBC401A64A02EB8100694606F050FDBE
S3150800231008E10298401EC4B204EB440000EBC40076
S315080023209F4901EB8000816A04EB440000EBC4007E
S315080023309B4A02EB8000806A401C04EB440202EBD5
S31508002340C402974B03EB8202906232290AD804EB47
S31508002350440101EBC4011A4602EB8100694606F006
S315080023605EFD09E004EB440101EBC4018C4A02EB73
S315080023708100694606F01CFDD4E00298401EC4B2EE
S3150800238004EB440000EBC400854901EB8000816A38
S3150800239004EB440000EBC400814A02EB8000806A2B
S315080023A0401C04EB440202EBC4027D4B03EB8202A1
S315080023B0906232290ED804EB440101EBC4011A4697
S315080023C002E07AE045E010E002EB8100694606F09B
S315080023D026FD09E004EB440101EBC401704A02EB57
S315080023E08100694606F0E4FC9CE00298401EC4B2EF
S315080023F004EB440000EBC400694901EB8000816AE4
S3150800240004EB440000EBC400654A02EB8000806AD6
S31508002410401C04EB440202EBC402614B03EB82024C
S31508002420906232290AD804EB440101EBC4011A462A
S3150800243002EB8100694606F0F2FC09E004EB440170
S3150800244001EBC401564A02EB8100694606F0B0FC6E
S3150800245068E00298401EC4B204EB440000EBC400D6
S315080024604F4901EB8000816A04EB440000EBC4008D
S315080024704B4A02EB8000806A401C04EB440202EBE4
S31508002480C402474B03EB8202906232290AD804EB56
S31508002490440101EBC4011A4602EB8100694606F0C5
S315080024A0BEFC09E004EB440101EBC4013C4A02EB23
S315080024B08100694606F07CFC34E00298401EC4B2EE
S315080024C004EB440000EBC400354901EB8000816A47
S315080024D004EB440000EBC400314A02EB8000806A3A
S315080024E0401C04EB440202EBC4022D4B03EB8202B0
S315080024F0906232290AD804EB440101EBC4011A465A
S3150800250002EB8100694606F08AFC09E004EB440107
S3150800251001EBC401224A02EB8100694606F048FC39
S3150800252000E000BF03E20298B0F5017F7DD010DC21
S3150800253040F20122A0EB020190424FD004DC0128B0
S3150800254012D0022872D12FE0012970D00229F9D1C0
S31508002550B3E0A0F2052000286AD0012869D0022835
S3150800256068D00328EED1ACE19DF8020000069DF87C
S31508002570031040EA01409DF8041040EA01209DF846
S315080025800510084308EE100AB8EE480AF2EE040AE7
S3150800259080EE201A034880ED001AC7E10064004067
S315080025A0044A0020B80000209DF8020000069DF8A5
S315080025B0031040EA01409DF8041040EA01209DF806
S315080025C00510084308EE100AB8EE480AF2EE040AA7
S315080025D080EE201AD84880ED001AA7E10298401E1E
S315080025E0C4B204EB440000EBC400D44901EB8000FC
S315080025F0816A04EB440000EBC400D04A02EB800079
S31508002600806A401C04EB440202EBC402CB4B03EB8A
S3150800261082029062322911D804EB440101EBC4010D
S315080026201A4602EB8100694605E012E07DE178E092
S31508002630ABE0DEE011E106F0F2FB09E004EB440151
S3150800264001EBC401BD4A02EB8100694606F0B0FB06
S315080026506CE10298401EC4B204EB440000EBC400CF
S31508002660B64901EB8000816A04EB440000EBC40024
S31508002670B24A02EB8000806A401C04EB440202EB7B
S31508002680C402AE4B03EB8202906232290AD804EBED
S31508002690440101EBC4011A4602EB8100694606F0C3
S315080026A0BEFB09E004EB440101EBC401A34A02EBBB
S315080026B08100694606F07CFB38E10298401EC4B2E8
S315080026C004EB440000EBC4009C4901EB8000816ADE
S315080026D004EB440000EBC400984A02EB8000806AD1
S315080026E0401C04EB440202EBC402944B03EB820247
S315080026F0906232290AD804EB440101EBC4011A4658
S3150800270002EB8100694606F08AFB09E004EB440106
S3150800271001EBC401894A02EB8100694606F048FBD1
S3150800272004E10298401EC4B204EB440000EBC40066
S31508002730824901EB8000816A04EB440000EBC40087
S315080027407E4A02EB8000806A401C04EB440202EBDE
S31508002750C4027A4B03EB8202906232290AD804EB50
S31508002760440101EBC4011A4602EB8100694606F0F2
S3150800277056FB09E004EB440101EBC4016F4A02EB86
S315080027808100694606F014FBD0E00298401EC4B2E8
S3150800279004EB440000EBC400684901EB8000816A41
S315080027A004EB440000EBC400644A02EB8000806A34
S315080027B0401C04EB440202EBC402604B03EB8202AA
S315080027C0906232290AD804EB440101EBC4011A4687
S315080027D002EB8100694606F022FB09E004EB44019E
S315080027E001EBC401554A02EB8100694606F0E0FA9E
S315080027F09CE00298401EC4B204EB440000EBC400FF
S315080028004E4901EB8000816A04EB440000EBC400EA
S315080028104A4A02EB8000806A401C04EB440202EB41
S31508002820C402464B03EB8202906232290AD804EBB3
S31508002830440101EBC4011A4602EB8100694606F021
S31508002840EEFA09E004EB440101EBC4013B4A02EB52
S315080028508100694606F0ACFA68E00298401EC4B2E8
S3150800286004EB440000EBC400344901EB8000816AA4
S3150800287004EB440000EBC400304A02EB8000806A97
S31508002880401C04EB440202EBC4022C4B03EB82020D
S31508002890906232290AD804EB440101EBC4011A46B6
S315080028A002EB8100694606F0BAFA09E004EB440136
S315080028B001EBC401214A02EB8100694606F078FA69
S315080028C034E00298401EC4B204EB440000EBC40096
S315080028D01A4901EB8000816A04EB440000EBC4004E
S315080028E0164A02EB8000806A401C04EB440202EBA5
S315080028F0C402124B03EB8202906232290AD804EB17
S31508002900440101EBC4011A4602EB8100694606F050
S3150800291086FA09E004EB440101EBC401074A02EB1D
S315080029208100694606F044FA00E000BF00BF09B01E
S31508002930BDEC028B30BD0000BC000020904B00208F
S3150800294070477047704770B5044694F82000012810
S3150800295022D1022084F820002068006820F00100B7
S315080029602168086000F0BCFB05460DE000F0B8FBE6
S31508002970401B0A2808D9606A40F4003060620520C6
S3150800298084F82000012070BD2068406800F001002E
S315080029900028EBD16062F6E7606A40F400206062C6
S315080029A00120F0E7704770477047704770477047D7
S315080029B0704770B50446A56D00F092FB064694F87C
S315080029C03500022808D08020606500BF002084F802
S315080029D0340000BF012070BD2068006820F0160092
S315080029E0216808602068406920F0800021684861F5
S315080029F0206C08B9A06C28B12068006820F008008F
S31508002A00216808602068006820F0010021680860D5
S31508002A100FE000F065FB801B05280AD920206065B9
S31508002A2000BF002084F8340000BF032084F8350076
S31508002A30D1E72068006800F001000028E9D194F881
S31508002A405C103F208840A86000BF002084F834004E
S31508002A5000BF012084F835000020BCE7014691F844
S31508002A603500022803D080204865012070470520DC
S31508002A7081F835000868006820F001000A681060CF
S31508002A800020F3E7F8B50446002000908C4800685B
S31508002A904FF41651B0FBF1F7A56D2E6894F85C104B
S31508002AA008208840304098B12068006800F004008B
S31508002AB070B12068006820F004002168086094F866
S31508002AC05C1008208840A860606D40F001006065D1
S31508002AD094F85C1001208840304068B1206840694D
S31508002AE000F0800040B194F85C1001208840A8608E
S31508002AF0606D40F00200606594F85C100420884020
S31508002B00304068B12068006800F0020040B194F8CF
S31508002B105C1004208840A860606D40F00400606581
S31508002B2094F85C1010208840304078B3206800681C
S31508002B3000F0080050B394F85C1010208840A86094
S31508002B402068006800F4802080B12068006800F4DE
S31508002B50002028B9206CC8B12046216C884715E0AA
S31508002B60A06C98B12046A16C88470FE020680068E1
S31508002B7000F4807028B92068006820F008002168F1
S31508002B800860206C10B12046216C884794F85C10C8
S31508002B90202088403040002865D02068006800F072
S31508002BA0100000285FD094F85C1020208840A860A8
S31508002BB094F83500052828D12068006820F016000A
S31508002BC0216808602068406920F080002168486113
S31508002BD0206C08B9A06C28B12068006820F00800AD
S31508002BE02168086094F85C103F208840A86000BF00
S31508002BF0002084F8340000BF012084F83500206DD9
S31508002C0010B12046216D8847F8BD2068006800F499
S31508002C10802080B12068006800F4002028B9606C24
S31508002C2010B12046616C88471DE0E06BD8B120469C
S31508002C30E16B884717E02068006800F4807068B97F
S31508002C402068006820F010002168086000BF002096
S31508002C5084F8340000BF012084F83500E06B10B119
S31508002C602046E16B8847606D38B3606D00F001005F
S31508002C70F0B1052084F835002068006820F00100CE
S31508002C802168086000BF0098401C0090B84200D92F
S31508002C9005E02068006800F001000028F3D100BFB5
S31508002CA000BF002084F8340000BF012084F83500F6
S31508002CB0E06C10B12046E16C884700BFA4E700002D
S31508002CC0B00000202DE9F0410446002500F008FA7E
S31508002CD0074614B90120BDE8F081606A00B100BF5B
S31508002CE000BF002084F8340000BF022084F83500B5
S31508002CF02068006820F00100216808600AE000F0FA
S31508002D00EFF9C01B052805D920206065032084F843
S31508002D103500E0E72068006800F001000028EED1E1
S31508002D202068056821480540D4E901010843E1689F
S31508002D3008432169084361690843A1690843E169B1
S31508002D400843216A08430543606A042803D1D4E985
S31508002D500B0108430543206805602068456925F08E
S31508002D600705606A0543606A04280DD1A06A054311
S31508002D70E06A48B12046FEF7A1FA28B1402060650E
S31508002D80012084F83500A6E7206845612046FEF74D
S31508002D907BFA064694F85C103F208840B060002015
S31508002DA06065012084F83500002094E73F8010F024
S31508002DB02DE9F04104460D4616461F464FF0000819
S31508002DC000BF94F83400012802D10220BDE8F08142
S31508002DD0012084F8340000BF94F83500012811D189
S31508002DE0022084F83500002060653B4632462946B5
S31508002DF02046FEF7B8FA2068006840F0010021680E
S31508002E00086006E000BF002084F8340000BF4FF0D9
S31508002E1002084046DAE72DE9F04704460D4616460D
S31508002E201F464FF00008D4F8589000BF94F83400B5
S31508002E30012802D10220BDE8F087012084F8340079
S31508002E4000BF94F83500012825D1022084F8350002
S31508002E50002060653B46324629462046FEF783FA3F
S31508002E6094F85C103F208840C9F80800206800687C
S31508002E7040F0160021680860206C28B120680068B8
S31508002E8040F00800216808602068006840F00100EA
S31508002E902168086006E000BF002084F8340000BFFF
S31508002EA04FF002084046C6E7F8B502460B4600252D
S31508002EB0002400200021E6E0012606FA01F51E6836
S31508002EC006EA0504AC4273D15E68012E08D05E6836
S31508002ED0022E05D05E68112E02D05E68122E13D11E
S31508002EE090684F000326BE40B0434F00DE68BE40E0
S31508002EF030439060506801268E40B0431E79C6F371
S31508002F0000168E4030435060D0684F000326BE40FE
S31508002F10B0434F009E68BE403043D0605E68022EC4
S31508002F2002D05E68122E13D1CF0802F1200656F899
S31508002F3027004E07F70E0F26BE40B0434F07FF0E79
S31508002F401E69BE403043CF0802F1200646F8270026
S31508002F5010684F000326BE40B0431E7906F00306EC
S31508002F604F00BE40304310605E6806F08056B6F1EA
S31508002F70805FA8D100BF00260096454E366846F405
S31508002F808046434F3E603E46366806F480460096C5
S31508002F9000BF00BF3F4E8F0856F827008E07370F31
S31508002FA00F26BE40B0433C4EB24202D100262EE068
S31508002FB068E03A4EB24201D1012628E0384EB242C4
S31508002FC001D1022623E0374EB24201D103261EE084
S31508002FD0354EB24201D1042619E0344EB24201D12F
S31508002FE0052614E0324EB24201D106260FE0314ED4
S31508002FF0B24201D107260AE02F4EB24201D1082675
S3150800300005E02E4EB24201D1092600E00A268F07B6
S315080030103F0FBE4030431F4E8F0846F82700284E04
S315080030203068A0435E6806F48036B6F5803F00D166
S315080030302043234E3060361D3068A0435E6806F490
S315080030400036B6F5003F00D120431D4E361D3060D0
S31508003050361D3068A0435E6806F48016B6F5801FF4
S3150800306000D12043164E08363060361D3068A0431E
S315080030705E6806F40016B6F5001F00D12043104E10
S315080030800C363060491C1029FFF416AFF8BD000055
S31508003090443802400838014000000240000402405B
S315080030A000080240000C02400010024000140240D2
S315080030B000180240001C0240002002400024024082
S315080030C0003C0140024613690B400BB1012000E0A9
S315080030D0002070470AB1816101E00B0483617047E3
S315080030E00148006870470000000000200348006897
S315080030F00349097808440149086070470000002020
S315080031000800002010B50D48006840F400700B490F
S3150800311008600846006840F4806008600846006851
S3150800312040F480700860032000F0C8F8002000F022
S3150800313007F800F04BF8002010BD0000003C0240E4
S3150800314070B588B0044600250026002221463620A0
S3150800315000F076F8362000F063F800BF00200190F2
S315080031601648006840F010001449086008460068D0
S3150800317000F01000019000BF00BF02A903A800F0EC
S31508003180B9F900F0DFF945000D48B5FBF0F0461E29
S315080031900C480D49086040F2E7310B48C1604660AB
S315080031A000210161816000F06FFD20B9064800F03A
S315080031B0A9FD08B070BD0120FBE7000040380240B9
S315080031C040420F00001000406446002008B500BFCA
S315080031D0002000901148006840F480400F490860BC
S315080031E00846006800F48040009000BF00BF00BF9A
S315080031F000200090081F006840F08050091F0860F2
S315080032000846006800F08050009000BF00BF00220A
S315080032100F21901E00F014F808BD00004438024043
S3150800322001460846002809DB00F01F0301229A40E0
S3150800323043099B0003F1E023C3F8002100BF704750
S315080032402DE9F05F80460D461646002703F0CAF8BA
S31508003250074639462A46334601F00700C0F1070AF1
S31508003260BAF1040F02D94FF0040A01E0C0F1070AC7
S31508003270D14600F1040ABAF1070F02D24FF0000A4C
S3150800328001E0A0F1030AD4464FF0010A0AFA09FA46
S31508003290AAF1010A0AEA020A0AFA0CFA4FF0010B25
S315080032A00BFA0CFBABF1010B0BEA030B4AEA0B0416
S315080032B02146404603F09EF8BDE8F09F00BF00F0A7
S315080032C00702064B19684FF6FF031940044B0B43D8
S315080032D043EA0221014B196000BF70470CED00E07C
S315080032E00000FA0538B5002400BF002000901D48EC
S315080032F0006840F080501B4908600846006800F0E6
S315080033008050009000BF00BF012017490864FFF7EE
S31508003310E7FE044607E0FFF7E3FE001BB0F57A7FF9
S3150800332001D9032038BD1148406800F48030B0F553
S31508003330803FF0D101200C494864FFF7D1FE0446CE
S3150800334007E0FFF7CDFE001BB0F57A7F01D9032011
S31508003350E8E70648406800F40030B0F5003FF0D1D1
S315080033600020DFE74038024000000E4200700040AF
S3150800337070B504460D460CB9012070BD5848006862
S3150800338000F00F00A84209D255490D70084600689A
S3150800339000F00F00A84201D00120EEE7207800F0E7
S315080033A0020002281DD1207800F00400042805D167
S315080033B04C48006840F4E0504A490860207800F01C
S315080033C00800082805D14748006840F46040454988
S315080033D008604448006820F0F000A16808434149A5
S315080033E00860207800F00100A8B36068012807D1BA
S315080033F03C4808380068C0F34040B8B90120BCE72B
S315080034006068022802D06068032807D13548083862
S315080034100068C0F3406048B90120AEE73148083873
S315080034200068C0F3400008B90120A6E72D480068E7
S3150800343020F00300616808432A490860FFF750FE38
S31508003440064609E0FFF74CFE801B41F288318842A8
S3150800345002D9032091E707E02248006800F00C0033
S315080034606168B0EB810FEDD11D48006800F00F00D0
S31508003470A84209D91A490D700846006800F00F00DD
S31508003480A84201D0012078E7207800F0040004283B
S3150800349007D11448006820F4E050E1680843114950
S315080034A00860207800F00800082808D10D48006850
S315080034B020F46040216940EAC1000A49086000F02A
S315080034C061F808490968C1F30311074A515CC84005
S315080034D00649086006480068FFF732FE00204CE7F8
S315080034E0003C0240083802404CAE0008B0000020FC
S315080034F0040000200F2202600D4A126802F003023F
S3150800350042600B4A126802F0F0028260084A1268AA
S3150800351002F4E052C260064A126802F46042D20817
S315080035200261044A126802F00F020A60704700003E
S3150800353008380240003C0240014800687047000015
S31508003540B000002000B5FFF7F7FF04490968C1F38A
S315080035508221034A515CC84000BD00000838024079
S315080035605CAE000800B5FFF7E7FF04490968C1F338
S315080035704231034A515CC84000BD00000838024089
S315080035805CAE00082DE9F047002400250026A14678
S315080035902548006800F00C0020B1042805D008284A
S315080035A03AD105E0DFF8849039E0DFF8849036E018
S315080035B01D48001F006800F03F041B48001F0068F4
S315080035C000F4800078B11A481749091F0968C1F341
S315080035D08811A0FB01700146224600233846FCF7F5
S315080035E063FE05460EE011480F49091F0968C1F335
S315080035F08811A0FB01700146224600233846FCF7D5
S3150800360053FE05460848001F0068C0F30140401CE9
S315080036104600B5FBF6F902E0DFF8109000BF00BFE0
S315080036204846BDE8F0870000083802400024F40048
S31508003630001BB700F8B504460CB90120F8BD207880
S3150800364000F00100002874D0F948006800F00C006A
S3150800365004280DD0F648006800F00C00082813D19D
S31508003660F348001F006800F48000B0F5800F0BD106
S31508003670EF4808380068C0F34040002859D0606811
S31508003680002856D10120D9E700BF6068B0F5803F11
S3150800369008D1E7480838006840F48030E44908391A
S315080036A008601EE06068B0F5A02F0DD1E048083824
S315080036B0006840F48020DE4908390860084600683A
S315080036C040F4803008600CE0D9480838006820F4D7
S315080036D08030D749083908600846006820F48020F9
S315080036E0086000BF606890B1FFF7FAFC054606E07F
S315080036F0FFF7F6FC401B642801D903209EE7CC4857
S3150800370008380068C0F340400028F1D011E0FFF700
S31508003710E7FC054606E0FFF7E3FC401B642801D9F1
S3150800372003208BE7C24808380068C0F340400028E9
S31508003730F1D1207800F0020002285FD1BC48006869
S3150800374000F00C0058B1BA48006800F00C000828D0
S315080037501CD1B748001F006800F48000B0B9B4480F
S3150800376008380068C0F3400020B1E068012801D09D
S31508003770012063E7AE480838006820F0F8002169A0
S3150800378040EAC100AA490839086037E0E06800B392
S315080037900120A8490860FFF7A3FC054606E0FFF7E5
S315080037A09FFC401B022801D9032047E7A048083898
S315080037B00068C0F340000028F1D09D48083800682A
S315080037C020F0F800216940EAC100994908390860E3
S315080037D014E0002097490860FFF782FC054606E0DA
S315080037E0FFF77EFC401B022801D9032026E79048F4
S315080037F008380068C0F340000028F1D1207800F0AE
S31508003800080008282CD16069A8B101208A490860F7
S31508003810FFF766FC054606E0FFF762FC401B022838
S3150800382001D903200AE782486C300068C0F34000DB
S315080038300028F1D014E000207F490860FFF750FC0B
S31508003840054606E0FFF74CFC401B022801D9032079
S31508003850F4E677486C300068C0F340000028F1D1E0
S31508003860207800F00400042870D10027704838300A
S31508003870006800F0805090B900BF002000906C48A6
S315080038803830006840F08050694938310860084689
S31508003890006800F08050009000BF00BF012767480D
S315080038A0006800F48070B0B96448006840F480701D
S315080038B062490860FFF714FC054606E0FFF710FCAE
S315080038C0401B022801D90320B8E65C48006800F4CA
S315080038D080700028F2D000BFA068012808D154489B
S315080038E06830006840F001005149683108601DE001
S315080038F0A06805280DD14E486830006840F00400DD
S315080039004B49683108600846006840F001000860C5
S315080039100CE047486830006820F0010044496831E7
S3150800392008600846006820F00400086000BFA06828
S31508003930A8B1FFF7D5FB054609E0FFF7D1FB401B09
S3150800394041F28831884202D9032077E626E03848D2
S3150800395068300068C0F340000028EED013E0FFF797
S31508003960BFFB054608E0FFF7BBFB401B41F2883169
S31508003970884201D9032061E62D4868300068C0F303
S3150800398040000028EFD1012F07D1294838300068B8
S3150800399020F0805026493831086000BFA069002809
S315080039A045D02348006800F00C0008285DD0A069BF
S315080039B0022845D100201F490866FFF791FB0546F6
S315080039C006E0FFF78DFB401B022801D9032035E6E8
S315080039D0174808380068C0F340600028F1D1D4E9D8
S315080039E007010843616A40EA81110122A06AC2EB15
S315080039F0500041EA00412C20005D41EA00600C4974
S31508003A00091F086001200B490866FFF769FB054690
S31508003A1006E0FFF765FB401B022801D903200DE6E7
S31508003A20034808380068C0F340600028F1D03FE03A
S31508003A300838024000004742800E474200700040A6
S31508003A4000201C490866FFF74BFB054606E0FFF712
S31508003A5047FB401B022801D90320EFE516480068FA
S31508003A60C0F340600028F2D122E0A069012800D105
S31508003A70E4E51148001D066806F48001E069814204
S31508003A8014D106F03F01206A81420FD147F6C07073
S31508003A903040616A884209D106F44031A06A814201
S31508003AA004D106F07061E06A814201D00120C5E5C3
S31508003AB00020C3E5000047420038024010B504461E
S31508003AC00CB9012010BD606A00B900BF0021A162CF
S31508003AD094F8510028B9002084F85000204600F0D8
S31508003AE033F8022084F851002068006820F040006E
S31508003AF021680860D4E901010843E168084321699F
S31508003B00084361690843218B01F400710843E169A0
S31508003B100843216A0843A16A08432168086004210A
S31508003B20A06901EA1040616A084321684860206874
S31508003B30C06920F400602168C86100206065012022
S31508003B4084F851000020BDE710B586B0044614215C
S31508003B5001A8FCF7F3FB1B492068884230D100BF57
S31508003B60002000901848006840F480101649086044
S31508003B700846006800F48010009000BF00BF00BF30
S31508003B800020009010481438006840F020000E49C4
S31508003B90143908600846006800F02000009000BF4D
S31508003BA000BF4FF46070019002200290002003903D
S31508003BB0032004900520059001A90448FFF774F92D
S31508003BC006B010BD005001404438024000140240BF
S31508003BD07047704730B502460B4600BF92F83C0066
S31508003BE0012801D1022030BD012082F83C0000BF27
S31508003BF0022082F83D00106844681068816824F045
S31508003C0070041868044310684460184D1068A84288
S31508003C101BD01068B0F1804F17D0154D1068A84218
S31508003C2013D0144D1068A8420FD0134D1068A8423F
S31508003C300BD0124D1068A84207D0114D1068A84243
S31508003C4003D0104D1068A84205D121F080015868AC
S31508003C50014310688160012082F83D0000BF002002
S31508003C6082F83C0000BF00BFBDE70000000001402D
S31508003C700004004000080040000C00400004014019
S31508003C80004001400018004010B504460CB9012058
S31508003C9010BD94F83D0028B9002084F83C00204661
S31508003CA000F00CF8022084F83D00211D206801F080
S31508003CB02BFE012084F83D000020E9E738B50446CC
S31508003CC00E492068884217D100BF002000900C4892
S31508003CD0006840F020000A4908600846006800F0BD
S31508003CE02000009000BF00BF002205213720FFF703
S31508003CF0A7FA3720FFF794FA38BD000000140040F1
S31508003D004038024001460868C06840F001000B6868
S31508003D10D8600868806800F00702062A05D0086897
S31508003D20006840F001000B68186000207047704773
S31508003D3010B5044620680069C0F34000D8B1206871
S31508003D40C068C0F34000B0B16FF002002168086196
S31508003D50012020772068806900F0030018B120460A
S31508003D60FFF7E5FF05E0204600F0DEF8204600F004
S31508003D7095F90020207720680069C0F38000D8B143
S31508003D802068C068C0F38000B0B16FF004002168F5
S31508003D900861022020772068806900F4407018B115
S31508003DA02046FFF7C4FF05E0204600F0BDF8204690
S31508003DB000F074F90020207720680069C0F3C0007D
S31508003DC0D8B12068C068C0F3C000B0B16FF0080071
S31508003DD021680861042020772068C06900F0030084
S31508003DE018B12046FFF7A3FF05E0204600F09CF82F
S31508003DF0204600F053F90020207720680069C0F3B8
S31508003E000010D8B12068C068C0F30010B0B16FF0D8
S31508003E10100021680861082020772068C06900F42E
S31508003E20407018B12046FFF782FF05E0204600F0F3
S31508003E307BF8204600F032F90020207720680069D8
S31508003E4000F0010058B12068C06800F0010030B1E8
S31508003E506FF0010021680861204600F04DF92068DE
S31508003E600069C0F3C01058B12068C068C0F3C0101C
S31508003E7030B16FF08000216808612046FFF7A8FE80
S31508003E8020680069C0F3801058B12068C068C0F384
S31508003E90801030B16FF0400021680861204600F0BC
S31508003EA039FA20680069C0F3401058B12068C06824
S31508003EB0C0F3401030B16FF0200021680861204639
S31508003EC0FFF787FE10BD000010B586B00446142122
S31508003ED001A8FCF733FA1149206888421CD100BFB3
S31508003EE0002000900E48006840F010000C49086059
S31508003EF00846006800F01000009000BF00BF602070
S31508003F00019002200290002003900490032005905F
S31508003F1001A90448FEF7C8FF06B010BD00400140DD
S31508003F203038024000100240704770B504460D460E
S31508003F30164600BF94F83C00012801D1022070BD46
S31508003F40012084F83C0000BF022084F83D0036B109
S31508003F50042E1BD0082E31D00C2E5ED145E0294602
S31508003F60206801F04FFD2068806940F0080021684C
S31508003F7088612068806920F00400216888612068CB
S31508003F808069296908432168886147E029462068CD
S31508003F9001F070FD2068806940F40060216888613E
S31508003FA02068806920F480602168886120688069BB
S31508003FB0296940EA0120216888612FE0294620689E
S31508003FC001F096FD2068C06940F008002168C861C4
S31508003FD02068C06920F004002168C8612068C069AB
S31508003FE0296908432168C86118E02946206801F054
S31508003FF0BBFD2068C06940F400602168C86120687C
S31508004000C06920F480602168C8612068C069296990
S3150800401040EA01202168C86100E000BF00BF012016
S3150800402084F83D0000BF002084F83C0000BF00BFB4
S3150800403085E710B504460CB9012010BD94F83D007B
S3150800404028B9002084F83C00204600F00DF802202C
S3150800405084F83D00211D206801F056FC012084F8F3
S315080040603D000020E9E7000008B50A4A01689142C8
S315080040700FD100BF002100910749096841F480313A
S31508004080054A11601146096801F48031009100BFA4
S3150800409000BF08BD00400140443802407047000098
S315080040A070B504460E4601223146206801F098FC98
S315080040B00F492068884203D00E492068884201D1FA
S315080040C0012000E0002028B12068406C40F4004040
S315080040D0216848642068806800F00705062D05D029
S315080040E02068006840F0010021680860002070BD63
S315080040F0000001400004014010B52DED048B044674
S315080041007A49206888424FD1794890ED032AF0EE23
S31508004110421A90ED022AB0EE421A90ED012AF0EE0C
S31508004120420A90ED002AB0EE420A05F087FF714870
S31508004130007A012839D1704890ED0D2AF0EE421A1E
S3150800414090ED0B2AB0EE421A90ED092AF0EE420ADB
S3150800415090ED072AB0EE420A05F06CFC664890ED31
S315080041600C2AF0EE421A90ED0A2AB0EE421A90EDA9
S31508004170082AF0EE420A90ED062AB0EE420A05F049
S315080041800DFC5B4890ED032AF0EE421A90ED022AE8
S31508004190B0EE421A90ED012AF0EE420A90ED002A9E
S315080041A0B0EE420A05F04AFF96E05248007A022825
S315080041B077D15048B0F9020000EE100AB8EEC00AEE
S315080041C0DFED4E0A80EE201AB0EE418A4948B0F972
S315080041D0040000EE100AB8EEC00ADFED490A80EEC8
S315080041E0201AF0EE418A4348B0F9060000EE100A9C
S315080041F0B8EEC00ADFED420A80EE201AB0EE419A08
S31508004200B0EE481AF0EE680AB0EE490AFCF718FE56
S315080042103C48D0ED060AB0EE600ADFED3B0A3B48A3
S3150800422004F0F4FE344890ED0D2AF0EE421A90EDB3
S315080042300B2AB0EE421A90ED092AF0EE420A90EDEA
S31508004240072AB0EE420A05F0F5FB2B4890ED0C2A3A
S315080042502E48D0ED0F2A32EE622AF0EE421A264890
S3150800426090ED0A2A2948D0ED0F2A32EE222AB0EE1E
S31508004270421A214890ED082A2448D0ED0F2A32EE3A
S31508004280222AF0EE420A1C4890ED062A1F48D0ED75
S315080042900F2A32EE622AB0EE420A05F07FFB1BE0D7
S315080042A0FFE71448007A032802D01248007A98B922
S315080042B0DFED151A9FED141ADFED130A9FED120AAA
S315080042C005F0B8FBDFED101A9FED0F1ADFED0E0AA9
S315080042D09FED0D0A05F062FB0D492068884201D161
S315080042E0FEF704FFBDEC048B10BD0000001400406F
S315080042F040590020664D0020C46700200000254470
S3150800430000007A43204D0020000000006858002075
S3150800431000100040704770B50446002520684069C3
S31508004320C0F3C01594F8390021280ED16DB1206864
S31508004330406920F0800021684861206B10B1206B2D
S31508004340FEF737FB204601F0D7FC20684069C0F32A
S31508004350801594F83A0022280ED16DB1206840697C
S3150800436020F0400021684861606B10B1606BFEF771
S3150800437020FB204601F0A0FC002070BD704700001D
S315080043802DE9F0470446206805682068C668206855
S3150800439047694FF00008C14605F00F08B8F1000F4D
S315080043A00AD105F0200038B106F0200020B12046D9
S315080043B001F0ACFCBDE8F087B8F1000F72D007F049
S315080043C0010018B906F4907000286BD005F00100BA
S315080043D030B106F4807018B1E06B40F00100E0637C
S315080043E005F0040030B107F0010018B1E06B40F0A9
S315080043F00200E06305F0020030B107F0010018B1D1
S31508004400E06B40F00400E06305F0080048B106F0F0
S31508004410200010B907F0010018B1E06B40F0080061
S31508004420E063E06B70B305F0200028B106F02000C9
S3150800443010B1204601F06AFC20684069C0F3801973
S31508004440E06B00F0080010B9B9F1000F23D0204640
S3150800445001F032FC2068406900F04000402816D17F
S315080044602068406920F0400021684861606B50B1BF
S315080044701748616B0865606BFEF7F0FA10B1606B60
S31508004480016D88470CE02046FFF778FF08E02046D4
S31508004490FFF774FF04E02046FFF770FF0020E06393
S315080044A088E7FFE705F0800030B106F0800018B114
S315080044B0204601F073FE7DE705F0400030B106F0B6
S315080044C0400018B1204601F007FC73E700BF71E70A
S315080044D0BD5B000810B504460CB9012010BDA069E3
S315080044E000B100E000BF94F8390028B9002084F82C
S315080044F03800204600F028F8242084F8390020687F
S31508004500C06820F400502168C860204601F052FCBB
S315080045102068006920F49040216808612068406995
S3150800452020F02A00216848612068C06840F40050DD
S315080045302168C8600020E063202084F8390084F8E8
S315080045403A000020CAE7000010B586B004461421D8
S3150800455001A8FBF7F3FECD492068884259D100BF70
S3150800456000200090CA48006840F01000C84908605A
S315080045700846006800F01000009000BF00BF00BFAA
S3150800458000200090C2481438006840F00200C04974
S31508004590143908600846006800F00200009000BF61
S315080045A000BFC02001900220029001200390032042
S315080045B004900720059001A9B648FEF775FCB64891
S315080045C0B64908604FF0006048600021B348816032
S315080045D0C1604FF4806101610021416181614FF43E
S315080045E08071C1610902016200214162FEF76AFB1E
S315080045F008B1FCF7CFFE00BFA8486063846300BF1C
S31508004600002205212520FEF71BFE2520FEF708FEC1
S315080046103AE1A349206888427ED100BF0020009075
S315080046209B48001F006840F400309949091F08603C
S315080046300846006800F40030009000BF00BF00BFC5
S315080046400020009092481438006840F0080090490D
S31508004650143908600846006800F00800009000BF9A
S3150800466000BF6020019002200290002003900320E2
S3150800467004900720059001A98A48FEF715FC8A4888
S315080046808A4908604FF000604860002187488160C9
S31508004690C1604FF4806101610021416181614FF47D
S315080046A08071C1610902016200214162FEF70AFBBD
S315080046B008B1FCF76FFE00BF7C486063846300BFE7
S315080046C0794818307A4908604FF000604860402100
S315080046D0774881600021C1604FF480610161002143
S315080046E041618161C1614FF48031016200214162FB
S315080046F0FEF7E8FA08B1FCF74DFE00BF6C482063E8
S31508004700846300BF002205212620FEF799FD262096
S31508004710FEF786FDB8E0FFE766492068884233D190
S3150800472000BF002000905A48001F006840F480200F
S315080047305749091F08600846006800F48020009061
S3150800474000BF00BF00BF0020009051481438006821
S3150800475040F008004E49143908600846006800F021
S315080047600800009000BF00BF4FF44070019002207F
S31508004770029000200390032004900720059001A9C9
S315080047804848FEF791FB7FE04B49206888427BD179
S3150800479000BF002000903E48006840F020003C49D9
S315080047A008600846006800F02000009000BF00BFBF
S315080047B000BF0020009036481438006840F04000DA
S315080047C03349143908600846006800F04000009034
S315080047D000BF00BF4FF484400190022002900020E1
S315080047E00390032004900820059001A93348FEF79A
S315080047F05BFB294818383249086080054860002163
S315080048002F488160C1604FF48061016100214161D8
S3150800481081614FF48071C161090201620021416220
S31508004820FEF750FA08B1FCF7B5FD00BF24486063EF
S31508004830846300BF18486030224908604FF0206042
S31508004840486040211F4881600021C1604FF48061A3
S315080048500161002141618161C1614FF480310162CA
S3150800486000214162FEF72EFA08B1FCF793FD00BF5E
S3150800487014482063846300BF002205214720FEF701
S31508004880DFFC4720FEF7CCFC06B010BD0010014047
S315080048904438024000040240406402402448002094
S315080048A000440040000C0240886002408448002012
S315080048B0E448002000480040001401400018024067
S315080048C044490020A449002077B581B0044615461E
S315080048D094F83A00202850D1029800B115B9012061
S315080048E004B070BD00BF94F83800012801D1022039
S315080048F0F6E7012084F8380000BF0298A062A58573
S315080049000020E063222084F83A001D48616BC863E2
S315080049101C48616B08641C48616BC8640020616BA5
S31508004920086502AE32682368191D2B46606BFEF7D0
S3150800493072FA00BF00200090206800680090206886
S315080049404068009000BF00BF00BF002084F8380010
S3150800495000BF2068C06840F480702168C86020687D
S31508004960406940F00100216848612068406940F0CC
S315080049704000216848610020B2E70220B0E7000045
S31508004980215C0008675C0008D15B00087047704727
S315080049902DE9F84304460D4616461F464FF0000912
S315080049A094F8390020285DD105B116B90120BDE873
S315080049B0F88300BF94F83800012801D10220F6E7F1
S315080049C0012084F8380000BF0020E063212084F825
S315080049D03900FEF785FB8146A684E68400BF0020E1
S315080049E084F8380000BF2BE0E08C401EE084A06805
S315080049F0B0F5805F16D14B460022802120460097ED
S31508004A0001F000FC08B10320D1E7A846B8F8000079
S31508004A10C0F3080021684860206908B9AD1C0FE09A
S31508004A206D1C0DE04B46002280212046009701F0C0
S31508004A30E9FB08B10320BAE715F8010B21684860BD
S31508004A40E08C0028D0D14B46002240212046009712
S31508004A5001F0D8FB08B10320A9E7202084F8390023
S31508004A600020A4E70220A2E7F7B50446154694F805
S31508004A70390020283DD1019800B10DB90120FEBDAD
S31508004A8000BF94F83800012801D10220F7E7012079
S31508004A9084F8380000BF01982062A584E5840020C8
S31508004AA0E063212084F839001348216BC863134852
S31508004AB0216B08641248216BC8640020216B0865C5
S31508004AC001AE23681A1D31682B46206BFEF7A3F941
S31508004AD06FF040002168086000BF002084F83800A5
S31508004AE000BF2068406940F08000216848610020C6
S31508004AF0C5E70220C3E70000755C0008AB5C000848
S31508004B00D15B00087047704700BFFEE74FF4A570F9
S31508004B100A4908609FED0A0A084680ED020A9FEDD9
S31508004B20090A80ED030A9FED080A80ED040A9FED45
S31508004B30070A80ED050A042048607047C46700200C
S31508004B400000C842000000000000FA437EEAAB3EBF
S31508004B501FB5002000900190029003903148324919
S31508004B6008604FF48030486000212F488160012199
S31508004B7001610176002180F82010C1622B4981620B
S31508004B800021C1600621C161012180F83010416110
S31508004B90FCF7DAFC08B1FCF7FDFB0C2000900120BD
S31508004BA001900020029069461F48FCF7F7FB08B100
S31508004BB0FCF7F0FB0D2000900220019069461A4888
S31508004BC0FCF7ECFB08B1FCF7E5FB0E200090032090
S31508004BD0019069461448FCF7E1FB08B1FCF7DAFBDB
S31508004BE00F2000900420019069460F48FCF7D6FB79
S31508004BF008B1FCF7CFFB0A20009005200190694612
S31508004C000948FCF7CBFB08B1FCF7C4FB0B20009066
S31508004C100620019069460448FCF7C0FB08B1FCF77A
S31508004C20B9FB1FBD00200140583E00200100000FBF
S31508004C3010B50E480E4908600520486000210C484A
S31508004C408160C1604FF40031016149014161002171
S31508004C5001760121417600218176C1760177417777
S31508004C60FDF71EF908B1FCF795FB10BD006400407E
S31508004C70003F002010B50E480E4908600520486020
S31508004C8000210C488160C1604FF40031016149017F
S31508004C904161002101760121417600218176C176A4
S31508004CA001774177FDF7FCF808B1FCF773FB10BDF7
S31508004CB000680040283F002008B500BF002000908B
S31508004CC02648006840F480002449086008460068C1
S31508004CD000F48000009000BF00BF00BF00200090D5
S31508004CE00846006840F4001008600846006800F4AA
S31508004CF00010009000BF00BF002205211020FEF71B
S31508004D009FFA1020FEF78CFA002205211120FEF7E3
S31508004D1097FA1120FEF784FA002205213820FEF7BB
S31508004D208FFA3820FEF77CFA002205213920FEF793
S31508004D3087FA3920FEF774FA002205213A20FEF791
S31508004D407FFA3A20FEF76CFA002205214520FEF785
S31508004D5077FA4520FEF764FA08BD000030380240AD
S31508004D6000B59DB01C22184916A8FBF7CEFA0021FB
S31508004D7016A804F01BF9154908601C2212491C31B3
S31508004D800FA8FBF7C2FA00210FA804F00FF9104983
S31508004D9008601C220C49383108A8FBF7B6FA00212E
S31508004DA008A804F003F90B4908601C220649543187
S31508004DB001A8FBF7AAFA002101A804F0F7F80649AA
S31508004DC008601DB000BD0000DCAD000890000020A2
S31508004DD094000020980000209C00002000B587B0B1
S31508004DE0142102A8FBF7AAFA00BF00200190854803
S31508004DF0006840F01000834908600846006800F023
S31508004E001000019000BF00BF00BF002001900846B7
S31508004E10006840F0400008600846006800F040005E
S31508004E20019000BF00BF00BF00200190084600683F
S31508004E3040F0080008600846006800F00800019085
S31508004E4000BF00BF00BF002001900846006840F080
S31508004E50010008600846006800F00100019000BFE4
S31508004E6000BF00BF002001900846006840F002001D
S31508004E7008600846006800F00200019000BF00BF05
S31508004E8000BF002001900846006840F48070086062
S31508004E900846006800F48070019000BF00BF00BF9C
S31508004EA0002001900846006840F020000860084687
S31508004EB0006800F02000019000BF00BF00BF00207E
S31508004EC001900846006840F08000086008460068BF
S31508004ED000F08000019000BF00BF00BF00200190D5
S31508004EE00846006840F0040008600846006800F0BC
S31508004EF00400019000BF00BF002288214248FEF747
S31508004F00E9F8012204214048FEF7E4F800224FF4AC
S31508004F1000513E48FEF7DEF800224FF400713C4887
S31508004F20FEF7D8F8002244F240413A48FEF7D2F894
S31508004F30002230213848FEF7CDF88C200290012057
S31508004F40039000200490059002A92F48FDF7ACFFB6
S31508004F504FF4005002900120039000200490059021
S31508004F6002A92A48FDF7A0FF80200290002003909E
S31508004F70049002A92948FDF797FF41F21000029014
S31508004F80002003900120049002A91F48FDF78CFF1A
S31508004F904FF40070029001200390002004900590C1
S31508004FA002A91B48FDF780FF03200290002003900A
S31508004FB00120049002A91748FDF776FF44F2404005
S31508004FC002900120039000200490059002A9114840
S31508004FD0FDF76AFF0D200290114803900020049007
S31508004FE002A90D48FDF760FF3020029001200390CA
S31508004FF000200490059002A90748FDF755FF07B061
S3150800500000BD00003038024000100240001802407F
S31508005010002002400014024000000240000C02403A
S315080050200000111010B50E480E4908604FF4827042
S31508005030486000210B488160C160016141614FF4FD
S31508005040007181613021C161002101624162816282
S315080050500A21C162FEF732FD08B1FCF79BF910BDC3
S31508005060005001400C4600201CB50020009001901D
S315080050700E480F4908605920486000210C48816095
S3150800508041F28831C16000218161FEF7FDFD08B15A
S31508005090FCF780F900200090019069460448FEF765
S315080050A099FD08B1FCF776F91CBD00000014004014
S315080050B0A446002000B587B01C216846FBF73EF9D8
S315080050C0164817490860592048600021144881602D
S315080050D044F62061C160002101618161FEF7A9FFE4
S315080050E008B1FCF757F96020009000200190029063
S315080050F00490002269460A48FEF717FF08B1FCF734
S3150800510049F9042269460648FEF70FFF08B1FCF77D
S3150800511041F90348FEF7D8FE07B000BD004001403C
S31508005120E446002010B50B480B4908600B48486058
S31508005130002109488160C1604FF4806101610C213A
S31508005140416100218161C161FFF7C4F908B1FCF72B
S3150800515021F910BD0010014024470020A086010057
S3150800516010B50B480B4908604FF4E1304860002140
S3150800517008488160C16001610C214161002181619B
S31508005180C161FFF7A7F908B1FCF704F910BD0000E3
S31508005190004400406447002010B50B480B490860DE
S315080051A04FF4E1304860002108488160C160016120
S315080051B00C21416100218161C161FFF78BF908B1BA
S315080051C0FCF7E8F810BD000000480040A44700209E
S315080051D010B50B480B4908604FF4E13048600021D0
S315080051E008488160C16001610C214161002181612B
S315080051F0C161FFF76FF908B1FCF7CCF810BD0000E4
S3150800520000140140E447002000BFFEE77047000095
S315080052102DE9F0412DED048B04460D4616461F4632
S31508005220B0EE408AF0EE608AB0EE419A0A486066AF
S315080052300A48A066B0EE491AF0EE680AB0EE480AC7
S315080052403B46324629462046D4F864C0E047BDECC2
S31508005250048BBDE8F0810000299200083D92000801
S31508005260454803F06CFE454803F0B8FB0221424866
S31508005270FCF7C4FA02214148FCF7C0FA03F0CAFC5D
S3150800528003F0F8FBFFF742FCFBF768FDDFED3C0A8D
S315080052909FED3B0A04F01EFF3A480068C06840F0DC
S315080052A0100038490968C860642237493548FFF74D
S315080052B00BFB36480068C06840F01000334909689F
S315080052C0C860642232493148FFF7FEFA9FED311A69
S315080052D0DFED310A9FED310A4FF4FA7340F6AC520E
S315080052E004212F48FFF794FFB3EE0C1ADFED2A0AC4
S315080052F09FED2C0A4FF47A7341F2883203212A482B
S31508005300FFF786FFB3EE0C1ADFED230A9FED250A99
S315080053104FF47A7341F2883203212448FFF778FF65
S3150800532038211A4804F020FB4FF47A7003F02DFE5A
S315080053301F4890ED000A1F4880ED000A002009E08A
S31508005340002100EB400202EBC0021B4B03EB82027A
S315080053505161401C0828F3DB03F06AFD1748FEF785
S31508005360D1FC00BF9FED160A04F0BCFE04F0CEFA8D
S31508005370052003F00AFEF5E7003F0020283F00203D
S3150800538000007042E4470020E04400206447002003
S31508005390444500209A99993E0AD7233C33139F44E3
S315080053A0685800206666524290570020FC57002035
S315080053B0AC0000208C000020044A0020A4460020EF
S315080053C0000057432DED028B9FEDB40AB0EE408ADC
S315080053D07822B349B348FCF74FF900BF00240020F0
S315080053E0B1490860B1490860B1490860B149086027
S315080053F0B1490860B149086041E02046611CCCB259
S31508005400A74951F82000AD4909680844AB49086026
S315080054102046611CCCB2A24951F82000A649096869
S315080054200844A54908602046611CCCB29C4951F83D
S315080054302000A049096808449E4908602046611C66
S31508005440CCB2974951F82000994909680844984907
S3150800545008602046611CCCB2914951F82000934956
S3150800546009680844914908602046611CCCB28C49F9
S3150800547051F820008C49096808448B490860782C43
S31508005480BBDB8E4800681421B0FBF1F08B4908603D
S31508005490894800681421B0FBF1F0874908608548FF
S315080054A000681421B0FBF1F0824908608048006862
S315080054B01421B0FBF1F07E4908607C48006814218D
S315080054C0B0FBF1F079490860774800681421B0FB11
S315080054D0F1F075490860794890ED000AB8EE400A7F
S315080054E0DFED770A80EE201A9FED760A21EE000A94
S315080054F0DFED750A20EE200ADFED740A80EE201A29
S31508005500734880ED001A6C4890ED000AB8EE400A20
