:020000040800F2
:10000000E85F002085020008A7480008013D0008BD
:10001000A5480008F50B0008455600080000000040
:10002000000000000000000000000000C501000802
:100030003D0E00080000000021020008554E000897
:100040009F0200089F0200089F0200089F0200080C
:100050009F0200089F0200089F0200089F020008FC
:100060009F0200089F0200089F0200089F020008EC
:100070009F0200089F0200089F0200089F020008DC
:10008000510D00085D0D00089F020008DD0C0008FE
:10009000D10C00089F0200089F0200089F02000880
:1000A0009F0200089F0200089F0200089F020008AC
:1000B0009F0200089F0200089F0200089F0200089C
:1000C0009F0200089F0200089F0200089F0200088C
:1000D0009F02000851550008695500089F0200085A
:1000E0009F0200089F0200089F0200089F0200086C
:1000F0009F0200089F0200089F0200089F0200085C
:100100009F0200089F0200089F0200089F0200084B
:100110009F0200089F0200083D4F0008494F000859
:10012000690D0008750D0008810D00089F02000888
:100130009F0200089F0200089F020008F50C0008BB
:10014000E90C00089F0200089F0200089F020008B7
:100150009F0200088D0D00089F020008FD55000851
:100160009F0200089F0200089F0200089F020008EB
:100170009F0200089F0200089F0200080000000084
:100180009F0200089F0200089F020008BD5100085E
:100190009F0200089F0200089F0200089F020008BB
:1001A00000000000000000009F020008DFF810D0EF
:1001B00000F032FC0048004749770008AFF30080A8
:1001C000E85F00202C4B19680868B0E8F04F80F316
:1001D0000988BFF36F8F4FF0000080F311887047DC
:1001E0000000000008480068006880F308884FF0AD
:1001F000000080F3148862B661B6BFF34F8FBFF37F
:100200006F8F00DF00BF00BF08ED00E0DFF80C00DB
:10021000016841F470010160704700BF88ED00E0A3
:10022000EFF30980BFF36F8F134B1A681EF0100FA6
:1002300008BF20ED108A20E9F04F106009B44FF09C
:10024000500080F31188BFF34F8FBFF36F8F08F01A
:1002500005FD4FF0000080F3118809BC196808689B
:10026000B0E8F04F1EF0100F08BFB0EC108A80F31A
:100270000988BFF36F8F7047BC000020EFF3058043
:10028000704700000648804706480047FEE7FEE743
:10029000FEE7FEE7FEE7FEE7FEE7FEE7FEE7FEE736
:1002A000214F0008AD0100082DE9F05F0546002050
:1002B00092469B4688460646814640241BE02846D7
:1002C00041464746224600F088FA53465A46C01A2D
:1002D000914110D311461846224600F06FFA2D1AAC
:1002E00067EB01084F4622460120002100F066FA24
:1002F00017EB00094E41201EA4F10104DFDC484643
:1003000031462A464346BDE8F09F40EA01039B0779
:1003100003D009E008C9121F08C0042AFAD203E07A
:1003200011F8013B00F8013B521EF9D27047D2B2DE
:1003300001E000F8012B491EFBD270470022F6E7CE
:1003400010B513460A4604461946FFF7F0FF20464B
:1003500010BD2DE9FE4F804681EA0300C00F0C4618
:10036000009021F0004123F00045B8EB0200A941C4
:1003700005D24046214690461C460B46024623F0D5
:100380000040104347D0270DC7F30A00C3F30A51BA
:100390000290401A019040286BDAC3F3130040F436
:1003A000801B0098924620B10023D2EB030A63EB36
:1003B0000B0B01985946C0F14002504600F0FEF97F
:1003C00006460D4650465946019A00F016FA10EBC3
:1003D00008006141002487EA115284EAE7731A4356
:1003E00040D0009A62B3019A012A4FEA075215DC05
:1003F000001B61EB02014FF0004202EA0752CDE917
:100400000042001C41F5801132462B4600F04DFAA7
:1004100003B0BDE8F08F40462146F9E7001B61EBD1
:100420000201001C41F5801300185B412018A2F561
:10043000001747EB030140EAD570B6196D4111E092
:100440006D084FEA360645EAC0754FEA0752001BB1
:1004500061EB0201001C41F5801149084FEA3000B0
:100460000019514132462B4603B0BDE8F04F00F071
:100470000DBA0098012240000023D0EB020263EB8A
:10048000E073009821464FEAE074B8EB000061EB9E
:100490000401E9E783F000435BE781F0004158E79E
:1004A0002DE9FE4F81EA030404F0004421F00041ED
:1004B00000944FF0000B23F0004350EA01045ED09B
:1004C00052EA03045BD0C3F30A54C1F30A552C4427
:1004D000A4F2F3340194A0FB0254C1F3130141F4DC
:1004E0008011C3F3130343F4801301FB024400FBA8
:1004F000034E840A970A44EA815447EA8357A4FBCF
:10050000076802958D0A05FB07854FEA932C04FBCB
:100510000C542705029D4FEA065847EA1637B5EBFB
:1005200008056EEB070C870E920E47EA811742EA28
:100530008312A7FB0201B6EB0B0164EB00042B0D49
:1005400043EA0C335E1844EB1C50DA465146E7FB95
:100550000201C5F313044FEA0B3343EA14534FEA85
:100560000432019C43EA0603A4F10C040294009CAB
:10057000CDE900B400F099F903B0BDE8F08F002098
:100580000146F9E72DE9F04D81EA030404F0004B40
:1005900021F0004514464FF0000A23F0004150EAD4
:1005A000050220D054EA01021DD0C5F30A570246C5
:1005B000C5F31303C1F31300C1F30A5640F48015C9
:1005C00043F48013A7EB0608101BD64608F2FD384B
:1005D00073EB050002D308F1010801E092185B41BA
:1005E000B8F1000F03DA00200146BDE8F08D0020CD
:1005F0004FF48011064684460EE0171B73EB050787
:1006000005D3121B63EB050306434CEA010C4908B2
:100610004FEA300092185B4150EA0107EDD152EAEF
:10062000030012D082EA040083EA0501084305D0E2
:10063000101BAB4106D20122002306E000224FF03E
:10064000004302E06FF0010253101AEB06004CEB7E
:10065000085110EB0A0041EB0B01BDE8F04D00F032
:1006600015B90EB5C10F80EAE0700844CA07002131
:1006700040F233438DE80E000A460B4600F015F9B0
:1006800003B000BD0EB540F2334102910021CDE927
:1006900000110A460B4600F008F903B000BDC1F393
:1006A0000A5210B5C1F3130140F2FF3341F4801137
:1006B0009A4201DA002010BD40F233439A42A2F27E
:1006C000334203DC524200F088F810BD904010BD68
:1006D00000F0004230F000400AD0C10D01F5607119
:1006E000C0F3160042EA0151C208400711437047A7
:1006F000002001467047000030B5041E71F100046F
:1007000004DB4FF00044404264EB0101141E73F11E
:10071000000405DB1C464FF00043524263EB040328
:100720008B4208BF824230BD30B5041E71F1000417
:1007300004DB4FF00044404264EB0101141E73F1EE
:10074000000405DB1C464FF00043524263EB0403F8
:10075000994208BF904230BD01F0004330B421F00F
:10076000004150EA010206D00A0DA2F56072C1F301
:100770001301002A02DC30BC00207047440F44EA19
:10078000C104C100E01830BC00EBC25000F047B813
:1007900030B50B46014600202022012409E021FA51
:1007A00002F59D4205D303FA02F5491B04FA02F54E
:1007B0002844151EA2F10102F1DC30BD202A04DB21
:1007C000203A00FA02F1002070479140C2F1200364
:1007D00020FA03F3194390407047202A04DB203AA3
:1007E00021FA02F00021704721FA02F3D040C2F151
:1007F00020029140084319467047202A06DBCB1798
:10080000203A41FA02F043EAE07306E041FA02F3CB
:10081000D040C2F120029140084319467047002998
:10082000A8BF7047401C490008BF20F00100704776
:1008300010B4B0FA80FC00FA0CF050EA010404BFD6
:1008400010BC704749B1CCF1200421FA04F411FA2C
:100850000CF118BF012121430843A3EB0C01CB1D70
:100860004FEA00614FEA102042BF002010BC7047E1
:1008700000EBC35010440029A4BF10BC7047401CBB
:10088000490008BF20F0010010BC704710B5141ECD
:1008900073F1000408DA401C41F1000192185B4139
:1008A0001A4301D120F0010010BD2DE9F04D924610
:1008B0009B4611B1B1FA81F202E0B0FA80F2203227
:1008C0009046FFF77BFF04460F4640EA0A0041EAE4
:1008D0000B0153465A46084313D0114653EA010010
:1008E00019D0C8F140025046FFF777FF05460E4683
:1008F000504659464246FFF761FF084305D00120A4
:1009000004E020463946BDE8F08D0020054346EA64
:10091000E0762C4337430A986305E40AA0EB08000D
:100920000022FD0A44EA47540A3002D5002001465D
:10093000E9E7010510196941DDE908450019694138
:10094000BDE8F04DA2E72DE9F04D00231A461B1A31
:100950008A4103DB00200146BDE8F08DC1F30A5255
:10096000C1F3130141F480154FF0000BD10702D100
:1009700000186D41521E0027044640F2FF11384610
:1009800001EB620A3E468046024600204FF4801189
:10099000FFF723FFC2197141BB1846EB0100B4EB0E
:1009A000030C75EB000C04D3E41A65EB0005174645
:1009B0000E46241908F101006D4180463428E3DD1C
:1009C000F91946EB0600091BA84103D24FF0FF328C
:1009D000134601E0002213461BEB070046EB0A51C9
:1009E000BDE8F04DFFF752BFC1F30A52C1F3130146
:1009F00040F2FF3341F480119A4202DA00200146AE
:100A0000704740F233439A42A2F2334202DC524230
:100A1000FFF7E3BEFFF7D2BE064C074D06E0E068E5
:100A200040F0010394E8070098471034AC42F6D335
:100A3000FFF7C0FBB0910008D091000810B5014647
:100A4000806B026C12F0500F05D0026CD20626D5D6
:100A500000F0ACFA10BD016C41F400710164016852
:100A60008A6812F0405F17D1027EAAB9CA6A12F4EE
:100A7000700F02D08A6852050ED44A6822F0200214
:100A80004A60016C21F480710164016CC90403D4D3
:100A9000016C41F00101016400F086FA10BD806B29
:100AA000C26CBDE810400846104710B5806B40216D
:100AB0000164416C41F00401416400F077FA10BD1B
:100AC00010B5806B00F071FA10BD0000464910B5FA
:100AD0004A6822F440324A604A6843681A434A60CE
:100AE00001684A6822F480724A6001684A680369B2
:100AF00042EA03224A6001684A6822F040724A6072
:100B000001684A6883681A434A6001688A6822F467
:100B100000628A6001688A68C3681A438A60816AD1
:100B20006FF07062D14201688A6822F070628A6058
:100B300001688A680CD0836A1A438A6001688A68EF
:100B400022F040528A6001688A68C36A1A4301E051
:100B500022F040528A6001688A6822F002028A60AC
:100B600001688A68037E42EA43028A6090F8201096
:100B7000002901684A680FD042F400624A600168A7
:100B80004A6822F460424A6001684A68174C436A26
:100B900004EB43331A4301E022F400624A60016827
:100BA000CA6A22F47002CA620168CA6A838B104C56
:100BB00004EB03531A43CA6201688A6822F4007284
:100BC0008A6001688A6890F8303042EA43228A607D
:100BD00001688A6822F480628A6001688A684069D4
:100BE00042EA8020886010BD0023014000E0FFFF42
:100BF0000000F0FFFEE700002DE9F047294D00243A
:100C00002DED048B4FF4FA6644F620689FED268A9A
:100C1000DFED268A9FED269ADFED269A42F21079C3
:100C2000C4EBC400C0EB841005EB8007381DB0EEA8
:100C3000481AF0EE680AB0EE490A334642460321EC
:100C400003F0B2FE07F17000B0EE691AF6EE000A8A
:100C5000B1EE020A33464A46042103F0A5FE641CA5
:100C6000052CDDDB40F6C4139FED131ADFED130AEC
:100C70009FED130A444642460321124803F094FEB6
:100C8000F0EE680ABDEC048B33462246BDE8F0471F
:100C90000C4803219FED0C1A9FED0C0A6C3003F0F9
:100CA00083BE0000E4160020CDCC4C406F12833A86
:100CB0000AD7A33EB81E053FCDCCA041CDCC4C3FBA
:100CC0000010FA44041E00209A99B940008018438D
:100CD000014800F00EBC0000FC0C0020014800F0B0
:100CE00008BC0000FC0C0020014800F002BC000021
:100CF000240D0020014800F0FCBB0000240D002062
:100D0000F0B587B0074600240C9E204649B1042167
:100D1000CDE90121CDE903038DF814004FF6FE75EE
:100D200006E000920290F5E7641CA4B2AC420CD835
:100D3000384600F0C8FB0028F6D006AB32466946BC
:100D4000384600F057FA002800D0012007B0F0BD67
:100D5000014800F00FBF000098100020014800F08B
:100D600009BF0000F8100020014800F003BF000098
:100D70009C0C0020014800F0FDBE0000581100202E
:100D8000014800F0F7BE000038100020014800F0D4
:100D9000F1BE0000B811002001681823CAB2103A51
:100DA000B2FBF3F2054B6FF30901032A9B5CC365A9
:100DB00000D9091D81650846704700008890000829
:100DC00010B5014600208B698A6A4FF0C07453B198
:100DD000B3F5005F15D072B1012A0CD0022A0AD0F7
:100DE000032A09D104E01AB1012A06D0022A03D14C
:100DF000C96AC90100D5012010BDC96AA142FAD053
:100E000010BD002AF7D0012AF2D0022AF3D0032A1B
:100E1000F3D010BD30B50468256825F48025256021
:100E2000046863608368402B036803D0996000689E
:100E3000C26030BD9A600068C16030BD704772B654
:100E4000FEE7000078B50024009490F83C20012AC9
:100E500019D0012280F83C200A6807250368092A76
:100E600013D9DE680A3A02EB42029540AE43DE60D7
:100E70000A788B680A3A02EB420293400268D5680E
:100E80002B43D36010E0022078BD1E6902EB4202C2
:100E90009540AE431E610A788B6802EB4202934094
:100EA000026815692B4313614A681F25072A13D26C
:100EB00003685E6B521E02EB82029540AE435E6396
:100EC0000A8893B20A79521E02EB820293400268AA
:100ED000556B2B43536327E003680D2A12D21E6B18
:100EE000D21F02EB82029540AE431E630A8893B282
:100EF0000A79D21F02EB820293400268156B2B43E2
:100F0000136311E0DE6A0D3A02EB82029540AE43B4
:100F1000DE620A8893B20A790D3A02EB82029340AC
:100F20000268D56A2B43D3621B4B0568194A9D4260
:100F30000AD10D68122D07D1556825F400055560BA
:100F4000556845F48005556005689D421DD1134DD7
:100F50000B68AB4201D0112B17D1536823F48003E7
:100F60005360536843F4000353600968A9420CD1ED
:100F70000B490C4A0968B1FBF2F101EB8101490010
:100F800000E0491E00910029FBD180F83C40002080
:100F900078BD000000230140002001401200001035
:100FA0000000002040420F0070477047704770B546
:100FB00004004FF0000603D0206C002510B107E0BC
:100FC000012070BD204600F01DF8656484F83C5097
:100FD000206CC00610D4206C20F4885040F0020031
:100FE00020642046FFF772FD6564206C20F002004B
:100FF00040F00100206400E0012684F83C503046B7
:1010000070BD000070B586B0064614216846FFF733
:1010100095F91D493068884234D11C480025016883
:1010200041F480710160006800F4807005901748F9
:101030001438016841F0040101600068694600F05D
:101040000400059003200090CDE90105104800F050
:1010500037FF114C0F48C4E900050015A560C4E92D
:101060000350800060618000A0618011E061000297
:10107000C4E90805204600F04DFE08B1FFF7DFFE89
:10108000B463A66306B070BD00200140443802403E
:1010900000080240106402409C0C0020F8B50023B8
:1010A0000446009390F83C00012807D0012084F802
:1010B0003C0020688568ED0702D011E00220F8BDF1
:1010C000856845F0010585603848394D0068B0FBFA
:1010D000F5F000EB400000E0401E00900028FBD13E
:1010E00020688568ED075ED0256C40F20166B54347
:1010F00045F4807525644068400505D5206C20F4D2
:10110000005040F480502064206CC00404D5606C12
:1011100020F00600606400E0636484F83C30A36B58
:101120002548244DD863A36B24481864A36B244836
:10113000D86423686FF0220018602068436843F089
:10114000806343602068836843F480738360134640
:1011500020680A46A66B00F14C01304600F067FE9D
:1011600068681849C006206806D088421BD181688B
:1011700011F0405F13D016E08842F8D0124A904236
:1011800003D1D1F80423D206F1D0104A90420AD1FB
:10119000D1F8041301F01F011029E8D303E081689E
:1011A00041F0804181600020F8BD00000000002077
:1011B00040420F00002301403D0A0008C10A000818
:1011C000AB0A00080020014000210140002201403C
:1011D00090F82020012A07D0022A05D0416A41F464
:1011E0008021416201207047006842690A434261E0
:1011F00000207047F0B590F820500468A468012DD5
:1012000005D0022D03D0416A41F480215DE014F045
:10121000406F01D1E50055D5C4F30164022C03D918
:10122000416A41F4000150E00125A5401D608B6832
:101230004FF4C0759BB1CE6833434E6843EAC60392
:10124000066805EB0417F3514FF4C273076803EB0C
:1012500004130E69FE50097D012905D009E00E88AE
:10126000CB6843EA4653EBE70168CE5846F48076F4
:10127000CE501179D379567941EA036193791B04F1
:1012800043EA062319434FF4C676036806EB0416B7
:1012900099511178D37841EA0361937852781B040D
:1012A00043EA022211434FF4C473026803EB0413B0
:1012B000D150006805EB0411425842F0010242503F
:1012C0000020F0BD416A41F4001141620120F0BDEF
:1012D00010B590F82020012A07D0022A05D0416AD3
:1012E00041F480214162012010BD3B48D0F800222A
:1012F00042F00102C0F80022D0F8002222F47C5211
:10130000C0F80022D0F800224B6A42EA0322C0F85B
:1013100000220A7D02F01F0301229A40D0F81C32FD
:101320009343C0F81C32CB69B3B9D0F80C32934365
:10133000C0F80C328C894B6864F31F434C6900EB96
:10134000C404C4F840320C890B6864F31F434C6931
:1013500000EBC404C4F84432CB69012B16D1D0F899
:101360000C321343C0F80C320C884B6864F31F43F3
:101370004C6900EBC404C4F840320C89CB6864F3B8
:101380001F434C6900EBC404C4F844328B69002B42
:10139000D0F804320ED01343C0F804320B69002B8E
:1013A000D0F8143208D01343C0F81432096A012966
:1013B00004D008E09343EFE79343F5E7D0F81C121D
:1013C0001143C0F81C12D0F8001221F00101C0F83E
:1013D0000012002010BD000000640040704730B5CE
:1013E00090F82040012C05D0022C03D0416A41F432
:1013F00080215DE00468002955D02469A40754D0F9
:101400004FF4D874056804EB01142D5915F0040548
:10141000956005682D594ED0ED08556005682C592A
:1014200004F00204D4604FF4DA74056804EB01148C
:101430002D5905F00F05156105682D59C5F30725D0
:10144000956105682C59240C54614FF4DC720468D2
:1014500002EB0112A4581C700468A458240A5C70A2
:101460000468A458240C9C700468A258120EDA7008
:101470004FF4DE72046802EB0112A4581C71046878
:10148000A458240A5C710468A458240C9C71046854
:10149000A258120EDA71006881B1016941F0200191
:1014A0000161002030BDE468A8E7416A41F4001101
:1014B0004162012030BD6D0D1560AFE7C16841F09C
:1014C0002001C160EDE70246002092F820100129BA
:1014D00001D002290CD111688A68520100D501207F
:1014E0008A68120100D5401C8968C90000D5401CDB
:1014F00070472DE9F05F0546006800244669D0F882
:1015000004908768D0F80CB0D0F810A0D0F81880FC
:10151000F10748D0F90714D001218160B80703D53D
:10152000284600F0C8FA0CE0780702D54FF40064B2
:1015300007E0380702D54FF4805402E0284600F057
:10154000B9FAF80516D529684FF480708860B80597
:1015500003D5284600F0B1FA0CE0780502D544F432
:10156000005407E0380502D544F4804402E02846E0
:1015700000F0A2FAF80316D529684FF4803088608D
:10158000B80303D5284600F09AFA0CE0780302D598
:1015900044F4004407E0380302D544F4803402E008
:1015A000284600F08BFA300707D55FEACB6004D5F8
:1015B0002968102044F40074C86070074FF00807D1
:1015C00007D55FEA0B7004D52868C760284600F08D
:1015D000A7F9B00706D52868C068800702D028465A
:1015E00000F0A0F9700607D55FEACA6004D5296843
:1015F000102044F480640861B00607D55FEA0A70E1
:1016000004D528680761284600F026FAF00606D5BA
:1016100028680069800702D0284600F01EFAB0034F
:1016200008D55FEAC96005D52968102048602846BA
:1016300000F014FAF00307D55FEA097004D52868B2
:101640004760284600F03CFA300446D55FEA49700E
:1016500040D5F00504D55FEAC87001D044F001041C
:10166000B00504D55FEA887001D544F00204700526
:1016700004D55FEA487001D544F00404300529D54B
:1016800018F0700F26D008F07000402815D006DC46
:10169000102809D020280AD0302816D10AE0502876
:1016A0000ED0602811D10EE044F008040DE044F0A3
:1016B00010040AE044F0200407E044F0400404E091
:1016C00044F0800401E044F480742868816921F0CA
:1016D00070018161296804204860002C05D0686A87
:1016E000204368622846FFF779FEBDE8F09F70B599
:1016F000040003D094F8200010B104E0012070BD74
:10170000204600F081F82068016821F002010160A4
:1017100000F0C4FC0546052604E000F0BFFC401BB9
:101720000A2811D8206840688007F6D4206801682C
:1017300041F00101016000F0B1FC05460BE000F052
:10174000ADFC401B0A2806D9606A40F40030606294
:1017500084F82060D2E720684068C007EFD0207E80
:101760000128206801683DD021F080010160607E81
:1017700001282068016838D021F040010160A07E76
:1017800001282068016833D021F020010160E07E4B
:101790000128206801682ED041F010010160207FEF
:1017A00001282068016829D021F008010160607FCC
:1017B00001282068016824D021F004010160D4E9E7
:1017C00002010843D4E90412114308436168491E29
:1017D00008432168C86100206062012084F820006D
:1017E000002070BD41F08001C0E741F04001C5E735
:1017F00041F02001CAE721F01001CFE741F00801D4
:10180000D4E741F00401D9E7F0B587B004461421CC
:101810006846FEF793FD3D493D4ADFF8ECE0086875
:10182000D4F800C03A4B03240225092610320027C1
:10183000401CF44529D10860012807D1106840F008
:1018400000701060106800F000700590186840F09B
:101850000800186018688DE8B00000F00800CDE9B5
:101860000460694603942B4800F02AFB00220521FE
:10187000132000F05DFF132000F04CFF0022052133
:10188000142000F055FF14203AE0DFF88CE0F44516
:1018900038D1D2F800C04CF0806CC2F800C0D2F849
:1018A00000C001280CF0806CCDF814C0086007D18E
:1018B000106840F000701060106800F00070059033
:1018C000186840F0020018601868694600F00200CD
:1018D00005904FF440508DE8A100CDE903460F4834
:1018E00000F0EEFA002205213F2000F021FF3F200A
:1018F00000F010FF00220521402000F019FF4020D9
:1019000000F008FF07B0F0BD006400404400002074
:1019100030380240000C02400068004000040240E1
:101920007047000010B58AB004466B4602AA002139
:10193000FFF755FD44492068884202983BD1A0F248
:101940000120082832D2DFE800F004120C06171D2F
:1019500023293E4870E03D4901F18400D1F8AC10E4
:101960006BE03A4901F15800D1F8801065E0374941
:1019700001F12C00496D60E0344901F1B000D1F86B
:10198000D8105AE0314901F1DC00D1F8041154E0DB
:101990002E4901F58470D1F830114EE02B4901F544
:1019A0009A70D1F85C1148E005F0D4F90AB010BD86
:1019B00005F0AAF9FAE740F203232549A0F2032231
:1019C000984231D028DC234AB2EE040A042806D01B
:1019D0001BDC012803D0022801D00328E6D1BDF882
:1019E00002109DF8043049BA090441EA03219DF828
:1019F000053002EB8000194300EE901AF8EE600A01
:101A000080EE801A00ED011AD0E7A0F50072013ACD
:101A10000AD0012ACAD107E0062AC7D2DFE802F0BD
:101A2000030404040404C1E7401EC0B200EB4002FA
:101A300002EBC00001EB8000816A4A1C32298262FD
:101A40006946B5D8B0E70000006400405812002095
:101A5000B81300201815002070477047704770B504
:101A6000044690F82000012804D0606A40F4002069
:101A7000606217E0022084F820002068016821F0ED
:101A80000101016000F00AFB05460DE000F006FBD5
:101A9000401B0A2808D9606A40F4003060620520C3
:101AA00084F82000012070BD20684068C007EDD197
:101AB000606270BD704770477047704770477047ED
:101AC00070472DE9F0410446876D00F0E7FA0546BE
:101AD00094F835000026022806D08020606584F83E
:101AE00034600120BDE8F0812068016821F0160112
:101AF00001602068416921F080014161206C08B9D2
:101B0000A06C20B12068016821F008010160206804
:101B1000016821F0010101600BE000F0BFFA401BF9
:101B2000052806D92020606504F8346F0320607012
:101B3000D8E720680068C007EFD194F85C103F2018
:101B40008840B86004F8346F012060700020C9E755
:101B500090F83510022903D080214165012070479B
:101B6000052180F835100068016821F0010101604D
:101B7000002070472DE9F84304464FF00009CDF8E6
:101B8000009063484FF41651A56D0068B0FBF1F763
:101B90002E6894F85C20082101FA02F030420FD040
:101BA0002068026852070BD5026822F00402026026
:101BB00094F85C008140A960606D40F001006065B0
:101BC00094F85C104FF0010808FA01F0304208D098
:101BD00021684969090604D5A860606D40F00200DB
:101BE000606594F85C1004208840304208D0216879
:101BF0000968890704D5A860606D40F0040060653D
:101C000094F85C1010208840304218D02168096890
:101C1000090714D5A86020680168490304D5006845
:101C2000000308D5A16C07E00168C90503D4016869
:101C300021F008010160216C09B12046884794F821
:101C40005C1020208840304231D021680968C906E4
:101C50002DD5A86094F8350005282068016806D0C5
:101C6000490347D5006800031DD4616C1CE021F0D6
:101C7000160101602068416921F080014161206CFA
:101C800008B9A06C20B12068016821F0080101604A
:101C900094F85C103F208840A86084F8349084F861
:101CA0003580216D1FE0E16B09B120468847606DEA
:101CB00000282BD0606DC00714D0052084F83500B3
:101CC0002068016821F0010101600098401C00902B
:101CD000B84203D820680068C007F6D184F8349071
:101CE00084F83580E16C002910D001B02046BDE8B1
:101CF000F04308470168C905D5D4016821F01001F7
:101D0000016084F8349084F83580CCE7BDE8F8832E
:101D1000000000202DE9F041044600F0BFF905461F
:101D20005CB1002684F83460022084F83500206815
:101D3000016821F0010101600DE00120BDE8F081A2
:101D400000F0ACF9401B052805D920206065032070
:101D500084F83500F2E720680068C007F0D12168F8
:101D60000A6820480240D4E901031843D4E9033546
:101D70002B43184363691843A3691843E369184365
:101D8000236A18431043626A042A03D1D4E90B235F
:101D90001A431043086020684069656A20F0070113
:101DA00028460D43012704280CD1A06A0543E06AA8
:101DB00040B12046FFF704F820B14020606584F868
:101DC0003570BAE7206845612046FEF7E5FF94F8D4
:101DD0005C203F2191408160666584F83570002069
:101DE000ACE700003F8010F070B5044690F8340076
:101DF000002501280CD0012084F8340094F83560C7
:101E00000020012E06D084F834000225284670BD3B
:101E1000022070BD022684F8356060652046FEF71A
:101E2000F9FF2068016841F001010160EEE72DE94A
:101E3000F0410446866D90F83400002501280DD04D
:101E4000012084F8340094F835700020012F07D069
:101E500084F8340002252846BDE8F0810220FBE723
:101E6000022784F8357060652046FEF7D3FF94F8AA
:101E70005C103F208840B0602068016841F0160186
:101E80000160206C20B12068016841F00801016008
:101E90002068016841F001010160DCE770B504468B
:101EA00000F0FCF80546601C02D0044800780444A9
:101EB00000F0F4F8401BA042FAD370BDB00000203F
:101EC0002DE9F84FDFF894B100224FF003094FF0ED
:101ED0000F0A0BF1040E01250B6895402B40AB4215
:101EE00072D14C68012C05D0022C03D0112C01D0EA
:101EF000122C10D18668540009FA04F7BE43CF684B
:101F0000A740374387604468AC430D79C5F300159B
:101F1000954025434560C468570009FA07F58E6867
:101F2000AC43BE402643C6604C68022C01D0122C44
:101F300012D1D40800EB840CDCF820605407E40EC6
:101F40000AFA04F826EA0806D1F8108008FA04F81C
:101F500048EA0608CCF820800468AC430D7905F007
:101F60000305BD40254305604C68E4006FD53C4C3B
:101F7000256845F480452560246822F0030504F4B3
:101F800080440094374C2E19D6F808789407250F12
:101F90000AFA05F4A743344CA04201D100242EE0F4
:101FA000324CA04201D1012429E0314CA04201D1A0
:101FB000022424E02F4CA04201D103241FE02E4C28
:101FC000A04202D104241AE041E02C4CA04201D1ED
:101FD000052414E02A4CA04201D106240FE0294C2C
:101FE000A04201D107240AE0274CA04201D10824D5
:101FF00005E0264CA04201D1092400E00A24AC40AF
:102000003C43C6F80848DBF800405D464E689C43F8
:10201000F60300D51C432C60DEF8004075464E6880
:102020009C43B60300D51C432C600C4D08352C682E
:102030004E689C43F60200D51C432C60074D0C35BE
:102040002C684E689C43B60200D51C432C60521C81
:10205000102AFFF440AFBDE8F88F0000003C0140BB
:1020600044380240003001400000024000040240B9
:1020700000080240000C0240001002400014024020
:1020800000180240001C02400020024000240240D0
:102090000AB1816170470904FBE7000001488068CC
:1020A00070470000B000002090F83D20202A01D0A9
:1020B00002207047242280F83D200268136823F034
:1020C000010313600268536A23F01003536202682D
:1020D000536A0B43536201680A6842F001020A60C6
:1020E000202180F83D100020704790F83D20202AE4
:1020F00001D002207047242280F83D200268136836
:1021000023F0010313600268536A23F00F030B43AB
:1021100099B2516201680A6842F001020A60202106
:1021200080F83D100020704770B5040025D094F869
:102130003D00002520B984F83C50204600F03EFACE
:10214000242084F83D002068016821F0010101602D
:102150002068016841F4004101602068016821F4B1
:102160000041016000F008FC4D4B6168994201D8C4
:102170004C4900E04C49884201D2012070BD4B49D6
:102180002268B0FBF1F1566826F03F060E43566018
:1021900062689A4206D94FF4967251434FF47A72AC
:1021A000B1FBF2F12268491C166A26F03F06314362
:1021B00011626168994210D84900401EB0FBF1F2EB
:1021C000521CC2F30B02042A01D2042022E0B0FB0D
:1021D000F1F0401CC0F30B001CE0A268F2B301EB6D
:1021E000C10303EB0116431EB3FBF6F35B1C43F480
:1021F00080431B0549D092B301EBC10202EB0111F0
:10220000401EB0FBF1F0401CC0F30B0040F48040D6
:1022100040F400402168CA694CF6FF739A431043AA
:10222000C861D4E9071001432068026822F0C002A7
:1022300011430160D4E9030101432068826848F238
:10224000FF339A4311438160D4E9051001432068AC
:10225000C26822F0FF021143C16001E00EE016E007
:102260002068016841F0010101602564202084F8A4
:102270003D00256384F83E50002070BD01EB41060F
:10228000431EB3FBF6F35B1CB3E70120C2E701EB8F
:102290004101401EB0FBF1F0401CC0F30B00B7E75A
:1022A000A086010080841E0000093D0040420F000E
:1022B0002DE9F84F984617468A460446DDF82890DF
:1022C000FFF7ECFE054694F83D00202875D1192350
:1022D00001226C492046009501F014FE0028F5D13A
:1022E00094F83C00012868D0012084F83C00206864
:1022F0000168C90703D1016841F00101016020684C
:10230000016821F400610160222084F83D00102062
:1023100084F83E00002626646762A4F82A80608D57
:1023200020855948E0622B464A465146204601F036
:10233000FFFC002878D1208D544F68B1012814D0BB
:1023400002282068016816D041F48061016020688D
:1023500041698069009087E0206841698169009146
:10236000016841F4007101607EE02068016821F499
:1023700080610160F0E721F48061016020680168FC
:1023800041F40061E2E7032848D801280AD0022876
:1023900014D04B46002239462046009501F0B2FD8C
:1023A000D8BB27E02A464946204601F02BFEA0BBB9
:1023B00020680069616A08704DE061E04B460022C8
:1023C00039462046009501F09DFD30BB206801682C
:1023D00041F40071016020680069616A0870606AF8
:1023E000401C6062218D491E2185618D491E6185D9
:1023F00021682EE02068016821F480610160206876
:102400000069616A0870606A401C6062208D401E2D
:102410002085608D401E6085D0E705E02A4649464C
:10242000204601F0EFFD10B10120BDE8F88F2068D3
:102430000069616A0870606A401C6062218D491EF3
:102440002185618D491E618521684A69D243520701
:102450000AD409690170606A401C6062208D401EC8
:102460002085608D401E6085208D00288BD1202026
:1024700084F83D0084F83E6084F83C600020D4E796
:102480000220D2E7020010000000FFFF040001005C
:102490002DE9F84F1F4690468A460446DDF82890FD
:1024A000FFF7FCFD054694F83D0020287FD1192355
:1024B000012240492046009501F024FD002876D1F4
:1024C00094F83C00012872D0012084F83C00206878
:1024D0000168C90703D1016841F00101016020686A
:1024E000016821F400610160212084F83D00102082
:1024F00084F83E0000262664C4F824806785608D39
:1025000020852D48E0622B464A465146204601F080
:1025100085FC90B9206841698069009036E02A46C0
:102520004946204601F0A3FD50B1206C042804D197
:102530002068016841F4007101600120BDE8F88F56
:10254000606A216800780861626A521C6262608D6C
:10255000401E6085208D401E80B2208521684B6919
:10256000DB435B070BD450B110780861606A401CF4
:102570006062608D401E6085208D401E20852A4649
:102580004946204601F098FC0028CED1208D002835
:10259000C5D154F83D0B016841F400710160202061
:1025A00004F81E09E67766770020C7E7FFE70220F8
:1025B000C4E70000020010000000FFFF10B586B065
:1025C000044614216846FDF7B9FE13492068884285
:1025D0001FD11248016841F02001016000681221FA
:1025E00000F0200005900320CDE900010121CDE994
:1025F00002100420049069460948FFF761FC07486F
:102600001030016841F480010160006800F480002E
:10261000059006B010BD0000005800403038024060
:1026200000140240024881680278114481607047BA
:10263000B00000200B4810B5016841F40071016042
:10264000016841F480610160016841F480710160BA
:10265000032000F08DF8002000F006F800F03EF8AE
:10266000002010BD003C024010B5014688B0002299
:10267000362000F05DF8362000F04CF813480024B6
:10268000016841F010010160006805A900F0100028
:102690000690684600F050F900F06EF90C494000D1
:1026A000B0FBF1F10C480B4A491E026040F2E732E0
:1026B000C0E90324C0E9011400F002FD10B10120BB
:1026C00008B010BD044800F035FDF9E7403802407D
:1026D00040420F0000100040181200200C4882B049
:1026E000016841F480410160006800F4804000907E
:1026F0000748001F016841F0805101600068002216
:1027000000F0805000900F21901E02B000F010B831
:1027100044380240002809DB00F01F0201219140EB
:102720004009800000F1E020C0F80011704700006F
:10273000F0B40E4B1B68C3F30223C3F10704042C4F
:1027400000D904241D1D072D01D2002300E0DB1E4B
:10275000012606FA04F56D1E0D409D409E40761E32
:10276000164045EA0601F0BC02F096BF0CED00E011
:10277000064A00F0070110684FF6FF03184040EAD0
:102780000120034908431060704700000CED00E091
:102790000000FA052DE9F8431748016841F080511F
:1027A00001600068DFF8548000F08050012700903D
:1027B000C8F84070FFF772FC04464FF47A75104E6B
:1027C00004E0FFF76BFC001BA8420DD87068C00343
:1027D000F7D5C8F84470FFF761FC044607E0FFF73F
:1027E0005DFC001BA84202D90320BDE8F883706895
:1027F0008003F4D50020F8E74038024000000E4284
:10280000007000402DE9F0470D46040065D0DFF868
:102810001491D9F80000EFB200F00F00A84207D2DF
:1028200089F80070D9F8000000F00F00A84254D1D8
:1028300020683D4E810712D5400703D5306840F42B
:10284000E05030602078000703D5306840F46040E5
:1028500030603068A16820F0F000084330602078D4
:10286000C0072DD0304960680839012812D00228ED
:1028700013D0032811D00968890700292DDA31689F
:1028800021F0030101433160FFF708FC804641F26B
:10289000883A0EE009688903EFE709688901ECE7E7
:1028A000FFF7FCFBA0EB0801514502D90320BDE86E
:1028B000F0873068616800F00C00B0EB810FEFD159
:1028C000D9F80010484601F00F01A94207D9077056
:1028D000006800F00F00A84201D00120E7E720784F
:1028E000400705D53068E16820F4E05008433060C7
:1028F0002078000706D53068216920F4604040EA5E
:10290000C100306000F058F83168084AC1F3031183
:10291000515CC8400649086006480068FFF7A4FEFD
:102920000020C4E7003C024008380240EC8F000859
:1029300000000020B40000200F2202600C4A13683F
:1029400003F003034360136803F0F003836013682C
:1029500003F4E053C36012684FF4E05303EAD20279
:1029600002610448006800F00F0008607047000032
:1029700008380240003C02400448054900680968E4
:10298000044AC1F38221515CC84070470000002016
:1029900008380240FC8F00080448054900680968AF
:1029A000044AC1F34231515CC84070470000002026
:1029B00008380240FC8F0008154810B5006810F078
:1029C0000C01144813D0144B04290FD008290ED140
:1029D0000F4C241F216801F03F022168490207D5EE
:1029E0002068C0F38810A0FB030106E0184610BD64
:1029F0002168C1F38811A1FB00010023FDF754FCFD
:102A00002168C1F30141491C4900B0FBF1F010BD40
:102A1000083802400024F400001BB7002DE9F84FED
:102A2000040075D02078DFF828A3C007AAF10405B8
:102A300048D00AF104000168C1F38101012908D0DE
:102A40000068C0F3810002280AD1DAF800004002D1
:102A500006D52868800335D560680028E1D031E0CC
:102A60006068B0F5803F10D0B0F5A02F286810D076
:102A700020F480302860286820F480202860606876
:102A8000A0B1FFF70BFB06460CE0286840F480304D
:102A9000F4E740F480202860F7E7FFF7FFFA801B97
:102AA000642871D828688003F7D50BE0FFF7F6FAA1
:102AB000064604E0FFF7F2FA801B6428F1D8286884
:102AC0008003F7D42078DFF88C9280074FF0000B5A
:102AD0003DD59F48001D016811F00C0F08D000681B
:102AE000C0F3810002280AD1DAF80000400206D4BF
:102AF0002868800715D5E068012809D111E0E06851
:102B0000B8B10121C9F80010FFF7C8FA064605E080
:102B10001AE1FFF7C3FA801B0228C2D82868800791
:102B2000F7D52868216920F0F80040EAC100286044
:102B30000DE0C9F800B0FFF7B1FA064604E0FFF770
:102B4000ADFA801B02281FD828688007F7D42078A8
:102B5000000722D57E4F80486169703771B101212D
:102B60000160FFF79BFA064604E0FFF797FA801B27
:102B7000022809D838688007F7D50EE0C0F800B001
:102B8000FFF78CFA064605E082E0FFF787FA801B24
:102B900002287DD838688007F7D42078400765D5AB
:102BA0006B484FF000083C300068C0000BD4684808
:102BB0003C30016841F08051016000684FF001082D
:102BC00000F080500090654F3868C0050FD4386819
:102BD00040F480703860FFF761FA064604E0FFF7C2
:102BE0005DFA801B022853D83868C005F7D5584FC6
:102BF000A0686C3701280FD00528386810D020F065
:102C000001003860386820F004003860A068B0B176
:102C1000FFF744FA06460EE0386840F00100F4E79A
:102C200040F004003860F7E7FFF738FA811B41F203
:102C30008830814263D838688007F5D50DE0FFF70A
:102C40002DFA064606E0FFF729FA811B41F288308B
:102C5000814254D838688007F5D4B8F1000F05D008
:102C60003B483C30016821F080510160A069B8B355
:102C70003749091D0968C1F38101022946D002289C
:102C8000584606D0C9F86000FFF708FA044639E054
:102C900035E04F46C9F86000FFF700FA064604E049
:102CA000FFF7FCF9801B022829D828688001F7D497
:102CB000D4E907010843A16A294A490802EB014106
:102CC000626A41EA8211084394F82C1040EA0161DB
:102CD000CAF8001001203866FFF7E0F9044605E065
:102CE00034E0FFF7DBF9001B022808D828688001D0
:102CF000F7D52BE0FFF7D2F9001B022802D90320F9
:102D0000BDE8F88F28688001F4D41FE00128F7D0CF
:102D1000DAF80000E26900F48001914214D1226ADD
:102D200000F03F0191420FD147F6C071626A014045
:102D3000914209D1A26A00F44031914204D1E16A82
:102D400000F07060884201D00120D9E70020D7E769
:102D50000438024000004742800E474200700040A5
:102D60000000FFFF70B5040005D00025A56294F8AF
:102D7000510010B106E0012070BD84F8505020468B
:102D800000F030F8022084F851002068016821F03A
:102D900040010160D4E901010843D4E90312114361
:102DA000084361690843218B01F400710843E1691C
:102DB0000843216A0843A16A084321680860A069A2
:102DC000042101EA1040616A0843216848602068D4
:102DD000C16921F40061C1616565012084F8510079
:102DE000002070BD10B586B0044614216846FDF77A
:102DF000A5FA14492068884221D1134800210268AD
:102E000042F480120260006800F4801005900E48C1
:102E10001438026842F020020260006800F02000CE
:102E200005904FF4607000900220CDE9010103206D
:102E300003900520049069460448FFF741F806B066
:102E400010BD000000500140443802400014024010
:102E50002DE9F84F044690F8500001250A9E1F46C0
:102E600092468B464FF0000801280ED0012084F8CE
:102E70005000FFF713F9814694F85100616801286A
:102E80000CD0B1F5827F07D102E00220BDE8F88FB7
:102E9000A16809B9042801D00220B6E0BBF1000FF7
:102EA00027D0BAF1000F24D01FB394F851000428A2
:102EB00002D0052084F8510000206065C4F838A0D5
:102EC000E787A787C4F830B0E786A78620646064E8
:102ED00020680168490603D4016841F0400101609F
:102EE000E068B0F5006F606805D0E8B3012F43D00B
:102EF00079E0012089E008B1012F34D1206B2168ED
:102F00000088C860206B801C2063E08E401EE08635
:102F100029E02068816889070DD5E18E59B1012D1E
:102F200009D1216B0988C160206B801C2063E08E71
:102F3000401EE086002520688168C9070BD0E18F1C
:102F400049B1C068A16B0880A06B801CA063E08FB2
:102F5000401EE0870125FFF7A1F8A0EB0900B04271
:102F600001D3701C50D100E006E0E08E0028D0D1E3
:102F7000E08F0028CDD13CE0206B216800780873F9
:102F8000206B401C2063E08E401EE0862BE0206812
:102F9000816889070DD5E18E59B1012D09D1216BC9
:102FA00009780173206B401C2063E08E401EE08690
:102FB000002520688168C9070BD0E18F49B1C0683E
:102FC000A16B0870A06B401CA063E08F401EE087DF
:102FD0000125FFF763F8A0EB0900B04202D3701C93
:102FE00001D011E086B1E08E0028D0D1E08F00281A
:102FF000CDD14A463146204601F0E2FC38B12020CE
:103000004FF00108606508E00320804605E0A068F5
:1030100018B92068C16880680090012084F85100C8
:10302000002084F85000404630E7704770470000A9
:1030300070B590F83C20012A32D0012580F83C5030
:10304000022280F83D2002685368946823F07006DD
:103050000B6833435360134B02689A4214D0B2F1A9
:10306000804F11D0104B9A420ED0104B9A420BD089
:103070000F4B9A4208D00F4B9A4205D00E4B9A4202
:1030800002D00E4B9A4204D1496824F080031943C0
:10309000916080F83D50002180F83C10084670BDDA
:1030A000022070BD00000140000400400008004004
:1030B000000C0040000401400040014000180040A6
:1030C00010B5040003D094F83D0010B107E00120D2
:1030D00010BD002084F83C00204600F00DF80220CE
:1030E00084F83D00211D206801F034FF012084F8A0
:1030F0003D00002010BD000008B500680B49884263
:1031000012D10B48016841F02001016000680022E3
:1031100000F02000009005213720FFF709FBBDE8F3
:1031200008403720FFF7F6BA08BD00000014004041
:10313000403802400168CA6842F00102CA60006873
:10314000816801F00701062903D0016841F00101FF
:10315000016000207047704770B50446006801693F
:103160004FF00005C943890715D4C168C9438907D1
:1031700011D4E91E01610120207720688069800751
:10318000204602D0FFF7E7FF04E000F007F92046F1
:1031900000F0B8F9257720680169C943490717D4B9
:1031A000C168C943490713D46FF0040101610220CB
:1031B00020772068806910F4407F204602D0FFF716
:1031C000CAFF04E000F0EAF8204600F09BF92577FA
:1031D00020680169C943090716D4C168C9430907B2
:1031E00012D46FF008010161042020772068C069C3
:1031F0008007204602D0FFF7AEFF04E000F0CEF8D3
:10320000204600F07FF9257720680169C943C90687
:1032100017D4C168C943C90613D46FF01001016106
:10322000082020772068C06910F4407F204602D033
:10323000FFF791FF04E000F0B1F8204600F062F9DA
:10324000257720680169C943C90708D1C168C94306
:10325000C90704D1891E0161204600F077F9206872
:103260000169C943090609D4C168C943090605D4DF
:103270006FF0800101612046FFF7D7FE20680169E9
:10328000C943490609D4C168C943490605D46FF04A
:1032900040010161204600F0D3F920680169C9436B
:1032A00089060BD4C168C943890607D46FF0200191
:1032B00001612046BDE87040FFF7B8BE70BD000058
:1032C00030B587B0044614216846FDF737F82B4A1D
:1032D000216800242A48022591420FD1016841F05B
:1032E000080101600068694600F0080005904FF48D
:1032F00070400090CDE90154224823E0224A9142D7
:1033000026D1016841F480710160016801F4807187
:103310000591016841F0800101600068694600F094
:103320008000059001200090CDE901541748CDE9B7
:103330000345FEF7C5FD4FF4E0500090CDE9015480
:1033400013486946CDE90345FEF7BAFD07B030BD25
:10335000104A9142FAD1016841F010010160006801
:10336000694600F01000059060200090CDE90154FE
:103370000320CDE903400848E6E7000000080040CC
:1033800030380240000C0240000C00400020024097
:10339000001C02400040014000100240704770B520
:1033A000044690F83C000D4601280DD0012684F813
:1033B0003C60022084F83D0042B1042A18D0082A5B
:1033C0002AD00C2A4DD139E0022070BD206801F0CE
:1033D00033FE2068816941F00801816120688169BC
:1033E00021F004018161206881692A69114311E09B
:1033F000206801F051FE2068816941F4006181611B
:103400002068816921F480618161206881692A696D
:1034100041EA0221816124E0206801F073FE206806
:10342000C16941F00801C1612068C16921F004014E
:10343000C1612068C1692A69114311E0206801F067
:1034400095FE2068C16941F40061C1612068C169CD
:1034500021F48061C1612068C1692A6941EA0221C1
:10346000C16184F83D60002084F83C0070BD10B557
:10347000040003D094F83D0010B107E0012010BD16
:10348000002084F83C00204600F00CF8022084F86C
:103490003D00211D206801F05DFD012084F83D0004
:1034A000002010BD08B50068124A1349904207D1A8
:1034B000086840F004000860086800F0040009E0B3
:1034C0000E4A904208D1086840F008000860086879
:1034D00000F00800009008BD09498842FBD1064869
:1034E000001D016841F480310160006800F4803003
:1034F000F0E700000008004040380240000C0040A7
:10350000004001407047000010B5044600680122E9
:1035100001F084FD0B482168814202D00A488142B3
:1035200003D1486C40F4004048642068816801F091
:103530000701062903D0016841F001010160002064
:1035400010BD0000000001400004014038B50446F1
:1035500000683249884257D13148324D017A0129F9
:1035600005D0022909D0032931D079B34CE02E4986
:1035700091EC050A05F054F91DE0B0F90210DFEDF9
:103580002B0A00EE101AB0F90410DFED291AB8EE7C
:10359000C00AB0F9060080EE201A00EE101AB8EE4C
:1035A000C00AC0EE210A00EE100AB8EEC02A82EE70
:1035B000210A01F07BFAD5ED0C1A95ED0A1AD5ED2A
:1035C000080A95ED060A04F079FF1DE0FFE70025E3
:1035D0002B462A4629461748009505F08FF9002307
:1035E0001A4619461348009505F066F900231A4655
:1035F00019461148009505F081F900231A4619462D
:103600000D48009505F058F90C492068884203D10F
:10361000BDE83840FFF706B838BD00000014004090
:10362000EE1E002074080020D01600200000254463
:1036300000007A43FC0C0020240D00200010004004
:10364000704710B504460068416994F83920C1F309
:10365000C011212A0BD151B1416921F08001416192
:10366000206B08B1FEF72DFA204601F027FE2068F6
:10367000416994F83A20C1F38011222A0BD151B14B
:10368000416921F040014161606B08B1FEF719FA10
:10369000204601F005FE002010BD704770B502689D
:1036A00004461068D168536910F00F0F52D003F030
:1036B000010501F490762E435FD0C20705D0CA05FC
:1036C00003D5E26B42F00102E263420705D5DA0757
:1036D00003D0E26B42F00202E263820705D5DA070B
:1036E00003D0E26B42F00402E263020707D501F067
:1036F00020022A4303D0E26B42F00802E263E26B4D
:10370000002A33D0800604D5880602D5204601F071
:10371000DEFD20684069E16BC0F38010090700D42A
:1037200028B3204601F0BCFD2068416949061AD53E
:10373000416921F040014161606BA0B11B49016505
:10374000606BFEF705FA002810D0606B016DBDE8D4
:1037500070400847830610D58B060ED52046BDE87D
:10376000704001F0B4BD2046FFF797FF70BD2046C2
:10377000FFF793FF0020E06370BD030606D50B063C
:1037800004D52046BDE8704001F080BE4006F3D568
:103790004806F1D5D168204621F04001D1602021B2
:1037A00084F8391000F0AAFA70BD0000C951000871
:1037B00070B5040004D094F83900002510B106E07B
:1037C000012070BD84F83850204600F023F82420F2
:1037D00084F839002068C16821F40051C160204696
:1037E00001F0C0FD2068016921F490410161206869
:1037F000416921F02A0141612068C16841F400510A
:10380000C160E563202084F8390084F83A00002084
:1038100070BD00002DE9F04F87B0044614216846C2
:10382000FCF78CFDB248B14ED4F800C0B04B103854
:103830000321022200254FF0010EB4451FD11C6860
:1038400044F000441C601B6803F0004305930368C8
:1038500043F010030360006800F0100005908DE84D
:1038600006400820CDE903106946A248FEF728FB70
:10387000002205215320FEF75BFF53204CE0DFF8C8
:103880007882DFF86CB24FF48067BE010BF1040B55
:103890004FF007094FF4807AC44542D1DBF800C0ED
:1038A0004CF0100CCBF800C0DBF8003003F0100334
:1038B0000593036843F002030360006800F0020010
:1038C0000590CDE90319C0208DE8054069468B4875
:1038D000FEF7F6FADFF82C8289494046C8F8001056
:1038E000F102C0E90115C0E90357C8F82060C8F823
:1038F0001450C8E9065AC8F82450FEF70BFA08B16C
:10390000FDF79DFAC4F83480002205212520C8F86F
:103910003840FEF70DFF2520FEF7FCFE07B0BDE89E
:10392000F08FDFF8E481DFF8E4E1C4455DD1D3F83E
:1039300000C0AB464CF4003CC3F800C01B6803F465
:1039400000330593036843F0080303600068CDE982
:10395000025100F0080005906020CDE90002CDF88A
:10396000109069467046FEF7ABFADFF89891684907
:1039700009F1600948464FF00068C9F80010C0E935
:103980000185C0E90357C9F82060C9F81450C9E996
:10399000065AC9F82450FEF7BDF908B1FDF74FFAF1
:1039A000584D5B48C4F83490C0351830C9F83840D9
:1039B000C5E900084020A860C5E903B7C5F814B000
:1039C000C5F818B0C5E907B62846C5F824B0FEF713
:1039D000A1F908B1FDF733FA25630022052126205D
:1039E000AC63FEF7A5FE262096E7DFF82881C445E4
:1039F0001CD11C6844F480241C601B6803F48023E1
:103A00000593036843F0080303600068CDE90251A1
:103A100000F0080005904FF44070CDE90002CDF8A9
:103A2000109069467046FEF74BFA77E73A4B9C4593
:103A3000FBD1DBF800C04CF0200CCBF800C0DBF869
:103A4000003003F020030593036843F04003036054
:103A5000006800F0400005904FF484408DE8250098
:103A60000820CDE9031069462C48FEF729FA2449BD
:103A7000DFF8AC80183940464FF0206BC8F80010D2
:103A8000C0E901B5C0E90357C8F82060C8F8145070
:103A9000C8E9065AB946C8F82450FEF73BF908B100
:103AA000FDF7CDF91E4F1648C4F8348060376030FA
:103AB000C8F83840E7E8020B4020A7E82102184880
:103AC00047F814596030BD61C7E907567D62FEF7BB
:103AD00021F908B1FDF7B3F927630022052147203A
:103AE000BC63FEF725FE472016E70000007C00407F
:103AF0004038024000100240001001400004024023
:103B0000406402403810002000440040000C024095
:103B10008860024000480040001401400018024044
:103B20005811002037B5044690F83A0082B0134689
:103B300020283AD1039AAAB3A3B394F838000128F5
:103B400033D0012084F83800A262A3850025E56304
:103B5000222084F83A00616B1548C863616B1548F0
:103B60000864616B1448C864606B05652168606B0C
:103B7000091DFEF75CF9206801684168009184F82E
:103B80003850C16841F48071C1602068416941F0DA
:103B9000010141612068416941F04001416100201B
:103BA00005B030BDFFE70120FAE70220F8E700008A
:103BB000235200085F520008D9510008704770472F
:103BC0002DE9F843044690F839001E4617460D4685
:103BD000202850D1B5B1AFB194F8380001284AD0AF
:103BE000012084F838004FF00008C4F83C80212000
:103BF00084F83900FEF752FAA7848146E78484F8F6
:103C0000388026E00120BDE8F883E08C401EE08487
:103C1000A0684B46B0F5805F4FF000024FF0800186
:103C20002046009603D001F062FCE8B90DE001F0F7
:103C30005EFCC8B928882168C0F308004860206984
:103C400008B16D1C05E0AD1C03E0216815F8010BFF
:103C50004860E08C0028D8D14B4600224021204605
:103C6000009601F044FC08B10320CCE7202084F842
:103C700039000020C7E70220C5E70000F7B5044679
:103C800090F83900202831D1019969B362B394F8D2
:103C9000380001282AD0012084F838002162A2844B
:103CA000E2840025E563212084F83900236B104865
:103CB000D863236B0F481864236B0F48D864206BBC
:103CC000134605652668206B321DFEF7B0F82168A3
:103CD0006FF04000086084F838502068416941F076
:103CE000800141610020FEBD0120FEBD0220FEBD1D
:103CF0006952000897520008D95100087047704770
:103D0000FEE701684A69D24352050FD46FF480621E
:103D10004A61002140F8301F2022427381730269FA
:103D200042F00402026101730120704700207047D5
:103D30002DE9F84F0446C06A1D4693460F46216898
:103D40000A6842F480620A60082807D0012805D07A
:103D500010F5803F02D0206B112804D12068016843
:103D600041F4807101604FF001195B460022494621
:103D70002046009500F0C6F84FF4007840B1206866
:103D80000068C00501D5C4F840800320BDE8F88F65
:103D90002069DFF884A0B0F5804F0FD0062021689D
:103DA00000EAD71646F0F00008612B465A460AF1A1
:103DB0000601204600F0DAF858BB03E0F8B240F004
:103DC00001001CE02168F8B208612B465A465146B2
:103DD000204600F0CBF8E0B9206841698169009184
:103DE000016841F4807101605B460022494620462B
:103DF000009500F087F80028C1D146F0F100216855
:103E000008612B465A465146204600F0AFF800287C
:103E1000BCD00120BAE7000002000100F8B504465A
:103E2000C06A1E460D461746082807D0012805D04F
:103E300010F5803F02D0206B122804D12068016861
:103E400041F480710160134600224FF001112046B9
:103E5000009600F057F840B120680068C00502D510
:103E60004FF4007020640320F8BD2069B0F5804F46
:103E70000ED00620216800EAD51040F0F00008615D
:103E800033463A460B49204600F070F878B902E014
:103E900005F0FE0000E0E8B22168086105493346FC
:103EA0003A46891F204600F061F80028DCD0012046
:103EB000F8BD00000800010070B516460D46044626
:103EC0000DE02046FFF71DFF08B1012070BD681C02
:103ED00005D0FEF7E3F8801BA84207D835B120686B
:103EE0004069C0434007ECD4002070BD002044F876
:103EF000300F20216173A073216941F020012161FD
:103F00002073E2E72DE9F0471D4690460E46044631
:103F1000C1F30747DDF8209008E0681C06D0FEF7E3
:103F2000BDF8A0EB0900A8420FD875B12068012F99
:103F300018D0806926EA00000004000C14D000208C
:103F40004045EAD00020BDE8F087002044F8300F5B
:103F500020216173A073216941F020012161207348
:103F60000120F0E74069E5E70120E9E72DE9F047A6
:103F7000984615460E4604464FF000094FF0200AB9
:103F8000C1F3074723E020684069C043400515D4CA
:103F90002068016841F40071016021686FF480605D
:103FA0004861C4F8309084F83DA084F83E90216CBC
:103FB00041F00401216484F83C901EE0681C06D0A6
:103FC000FEF76CF8A0EB0800A8420AD84DB12068B3
:103FD000012F15D0806926EA00000004000C0DD0E6
:103FE000D1E744F8309F84F80DA084F80E90216941
:103FF00041F02001216184F80C900120BDE8F08798
:104000004069E8E72DE9F04116460D4604460027D1
:104010004FF0200817E04069C043C0060DD454F8A3
:10402000301B6FF01000486144F80D7B04F81D89C7
:10403000A777206A2062277717E0FEF72FF8801B0A
:10404000A84208D83DB120684169C9434906E2D475
:104050000020BDE8F08144F8307F84F80D80A7731C
:10406000206940F02000206127730120F1E770B53E
:1040700016460D4604460DE02046FFF742FE08B105
:10408000012070BD681C05D0FEF708F8801BA8420F
:1040900007D835B120684069C0430006ECD4002041
:1040A00070BD002044F8300F20216173A073216996
:1040B00041F0200121612073E2E700000B484FF43A
:1040C000A5719FED0B0A016080ED020A9FED090AC0
:1040D000042180ED030A9FED080A80ED040A9FED9C
:1040E000070A80ED050A416070470000740800204F
:1040F0000000C842000000000000FA437EEAAB3E28
:104100007FB500241B48009401940294184903943D
:10411000016001254FF480310561C0E90114057685
:1041200080F820401449C0E90A140226C661C46020
:1041300080F830504561FCF73AFF08B1FCF77FFE8C
:104140000A20CDE90005694602940A48FCF77AFE88
:1041500008B1FCF774FE0B20CDE90006694605485E
:10416000FCF770FE002801D0FCF769FE7FBD00005F
:1041700000200140540C00200100000F0F4810B532
:104180000D4901600521416000214FF4003281603A
:10419000C0E9031252014261017601224276817622
:1041A000C17601774177FDF7A2FA002803D0BDE878
:1041B0001040FCF744BE10BD00640040FC0C002021
:1041C0000F4810B50D4901600521416000214FF4F1
:1041D00000328160C0E9031252014261017601227E
:1041E00042768176C17601774177FDF780FA002823
:1041F00003D0BDE81040FCF722BE10BD00680040AF
:10420000240D0020214808B5016841F480010160B7
:10421000016801F480010091016841F4001101601E
:104220000068002200F40010009005211020FEF725
:104230007FFA1020FEF76EFA002205211120FEF70A
:1042400077FA1120FEF766FA002205213820FEF7E2
:104250006FFA3820FEF75EFA002205213920FEF7BA
:1042600067FA3920FEF756FA002205213A20FEF7B8
:104270005FFA3A20FEF74EFA002205214520FEF7AC
:1042800057FABDE808404520FEF744BA30380240EE
:1042900010B59CB01C2216496846FCF736F8002180
:1042A000684603F0C8FC134C11491C22E0601C3125
:1042B00007A8FCF72AF8002107A803F0BCFC0C496A
:1042C00020611C2238310EA8FCF71FF800210EA82F
:1042D00003F0B1FC064960611C22543115A8FCF7BB
:1042E00014F8002115A803F0A6FCA0611CB010BDB5
:1042F00004900008180000202DE9F04F87B0142129
:104300006846FCF71BF870480024016841F0100172
:104310000160016801F010010591016841F0400160
:104320000160016801F040010591016841F0080158
:104330000160016801F008010591016841F0010187
:104340000160016801F001010591016841F002017D
:104350000160016801F002010591016841F480717A
:104360000160016801F480710591016841F020014C
:104370000160016801F020010591016841F08001B0
:104380000160016801F080010591016841F00401BC
:1043900001600068002200F00400059088214B486D
:1043A000FDF776FE012241F204014848FDF770FE58
:1043B000DFF81C914FF40056002231464846FDF7C5
:1043C00067FEDFF810A13711002239465046FDF78D
:1043D0005FFEDFF804B101223C215846FDF758FE8C
:1043E00044F24008002241463C48FDF751FE0022BD
:1043F00030213B48FDF74CFE8C2000900125CDE993
:104400000154694631480394FDF75AFD0096CDE901
:104410000154694648460394FDF752FD8020CDE9DA
:10442000000469462F480294FDF74AFD10208DE8EC
:10443000310069462548FDF743FD0097CDE9015459
:10444000694650460394FDF73BFD3C260096CDE9B6
:104450000154694658460395FDF732FDCDF80080BA
:10446000CDE9015469461D480394FDF729FDA802D2
:104470008DE8310069461948FDF722FD009669462E
:104480001948CDE90145FDF71BFD0D2000901748A7
:10449000CDE9010469461248FDF712FD3020009075
:1044A000CDE9015469460E480394FDF709FD280340
:1044B000CDE900050220CDE9024069460348FDF739
:1044C000FFFC07B0BDE8F08F30380240001002401A
:1044D0000018024000200240001C0240001402406C
:1044E00000000240000C02400008024000001110D1
:1044F000144810B5124901601349416000214FF47E
:1045000080428160C0E9031241618161C161016241
:10451000FDF70AFE08B1FCF792FC00210948FDF7FF
:10452000C3FD08B1FCF78BFC00210648FDF7DDFD5B
:10453000002803D0BDE81040FCF781BC10BD00008E
:10454000005800404C0D0020A0860100104810B516
:104550000E4901604FF48271416000218160C160A9
:104560004FF400720161C0E905123022C0E9072151
:10457000416281620A21C162FEF7F4FB002803D088
:10458000BDE81040FCF75BBC10BD000000500140CE
:10459000A00D002010B58AB0002407941C216846A5
:1045A0000894FBF7CBFE2248204901605921C0E95D
:1045B000011444F62061C0E903148461FEF757FF3B
:1045C00008B1FCF73CFC079407A919480894FEF7CA
:1045D0002FFD08B1FCF733FC6020CDE90004029404
:1045E0000022694612480494FEF7D9FE08B1FCF790
:1045F00026FC042269460E48FEF7D1FE08B1FCF7FE
:104600001EFC082269460A48FEF7C9FE08B1FCF7FD
:1046100016FC0C2269460648FEF7C1FE08B1FCF7FD
:104620000EFC0348FEF74CFE0AB010BD0008004027
:10463000F80D002010B58AB0002407941C216846AC
:104640000894FBF77BFE2248204901605921C0E90C
:10465000011444F62061C0E903148461FEF707FFEA
:1046600008B1FCF7ECFB079407A919480894FEF77A
:10467000DFFC08B1FCF7E3FB6020CDE90004029405
:104680000022694612480494FEF789FE08B1FCF73F
:10469000D6FB042269460E48FEF781FE08B1FCF7FE
:1046A000CEFB082269460A48FEF779FE08B1FCF7FE
:1046B000C6FB0C2269460648FEF771FE08B1FCF7FE
:1046C000BEFB0348FEF7FCFD0AB010BD000C004025
:1046D000380E00201CB500240E4800940C490194AB
:1046E00001605921C0E9011441F288318461C1603F
:1046F000FEF7E6FC08B1FCF7A2FB0094694605480A
:104700000194FEF795FC002801D0FCF798FB1CBD36
:1047100000140040780E002010B588B01C216846B7
:10472000FBF70CFE16481549002401605921C0E929
:10473000011444F62061C0E903148461FEF797FE7A
:1047400008B1FCF77CFB6020CDE900040294002254
:1047500069460B480494FEF722FE08B1FCF76FFB94
:10476000042269460648FEF71AFE08B1FCF767FB0B
:104770000348FEF7A5FD08B010BD00000040014051
:10478000B80E00200C4810B50A4901604FF4E13121
:104790004160002181600C22C160C0E90412816186
:1047A000C161FFF705F8002803D0BDE81040FCF711
:1047B00046BB10BD007C0040F80E00200D4810B52F
:1047C0000B4901600C49416000214FF48062816017
:1047D000C0E903120C22C0E90521C161FEF7E8FF20
:1047E000002803D0BDE81040FCF729BB10BD000035
:1047F00000100140380F0020A08601000C4810B5C1
:104800000A4901604FF416514160002181600C2279
:10481000C160C0E904128161C161FEF7C9FF0028CF
:1048200003D0BDE81040FCF70ABB10BD00440040B7
:10483000780F00200C4810B50A4901604FF4E131AF
:104840004160002181600C22C160C0E904128161D5
:10485000C161FEF7ADFF002803D0BDE81040FCF7B2
:10486000EEBA10BD00480040B80F00200C4810B54B
:104870000A4901604FF4E1314160002181600C225E
:10488000C160C0E904128161C161FEF791FF002897
:1048900003D0BDE81040FCF7D2BA10BD00140140AF
:1048A000F80F0020FEE7704710B504462DED028B8F
:1048B0000021B0EE408A084603F084FAB0EE480AC0
:1048C00003F0FCF92046FBF7DDFE9FED331B53ECB4
:1048D000112BFBF7E5FD9FED321B53EC112BFBF782
:1048E00038FDFBF7DCFE044602460021084603F0D3
:1048F00045FA22460021012003F040FA2246002119
:10490000022003F03BFA22460021032003F036FA8E
:1049100022460021042003F031FA2246002105201E
:1049200003F02CFA22460021062003F027FA224643
:104930000021072003F022FA22460021082003F07C
:104940001DFA22460021092003F018FA2246002110
:104950000A2003F013FA224600210B2003F00EFA7E
:10496000224600210C2003F009FA224600210D20E6
:1049700003F004FA224600210E2003F0FFF922463C
:1049800000210F2003F0FAF9BDEC028B4FF4FA700E
:10499000BDE81040FDF782BA33333333333303407D
:1049A000000000000020624030B4034C4466034C19
:1049B000846630BC03F0FABAAD7F0008BB7F000804
:1049C00038B504461248134D4FF47A730068B0FBB3
:1049D000F5F0584300906068B0F5827F0DD10B462A
:1049E000009200228021204600F016F870B1606D20
:1049F00040F020006065032038BD009830B1401EB3
:104A0000009020688068C0430006F6D5002038BDBD
:104A10000000002000366E012DE9F0411D461746CA
:104A20000E460446DDF8188008E0681C06D0FDF745
:104A300035FBA0EB0800A8420BD255B12068806876
:104A400036EA000030D00020B842EED10020BDE8A8
:104A5000F0812068416821F0E00141606068B0F5B4
:104A6000827F0BD1A068B0F5004F02D0B0F5806F07
:104A700004D12068016821F040010160A06AB0F50E
:104A8000005F09D12068016821F4005101602068AD
:104A9000016841F400510160012084F851000020B8
:104AA00084F850000320D2E70120CDE710B5DFEDF8
:104AB000231A234C234820EE210A2DED028B60EEB1
:104AC000A10A21EE211A94ED022AF6EE001AD4ED85
:104AD000032A22EE212A02EEA12AF3EE031A60EE47
:104AE000A10A22EE011A20EE212A94ED050A80EE99
:104AF000808AC2EE008AC1EE000A90ED060A1248D2
:104B000003F072F9F2EE0E0A20EE200A78EEC80ADF
:104B100030EE801A70EEC00A84ED061A38EE881A5C
:104B200071EE401A31EE000AC4ED081AC4ED0A0A0B
:104B300084ED0C0ABDEC028B10BD00000000704239
:104B4000740800206C160020001600202DED028B4A
:104B500086B0514803F03CF8504801F0C9FF0221EB
:104B60004D48FCF735FB02214C48FCF731FB02F0C5
:104B70000BF8FFF7A3FAFCF73FF849480068C16853
:104B800041F01001C160642246494548FEF7CAFF62
:104B900045480068C16841F01001C1606422434982
:104BA0004148FEF7BFFF9FED428A44F62064B3EE12
:104BB0000E0AB0EE481AF0EE480A234641F294126B
:104BC00004213C48FFF7F0FE41F66415B0EE481AA8
:104BD000F0EE480AB2EE040A23462A46032136487C
:104BE000FFF7E2FEB0EE481AF0EE480AB2EE040A11
:104BF00023462A4603213148FFF7D6FE38212A48AA
:104C000003F04AFC4FF47A7003F009F82C4C2D485D
:104C10002D4994ED000A80ED000A096840F69800DD
:104C200088630020294A014600EB400303EBC003E0
:104C300002EB8303401C59610828F5DB2448FEF78A
:104C400079FA00209FED230AFFF72EFEDFF8888017
:104C5000DFF888A0A146D9F80000FBF739FD064629
:104C60000F46D8F80400FBF733FD04460D46D8F88C
:104C70000000FBF72DFD41EC100B9AF8080053ECF7
:104C8000102BCDE903708DE8700015A000F0DCFC5E
:104C9000052002F0C4FFDEE7FC0C0020240D0020FC
:104CA000F80F0020C0080020780F00202409002001
:104CB0000000000000160020281500209415002098
:104CC0004800002018000020B80E002058120020D4
:104CD000780E00200000484218150020EE1E00202B
:104CE00025662025662025662025640D0A00000023
:104CF0002DED028B1E229FED2B8A2B492B48FCF7B2
:104D0000CDF9294D2A4C00260020A660666055F892
:104D100020106268401C1144C0B2616055F8201038
:104D2000A268401C1144C0B2A1601E28EFD3606885
:104D30000F21B0FBF1F06060A26800EE100AB2FB38
:104D4000F1F100EE901A9FED1B1AB8EE400AF8EE52
:104D5000600ADFED191A164820EE010A60EE810A9A
:104D6000B7EE001A243020EE210A60EEA10AA160FD
:104D700031EE481A80EC020A083821EE000AD0ED24
:104D8000001A08EE210A80ED000A21EE200AD0ED7B
:104D9000010A08EE200A80ED010A052002F03FFF1B
:104DA000B2E70000CDCCCC3D88090020540C002097
:104DB00018000020000080390000B443164D174C45
:104DC0000026174FDFF85C8002F040FD01F0C8FFBD
:104DD00002F01CFA287801280FD1227812491348D2
:104DE000FEF74CFF26702E7021780F48FBF7A6FACD
:104DF00064220D490D48FEF795FE3878012807D149
:104E000088F800603E70642209490A48FEF78AFE6D
:104E1000052002F004FFD7E7160000201400002050
:104E20001700002015000020C0080020F80F002007
:104E300024090020780F0020054C207A012802D197
:104E4000052002F0ECFE052002F0E9FEF5E7000087
:104E5000EE1E002010B5502080F31188BFF34F8F55
:104E6000BFF36F8F03F0FCFF18B104494FF080507F
:104E70000860002080F3118810BD000004ED00E000
:104E800030B593B030216846FBF758FA14210CA8CE
:104E9000FBF754FA20480025016841F08051016079
:104EA000006800F0805011901C48016841F44041B6
:104EB00001600068022400F440401190012000903D
:104EC000000401908001CDE9064006200890B4203E
:104ED000CDE9090404200B906846FDF79FFD08B159
:104EE00072B6FEE7FDF756FC08B172B6FEE70CA9F4
:104EF0000F2081E831004FF4A0500F904FF4805004
:104F0000109005210CA8FDF77DFC002801D072B699
:104F1000FEE713B030BD0000403802400070004092
:104F20000548016841F47001016003494FF00060D9
:104F3000803908607047000088ED00E00148FEF706
:104F40000BB90000181200200148FEF705B9000057
:104F5000780E0020F0B50268254D264E264FDFF86A
:104F60009CC0274B4FF0804EA84209D0704507D017
:104F7000B04205D0B84203D0604501D0984203D179
:104F800022F070044A682243A8421BD0704519D011
:104F9000B04217D0B84215D0604513D0984211D016
:104FA000184CA0420ED0184CA0420BD0174CA04277
:104FB00008D0174CA04205D0164CA04202D0164C87
:104FC000A04203D122F44074CA6822434C6922F003
:104FD0008002224302608A68C2620A688262A84232
:104FE00001D0984201D10969016301214161F0BDFD
:104FF000000001400004004000080040000C004098
:1050000000040140004001400044014000480140CC
:1050100000180040001C00400020004010B501F0C6
:105020001F010123046A8B409C430462036A8A4087
:105030001343036210BD0000F0B5026A22F00102C2
:105040000262026A43688469114E24F073050C6899
:10505000104F2C4322F002058A682A43B04201D047
:10506000B84205D122F00805CA682A4322F004029A
:10507000B04201D0B84205D14D6923F440731D43BD
:105080008B692B4343608461496841630262F0BDD0
:105090000000014000040140F0B5026A22F0100255
:1050A0000262026A436884690D6824F4E64444EAB3
:1050B00005248D6822F0200242EA05120F4D104EA1
:1050C000A84201D0B04206D1CF6822F0800242EA65
:1050D000071222F04002A84201D0B04207D14D6928
:1050E00023F4406343EA85038D6943EA8503436003
:1050F0008461496881630262F0BD000000000140E4
:1051000000040140F0B5026A22F480720262026A71
:105110004368C46922F4007224F073050C68124ECF
:105120002C438D6842EA05220E4DA84201D0B042C0
:1051300006D1CF6822F4006242EA072222F480629C
:10514000A84201D0B04207D14D6923F4405343EA4D
:1051500005138D6943EA05134360C4614968C1635F
:105160000262F0BD000001400004014030B5026A57
:1051700022F480520262036A4268C4690D6824F412
:10518000E64444EA05248D6823F4005343EA0533DA
:10519000084DA84202D0084DA84204D14D6922F41E
:1051A000804242EA85124260C46149680164036238
:1051B00030BD000000000140000401400148FEF73E
:1051C0006DBA0000F80E002010B5806B0021C1857B
:1051D000C184FEF762FA10BD70B5846B2068406927
:1051E00094F83910C0F3C0100025212904D118B15A
:1051F000E584204600F062F82068406994F83A108F
:10520000C0F38010222904D118B1E585204600F0B2
:1052100047F8E06B40F01000E0632046FEF73DFAEF
:1052200070BD10B50146806B09680968C90513D4C3
:105230000021C1850168CA6822F48072CA600168D1
:105240004A6922F001024A6101684A6922F040027B
:105250004A61202180F83A10FEF7B0FC10BD10B56D
:10526000806BFEF7ACFC10BD10B50146806B096881
:105270000968C9050CD40021C18401684A6922F07B
:1052800080024A610068C16841F04001C16010BD00
:10529000FEF734FD10BD10B5806BFEF730FD10BD7C
:1052A0000168CA6822F49072CA6001684A6922F0F3
:1052B00001024A61202180F83A1070470168CA68EB
:1052C00022F0C002CA60202180F83910704710B562
:1052D00090F83A10222901D0022010BD8168B1F562
:1052E000805F11D00169002901681FD0496801F071
:1052F0007F03816A4A1C82620B70C18D491E0904BA
:10530000090CC18518D02BE00269816A002A026865
:10531000526805D0D2B20A80816A491C8162ECE7EA
:10532000C2F308020A80816A891CF7E74A68816A29
:105330004B1C83620A70E0E70168CA6822F0200211
:10534000CA600168CA6822F48072CA6001684A694A
:1053500022F001024A61202180F83A10FEF72EFC6B
:10536000002010BD2DE9F041044600680169E268A3
:1053700021F4405111430161A1682069E2690143B0
:105380006069104301432068C26849F20C639A4384
:105390000A43C26020684169A26921F44071114347
:1053A0004161E069192764253226B0F5004F354A7E
:1053B000354920684FF0000806D0884201D090425D
:1053C00036D1FDF7E9FA35E0884201D0904202D1AA
:1053D000FDF7E2FA01E0FDF7CFFA61684A18A0FB99
:1053E000070148EB0803FAF75FFF0146B0FBF5F051
:1053F0000201B1FBF5F06FF01803584301EB800098
:1054000006EBC000B0FBF5F000F0F80002EB400244
:10541000B1FBF5F0584301EB800006EBC000B0FB98
:10542000F5F000F00700216810448860BDE8F081C5
:10543000FDF7A2FA01466068830F8200A1FB070115
:10544000FAF732FF0146B0FBF5F06FF01802504357
:1054500001EB800006EB0010B0FBF5F000F0F0026D
:10546000B1FBF5F002EB0012B1FBF5F06FF01803A1
:10547000584301EB800006EB0010B0FBF5F000F0A4
:105480000F00D0E7001401400010014090F83910DF
:10549000212901D0022070478168B1F5805F016A3F
:1054A0000BD04A1C0262026809785160C18C491E07
:1054B0000904090CC1840ED017E009880268C1F301
:1054C0000801516001690029016A02D0491C01628A
:1054D000ECE7891CFBE70168CA6822F08002CA6019
:1054E0000068C16841F04001C160002070472DE9AB
:1054F000F0411E46174688460446069D1CE0681C7F
:105500001AD025B1FCF7CAFD801BA84214D9206827
:10551000C16821F4D071C1602068416921F00101A6
:105520004161202084F8390084F83A00002084F892
:1055300038000320BDE8F0812068016838EA0100E6
:1055400004D00020B842DAD00020F3E70120F9E7C8
:1055500010B5044803F02AFABDE810400148FEF7F0
:105560009DB80000380F002038B51D48006801685C
:10557000C943C9062ED40168406800901848FEF758
:1055800060F81848006840681749C0F16400087066
:105590001648174C02785A2A1AD142785A2A17D13B
:1055A000C2780978521D8A4212D1217881B9808847
:1055B000DFED100A40BA00EE100A0F486421B8EE81
:1055C000400A80EE201A80ED001A0848FAF7B6FE6D
:1055D00001202070BDE838400148FEF75FB80000A8
:1055E000780F0020981000201500002024090020CA
:1055F000170000200000C842480000200D4808B5F0
:1056000000680168C943C9060FD40168406800906A
:105610000848FEF716F80848006840680749C0F1D6
:1056200064000870064901200870BDE80840014880
:10563000FEF734B8F80F00205811002014000020A5
:1056400016000020FEE700000FB4054B10B503A9BB
:10565000044A029800F0ACFE10BC5DF814FB000098
:10566000F16C00081C01002003B40198410000986F
:1056700050EAC12018BF04204A0D18BF40F00100B5
:1056800040F2FF72B2EB515F08BF40F00200012808
:1056900008BF052002B070470907090E002804DB87
:1056A00000F1E02080F80014704700F00F0000F1D6
:1056B000E02080F8141D704770B5C1482DED020B35
:1056C0002DED0E8B82B0119D25F000449FEDBEDBC9
:1056D0009FEDBFEB84423EDBA4F140511098A1F155
:1056E0007F6108430FD0BC48844202DC28D1109867
:1056F00030B39DED100B02B0BDEC0E8B02B0BDE8D7
:10570000704000F046BD9DED100B53EC1D2B51EC8D
:10571000100BFAF7C5FE9DED100B41EC180B53EC86
:105720001E2B51EC100BFAF7BBFE53EC182BFAF7BB
:1057300010FE41EC100B02B0BDEC0E8B02B070BD40
:10574000012000F06DFD02B0BDEC0E8B02B0BDE893
:10575000704000F035BDA1489FEDA18B844256DA20
:105760009DED100BB4F1795F0ADA51EC100BFFF7E5
:105770007BFF042808BF00F033FD9DED100BDAE736
:1057800053EC102B51EC100BFAF78AFE41EC190B7D
:1057900095480621B0EE490AF0EE690A784400F017
:1057A0007CFC53EC192B51EC100BFAF779FE41EC11
:1057B0001A0B8E48B0EE490AF0EE690A04217844CB
:1057C00000F06BFC53EC192B51EC100BFAF768FE50
:1057D00053EC182BFAF7BDFD41EC100B51EC1A0BF2
:1057E00053EC102BFAF7CEFECDE900019DED000B36
:1057F00053EC102B9DED100B51EC100BFAF750FEF3
:105800009DED101B53EC112BFAF7A3FDD2E09DED9B
:10581000100B51EC100B01F05FFA53EC182BFAF758
:105820003CFE9FED730BCDE9000153EC102B9DED79
:10583000000B51EC100BFAF733FE41EC190B6E48DC
:105840000621B0EE490AF0EE690A784400F025FC22
:1058500053EC192B51EC100BFAF722FE41EC1B0B09
:105860006648B0EE490AF0EE690A0421784400F077
:1058700014FC53EC192B51EC100BFAF711FE53ECFE
:10588000182BFAF766FD41EC1C0B51EC190B03F0D9
:1058900056F841EC180B5A489FED5BABA04222DC56
:1058A00053EC1C2B51EC1B0BFAF76CFECDE90001FD
:1058B0009DED000B51EC180B53EC102BFAF7F0FD9B
:1058C00053EC182BFAF745FD53EC1A2BFAF7E8FDC9
:1058D00053EC1D2BFAF7DEFD53EC1E2BFAF7DDFD22
:1058E00041EC100B5FE08DED008B002000909DEDF2
:1058F000000B51EC180B53EC102BFAF72AFD9DED21
:10590000000B41EC1E0B53EC102B51EC100BFAF773
:10591000C7FD53EC192BFAF7C0FD53EC1E2BFAF719
:1059200031FE41EC190B53EC1C2B51EC1B0BFAF71D
:1059300029FE41EC1B0B53EC1A2B51EC190BFAF717
:10594000AFFD53EC1D2BFAF7A8FD41EC190B53ECFE
:105950001A2B51EC180BFAF7A3FD53EC1B2BFAF79B
:105960009FFD53EC192BFAF795FD9DED000B41ECD3
:10597000180B53EC1A2B51EC100BFAF791FD9FED1D
:10598000249B53EC192BFAF788FD41EC100B51ECDA
:10599000180B53EC102BFAF77DFD53EC192BFAF78B
:1059A0007CFD41EC100B002D3FF7C5AE51EC100B08
:1059B00081F0004141EC100BBDE60000000000004A
:1059C0000000F03F00000000075C143326A6913C65
:1059D000182D4454FB21F93F0000F07F0000E03F08
:1059E000000000000000F03FF0380000FE3800002A
:1059F000000000000000E03F423800005038000086
:105A00003333EF3F000000000000000000000040C2
:105A1000182D4454FB21E93F70B59B482DED020B36
:105A20002DED068B079D25F00044A04218DC974819
:105A3000844202DC0AD1069840B19DED060BBDEC14
:105A4000068B02B0BDE8704000F0A3BB002DCCBFB8
:105A50009FED8F0B9FED900BBDEC068B02B070BDE0
:105A60008F48A04215DD8F48A042D8BF4FF0FF34C9
:105A700058DD9DED060B51EC100BFFF7F5FD0428EA
:105A800008BF00F0ADFB9DED060BBDEC068B02B030
:105A900070BD9DED060B51EC100B01F01DF9CDE929
:105AA000060181489FED828BA0423CDD8248A042E6
:105AB0001FDD00249FED82AB9DED060B53EC1A2BEE
:105AC00051EC100BFAF745FC9DED060B41EC190B60
:105AD00053EC1A2B51EC100BFAF7E2FC53EC182B99
